:020000040800F2
:10000000600B002029020008993F000823390008EE
:10001000953F000837040008714D000800000000FB
:100020000000000000000000000000001542000871
:10003000EB090008000000006540000817420008B6
:10004000430200084302000843020008430200087C
:10005000430200084302000843020008430200086C
:10006000430200084302000843020008430200085C
:10007000C1080008430200084302000843020008C8
:10008000430200084302000843020008430200083C
:100090003D04000843020008430200084302000830
:1000A000430200084302000843020008430200081C
:1000B000E9420008414300084302000843020008E7
:1000C00043020008430200084302000843020008FC
:1000D00043020008494D0008430200085D4D000836
:1000E00043020008430200084302000843020008DC
:1000F00043020008430200084302000843020008CC
:1001000043020008430200084302000843020008BB
:1001100043020008430200084302000843020008AB
:100120004302000843020008D10800084302000807
:10013000430200084302000843020008430200088B
:10014000430200084302000843020008430200087B
:10015000430200084302000843020008430200086B
:10016000430200084302000843020008430200085B
:100170004302000843020008430200080000000098
:10018000430200084302000800F002F800F03CF8C7
:100190000AA090E8000C82448344AAF10107DA45E2
:1001A00001D100F031F8AFF2090EBAE80F0013F0F8
:1001B000010F18BFFB1A43F001031847F469000050
:1001C000146A0000103A24BF78C878C1FAD85207E0
:1001D00024BF30C830C144BF04680C6070470000C1
:1001E0000023002400250026103A28BF78C1FBD840
:1001F000520728BF30C148BF0B6070471FB506F0DB
:100200002AFC1FBD10B510BD00F0E2F81146FFF743
:10021000F5FF05F0DDFD00F000F903B4FFF7F2FF94
:1002200003BC00F001F90000094880470948004775
:10023000FEE7FEE7FEE7FEE7FEE7FEE7FEE7FEE796
:10024000FEE7FEE704480549054A064B70470000F3
:10025000D54200088901000860050020600B0020DD
:10026000600700206007002053EA020C00F069805C
:100270002DE9F04B4FF00006002B1FBFB3FA83F5BA
:1002800003FA05F424FA05F65E4012BF1643B2FAEB
:1002900082F502FA05F4C5F120051EBF22FA05FC1D
:1002A00044EA0C04203556EA044C4FEA144418BFC3
:1002B000641C4FF000084FF00009904271EB030CF2
:1002C00039D3002919BFB1FA81F701FA07F6B0FA5C
:1002D00080F700FA07F6C7F120071EBF20FA07FCD7
:1002E00046EA0C062037B6FBF4FCA7EB0507103FE7
:1002F00007F01F0BCBF120060CFA0BFB2CFA06F6CD
:1003000044BFB3460026202FA4BF5E464FF0000B2B
:100310005BEA060C08BF4FF0010B19EB0B09ABFBB6
:10032000027C48EB0608C01B06FB02CC0BFB03CC8F
:1003300071EB0C01C1E70B46024641464846BDE859
:10034000F08B13B54FF000004FF00001AFF30080C9
:10035000BDE81C4070474FF0000200B513469446BC
:100360009646203922BFA0E80C50A0E80C50B1F10D
:100370002001BFF4F7AF090728BFA0E80C5048BF21
:100380000CC05DF804EB890028BF40F8042B08BFBF
:10039000704748BF20F8022B11F0804F18BF00F8BB
:1003A000012B704770477047704710B500F008F890
:1003B000006810BD10B5044600F002F8046010BDDE
:1003C00000487047000500200048704700050020E5
:1003D0007546FFF7F9FFAE4605006946534620F023
:1003E0000700854618B020B5FFF72CFFBDE8204078
:1003F0004FF000064FF000074FF000084FF0000BE1
:1004000021F00701AC46ACE8C009ACE8C009ACE893
:10041000C009ACE8C0098D4670470446AFF30080C0
:100420002046FFF7FAFE000001491820ABBEFEE7A8
:1004300026000200704700BFFEE7000010B502482A
:1004400000F0B2FE10BD00001C01002030B50246D5
:100450000B464FF6FF70002112E0555C6840002407
:100460000AE000F0010525B14AF2010585EA6000C5
:1004700000E04010651CECB2082CF2DB4D1CE9B228
:100480009942EADB30BD000000B58BB00020079038
:100490000120089080030190002002904FF4FC405E
:1004A0000390002004900590012009900020069000
:1004B0000E200A9001A9024800F026FD0BB000BDF5
:1004C0001C01002010B5FFF7DFFF044801F0EDF933
:1004D0000221024800F058FC10BD00001C01002061
:1004E0002DE9F04107460C4615461E464FF40070B4
:1004F0000F490860002048608860C86008200861D3
:1005000000200875380A0B4908704F70200A88705F
:10051000CC70280A08714D71300A8871CE71064B73
:100520000A460349054800F044FCBDE8F08100009C
:10053000F003002020000020380000201C010020D3
:1005400070B504460D4640F2FF10184908600020BF
:1005500048608860C8600820086100200875A5F21E
:10056000052030B1012809D002280CD0032814D16D
:100570000EE0200A0E4908704C700EE0200A0C496B
:100580008870CC7009E0200A094908714C7104E0B8
:10059000200A07498871CC7100BF00BF054B044A8F
:1005A0000249054800F005FC70BD0000F003002082
:1005B00028000020380000201C0100200EB5B7489C
:1005C0000078B649497840EA0120C0F30A00ADF846
:1005D0000000B2484078C010B049897840EA411024
:1005E000C0F30A00ADF80200AC4880788011AB4936
:1005F000C97840EA8100A949097940EA8120C0F31D
:100600000A00ADF80400A54800794010A3494979D3
:1006100040EAC110C0F30A00ADF806009F48007C14
:100620009E49497C40EA0120C0F30A00ADF8080069
:10063000BDF80400A0F5806000B299490880BDF8BB
:100640000600A0F5806000B24880BDF80000A0F56B
:10065000806000B28880BDF80200A0F5806000B222
:10066000C880BDF80800A0F5806000B208818B4802
:10067000407900118008887288484079C0F30110E1
:10068000C8728648807B8549C97B40EA012085493C
:1006900008800846007800F001004880084600788D
:1006A000C0F34000888008460078C0F38000C8800E
:1006B00008460078C0F3C000088108460078C0F3FF
:1006C0000010488108460078C0F340108881084631
:1006D0000078C0F38010C88108460078C0F3C010CD
:1006E000088208460088C0F3002048820846008837
:1006F000C0F34020888208460088C0F38020C8826A
:1007000008460088C0F3C020088308460088C0F36C
:100710000030488308460088C0F34030888308468C
:100720000088C0F38030C88308460088C00B088466
:100730005A4880795949C97940EA012000EB4000C4
:1007400000B2594908805548007A5449497A40EA2C
:100750000120404200EB400000B2534948804F481E
:10076000807A4E49C97A40EA012000B24E49888019
:100770004A48007B88714948407BC8714948408994
:1007800000284BD14948D0ED000A0846B0F90000D6
:1007900000EE100AB8EEC00A30EE800A434880ED41
:1007A000000A90ED000ADFED420AB4EEE00AF1EE35
:1007B00010FA04DD9FED3F0A80ED000A0DE03B4892
:1007C00090ED000ADFED3B0AB4EEE00AF1EE10FA1C
:1007D00003D29FED370A80ED000A344890ED010AFC
:1007E000DFED350AB4EEE00AF1EE10FA17D290ED23
:1007F000010ADFED320AB4EEE00AF1EE10FA0EDD86
:10080000D0ED010A2848B0F9020000EE100AB8EE57
:10081000C00A30EE800A254880ED010A3CE02348FA
:1008200090ED010ADFED240AB4EEE00AF1EE10FAD1
:1008300014DB1D48B0F9020000282DDA1B48D0ED6A
:10084000010A1948B0F9020000EE100AB8EEC00A19
:1008500030EE800A154880ED010A1DE0134890ED46
:10086000010ADFED160AB4EEE00AF1EE10FA13D831
:100870000D48B0F9020000280EDD0C48D0ED010A49
:100880000948B0F9020000EE100AB8EEC00A30EED6
:10089000800A064880ED010A0EBD00002E040020EB
:1008A00068040020800400207A00002074040020E6
:1008B00000F07F4500F07FC50000A5430000E1C3C4
:1008C00010B5024801F092F810BD0000900300201E
:1008D00010B5024801F08AF810BD00003003002076
:1008E0000146087810381823B0FBF3F20848805C02
:1008F000C865032A05D908686FF30900001D8865DB
:1009000003E008686FF309008865886D7047000090
:100910006A6A0008014600208A6A8B69CBB932B145
:10092000012A0DD0022A03D0032A10D10EE000BF05
:10093000CB6A03F08073B3F1807F00D1012007E020
:10094000CB6AB3F1C07F00D1012001E000E000BF1D
:1009500034E08B69B3F5005F1AD132B1012A07D0B8
:10096000022A03D0032A11D10AE000BF01200EE0C1
:10097000CB6A03F08073B3F1807F00D1012006E0E1
:10098000CB6AB3F1C07F00D1012000E000BF15E0C9
:1009900032B1012A05D0022A04D0032A0CD103E087
:1009A00000BF00BF012008E0CB6A03F08073B3F101
:1009B000807F00D1012000E000BF00BF704730B54C
:1009C0000468246824F4802405682C60046863604B
:1009D0008468402C04D10468A2600468E16003E0EC
:1009E0000468A1600468E26030BD704772B600BF61
:1009F000FEE7000010B52DED0C8B8B48B0F9000020
:100A000000EE100AB8EEC00ADFED880A80EE201A68
:100A1000874880ED001A874890ED020A8448D0ED9F
:100A2000000A30EE600ADFED840A20EE200A8348D7
:100A300080ED000A8248408880B18249B1F9000007
:100A4000642105F0ADFA7F4908800846008800EB74
:100A50008000400000B27C4908801FE07848808810
:100A600088B17849B1F90000642105F099FA754917
:100A7000088008460088404200EB8000400000B239
:100A8000714908800AE014216F48B0F9000005F0B0
:100A90008CFA6D49088000206A4908806848C0883F
:100AA00088B16849B1F90200642105F079FA654915
:100AB000488008464088404200EB4000400000B2B9
:100AC000624908801EE05E48008980B15D49B1F945
:100AD0000200642105F064FA5A49488008464088BB
:100AE00000EB4000400000B2584908800AE00A21AB
:100AF0005648B0F9000005F058FA54490880002023
:100B0000504948804D48006805F034FF41EC1D0B0A
:100B1000B0EE4D0AF0EE6D0A04F062F9B0EE40BAA4
:100B2000F0EE60BA4948B0F9000005F004FD41EC70
:100B30001C0B53EC1B2B05F029FD41EC190B3F4816
:100B4000006805F017FF41EC1D0BB0EE4D0AF0EE0A
:100B50006D0A04F0A9F9B0EE40BAF0EE60BA3A4876
:100B6000B0F90000404205F0E6FC41EC1C0B53ECF0
:100B70001B2B05F00BFD41EC1A0B53EC192B05F068
:100B80000FFE41EC180B05F0A7FC00B230490880BD
:100B90002A48006805F0EEFE41EC1D0BB0EE4D0A50
:100BA000F0EE6D0A04F080F9B0EE40BAF0EE60BAF3
:100BB0002648B0F9000005F0BEFC41EC1C0B53ECDC
:100BC0001B2B05F0E3FC41EC190B1C48006805F0F9
:100BD000D1FE41EC1D0BB0EE4D0AF0EE6D0A04F0B3
:100BE000FFF8B0EE40BAF0EE60BA1748B0F9000076
:100BF00005F0A1FC41EC1C0B53EC1B2B05F0C6FCD3
:100C000041EC1A0B53EC192B05F0CAFD41EC180B03
:100C100005F062FC00B20F4908804FF47A700E496B
:100C20000880BDEC0C8B10BD100000203D0AB641C1
:100C3000A0000020B004002039FA8E3CA40000205F
:100C40008004002094000020A8000020AA000020BA
:100C50009C0000209A0000209E00002010B52DED81
:100C6000068B40480078552878D13E4989783D4A1E
:100C7000D27841EA022108B205F05DFC41EC1A0B82
:100C80009FED390B53EC102B05F0CEFA41EC190B0C
:100C90009FED370B53EC102B05F078FC41EC180B53
:100CA00005F0E8F9344908602E4909792D4A52794E
:100CB00041EA022108B205F03EFC41EC1A0B9FED1F
:100CC0002A0B53EC102B05F0AFFA41EC190B9FEDFA
:100CD000280B53EC102B05F059FC41EC180B05F0D8
:100CE000C9F9254948601F4989791E4AD27941EAE4
:100CF000022108B205F01FFC41EC1A0B9FED1A0B04
:100D000053EC102B05F090FA41EC190B9FED180BEA
:100D100053EC102B05F03AFC41EC180B05F0AAF946
:100D200015498860084690ED010ADFED140A20EEAF
:100D3000200ABDEEC00A10EE100A00B21049088069
:100D40000D4890ED020ADFED0D0A20EE200ABDEEFF
:100D5000C00A10EE100A00B20A490880BDEC068BEA
:100D600010BD000052040020000000000000E04020
:100D70000000000000806640B00400203D0AB6413B
:100D80008A0000208800002010B5024692F820302A
:100D9000012B01D0022B06D110684069084314686A
:100DA0006061002010BD506A40F480205062012034
:100DB000F8E7F0B504460D461E4694F8207020680A
:100DC0008368A86800B900E000BF012F01D0022F9E
:100DD0007CD103F0806030B903F0006018B903F0F3
:100DE0008050002873D0C3F30161022905D9606ADD
:100DF00040F4000060620120F0BD012088403060B6
:100E0000A86860B9B5F800C0E86840EA4C5C2068A2
:100E100000F5C07000EB0110C0F800C00FE0D5E98C
:100E200001C040EACC00D5F80CC040EA0C00D4F870
:100E300000C00CF5C07C0CEB011CCCF80000D5F810
:100E400010C0206800F5C07000EB0110C0F804C0AD
:100E5000287D01280ED1206800F5C07000EB01103C
:100E6000406840F4807C206800F5C07000EB011001
:100E7000C0F804C0D079000692F806C040EA0C40E1
:100E800092F805C040EA0C2C10794CEA000C20685E
:100E900000F5C07000EB0110C0F80CC0D07800065F
:100EA00092F802C040EA0C4092F801C040EA0C20DF
:100EB00092F800C040EA0C00D4F800C00CF5C07CE9
:100EC0000CEB011CCCF80800206801E016E00FE0F4
:100ED00000F5C07000EB0110006840F0010C2068C4
:100EE00000F5C07000EB0110C0F800C0002083E7DF
:100EF000606A40F40010606201207DE7606A40F49F
:100F000080206062012077E7F0B504460A46216838
:100F100094F82050012D01D0022D7ED1424901F5D7
:100F20000071086840F001000860086820F47C50F7
:100F300008600868566A40EA06200860107D00F0E4
:100F40001F06012000FA06F3C8699843C861A1F59D
:100F50000071D069C8B9D1F80C029843C1F80C02ED
:100F6000908880B2968940EA064601F5107057696C
:100F700040F83760108880B2168940EA064601F5CD
:100F80001070576900EBC7004660D069012819D17D
:100F9000D1F80C021843C1F80C02908880B2168870
:100FA00040EA064601F51070576940F837609089AD
:100FB00080B2168940EA064601F51070576900EBC9
:100FC000C7004660906928B9D1F804029843C1F877
:100FD000040204E0D1F804021843C1F804021069C5
:100FE00028B9D1F814029843C1F8140204E0D1F8EA
:100FF00014021843C1F81402106A012804D1D1F870
:101000001C021843C1F81C02D1F8000220F00100B4
:10101000C1F800020020F0BDFFE7606A40F48020C4
:1010200060620120F7E7000000640040704770B57F
:10103000044694F82050012D01D0022D7DD151B9E4
:101040002068C06800F0030080B9606A40F40010B6
:101050006062012070BD2068006900F0030028B9BB
:10106000606A40F4001060620120F3E7206800F538
:10107000D87000EB0110006800F0040090609068E8
:1010800040B9206800F5D87000EB01100068400DF1
:10109000106007E0206800F5D87000EB01100068D0
:1010A000C0085060206800F5D87000EB011000689F
:1010B00000F00200D060206800F5D87000EB01104D
:1010C000406800F00F001061206800F5D87000EB58
:1010D0000110406800F47F40000A9061206800F52C
:1010E000D87000EB01104068000C5061206800F5DA
:1010F000D87000EB011080681870206800F5D87077
:1011000000EB0110806800F47F40000A58702068EE
:1011100000F5D87000EB0110806800F47F00000C2F
:101120009870206800F5D87000EB01108068000E00
:10113000D870206800F5D87000E02FE000EB0110B7
:10114000C0681871206800F5D87000EB0110C06805
:1011500000F47F40000A5871206800F5D87000EB59
:101160000110C06800F47F00000C9871206800F541
:10117000D87000EB0110C068000ED87131B920683A
:10118000C06840F020002668F06005E02068006933
:1011900040F020002668306100205BE7606A40F480
:1011A00080206062012055E72DE9F05F04460025AC
:1011B000206846692068D0F8049020688768206815
:1011C000D0F80CA02068D0F810B02068D0F81880B3
:1011D00006F00100002855D007F00100C0B1012041
:1011E0002168886007F0020018B1204600F08DFBEE
:1011F0000EE007F0040010B145F4006508E007F0C8
:10120000080010B145F4805502E0204600F07CFB58
:1012100007F48070C8B14FF480702168886007F4CB
:10122000007018B1204600F072FB0EE007F48060F9
:1012300010B145F4005508E007F4006010B145F422
:10124000804502E0204600F061FB07F48030C8B121
:101250004FF480302168886007F4003018B12046D0
:1012600000F057FB0EE007F4802010B145F4004574
:1012700008E007F4002010B145F4803502E0204674
:1012800000F046FB06F0080038B10AF0100020B16B
:1012900045F4007510202168C86006F0040040B1D4
:1012A0000AF0080028B108202168C860204600F034
:1012B000A9F906F0020038B12068C06800F0030008
:1012C00010B1204600F0A0F906F0400038B10BF054
:1012D000100020B145F4806510202168086106F0F7
:1012E000200040B10BF0080028B1082021680861F7
:1012F000204600F0D7FA06F0100038B120680069E7
:1013000000F0030010B1204600F0CDFA06F40030E2
:1013100040B109F0100028B1102021684860204633
:1013200000F0C2FA06F4803040B109F0080028B19C
:10133000082021684860204600F0ECFA06F40040DE
:1013400088B309F0040078B306F4807020B108F087
:10135000010008B145F0010506F4007020B108F065
:10136000020008B145F0020506F4806020B108F0E3
:10137000040008B145F0040506F40060A0B108F0CF
:10138000700088B108F07000402817D006DC1028E3
:101390000BD020280CD0302819D10CE0502810D0C8
:1013A000602814D110E01DE019E045F008050FE0B9
:1013B00045F010050CE045F0200509E045F040053A
:1013C00006E045F0800503E045F4807500E000BFCD
:1013D00000BF2068806920F07000216888610420C7
:1013E000216848602DB1606A284360622046FFF79B
:1013F0001DFEBDE8F09F70B504460CB9012070BD1C
:1014000094F8200010B9204600F0B0F82068006879
:1014100040F001002168086000F0D4FD05460DE0B1
:1014200000F0D0FD401B0A2808D9606A40F4003063
:101430006062052084F820000120E0E72068406811
:1014400000F001000028EBD02068006820F00200C6
:101450002168086000F0B6FD05460DE000F0B2FD21
:10146000401B0A2808D9606A40F4003060620520F9
:1014700084F820000120C2E72068406800F00200E4
:101480000028EBD1207E012806D12068006840F0BA
:1014900080002168086005E02068006820F0800076
:1014A00021680860607E012806D12068006840F04D
:1014B00040002168086005E02068006820F04000D6
:1014C00021680860A07E012806D12068006840F0ED
:1014D00020002168086005E02068006820F02000F6
:1014E00021680860E07E012806D12068006820F0AD
:1014F00010002168086005E02068006840F01000D6
:1015000021680860207F012806D12068006840F02B
:1015100008002168086005E02068006820F00800E5
:1015200021680860607F012806D12068006840F0CB
:1015300004002168086005E02068006820F00400CD
:1015400021680860D4E90201084321690843616900
:1015500008436168491E08432168C8610020606231
:10156000012084F82000002049E7000010B586B073
:101570000446142101A8FEF7EEFE1F4920688842A8
:1015800037D100BF002000901C48006840F0007078
:101590001A4908600846006800F00070009000BF1B
:1015A00000BF00BF0020009014481038006840F0D1
:1015B00008001249103908600846006800F0080069
:1015C000009000BF00BF0320019002200290002085
:1015D0000390032004900920059001A9084800F019
:1015E000F9FB00220121142000F076FD142000F008
:1015F00063FD06B010BD00000064004040380240AA
:10160000000C02407047000010B504469248844226
:101610007ED1924B924A0021FFF709FD9048006865
:10162000A0F2012007280ED2DFE800F0040E1822F5
:101630002C75EB008948C0788849897840EA0120F8
:1016400000B288494880F8E08448C07883498978A6
:1016500040EA012000B284494880EEE07F48C0782B
:101660007E49897840EA012000B280494880E4E060
:101670007A48C0787949897840EA012000B27C49EB
:101680004880DAE0754840787449097840EA0120DA
:1016900000B2784908807148C0787049897840EA7A
:1016A000012000B2734948806C4840796B49097940
:1016B00040EA012000B26F4988800846408800EB6C
:1016C0004000400000B26C4908806A480088A0F5DC
:1016D000D050BD3800B2694908800846B0F9000012
:1016E000B0F5805F06DB08460088A0F5F850FF38AB
:1016F00000B208806148B0F9000010F5805F09DC95
:101700005E48008841F6FF71084400B25B4900E082
:10171000A1E0088091E0514840785049097840EABA
:10172000012000B2564908804C48C0784B4989785E
:1017300040EA012000B25249C880524804F07EFAC3
:10174000514908805148D0ED000A0846B0F9000020
:1017500000EE100AB8EEC00A20EE800A4B48D0ED29
:10176000000AB7EE001A31EE601A4948B0F90000DD
:1017700000EE900AF8EEE00A01EE200ABDEEC00A83
:1017800010EE100A00B23E49088108460089C821BF
:1017900010FB01F000EE100AB8EEC00ADFED3D0AC2
:1017A00080EE201ABDEEC10A10EE100A00B23A49CE
:1017B0000880334800893649088031480088A0F500
:1017C000B050A83800B2354908800846B0F900008A
:1017D000B0F5805F06DB08460088A0F5F850FF38BA
:1017E00000B208802D48B0F9000010F5805F07DCDA
:1017F0002A48008841F6FF71084400B22749088052
:101800001BE0164840781549097840EA012000B2EB
:10181000234908801148C0781049897840EA01209E
:1018200000B21F4948800D4840790C49097940EAC7
:10183000012000B21A49888000BF00BF022106487B
:10184000FFF7A2FA38B104480068406940F002008E
:1018500001490968486110BD1C01002030000020CA
:10186000080400203C000020440000204C00002020
:10187000540000205C000020140000201000002014
:1018800024040020720000201A0000201C00002008
:10189000180000203D0AB64116000020120000206A
:1018A0006400002070477047704770B5044694F894
:1018B0002000012822D1022084F82000206800683E
:1018C00020F001002168086000F07CFB05460DE077
:1018D00000F078FB401B0A2808D9606A40F4003009
:1018E0006062052084F82000012070BD20684068F7
:1018F00000F001000028EBD16062F6E7606A40F476
:10190000002060620120F0E7704770477047704721
:1019100070477047704770B50446A56D00F052FBE4
:10192000064694F83500022808D08020606500BF84
:10193000002084F8340000BF012070BD20680068DA
:1019400020F01600216808602068406920F08000BF
:1019500021684861206C08B9A06C28B12068006833
:1019600020F00800216808602068006820F001006D
:101970002168086010E000F025FB801B05280BD9CA
:1019800020206065032084F8350000BF002084F823
:10199000340000BF0320D0E72068006800F0010099
:1019A0000028E8D194F85C103F208840A86001200E
:1019B00084F8350000BF002084F8340000BF00BF69
:1019C000BBE7014691F83500022803D08020486526
:1019D00001207047052081F835000868006820F074
:1019E00001000A6810600020F3E70000F8B5044623
:1019F000002000908C4800684FF41651B0FBF1F7BE
:101A0000A56D2E6894F85C1008208840304098B18D
:101A10002068006800F0040070B12068006820F0C1
:101A200004002168086094F85C1008208840A860D1
:101A3000606D40F00100606594F85C100120884002
:101A4000304068B12068406900F0800040B194F8EF
:101A50005C1001208840A860606D40F00200606565
:101A600094F85C1004208840304068B12068006819
:101A700000F0020040B194F85C1004208840A86097
:101A8000606D40F00400606594F85C1010208840A0
:101A9000304078B32068006800F0080050B394F834
:101AA0005C1010208840A8602068006800F4802046
:101AB00080B12068006800F4002028B9206CC8B10B
:101AC0002046216C884715E0A06C98B12046A16C97
:101AD00088470FE02068006800F4807028B920680B
:101AE000006820F0080021680860206C10B12046D2
:101AF000216C884794F85C102020884030400028F2
:101B000065D02068006800F0100000285FD094F8CD
:101B10005C1020208840A86094F83500052828D162
:101B20002068006820F0160021680860206840697D
:101B300020F0800021684861206C08B9A06C28B1B1
:101B40002068006820F008002168086094F85C10A4
:101B50003F208840A860012084F8350000BF0020A5
:101B600084F8340000BF206D10B12046216D8847F5
:101B7000F8BD2068006800F4802080B1206800680B
:101B800000F4002028B9606C10B12046616C8847D1
:101B90001DE0E06BD8B12046E16B884717E0206874
:101BA000006800F4807068B92068006820F01000B8
:101BB00021680860012084F8350000BF002084F807
:101BC000340000BFE06B10B12046E16B8847606DC8
:101BD00038B3606D00F00100F0B1052084F83500E5
:101BE0002068006820F001002168086000BF0098AC
:101BF000401C0090B84200D905E02068006800F061
:101C000001000028F3D100BF012084F8350000BF97
:101C1000002084F8340000BFE06C10B12046E16C75
:101C2000884700BFA4E700000C0000202DE9F04128
:101C30000446002500F0C6F9074614B90120BDE8A6
:101C4000F081606A00B100BF022084F8350000BF57
:101C5000002084F8340000BF2068006820F00100F4
:101C6000216808600AE000F0ADF9C01B052805D91D
:101C700020206065032084F83500E0E720680068D4
:101C800000F001000028EED12068056821480540D9
:101C9000D4E901010843E168084321690843616907
:101CA0000843A1690843E1690843216A08430543E1
:101CB000606A042803D1D4E90B0108430543206876
:101CC00005602068456925F00705606A0543606A7C
:101CD00004280DD1A06A0543E06A48B12046FEF70A
:101CE00019FE28B140206065012084F83500A6E780
:101CF000206845612046FEF7F3FD064694F85C1027
:101D00003F208840B06000206065012084F83500E5
:101D1000002094E73F8010F02DE9F04704460D467F
:101D200016461F464FF00008D4F8589000BF94F8AC
:101D30003400012802D10220BDE8F087012084F898
:101D4000340000BF94F83500012825D1022084F822
:101D50003500002060653B46324629462046FEF7A6
:101D60002EFE94F85C103F208840C9F808002068D7
:101D7000006840F0160021680860206C28B12068D7
:101D8000006840F00800216808602068006840F0A2
:101D900001002168086006E000BF002084F83400DC
:101DA00000BF4FF002084046C6E7000070B5044689
:101DB00000F008F906462546681C10B10448007872
:101DC000054400BF00F0FEF8801BA842FAD370BDA6
:101DD00008000020F8B502460B460025002400202C
:101DE0000021D5E0012606FA01F51E6806EA050481
:101DF000AC4274D11E7906F00306012E04D01E7980
:101E000006F00306022E13D190684F000326BE4051
:101E1000B0434F00DE68BE403043906050680126FA
:101E20008E40B0431E79C6F300168E40304350609A
:101E30001E7906F00306032E09D0D0684F00032652
:101E4000BE40B0434F009E68BE403043D0601E7914
:101E500006F00306022E13D1CF0802F1200656F831
:101E600027004E07F70E0F26BE40B0434F07FF0E68
:101E70001E69BE403043CF0802F1200646F8270015
:101E800010684F000326BE40B0431E7906F00306DB
:101E90004F00BE40304310605E6806F44036002EAE
:101EA00075D000BF002600963B4E366846F480464B
:101EB000394F3E603E46366806F48046009600BFC5
:101EC00000BF364E8F0856F827008E07370F0F26B3
:101ED000BE40B043324EB24202D1002624E056E06A
:101EE000304EB24201D101261EE02F4EB24201D146
:101EF000022619E02D4EB24201D1032614E02C4EE9
:101F0000B24201D104260FE02A4EB24201D1052689
:101F10000AE0294EB24201D1062605E0274EB24220
:101F200001D1072600E008268F073F0FBE4030434F
:101F30001A4E8F0846F82700214E3068A0435E688D
:101F400006F4803606B120431D4E3060361D3068E1
:101F5000A0435E6806F4003606B12043184E361DD5
:101F60003060361D3068A0435E6806F4801606B106
:101F70002043134E08363060361D3068A0435E683B
:101F800006F4001606B120430D4E0C363060491C95
:101F90001029FFF427AFF8BD44380240083801404B
:101FA000000002400004024000080240000C024011
:101FB000001002400014024000180240001C0240C1
:101FC000003C01400148006870470000000000200C
:101FD00003480068034909780844014908607047CC
:101FE000000000200800002010B50D48006840F4F3
:101FF00000700B4908600846006840F48060086083
:102000000846006840F480700860032000F0A2F8E1
:102010000F2000F007F800F02BF8002010BD0000A2
:10202000003C024070B504460E4800784FF47A71C7
:10203000B1FBF0F00C490968B1FBF0F5284600F05F
:102040002BFC08B1012070BD102C07D200222146C4
:10205000501E00F041F80548046001E00120F2E75D
:102060000020F0E7080000200C0000200400002001
:1020700008B500BF002000900E48006840F4804082
:102080000C4908600846006800F48040009000BFDA
:1020900000BF00BF00200090081F006840F0805083
:1020A000091F08600846006800F08050009000BFDB
:1020B00000BF08BD4438024001460846002809DB3D
:1020C00000F01F0301229A4043099B0003F1E02323
:1020D000C3F8002100BF70472DE9F05F80460D4630
:1020E0001646002702F05EFE074639462A4633466A
:1020F00001F00700C0F1070ABAF1040F02D94FF04E
:10210000040A01E0C0F1070AD14600F1040ABAF15D
:10211000070F02D24FF0000A01E0A0F1030AD446F3
:102120004FF0010A0AFA09FAAAF1010A0AEA020AB8
:102130000AFA0CFA4FF0010B0BFA0CFBABF1010B96
:102140000BEA030B4AEA0B042146404602F032FE3A
:10215000BDE8F09F00BF00F00702064B19684FF67C
:10216000FF031940044B0B4343EA0221014B196062
:1021700000BF70470CED00E00000FA0570B50446A2
:102180000D460CB9012070BD5848006800F00700EA
:10219000A84209D255490D700846006800F00700B2
:1021A000A84201D00120EEE7207800F002000228CA
:1021B0001DD1207800F00400042805D14C480068A7
:1021C00040F4E0504A490860207800F008000828F0
:1021D00005D14748006840F46040454908604448DC
:1021E000006820F0F000A1680843414908602078A9
:1021F00000F00100A8B36068012807D13C48083806
:102200000068C0F34040B8B90120BCE7606802280C
:1022100002D06068032807D1354808380068C0F349
:10222000406048B90120AEE7314808380068C0F383
:10223000400008B90120A6E72D48006820F00300FF
:10224000616808432A490860FFF7BCFE064609E0BA
:10225000FFF7B8FE801B41F28831884202D9032083
:1022600091E707E02248006800F00C006168B0EBDD
:10227000810FEDD11D48006800F00700A84209D980
:102280001A490D700846006800F00700A84201D006
:10229000012078E7207800F00400042807D11448D2
:1022A000006820F4E050E168084311490860207894
:1022B00000F00800082808D10D48006820F46040AC
:1022C000216940EAC1000A49086000F03FF8084966
:1022D0000968C1F30311074A515CC8400649086008
:1022E00006480068FFF79EFE00204CE7003C0240D5
:1022F00008380240726A00080C0000200400002028
:1023000001480068704700000C00002000B5FFF78E
:10231000F7FF04490968C1F38221034A515CC840B0
:1023200000BD000008380240826A000800B5FFF7CF
:10233000E7FF04490968C1F34231034A515CC840D0
:1023400000BD000008380240826A00082DE9F0470D
:10235000002400250026A1462548006800F00C0056
:1023600020B1042805D008283AD105E0DFF8849090
:1023700039E0DFF8849036E01D48001F006800F067
:102380003F041B48001F006800F4800078B11A4821
:102390001749091F0968C1F38811A0FB01700146A4
:1023A000224600233846FDF75FFF05460EE0114840
:1023B0000F49091F0968C1F38811A0FB017001468C
:1023C000224600233846FDF74FFF05460848001F08
:1023D0000068C0F30140401C4600B5FBF6F902E07E
:1023E000DFF8109000BF00BF4846BDE8F08700004E
:1023F000083802400024F400001BB700F8B504467A
:102400000CB90120F8BD207800F00100002874D03C
:10241000F948006800F00C0004280DD0F648006868
:1024200000F00C00082813D1F348001F006800F4E6
:102430008000B0F5800F0BD1EF4808380068C0F37A
:102440004040002859D06068002856D10120D9E7C3
:1024500000BF6068B0F5803F08D1E74808380068E1
:1024600040F48030E449083908601EE06068B0F547
:10247000A02F0DD1E0480838006840F48020DE49E4
:10248000083908600846006840F4803008600CE0B5
:10249000D9480838006820F48030D74908390860E6
:1024A0000846006820F48020086000BF606890B192
:1024B000FFF788FD054606E0FFF784FD401B642812
:1024C00001D903209EE7CC4808380068C0F340409B
:1024D0000028F1D011E0FFF775FD054606E0FFF793
:1024E00071FD401B642801D903208BE7C2480838DE
:1024F0000068C0F340400028F1D1207800F00200CD
:1025000002285FD1BC48006800F00C0058B1BA48FE
:10251000006800F00C0008281CD1B748001F0068B4
:1025200000F48000B0B9B44808380068C0F3400037
:1025300020B1E068012801D0012063E7AE480838E7
:10254000006820F0F800216940EAC100AA49083972
:10255000086037E0E06800B30120A8490860FFF791
:1025600031FD054606E0FFF72DFD401B022801D98D
:10257000032047E7A04808380068C0F3400000285F
:10258000F1D09D480838006820F0F800216940EA41
:10259000C10099490839086014E000209749086093
:1025A000FFF710FD054606E0FFF70CFD401B022873
:1025B00001D9032026E7904808380068C0F340009E
:1025C0000028F1D1207800F0080008282CD160699B
:1025D000A8B101208A490860FFF7F4FC054606E02F
:1025E000FFF7F0FC401B022801D903200AE78248CC
:1025F0006C300068C0F340000028F1D014E00020E7
:102600007F490860FFF7DEFC054606E0FFF7DAFCCD
:10261000401B022801D90320F4E677486C3000689B
:10262000C0F340000028F1D1207800F00400042815
:1026300070D1002770483830006800F0805090B9A1
:1026400000BF002000906C483830006840F0805097
:102650006949383108600846006800F080500090F1
:1026600000BF00BF01276748006800F48070B0B960
:102670006448006840F4807062490860FFF7A2FC7B
:10268000054606E0FFF79EFC401B022801D9032007
:10269000B8E65C48006800F480700028F2D000BF03
:1026A000A068012808D154486830006840F0010053
:1026B0005149683108601DE0A06805280DD14E48D9
:1026C0006830006840F004004B49683108600846F3
:1026D000006840F0010008600CE04748683000687E
:1026E00020F001004449683108600846006820F085
:1026F0000400086000BFA068A8B1FFF763FC0546AE
:1027000009E0FFF75FFC401B41F28831884202D9A3
:10271000032077E626E0384868300068C0F34000C0
:102720000028EED013E0FFF74DFC054608E0FFF768
:1027300049FC401B41F28831884201D9032061E6FF
:102740002D4868300068C0F340000028EFD1012F09
:1027500007D129483830006820F0805026493831A8
:10276000086000BFA069002845D02348006800F039
:102770000C0008285DD0A069022845D100201F491F
:102780000866FFF71FFC054606E0FFF71BFC401B31
:10279000022801D9032035E6174808380068C0F33D
:1027A00040600028F1D1D4E907010843616A40EA9A
:1027B00081110122A06AC2EB500041EA00412C20A5
:1027C000005D41EA00600C49091F086001200B49C7
:1027D0000866FFF7F7FB054606E0FFF7F3FB401B33
:1027E000022801D903200DE6034808380068C0F329
:1027F00040600028F1D049E008380240000047421C
:10280000800E474200700040002021490866FFF713
:10281000D9FB054606E0FFF7D5FB401B022801D98E
:102820000320EFE51B480068C0F340600028F2D1A8
:102830002CE0A069012800D1E4E51648001D0668D7
:10284000A069012820D006F48001E06981421BD1F3
:1028500006F03F01206A814216D147F6C070304031
:10286000616AB0EB811F0FD106F440310122A06AEA
:10287000C2EB5000B1EB004F06D106F070612C2086
:10288000005DB1EB006F01D00120BBE50020B9E590
:10289000000047420038024070B504462546681ED5
:1028A000B0F1807F01D301200FE0681E4FF0E021DE
:1028B00048610F214FF0FF3002F07CFA00204FF00A
:1028C000E021886107200861002070BD70477047D3
:1028D00010B50346002200BF93F83C00012801D147
:1028E000022010BD012083F83C0000BF22F0FF0051
:1028F000CC6840EA040222F440708C6840EA04028A
:1029000022F480604C6840EA040222F400600C6803
:1029100040EA040222F480500C6940EA040222F4E6
:1029200000504C6940EA040222F48040CC6940EA3D
:1029300004021868426400BF002083F83C0000BF16
:1029400000BFCEE730B502460B4600BF92F83C0010
:10295000012801D1022030BD012082F83C0000BFD7
:10296000022082F83D00106844681068816824F0F5
:1029700070041868044310684460184D1068A84239
:102980001BD01068B0F1804F17D0154D1068A842C9
:1029900013D0144D1068A8420FD0134D1068A842F0
:1029A0000BD0124D1068A84207D0114D1068A842F4
:1029B00003D0104D1068A84205D121F0800158685D
:1029C000014310688160012082F83D0000BF0020B3
:1029D00082F83C0000BF00BFBDE7000000000140DE
:1029E0000004004000080040000C004000040140CA
:1029F000004001400018004010B504460CB9012009
:102A000010BD94F83D0028B9002084F83C00204611
:102A100000F026F8022084F83D00211D206801F016
:102A200099FC012084F8460000BF84F83E00012193
:102A30003F200155402001554120015500BF00BFF6
:102A4000012084F8420043200155442001554520CF
:102A5000015500BF012084F83D000020D0E70000B0
:102A600038B504462068B0F1804F18D100BF00206F
:102A700000902F48006840F001002D49086008468A
:102A8000006800F00100009000BF00BF002202219A
:102A90001C20FFF721FB1C20FFF70EFB46E0254919
:102AA0002068884218D100BF0020009020480068AC
:102AB00040F002001E4908600846006800F002006D
:102AC000009000BF00BF002202211D20FFF704FB81
:102AD0001D20FFF7F1FA29E01749206888420FD13D
:102AE00000BF002000901248006840F00400104928
:102AF00008600846006800F00400009000BF15E080
:102B00000E492068884211D100BF0020009008487B
:102B1000001D006840F002000549091D08600846D4
:102B2000006800F00200009000BF00BF38BD000048
:102B3000403802400004004000080040000401400A
:102B4000014691F83D00012801D001207047022084
:102B500081F83D000868C06840F001000B68D8604B
:102B60001A4B086898421BD00868B0F1804F17D004
:102B7000174B0868984213D0164B086898420FD03C
:102B8000154B086898420BD0144B0868984207D040
:102B9000134B0868984203D0124B086898420CD136
:102BA0000868806800F00702062A0CD008680068F0
:102BB00040F001000B68186005E00868006840F00C
:102BC00001000B6818600020C0E700000000014011
:102BD0000004004000080040000C004000040140D8
:102BE00000400140001800402DE9F04104460D4628
:102BF000002700BF94F83C00012802D10220BDE864
:102C0000F081012084F83C0000BF022084F83D00E0
:102C10002068866826F0770626F47F46206886605E
:102C20002868502833D00CDC202850D004DC002841
:102C30004BD0102851D149E0302849D040284CD100
:102C400039E060282DD0702807D0B0F5805F03D020
:102C5000B0F5005F41D10DE041E0D5E902136A68AB
:102C6000206801F0F4FB2068866846F0770620684B
:102C7000866034E0D5E902136A68206801F0E7FB5A
:102C80002068806840F480402168886027E0EA6816
:102C90006968206801F0CCFC5021206801F0E2FB5B
:102CA0001DE0EA686968206801F0D5FC60212068B1
:102CB00001F0D8FB13E0EA686968206801F0B8FC0D
:102CC0004021206801F0CEFB09E000BF00BF00BF3B
:102CD0002968206801F0C6FB01E0012700BF00BFA2
:102CE000012084F83D0000BF002084F83C0000BFB4
:102CF000384684E7704710B5044620680069C0F381
:102D00004000D8B12068C068C0F34000B0B16FF097
:102D1000020021680861012020772068806900F0A6
:102D2000030018B12046FFF7E5FF05E0204600F05C
:102D300005F9204600F0B9F90020207720680069E5
:102D4000C0F38000D8B12068C068C0F38000B0B183
:102D50006FF00400216808610220207720688069F4
:102D600000F4407018B12046FFF7C4FF05E020468C
:102D700000F0E4F8204600F098F900202077206861
:102D80000069C0F3C000D8B12068C068C0F3C000BB
:102D9000B0B16FF008002168086104202077206836
:102DA000C06900F0030018B12046FFF7A3FF05E05B
:102DB000204600F0C3F8204600F077F90020207785
:102DC00020680069C0F30010D8B12068C068C0F363
:102DD0000010B0B16FF01000216808610820207762
:102DE0002068C06900F4407018B12046FFF782FFE8
:102DF00005E0204600F0A2F8204600F056F9002039
:102E000020772068006900F0010058B12068C06890
:102E100000F0010030B16FF0010021680861204628
:102E200000F0CAF920680069C0F3C01058B12068EA
:102E3000C068C0F3C01030B16FF080002168086135
:102E40002046FFF743FD20680069C0F3801058B1A9
:102E50002068C068C0F3801030B16FF04000216876
:102E60000861204600F0A9F920680069C0F340100D
:102E700058B12068C068C0F3401030B16FF0200036
:102E8000216808612046FFF722FD10BD10B586B00D
:102E90000446142101A8FDF75EFA23492068884200
:102EA0001ED100BF002000902048006840F00800BC
:102EB0001E4908600846006800F00800009000BF46
:102EC00000BF4FF480400190022002900020039048
:102ED00004900220059001A91548FEF77BFF20E031
:102EE0001449206888421CD100BF002000900F4880
:102EF000006840F480700D4908600846006800F4DE
:102F00008070009000BF00BFC0200190022002909E
:102F10000020039004900320059001A90648FEF7C5
:102F200059FF06B010BD00000008004030380240D4
:102F3000000C0240000401400020024070472DE9CF
:102F4000F04104460D461646002700BF94F83C00A9
:102F5000012802D10220BDE8F081012084F83C0064
:102F600000BF36B1042E1BD0082E31D00C2E5ED1FE
:102F700045E02946206801F07FFA2068806940F02A
:102F80000800216888612068806920F004002168B9
:102F9000886120688069296908432168886148E060
:102FA0002946206801F0A0FA2068806940F400609A
:102FB000216888612068806920F4806021688861C8
:102FC00020688069296940EA01202168886130E031
:102FD0002946206801F0C6FA2068C06940F0080060
:102FE0002168C8612068C06920F004002168C861B8
:102FF0002068C069296908432168C86119E0294629
:10300000206801F0EBFA2068C06940F40060216894
:10301000C8612068C06920F480602168C8612068A8
:10302000C069296940EA01202168C86101E00127DF
:1030300000BF00BF00BF002084F83C0000BF38463E
:1030400089E710B504460CB9012010BD94F83D0085
:1030500028B9002084F83C00204600F025F8022022
:1030600084F83D00211D206801F074F9012084F8E6
:10307000460000BF84F83E0001213F20015540205A
:1030800001554120015500BF00BF012084F84200D6
:1030900043200155442001554520015500BF012022
:1030A00084F83D000020D0E77047704770B50446B3
:1030B0000D4615B994F83E000BE0042D02D13F20D7
:1030C000005D06E0082D02D14020005D01E04120B6
:1030D000005D012801D0012070BD1DB9022084F8D7
:1030E0003E000EE0042D03D102213F20015508E0EF
:1030F000082D03D102214020015502E00221412088
:10310000015501222946206801F090F923492068E1
:10311000884203D022492068884201D1012000E082
:10312000002028B12068406C40F4004021684864C9
:103130001A49206888421BD02068B0F1804F17D010
:1031400018492068884213D01749206888420FD058
:103150001649206888420BD011492068884207D060
:1031600013492068884203D01249206888420CD154
:103170002068806800F00706062E0CD020680068E2
:1031800040F001002168086005E02068006840F018
:1031900001002168086000209EE700000000014057
:1031A000000401400004004000080040000C004002
:1031B000004001400018004070477047704770B5EC
:1031C0000446002520684069C0F3C01594F83D000E
:1031D000212817D1B5B100BF00BF2168143151E8D3
:1031E000001F21F080002168143141E80002002A0C
:1031F000F3D100BF606B10B1606BFEF78CFB204613
:1032000001F01DFB20684069C0F3801594F83E0072
:10321000222817D1B5B100BF00BF2168143151E891
:10322000001F21F040002168143141E80002002A0B
:10323000F3D100BFA06B10B1A06BFEF76CFB204672
:1032400001F0B7FA002070BD704700002DE9F84F7B
:103250000446206805682068C668206847694FF002
:103260000009CA4605F00F09B9F1000F0AD105F0AF
:10327000200038B106F0200020B1204601F0F2FA1B
:10328000BDE8F88FB9F1000F7CD007F0010018B944
:1032900006F49070002875D005F0010030B106F4F6
:1032A000807018B1206C40F00100206405F004002B
:1032B00030B107F0010018B1206C40F0020020642A
:1032C00005F0020030B107F0010018B1206C40F0A9
:1032D0000400206405F0080048B106F0200010B991
:1032E00007F0010018B1206C40F008002064206C49
:1032F000002846D005F0200028B106F0200010B1CB
:10330000204601F0AFFA20684069C0F3801A206CB3
:1033100000F0080010B9BAF1000F2DD0204601F0DE
:1033200048FA2068406900F04000402820D100BFE2
:1033300000BF2168143151E8001F21F040002168CE
:10334000143141E80002002AF3D100BFA06B50B154
:103350007548A16B0865A06BFEF733FB88B1A06BC5
:10336000016D88470DE02046FFF76EFF09E009E098
:103370002046FFF769FF04E02046FFF765FF0020C5
:1033800020647DE7206B012876D105F0100000282D
:1033900072D006F010000028FAD000BF0020009084
:1033A00020680068009020684068009000BF00BF5F
:1033B0002068406900F0400040285ED1A06B0068A2
:1033C00040681FFA80F8B8F1000F54D0A08D404536
:1033D00051DDA4F82E80A06BC069B0F5807F43D08A
:1033E00000BF00BF21680C3151E8001F21F480703C
:1033F00021680C3141E80002002AF3D100BF00BF70
:1034000000BF2168143151E8001F21F0010021683C
:10341000143141E80002002AF3D100BF00BF00BF11
:103420002168143151E8001F21F040002168143157
:1034300041E80002002AF3D100BF202084F83E00BA
:103440000020206300BF00BF21680C3151E8001F3D
:1034500021F0100021680C3141E80002002AF3D16C
:1034600000BFA06BFEF757FAA08DE28D801A81B2E3
:103470002046FFF7A3FE03E740E0A08DE18D401A50
:103480001FFA80F8E08DC0B3B8F1000F35D000BF4F
:1034900000BF21680C3151E8001F21F490702168B1
:1034A0000C3141E80002002AF3D100BF00BF00BF89
:1034B0002168143151E8001F21F001002168143106
:1034C00041E80002002AF3D100BF202084F83E002A
:1034D0000020206300BF00BF21680C3151E8001FAD
:1034E00021F0100021680C3141E80002002AF3D1DC
:1034F00000BF41462046FFF761FEC1E605F08000AF
:1035000030B106F0800018B1204601F0A3FBB7E609
:1035100005F0400030B106F0400018B1204601F03F
:103520007EF9ADE600BFABE67F46000810B5044665
:103530000CB9012010BDA06900B100E000BF94F8F3
:103540003D0028B9002084F83C00204600F028F80F
:10355000242084F83D002068C06820F400502168D1
:10356000C860204601F0FAF92068006920F4904014
:10357000216808612068406920F02A0021684861BC
:103580002068C06840F400502168C86000202064B2
:10359000202084F83D0084F83E000020CAE70000A7
:1035A00010B586B00446142101A8FCF7D4FE8A4960
:1035B0002068884277D100BF0020009087480068CB
:1035C00040F01000854908600846006800F01000CF
:1035D000009000BF00BF00BF002000907F4814385B
:1035E000006840F002007D49143908600846006810
:1035F00000F00200009000BF00BF00BF002000905C
:103600000846006840F0010008600846006800F0C5
:103610000100009000BF00BF8020019002200290B6
:1036200000200390032004900720059001A96C4816
:10363000FEF7D0FB4FF400700190022002900020B2
:103640000390032004900720059001A96548FEF728
:10365000C1FB6548654908604FF000604860002183
:1036600062488160C1604FF4806101610021416165
:103670008161C1614FF40031016200214162FEF7B6
:10368000D5FA08B1FDF7B2F900BF5848A0638463CA
:1036900000BF002201212520FEF71EFD2520FEF798
:1036A0000BFD97E0FFE75249206888425DD100BFDB
:1036B000002000904948001F006840F480204749DE
:1036C000091F08600846006800F48020009000BFD1
:1036D00000BF00BF0020009040481438006840F050
:1036E00004003E49143908600846006800F00400F0
:1036F000009000BF00BF4FF4406001900220029094
:1037000000200390032004900720059001A9394868
:10371000FEF760FB3848394908604FF000604860A8
:10372000002136488160C1604FF480610161002151
:10373000416181614FF48071C1614FF44031016298
:1037400000214162FEF772FA08B1FDF74FF900BFA0
:103750002A48A063846300BF002211462720FEF799
:10376000BBFC2720FEF7A8FC34E0254920688842EE
:1037700030D100BF002000901848006840F02000C1
:10378000164908600846006800F02000009000BF5D
:1037900000BF00BF0020009010481438006840F0BF
:1037A00040000E49143908600846006800F04000E7
:1037B000009000BF00BF4FF48440019002200290AF
:1037C00000200390032004900820059001A90D48D3
:1037D000FEF700FB06B010BD001001404438024067
:1037E0000004024000000240406402403003002018
:1037F000004800400008024028600240900300207A
:10380000001401400018024070B504460D461646EB
:1038100094F83E00202816D105B10EB9012070BDE4
:1038200000BF94F83C00012801D10220F7E70120F5
:1038300084F83C0000BF0020206332462946204621
:1038400001F0A2F9EBE70220E9E7704770472DE9A4
:10385000F84F04460E46174699464FF0000A94F872
:103860003D0020285AD106B117B90120BDE8F88FD4
:1038700000BF94F83C00012801D10220F6E70120A6
:1038800084F83C0000BF00202064212084F83D0023
:10389000FEF798FB8246A784E784A068B0F5805FB6
:1038A00004D1206910B90025B04602E035464FF03A
:1038B000000800BF002084F83C0000BF1BE0534616
:1038C000002280212046CDF8009001F0F3F908B1E4
:1038D0000320CBE745B9B8F80000C0F30800216821
:1038E000486008F1020803E02878216848606D1CF0
:1038F000E08C401EE084E08C0028E0D1534600229A
:1039000040212046CDF8009001F0D4F908B1032001
:10391000ACE7202084F83D000020A7E70220A5E7BF
:10392000704700BFFEE7000038B512480068006825
:10393000C0F30010E8B100BF002000900D480068FF
:10394000006800900B4800684068009000BF00BF0E
:103950000848FFF734FC084800684568C5F11604BC
:103960000B2C01D1FDF77AF9162204490148FFF723
:103970004BFF38BD640200203003002052040020B9
:1039800038B5144800680068C0F3001000B300BFE9
:10399000002000900F480068006800900D48006803
:1039A0004068009000BF00BF0A48FFF708FC0A48C3
:1039B00000684568C5F12404122C04D10120074990
:1039C0000880FCF7FBFD242205490248FFF71CFF95
:1039D00038BD0000A80200209003002078000020DD
:1039E0002E04002030B50346501A00B21880B3F9F7
:1039F0000000B3F90240001B01EE900AF8EEE11A54
:103A000061EE801AB3F9000002EE100AB8EEC22A85
:103A100040EE821A022505FB1400B3F9044020444D
:103A200002EE100AB8EEC22A41EE021AB3F90600FD
:103A300002EE100AB8EEC22A71EE821AFDEEE11A09
:103A400011EE900A00B21881B3F90800B0F57A5F60
:103A500002DB4FF47A501881B3F9080010F57A5F51
:103A600002DC4CF2801018811889D8805888988020
:103A700018885880B3F9080030BD000008B500BFB1
:103A8000002000900B48006800680090094800681A
:103A90004068009000BF00BF06480068C06840F062
:103AA000100004490968C860162203490148FFF75D
:103AB000ABFE08BD640200205204002010B510487F
:103AC000104908600320486000210E488160C160F1
:103AD0004FF4C02101614FF4A00141610021017642
:103AE0000121417600218176C1760177012141775C
:103AF000FDF781FC08B1FCF779FFFCF7E3FC10BD92
:103B0000006400401C01002008B500BF00200090A8
:103B10001648006840F40010144908600846006820
:103B200000F40010009000BF00BF00BF0020009014
:103B30000846006840F4800008600846006800F409
:103B40008000009000BF00BF002211460C20FEF74D
:103B5000C3FA0C20FEF7B0FA002211463A20FEF715
:103B6000BBFA3A20FEF7A8FA08BD00003038024040
:103B700008B500BF002000903348006840F04000C6
:103B8000314908600846006800F04000009000BF1E
:103B900000BF00BF002000900846006840F0010010
:103BA00008600846006800F00100009000BF00BFF8
:103BB00000BF002000900846006840F00200086046
:103BC0000846006800F00200009000BF00BF00BF80
:103BD000002000900846006840F008000860084691
:103BE000006800F00800009000BF00BF00BF002088
:103BF00000900846006840F004000860084600682D
:103C000000F00400009000BF00BF00BF0020009043
:103C10000846006840F4807008600846006800F4B8
:103C20008070009000BF00BF00BF002000900846D9
:103C3000006840F0800008600846006800F08000DE
:103C4000009000BF00BF08BD3038024000B587B00B
:103C500000200390049005900690019002904FF090
:103C60008040154908605320486000211248816057
:103C700040F2CF71C160002101618161FEF7BCFE9D
:103C800008B1FCF7B3FE4FF48050039003A90A4833
:103C9000FEF7AAFF08B1FCF7A9FE002001900290F0
:103CA00001A90548FEF74EFE08B1FCF79FFE024849
:103CB000FEF746FF07B000BD4401002000B587B005
:103CC0000020039004900590069001900290164801
:103CD000164908605320486000211448816040F272
:103CE0008161C160002101618161FEF785FE08B13B
:103CF000FCF77CFE4FF48050039003A90B48FEF7BD
:103D000073FF08B1FCF772FE00200190029001A938
:103D10000648FEF717FE08B1FCF768FE0348FEF7F9
:103D20000FFF07B000BD0000000400408C01002020
:103D300000B58DB0002009900A900B900C90079070
:103D400008901C216846FCF706FB214821490860C1
:103D50005320486000211F4881609521C1600021E7
:103D600001618161FEF748FE08B1FCF73FFE4FF4A8
:103D70008050099009A91748FEF736FF08B1FCF7F3
:103D800035FE1448FFF75DF908B1FCF72FFE00205F
:103D90000790089007A90F48FEF7D4FD08B1FCF77B
:103DA00025FE6020009000200190029004900822DF
:103DB00069460848FFF7C3F808B1FCF717FE082169
:103DC0000448FFF773F90348FFF760F80DB000BD32
:103DD00000080040D401002000B595B000201190EB
:103DE0001290139014900F9010901C2108A8FCF7CB
:103DF000B2FA20216846FCF7AEFA36483649086028
:103E0000A720486000213448816040F6C311C1609A
:103E10000021016141618161FEF7EEFD08B1FCF70F
:103E2000E5FD4FF48050119011A92B48FEF7DCFE00
:103E300008B1FCF7DBFD2848FFF703F908B1FCF7F0
:103E4000D5FD00200F9010900FA92348FEF77AFDB2
:103E500008B1FCF7CBFD6020089040F2E7300990F4
:103E600000200A900B900C900D900E90042208A94F
:103E70001948FFF764F808B1FCF7B8FD082208A953
:103E80001548FFF75CF808B1FCF7B0FD0020009082
:103E900001900290039004904FF400500590002090
:103EA000079069460C48FEF713FD08B1FCF79EFD2C
:103EB00004210948FFF7FAF808210748FFF7F6F848
:103EC0004FF4FA70FDF772FF0348FEF7DFFF15B0FD
:103ED00000BD0000000401401C02002010B50C4889
:103EE0000C4908604FF4E1304860002109488160C6
:103EF000C16001610C21416100218161C161FFF755
:103F000015FB08B1FCF772FDFFF7B8FD10BD00000E
:103F1000001001406402002010B50D480D490860F2
:103F20000D4848604FF480510A4881600021C1600B
:103F30004FF4806101610C21416100218161C16107
:103F4000FFF7F4FA08B1FCF751FD00F043F910BD9A
:103F500000480040A8020020A086010010B50B48D0
:103F60000B4908604FF4E130486000210848816047
:103F7000C16001610C21416100218161C161FFF7D4
:103F8000D5FA08B1FCF732FD10BD00000014014065
:103F9000EC02002000BFFEE700BFFEE730B58BB0AB
:103FA00000200790089009900A90039004900590D3
:103FB00006900090019002900025002413E027480D
:103FC00000EB840090ED000ABDEEC00A10EE100A6E
:103FD00007A941F8240007A850F8240003A941F8D4
:103FE0002400601CC4B2042CE9DB002410E003A808
:103FF00010F824000DF8140003A830F82400C0F3D2
:104000000720012101EB44010DF80100601CC4B23E
:10401000042CECDB08216846FCF718FA0546284614
:10402000E91705EB11610912A5EB0121C9B28DF861
:104030000810E91705EB1161090A8DF80910002431
:1040400008E00DEB0401FF2301220548FFF7FFFB09
:10405000601CC4B20A2CF4DB0BB030BDBC040020E1
:10406000EC0200207047000070B504460D4616466D
:10407000701B00B22080A0882188084400B2A08074
:10408000B4F900004FF4005241F2883101F0DCFF36
:104090002080B4F9000001EE900AF8EEE11A61EE1A
:1040A000801AB4F9040002EE100AB8EEC22A40EEFB
:1040B000821AB4F90000B4F90210401A02EE100A94
:1040C000B8EEC22A41EE021AFDEEE11A11EE900A94
:1040D00000B2E08020886080B4F9040047F23051DB
:1040E000884202DD0846A08007E0B4F904000D49CB
:1040F000884202DA48F6D020A080B4F9060041F2E6
:104100008831884202DD0846E08007E0B4F9060005
:104110000549884202DA4EF67840E080B4F906009C
:1041200070BD0000D08AFFFF78ECFFFF30B503467A
:10413000541A24B21C809C881D882C4424B29C8074
:10414000B3F9004001EE904AF8EEE11A61EE801AF0
:10415000B3F9044002EE104AB8EEC22A40EE821AC9
:10416000B3F90040B3F90250641B02EE104AB8EEF6
:10417000C22A41EE021AFDEEE11A11EE904A24B273
:10418000DC801C885C80B3F9044047F23055AC42B7
:1041900002DD2C469C8007E0B3F904400C4DAC4294
:1041A00002DA48F6D0249C80B3F9064047F2305535
:1041B000AC4202DD2C46DC8007E0B3F90640044D3A
:1041C000AC4202DA48F6D024DC80B3F9060030BDF8
:1041D000D08AFFFF08B500BF002000900B480068A0
:1041E00000680090094800684068009000BF00BF68
:1041F00006480068C06840F0100004490968C860BB
:10420000242203490148FFF7FFFA08BDA802002055
:104210002E040020704710B5FDF7DAFE10BD000037
:1042200000B593B0302107A8FCF795F8142102A837
:10423000FCF791F800BF002001902448006840F08E
:104240008050224908600846006800F080500190C4
:1042500000BF00BF00BF002001901D48006840F46F
:1042600080401B4908600846006800F480400190C7
:1042700000BF00BF012007900004089002200D90AD
:1042800041050E9106210F91A82110910221119153
:104290000421129107A8FEF7B1F808B1FCF7A6FBBC
:1042A0000F20029002200390002004904FF4A050B1
:1042B00005904FF480500690052102A8FDF75EFF9F
:1042C00008B1FCF793FB13B000BD0000403802407A
:1042D000007000400348006840F470000149086025
:1042E0007047000088ED00E010B51348008864288E
:1042F00009D001F051FA01F0EFFD0F480088401C91
:104300000D49088014E000231A4619461846FCF7A8
:10431000E7F840F207210020FCF712F940F20521EE
:104320000020FCF70DF940F206210020FCF708F907
:104330000248FEF7E0FC10BD780000204401002098
:1043400010B501F0D5FC0248FEF7D5FC10BD000009
:104350008C01002010B50268294B98420ED0B0F1B4
:10436000804F0BD0274B984208D0274B984205D05E
:10437000264B984202D0264B984203D122F070027D
:104380004B681A431E4B984220D0B0F1804F1DD08D
:104390001C4B98421AD01C4B984217D01B4B98428A
:1043A00014D01B4B984211D01A4B98420ED01A4B86
:1043B00098420BD0194B984208D0194B984205D01F
:1043C000184B984202D0184B984203D122F4407205
:1043D000CB681A4322F080034C6943EA040202606E
:1043E0008B68C3620B688362054B984202D0084B0E
:1043F000984201D10B6903630123436110BD0000A2
:10440000000001400004004000080040000C004093
:1044100000040140004001400044014000480140C8
:1044200000180040001C00400020004030B501F0A2
:104430001F05012404FA05F3046A9C430462046A1C
:1044400001F01F0502FA05F52C43046230BD30B5BA
:104450000C46816821F47F4142EA03252543294324
:10446000816030BD0A46816821F0700142F0070387
:10447000194381607047000030B5056A25F00105D9
:104480000562026A4368846924F0700424F003041E
:104490000D682C4322F002028D682A43104DA84279
:1044A00000D103E00F4DA84206D100BF22F0080260
:1044B000CD682A4322F00402094DA84202D0094DDA
:1044C000A84207D123F4807323F400734D692B4372
:1044D0008D692B43436084614D684563026230BD42
:1044E000000001400004014030B5056A25F01005C8
:1044F0000562026A4368846924F4E04424F4407449
:104500000D6844EA052422F020028D6842EA051273
:10451000124DA84200D103E0114DA84207D100BFBF
:1045200022F08002CD6842EA051222F040020B4DD3
:10453000A84202D00A4DA84209D123F4806323F493
:1045400000634D6943EA85038D6943EA850343604F
:1045500084614D688563026230BD00000000014047
:104560000004014030B5056A25F480750562026AD1
:104570004368C46924F0700424F003040D682C43DC
:1045800022F400728D6842EA0522124DA84200D141
:1045900003E0114DA84207D100BF22F40062CD68AC
:1045A00042EA052222F480620A4DA84202D00A4D56
:1045B000A84209D123F4805323F400534D6943EA00
:1045C00005138D6943EA05134360C4614D68C563F3
:1045D000026230BD000001400004014030B5056AB0
:1045E00025F480550562036A4468C26922F4E042FA
:1045F00022F440720D6842EA052223F400538D68CC
:1046000043EA0533084DA84202D0084DA84204D120
:1046100024F480444D6944EA85144460C2614D68C5
:104620000564036230BD0000000001400004014049
:1046300030B50B461446026A056A25F0010505628D
:10464000816921F0F00141EA041122F00A021A43C3
:104650008161026230BD30B50B461446056A25F013
:10466000100505628169026A21F4704141EA043152
:1046700022F0A00242EA03128161026230BD70B5ED
:104680000546AC6B0020E085E0842046FEF7DCFDAB
:1046900070BD70B506460025B46B20684069C0F354
:1046A000C01594F83D00212805D125B10020E084F3
:1046B000204600F0C4F820684069C0F3801594F8E3
:1046C0003E00222805D125B10020E085204600F0DB
:1046D00070F8206C40F0100020642046FEF7B4FD16
:1046E00070BD70B50546AC6B2868006800F480703A
:1046F000002842D1E08500BF00BF21680C3151E89D
:10470000001F21F4807021680C3141E80002002A6A
:10471000F3D100BF00BF00BF2168143151E8001F72
:1047200021F001002168143141E80002002AF3D190
:1047300000BF00BF00BF2168143151E8001F21F005
:1047400040002168143141E80002002AF3D100BF83
:10475000202084F83E00206B01280ED100BF00BF4E
:1047600021680C3151E8001F21F0100021680C3144
:1047700041E80002002AF3D100BF206B012804D1D8
:10478000A18D2046FEF71AFD02E02046FFF75DF8F6
:1047900070BD70B50546AC6B206B012805D1A08DAE
:1047A00041082046FEF70AFD02E02046FFF74EF8DA
:1047B00070BD00BF00BF02680C3252E8002F22F427
:1047C000907102680C3242E80013002BF3D100BF55
:1047D00000BF00BF0268143252E8002F22F001012E
:1047E0000268143242E80013002BF3D100BF016BC2
:1047F00001290ED100BF00BF02680C3252E8002F21
:1048000022F0100102680C3242E80013002BF3D1B1
:1048100000BF202180F83E1000210163704710B5D1
:1048200004462068C06820F040002168C86020204D
:1048300084F83D002046FFF773F8002010BD00BF4C
:1048400000BF02680C3252E8002F22F0C00102685B
:104850000C3242E80013002BF3D100BF202180F876
:104860003D107047F8B5044694F83E00222873D1F5
:10487000A068B0F5805F0CD1206950B90025A66A08
:1048800020684068C0F308003080A06A801CA062E5
:1048900015E0A56A0026A068B0F5805F03D0A06887
:1048A00028B9206918B920684068287004E0206899
:1048B000406800F07F002870A06A401CA062E08D74
:1048C000401E80B2E085002844D12068C06820F0F6
:1048D00020002168C8602068C06820F480702168CA
:1048E000C8602068406920F00100216848612020EC
:1048F00084F83E00206B012826D10020206300BFF1
:1049000000BF21680C3151E8001F21F01000216820
:104910000C3141E80002002AF3D100BF2068006892
:1049200000F0100010280AD100BF0020009020687D
:104930000068009020684068009000BF00BFA18D13
:104940002046FEF73BFC02E02046FEF77EFF0020FB
:10495000F8BD01E00020FBE70220F9E72DE9F84F60
:1049600004462068006920F44050E168084321684B
:1049700008612169A068084361690843E169084347
:1049800000902068C06849F20C6188430099084390
:104990002168C8602068406920F44070A16908431C
:1049A0002168486176492068884203D075492068AB
:1049B000884203D1FDF7BAFC814602E0FDF7A6FC70
:1049C0008146E069B0F5004F6CD102206168A0FB20
:1049D000015003461920A9FB007001462A463846BB
:1049E000FBF742FC6421B0FBF1F04FEA001A022011
:1049F0006168A0FB01510B461920A9FB00712A46F2
:104A00003846FBF731FC834602206168A0FB015069
:104A100003461920A9FB00712A463846FBF724FCFF
:104A20006421B0FBF1F000EBC00101EB0010ABEB37
:104A30008000322101EBC0006421B0FBF1F000F0F6
:104A4000F8000AEB400A02206168A0FB015003460F
:104A50001920A9FB007001462A463846FBF704FCE2
:104A6000834602206168A0FB015003461920A9FB80
:104A700000712A463846FBF7F7FB6421B0FBF1F0E2
:104A800000EBC00101EB0010ABEB8000322101EB29
:104A9000C0006421B0FBF1F000F007005044216831
:104AA00088606AE004206168A0FB01500346192079
:104AB000A9FB007001462A463846FBF7D5FB824623
:104AC00004206168A0FB015003461920A9FB007077
:104AD00001462A463846FBF7C7FB6421B0FBF1F0DC
:104AE00000EBC00101EB0010AAEB8000322101EBCA
:104AF00000106421B0FBF1F000F0F00A04206168BE
:104B0000A0FB017003461920A9FB00513A46284634
:104B1000FBF7AAFB6421B0FBF1F00AEB001A0420BA
:104B20006168A0FB01510B461920A9FB00712A46C0
:104B30003846FBF799FB834604206168A0FB0150CF
:104B400003461920A9FB007001462A463846FBF7A8
:104B50008BFB6421B0FBF1F000EBC00101EB001016
:104B6000ABEB8000322101EB00106421B0FBF1F0CF
:104B700000F00F00504421688860BDE8F88F000005
:104B8000001001400014014077B581B0044615467D
:104B90000298A062A58500202064222084F83E00AF
:104BA0002948A16BC8632948A16B08642848A16BF8
:104BB000C8640020A16B086502AE32682368191D25
:104BC0002B46A06BFDF7A8F800BF002000902068DE
:104BD0000068009020684068009000BF00BF00BFE0
:104BE000002084F83C0000BF00BF00BF21680C31EA
:104BF00051E8001F41F4807021680C3141E8000247
:104C0000002AF3D100BF00BF00BF2168143151E872
:104C1000001F41F001002168143141E80002002A20
:104C2000F3D100BF00BF00BF2168143151E8001F5D
:104C300041F040002168143141E80002002AF3D11C
:104C400000BF002004B070BDE34600089347000891
:104C500093460008014691F83D00212828D1886834
:104C6000B0F5805F0BD1086948B90A6A1088C0F3B3
:104C700008000B685860086A801C086205E00B6A2F
:104C8000581C086218780B685860C88C401E80B2A7
:104C9000C88458B90868C06820F080000B68D860E4
:104CA0000868C06840F040000B68D860002070477A
:104CB0000220FCE72DE9F04104460D4617469846D0
:104CC000069E34E0701C88B32EB1FDF77BF9A0EB93
:104CD0000800B0422BD900BF00BF21680C3151E859
:104CE000001F21F4D07021680C3141E80002002A35
:104CF000F3D100BF00BF00BF2168143151E8001F8D
:104D000021F001002168143141E80002002AF3D1AA
:104D100000BF202084F83D0084F83E0000BF002042
:104D200084F83C0000BF0320BDE8F081FFE7206865
:104D300000682840A84201D1012000E00020B842CC
:104D4000C0D00020F0E7000010B5FEF7EDFD0248EE
:104D5000FEF77CFA10BD00006402002010B5FEF7DB
:104D60000FFE0248FEF772FA10BD0000A8020020F4
:104D700000BFFEE703B401984100009850EAC1204B
:104D800018BF04204A0D18BF40F0010040F2FF7226
:104D9000B2EB515F08BF40F00200012808BF0520B8
:104DA00002B0704702480068C0F30220704700005C
:104DB0000CED00E010B5002804DB0A07130E054ACD
:104DC000135406E00A07140E034A00F00F031B1FDA
:104DD000D45410BD00E400E018ED00E00000000035
:104DE00010B52F499FED2C1B2DED020B84B00598BB
:104DF00020F000408842D8BF9DED040B2DDD2949ED
:104E0000884209D1049840B94FF00100FBF7D2FA6B
:104E100000F0A2FC06B010BD05DB9DED040B00F018
:104E20008FFC06B010BD68469DED040B00F0A0F8A5
:104E300010F0030004BF9DED021B9DED000B0CD094
:104E400001280ED09DED021B9DED000B022817D00E
:104E5000012000F0DDFB06B010BD00F0A5FA06B0A1
:104E600010BD9DED021B9DED000B012000F0D0FB5D
:104E700051EC100B01F0F2F806B041EC100B10BD34
:104E800000F092FA51EC100B01F0E8F806B041EC9A
:104E9000100B10BD0000000000000000000000002A
:104EA000FB21E93F0000F07F10B52F499FED2C1B3F
:104EB0002DED020B84B0059820F000408842DCBF45
:104EC00000209DED040B32DD2849884209D1049869
:104ED00040B94FF00100FBF76DFA00F03DFC06B061
:104EE00010BD05DB9DED040B00F02AFC06B010BDE3
:104EF00068469DED040B00F03BF810F0030011D064
:104F0000012818D09DED021B9DED000B02281AD040
:104F100000F04AFA51EC100B01F0A0F806B041EC99
:104F2000100B10BD9DED021B9DED000B012000F04C
:104F30006FFB06B010BD9DED021B9DED000B00F058
:104F400033FA06B010BD012000F062FB51EC100BEB
:104F500001F084F806B041EC100B10BD0000000019
:104F60000000000000000000FB21E93F0000F07F8E
:104F70002DE9F14F04462DED020B2DED088B8AB083
:104F80009FEDE70B80ED020B139EE74826F00045EE
:104F900085420ADC9DED120B002084ED000B0AB067
:104FA000BDEC088B03B0BDE8F08FE0489FEDE0ABAF
:104FB0009FEDE1BBA84247DDE14F9FEDE39B9FEDF5
:104FC000E48B9DED120B53EC1A2B51EC100B002EC1
:104FD0001CDD01F0E5FB41EC100BBD4208D053ECA9
:104FE0001B2B51EC100B01F0DBFBC4E900010BE0C3
:104FF00053EC192B51EC100B01F0D2FB53EC182B96
:1050000001F0CEFBC4E900010120C8E701F064F81B
:1050100041EC100BBD4208D053EC1B2B51EC100B94
:1050200001F05AF8C4E900010BE053EC192B51ECE4
:10503000100B01F051F853EC182B01F04DF8C4E9B6
:1050400000014FF0FF30AAE7C348A84279DB9DED8D
:10505000120B51EC100B00F03EFE41EC180B9FEDD3
:10506000C00B53EC102B01F091FA9FEDBF1B53ECDA
:10507000112B01F031F801F02FFA074601F05BFA2D
:1050800041EC190B53EC1A2B01F080FA53EC182B5E
:1050900001F07AFB41EC180B53EC1B2B51EC190B74
:1050A00001F074FADFF8C8A241EC100B4FEA155872
:1050B0000125FA4453EC102B51EC180B01F070FB56
:1050C000032DC4E900013DD0C1F30A5005EB4511A1
:1050D000A8EB00001139814234DA0AEB051BB0EE6F
:1050E00048AA9BED000BF0EE68AA53EC102B51EC94
:1050F000190B01F04BFA41EC1B0B51EC1A0B53EC62
:105100001B2B01F04DFB41EC180B51EC1A0B53EC2F
:10511000182B01F045FB53EC1B2B01F041FB9BEDE1
:10512000020B41EC1A0B53EC102B51EC190B01F054
:105130002DFA53EC1A2B01F033FB41EC100B6D1CD4
:10514000B8E70EE0002EA8BF3846BFF628AF94EDB2
:10515000000B51EC100B00F081FFC4E90001784214
:105160001DE7C6F3130040F4801EC6F30A50A0F2F8
:10517000F530471100F01F05C5F12000DDF848B0FB
:1051800008900020069007900520EC467949002DF4
:1051900007EB0002794408BF51F8221009D051F8FA
:1051A000223001EB8201AB404A68089922FA01F1F2
:1051B0001943A1FB0E26A1FB0B131A449A4234BFDC
:1051C0000123002303EB06080CEB8003D3E901A6BF
:1051D0000E448E4234BF0121002192448A4411B111
:1051E000924502D903E0924501D2012100E000215D
:1051F000C3E901A641444CF82010011EA0F10100B2
:10520000C4DC029800F10050850F0298DDE90367C5
:105210008000DDF8148001F08EF941EC1A0B304665
:1052200001F0A0F99FED541B53EC112B01F0AEF9E6
:1052300041EC1B0B384601F095F99FED511B53ECE7
:10524000112B01F0A3F941EC180B404601F08AF94B
:105250009FED4D1B53EC112B01F098F941EC190B0C
:1052600051EC180B53EC192B00F036FF53EC1B2BB1
:1052700000F032FF53EC1A2B00F02EFFCDE90801AD
:10528000002008909DED080B53EC1A2B51EC100BED
:1052900001F086FA53EC1B2B01F082FA53EC182B29
:1052A00001F07EFA53EC192B01F06EFA9FED381BDA
:1052B00053EC112B01F06AF99FED370B41EC180B01
:1052C00053EC102B9DED080B51EC100B01F05EF927
:1052D00053EC182B00F000FF9FED310B41EC180B45
:1052E00053EC102B9DED080B51EC100B01F04EF917
:1052F00053EC182B00F0F0FE41EC100B139810F05B
:10530000004F06D06D4251EC100B00F0A7FE41ECAF
:10531000100B284684ED000B41E600000000000061
:105320000000000000000000FB21E93F7CD90240A2
:1053300000004054FB21F93F3163621A61B4D03D53
:10534000FB21F93F000000000000601A61B4D03D6D
:105350007370032E8A19A33BFB2139410000000022
:1053600083C8C96D305FE43F000000000000E03FEB
:105370000A1A000058190000000000000000103E4A
:10538000000000000000103C000000000000103A87
:10539000182D4454FB21F93D3326A611460B113C30
:1053A00000000054FB21F93D10B52DED040B2DED4F
:1053B000088B82B0B0EE419AF0EE619A0B9820F023
:1053C00000449FED4BABB4F1795F11DA9DED0A0B10
:1053D00051EC100B01F080F8002801BFB0EE4A0A32
:1053E000F0EE6A0A02B0BDEC088B04BF04B010BD39
:1053F0009DED0A0B53EC102B51EC100B01F0C6F88D
:1054000041EC180B3C480621B0EE480AF0EE680A61
:10541000784400F081F853EC182B51EC100B01F09C
:10542000B5F89DED0A0B41EC1B0B53EC192B51EC1D
:10543000100B01F0ABF841EC190B53EC1B2B51ECAA
:10544000180B01F0A3F853EC192B01F0A9F99FED0B
:105450002C0B41EC190B53EC102B51EC180B01F0F9
:1054600095F841EC100B2848844210DA53EC192BC4
:1054700051EC100B01F094F953EC1A2B01F084F964
:1054800041EC100B02B0BDEC088B04B010BD1F48FE
:10549000A042BCBF9FED1E1B8DED001B06DBA4F5DB
:1054A00000100190002000909DED001B51EC100BAE
:1054B00053EC112B01F074F99DED000B41EC180B2E
:1054C00053EC102B51EC1A0B01F06AF941EC1A0B5A
:1054D00053EC192B51EC180B01F062F953EC1A2B19
:1054E00001F052F941EC100BCCE700000000000085
:1054F000000000000000F03F7C16000000000000EB
:10550000000000000000E03F3333D33F0000E93FDC
:10551000000000000000D23F70B504462DED028B64
:105520004D1E00EBC500B0EE408AF0EE608A90EDB3
:10553000000B35F0060017D053EC182B51EC100B74
:1055400001F024F841EC100B6D1E04EBC50090ED4A
:10555000001B51EC100B53EC112B00F0BDFD41EC86
:10556000100B35F00600E7D1022D36D0042D1CD0EB
:10557000062D1CBFBDEC028B70BD53EC182B51ECFB
:10558000100B01F003F894ED0A1B53EC112B00F003
:10559000A3FD53EC182B00F0F9FF94ED081B53EC1E
:1055A000112B00F099FD41EC100B53EC182B51EC32
:1055B000100B00F0EBFF94ED061B53EC112B00F0E9
:1055C0008BFD53EC182B00F0E1FF94ED040B53EC32
:1055D000102B00F081FD41EC100B53EC182B51EC1B
:1055E000100B00F0D3FF94ED021B53EC112B00F0D5
:1055F00073FD53EC182B00F0C9FF94ED001B53EC26
:10560000112B00F069FDBDEC028B41EC100B70BD5D
:1056100031B504462DED040B2DED0A8BB0EE41BAE9
:10562000F0EE61BA0B989DED0A0B20F00040B0F14E
:10563000795F0DDA51EC100BFFF79CFB042808BFD3
:1056400000F09AF89DED0A0BBDEC0A8B05B030BD59
:1056500053EC102B51EC100B00F098FF41EC180BA1
:105660009DED0A0B53EC182B51EC100B00F08EFF44
:1056700041EC190B2C48B0EE480AF0EE680A0521FF
:105680007844FFF749FF9FED2ACBB0EE40AAF0EE39
:1056900060AA9CB353EC1C2B51EC190B00F076FF65
:1056A00041EC1C0B53EC1A2B51EC190B00F06EFF64
:1056B0009FED210B41EC190B53EC102B51EC1B0B04
:1056C00000F064FF53EC192B01F06AF853EC182B2F
:1056D00000F05CFF53EC1B2B01F062F853EC1C2B29
:1056E00001F05EF89DED0A1B53EC112B01F04CF814
:1056F000BDEC0A8B05B041EC100B30BDFFE753EC5D
:105700001A2B51EC180B00F041FF53EC1C2B00F04E
:10571000E3FC53EC192B00F039FF9DED0A1B53EC11
:10572000112B00F0D9FCE3E7041500000000000095
:10573000495555555555C5BF000000000000E03FD4
:1057400010B553EC102B51EC100B00F0C5FC41ECE4
:10575000100B10BD000000009FED050B10B553ECC1
:10576000102B51EC100B00F05FFD41EC100B10BD45
:1057700000000000000000009FED050B10B553EC89
:10578000102B51EC100B00F001FF41EC100B10BD81
:1057900000000000000000101CB5FE48C07A02287E
:1057A00036D1FC480088FB4949880844F949898872
:1057B000084400EB400000B2ADF80000F548008856
:1057C000F4494988401AF3498988084400EB4000AD
:1057D00000B2ADF80200EF4800884042ED49498828
:1057E000401AEC498988084400EB400000B2ADF84B
:1057F0000400E84800884042E64949880844E549F1
:105800008988084400EB400000B2ADF806007FE153
:10581000E048C07A03287CD1DF48408910B1FBF70B
:10582000E9F897E0DC48408880B1DC49B1F9000034
:10583000C82100F0B5FBD94908800846008800EB74
:105840008000400000B2D64908801FE0D24880881E
:1058500088B1D249B1F90000C82100F0A1FBCF49BD
:10586000088008460088404200EB8000400000B2FB
:10587000CB4908800AE00A21C948B0F9000000F0CD
:1058800094FBC74908800020C4490880C248C088EA
:1058900088B1C249B1F90200C82100F081FBBF49BB
:1058A000488008464088404200EB4000400000B27B
:1058B000BC4908801EE0B848008980B1B749B1F9F9
:1058C0000200C82100F06CFBB449488008464088BB
:1058D00000EB4000400000B2B24908800AE00A2113
:1058E000B048B0F9000000F060FBAE49088000202D
:1058F000AA494880A848C08998B1A849B1F90400CC
:10590000C82100F04DFBA5498880084680884042A8
:1059100000E04EE000EB4000400000B2A2490880E9
:1059200018E09D48008A80B19C49B1F90400C82163
:1059300000F036FB994988800846808800EB4000DB
:10594000400000B29849088004E000209649088091
:10595000924988809348008891490988084492496F
:105960000988084400B2ADF800008E4800888C49D0
:105970000988401A8C490988084400B2ADF8020031
:1059800088480088404286490988401A8649098823
:10599000084400B2ADF804008248008840428049C3
:1059A0000988084480490988084400B2ADF8060017
:1059B000AEE07848C07A0128FAD17748408910B122
:1059C000FBF718F876E07448408880B17349B1F964
:1059D0000000C82100F0E4FA7049088008460088F9
:1059E00000EB8000400000B26D4908801FE06A486B
:1059F000808888B16949B1F90000C82100F0D0FA67
:105A00006649088008460088404200EB800040005C
:105A100000B2634908800AE014216148B0F900002F
:105A200000F0C3FA5E49088000205C4908805A48AB
:105A3000C08888B15949B1F90200C82100F0B0FA14
:105A40005649488008464088404200EB40004000EC
:105A500000B2544908801EE04F48008980B14F4988
:105A6000B1F90200C82100F09BFA4C494880084671
:105A7000408800EB4000400000B24A4908800AE03C
:105A80000A214848B0F9000000F08FFA4549088023
:105A90000020424948809FED451ADFED450A9FED01
:105AA000450A00224448B0F900104448FEF7DCFAE9
:105AB0003D4908803B4800883949098808443A49EB
:105AC0000988084400B2ADF800003648008834491F
:105AD0000988401A34490988084400B2ADF8020028
