:020000040800F2
:10000000C80A002029020008FD3B000873360008DA
:10001000F93B0008170400088D4B000800000000A1
:10002000000000000000000000000000A93F0008E0
:10003000FB09000800000000F53D0008AB3F000888
:10004000430200084302000843020008430200087C
:10005000430200084302000843020008430200086C
:10006000430200084302000843020008430200085C
:10007000E1080008430200084302000843020008A8
:10008000430200084302000843020008430200083C
:100090001D04000843020008430200084302000850
:1000A000430200084302000843020008430200081C
:1000B0007D400008C1400008F540000843020008E8
:1000C00043020008430200084302000843020008FC
:1000D000430200083D4B000843020008694B00083A
:1000E00043020008430200084302000843020008DC
:1000F00043020008430200084302000843020008CC
:1001000043020008430200084302000843020008BB
:1001100043020008430200084302000843020008AB
:10012000430200084302000843020008430200089B
:10013000430200084302000843020008430200088B
:10014000430200084302000843020008430200087B
:100150004302000843020008430200087D4B0008E8
:10016000430200084302000843020008430200085B
:100170004302000843020008430200080000000098
:10018000430200084302000800F002F800F03CF8C7
:100190000AA090E8000C82448344AAF10107DA45E2
:1001A00001D100F031F8AFF2090EBAE80F0013F0F8
:1001B000010F18BFFB1A43F001031847C853000092
:1001C000E8530000103A24BF78C878C1FAD8520723
:1001D00024BF30C830C144BF04680C6070470000C1
:1001E0000023002400250026103A28BF78C1FBD840
:1001F000520728BF30C148BF0B6070471FB505F0DC
:10020000ABF91FBD10B510BD00F0CFF81146FFF7D8
:10021000F5FF04F03FFE00F0EDF803B4FFF7F2FF46
:1002200003BC00F0F1F80000094880470948004786
:10023000FEE7FEE7FEE7FEE7FEE7FEE7FEE7FEE796
:10024000FEE7FEE704480549054A064B70470000F3
:100250006940000889010008C8040020C80A00207D
:10026000C8060020C806002053EA020C00F069808E
:100270002DE9F04B4FF00006002B1FBFB3FA83F5BA
:1002800003FA05F424FA05F65E4012BF1643B2FAEB
:1002900082F502FA05F4C5F120051EBF22FA05FC1D
:1002A00044EA0C04203556EA044C4FEA144418BFC3
:1002B000641C4FF000084FF00009904271EB030CF2
:1002C00039D3002919BFB1FA81F701FA07F6B0FA5C
:1002D00080F700FA07F6C7F120071EBF20FA07FCD7
:1002E00046EA0C062037B6FBF4FCA7EB0507103FE7
:1002F00007F01F0BCBF120060CFA0BFB2CFA06F6CD
:1003000044BFB3460026202FA4BF5E464FF0000B2B
:100310005BEA060C08BF4FF0010B19EB0B09ABFBB6
:10032000027C48EB0608C01B06FB02CC0BFB03CC8F
:1003300071EB0C01C1E70B46024641464846BDE859
:10034000F08B13B54FF000004FF00001AFF30080C9
:10035000BDE81C4070474FF0000200B513469446BC
:100360009646203922BFA0E80C50A0E80C50B1F10D
:100370002001BFF4F7AF090728BFA0E80C5048BF21
:100380000CC05DF804EB890028BF40F8042B08BFBF
:10039000704748BF20F8022B11F0804F18BF00F8BB
:1003A000012B7047704770477047754600F028F87A
:1003B000AE4605006946534620F00700854618B052
:1003C00020B5FFF73FFFBDE820404FF000064FF09B
:1003D00000074FF000084FF0000B21F00701AC467A
:1003E000ACE8C009ACE8C009ACE8C009ACE8C00999
:1003F0008D4670470446AFF300802046FFF70DFF9F
:10040000004870476404002001491820ABBEFEE795
:1004100026000200704700BFFEE7000010B502484A
:1004200000F038FD10BD00000401002030B5024688
:100430000B464FF6FF70002112E0555C6840002427
:100440000AE000F0010525B14AF2010585EA6000E5
:1004500000E04010651CECB2082CF2DB4D1CE9B248
:100460009942EADB30BD000000B58BB00020079058
:100470000120089080030190002002904FF4FC407E
:100480000390002004900590012009900020069020
:100490000E200A9001A9024800F0ACFB0BB000BD91
:1004A0000401002010B5FFF7DFFF044801F07FF8DA
:1004B0000221024800F0DEFA10BD00000401002015
:1004C00070B504460D464FF40070184908600020CE
:1004D00048608860C8600820086100200875A5F29F
:1004E000012030B1012809D002280CD0032814D1F2
:1004F0000EE0200A0E4908704C700EE0200A0C49EC
:100500008870CC7009E0200A094908714C7104E038
:10051000200A07498871CC7100BF00BF054B044A0F
:100520000249054800F0BBFA70BD000078030020C6
:100530004C0000205C0000200401002070B504463F
:100540000D4640F2FF10184908600020486088609E
:10055000C8600820086100200875A5F2052030B1A8
:10056000012809D002280CD0032814D10EE0200A5B
:100570000E4908704C700EE0200A0C498870CC704F
:1005800009E0200A094908714C7104E0200A074972
:100590008871CC7100BF00BF054B044A0249054871
:1005A00000F07DFA70BD00007803002054000020A8
:1005B0005C0000200401002000B52DED048B83B009
:1005C000BC480078BB49497840EA0120C0F30A00E2
:1005D000ADF80000B7484078C010B649897840EAC5
:1005E0004110C0F30A00ADF80200B24880788011D3
:1005F000B049C97840EA8100AE49097940EA8120D2
:10060000C0F30A00ADF80400AA4800794010A949D7
:10061000497940EAC110C0F30A00ADF80600A548C8
:10062000007CA449497C40EA0120C0F30A00ADF8EF
:100630000800BDF80400A0F5806000B29E49088063
:10064000BDF80600A0F5806000B24880BDF800004B
:10065000A0F5806000B28880BDF80200A0F580603F
:1006600000B2C880BDF80810A1F5806004F05FFEFC
:1006700041EC190B9FED910B53EC102B04F06EFE27
:1006800041EC180B04F024FE00B28B490881894824
:10069000407900118008887286484079C0F30110C3
:1006A000C8728448807B8349C97B40EA0120854920
:1006B00008800846007800F001004880084600786D
:1006C000C0F34000888008460078C0F38000C880EE
:1006D00008460078C0F3C000088108460078C0F3DF
:1006E0000010488108460078C0F340108881084611
:1006F0000078C0F38010C88108460078C0F3C010AD
:10070000088208460088C0F3002048820846008816
:10071000C0F34020888208460088C0F38020C88249
:1007200008460088C0F3C020088308460088C0F34C
:100730000030488308460088C0F34030888308466C
:100740000088C0F38030C88308460088C00B088446
:10075000584880795749C97940EA012000EB4000A8
:1007600000B2594908805348007A5249497A40EA10
:100770000120404200EB400000B2534948804D4800
:10078000807A4C49C97A40EA012000B24E498880FB
:100790004848007B88714748407BC8714B48D0ED82
:1007A000000A0846B0F9000000EE100AB8EEC00AD0
:1007B00030EE800A454880ED000A90ED010ADFED39
:1007C000440AB4EEE00AF1EE10FA16D290ED010AF6
:1007D000DFED400AB4EEE00AF1EE10FA0DDDD0EDE7
:1007E000010A0846B0F9020000EE100AB8EEC00A8D
:1007F00030EE800A354880ED010A344890ED010A58
:10080000DFED330AB4EEE00AF1EE10FA13DB2E4806
:10081000B0F9020000280EDA2C48D0ED010A2A486F
:10082000B0F9020000EE100AB8EEC00A30EE800AFD
:10083000264880ED010A254890ED010ADFED250AE2
:10084000B4EEE00AF1EE10FA13D81F48B0F9020036
:1008500000280EDD1D48D0ED010A1B48B0F902004A
:1008600000EE100AB8EEC00A30EE800A174880ED9C
:10087000010A164890ED000ADFED170AB4EEE00A0F
:10088000F1EE10FA04DD9FED150A80ED000A0DE08F
:100890000E4890ED000ADFED110AB4EEE00AF1EE29
:1008A00010FA03D29FED0C0A80ED000A03B0BDECF4
:1008B000048B00BDC0030020E40300203D0AD7A341
:1008C000703D1840FC0300208E000020F003002043
:1008D0000080364400007AC300F07F4500F07FC5F9
:1008E00010B5024800F004FF10BD000018030020FE
:1008F0000146087810381823B0FBF3F20848805CF2
:10090000C865032A05D908686FF30900001D8865CA
:1009100003E008686FF309008865886D7047000080
:1009200062550008014600208A6A8B69CBB932B152
:10093000012A0DD0022A03D0032A10D10EE000BFF5
:10094000CB6A03F08073B3F1807F00D1012007E010
:10095000CB6AB3F1C07F00D1012001E000E000BF0D
:1009600034E08B69B3F5005F1AD132B1012A07D0A8
:10097000022A03D0032A11D10AE000BF01200EE0B1
:10098000CB6A03F08073B3F1807F00D1012006E0D1
:10099000CB6AB3F1C07F00D1012000E000BF15E0B9
:1009A00032B1012A05D0022A04D0032A0CD103E077
:1009B00000BF00BF012008E0CB6A03F08073B3F1F1
:1009C000807F00D1012000E000BF00BF704730B53C
:1009D0000468246824F4802405682C60046863603B
:1009E0008468402C04D10468A2600468E16003E0DC
:1009F0000468A1600468E26030BD704772B600BF51
:100A0000FEE700002DE9F04780460D4691461C4662
:100A1000DDF820A09FED121ADFED110AB0EE080AF2
:100A20004A462146404603F0E7F906460D4806804F
:100A30009FED0D1ADFED0D0AB7EE080A324651465A
:100A4000284603F03BFA07460948B0F90000844203
:100A500004D107F2145000B2BDE8F0873846FBE736
:100A600000000000980000209A99993E0AD7A33C04
:100A70003200002010B5024692F82030012B01D040
:100A8000022B06D110684069084314686061002099
:100A900010BD506A40F4802050620120F8E7F0B5A4
:100AA00004460D461E4694F8207020688368A868A6
:100AB00000B900E000BF012F01D0022F7CD103F06C
:100AC000806030B903F0006018B903F0805000284E
:100AD00073D0C3F30161022905D9606A40F40000B4
:100AE00060620120F0BD012088403060A86860B9D4
:100AF000B5F800C0E86840EA4C5C206800F5C070BA
:100B000000EB0110C0F800C00FE0D5E901C040EAD9
:100B1000CC00D5F80CC040EA0C00D4F800C00CF5AD
:100B2000C07C0CEB011CCCF80000D5F810C020688C
:100B300000F5C07000EB0110C0F804C0287D01284A
:100B40000ED1206800F5C07000EB0110406840F441
:100B5000807C206800F5C07000EB0110C0F804C074
:100B6000D079000692F806C040EA0C4092F805C021
:100B700040EA0C2C10794CEA000C206800F5C0709B
:100B800000EB0110C0F80CC0D078000692F802C04B
:100B900040EA0C4092F801C040EA0C2092F800C0F4
:100BA00040EA0C00D4F800C00CF5C07C0CEB011C32
:100BB000CCF80800206801E016E00FE000F5C070F6
:100BC00000EB0110006840F0010C206800F5C070D7
:100BD00000EB0110C0F800C0002083E7606A40F419
:100BE0000010606201207DE7606A40F4802060624E
:100BF000012077E7F0B504460A46216894F82050B2
:100C0000012D01D0022D7ED1424901F50071086805
:100C100040F001000860086820F47C500860086813
:100C2000566A40EA06200860107D00F01F06012089
:100C300000FA06F3C8699843C861A1F50071D0694C
:100C4000C8B9D1F80C029843C1F80C02908880B260
:100C5000968940EA064601F51070576940F83760FA
:100C6000108880B2168940EA064601F5107057696F
:100C700000EBC7004660D069012819D1D1F80C02F9
:100C80001843C1F80C02908880B2168840EA0646E4
:100C900001F51070576940F83760908980B2168965
:100CA00040EA064601F51070576900EBC700466040
:100CB000906928B9D1F804029843C1F8040204E00D
:100CC000D1F804021843C1F80402106928B9D1F818
:100CD00014029843C1F8140204E0D1F81402184336
:100CE000C1F81402106A012804D1D1F81C0218437B
:100CF000C1F81C02D1F8000220F00100C1F8000286
:100D00000020F0BDFFE7606A40F4802060620120AF
:100D1000F7E7000000640040704770B5044694F89F
:100D20002050012D01D0022D7DD151B92068C0681D
:100D300000F0030080B9606A40F400106062012096
:100D400070BD2068006900F0030028B9606A40F4B3
:100D5000001060620120F3E7206800F5D87000EB16
:100D60000110006800F004009060906840B92068AD
:100D700000F5D87000EB01100068400D106007E02E
:100D8000206800F5D87000EB01100068C0085060C2
:100D9000206800F5D87000EB0110006800F0020038
:100DA000D060206800F5D87000EB0110406800F0BA
:100DB0000F001061206800F5D87000EB011040684A
:100DC00000F47F40000A9061206800F5D87000EBC5
:100DD00001104068000C5061206800F5D87000EBED
:100DE000011080681870206800F5D87000EB0110C1
:100DF000806800F47F40000A5870206800F5D870C1
:100E000000EB0110806800F47F00000C98702068EF
:100E100000F5D87000EB01108068000ED8702068D3
:100E200000F5D87000E02FE000EB0110C0681871E9
:100E3000206800F5D87000EB0110C06800F47F4016
:100E4000000A5871206800F5D87000EB0110C068E6
:100E500000F47F00000C9871206800F5D87000EB5A
:100E60000110C068000ED87131B92068C06840F028
:100E700020002668F06005E02068006940F020004E
:100E80002668306100205BE7606A40F48020606281
:100E9000012055E72DE9F05F0446002520684669EA
:100EA0002068D0F80490206887682068D0F80CA0EB
:100EB0002068D0F810B02068D0F8188006F0010043
:100EC000002855D007F00100C0B1012021688860DA
:100ED00007F0020018B1204600F099FB0EE007F081
:100EE000040010B145F4006508E007F0080010B1F7
:100EF00045F4805502E0204600F088FB07F480703E
:100F0000C8B14FF480702168886007F4007018B190
:100F1000204600F07EFB0EE007F4806010B145F43F
:100F2000005508E007F4006010B145F4804502E088
:100F3000204600F06DFB07F48030C8B14FF48030DC
:100F40002168886007F4003018B1204600F063FB88
:100F50000EE007F4802010B145F4004508E007F4E6
:100F6000002010B145F4803502E0204600F052FB2D
:100F700006F0080038B10AF0100020B145F4007501
:100F800010202168C86006F0040040B10AF0080093
:100F900028B108202168C860204600F0A9F906F0B1
:100FA000020038B12068C06800F0030010B120468C
:100FB00000F0A0F906F0400038B10BF0100020B1AD
:100FC00045F4806510202168086106F0200040B1DA
:100FD0000BF0080028B1082021680861204600F0C5
:100FE000E3FA06F0100038B12068006900F0030051
:100FF00010B1204600F0D9FA06F4003040B109F0F3
:10100000100028B1102021684860204600F0CEFA78
:1010100006F4803040B109F0080028B108202168AA
:101020004860204600F0F8FA06F4004088B309F062
:10103000040078B306F4807020B108F0010008B114
:1010400045F0010506F4007020B108F0020008B177
:1010500045F0020506F4806020B108F0040008B1F4
:1010600045F0040506F40060A0B108F0700088B1F6
:1010700008F07000402817D006DC10280BD020287C
:101080000CD0302819D10CE0502810D0602814D191
:1010900010E01DE019E045F008050FE045F01005EF
:1010A0000CE045F0200509E045F0400506E045F07C
:1010B000800503E045F4807500E000BF00BF2068B4
:1010C000806920F0700021688861042021684860F0
:1010D0002DB1606A284360622046FFF71DFEBDE81F
:1010E000F09F70B504460CB9012070BD94F8200043
:1010F00010B9204600F0B0F82068006840F0010008
:101100002168086000F0E0FD05460DE000F0DCFD20
:10111000401B0A2808D9606A40F40030606205204C
:1011200084F820000120E0E72068406800F001001A
:101130000028EBD02068006820F0020021680860D9
:1011400000F0C2FD05460DE000F0BEFD401B0A2880
:1011500008D9606A40F400306062052084F82000FD
:101160000120C2E72068406800F002000028EBD1AF
:10117000207E012806D12068006840F080002168A8
:10118000086005E02068006820F0800021680860A1
:10119000607E012806D12068006840F04000216888
:1011A000086005E02068006820F0400021680860C1
:1011B000A07E012806D12068006840F02000216848
:1011C000086005E02068006820F0200021680860C1
:1011D000E07E012806D12068006820F01000216818
:1011E000086005E02068006840F010002168086091
:1011F000207F012806D12068006840F0080021689F
:10120000086005E02068006820F008002168086098
:10121000607F012806D12068006840F00400216842
:10122000086005E02068006820F00400216808607C
:10123000D4E90201084321690843616908436168F0
:10124000491E08432168C86100206062012084F8BB
:101250002000002049E7000010B586B004461421A4
:1012600001A8FFF778F81F492068884237D100BFEE
:10127000002000901C48006840F000701A49086087
:101280000846006800F00070009000BF00BF00BF7B
:101290000020009014481038006840F008001249FF
:1012A000103908600846006800F00800009000BF90
:1012B00000BF032001900220029000200390032031
:1012C00004900920059001A9084800F005FC0022BF
:1012D0000121142000F082FD142000F06FFD06B003
:1012E00010BD00000064004040380240000C024085
:1012F0007047000010B50446974884427ED1974B52
:10130000974A0021FFF709FD95480068A0F20120E7
:1013100006280DD2DFE800F0030D0C17219A8F4844
:10132000C0788E49897840EA012000B28D49488012
:1013300002E18A48C0788949897840EA012000B2F0
:1013400089494880F8E08548C0788449897840EA2E
:10135000012000B285494880EEE0804840787F490E
:10136000097840EA012000B2814908807B48C078B2
:101370007A49897840EA012000B27D49C8807D48D9
:1013800003F05CFC7C4908807C48D0ED000A0846EC
:10139000B0F9000000EE100AB8EEC00A20EE800A94
:1013A0007648D0ED000AB7EE001A31EE601A7448A4
:1013B000B0F9000000EE900AF8EEE00A01EE200A13
:1013C000BDEEC00A10EE100A00B269490881084655
:1013D0000089C82110FB01F000EE100AB8EEC00A27
:1013E000DFED680A80EE201ABDEEC10A10EE100A89
:1013F00000B2654908805E48008900E0AAE06049C3
:1014000008805B480088A0F5D050F43800B25F49EE
:1014100008800846B0F90000B0F5805F07DB084699
:101420000088A0F5F850FF3800B208800DE057485A
:10143000B0F9000010F5805F07DC5448008841F6E1
:10144000FF71084400B25149088075E04348407874
:101450004249097840EA012000B24D4908803F48DE
:10146000C0783E49897840EA012000B24849C880E6
:10147000484803F0E3FB484908804048D0ED000AA3
:101480000846B0F9000000EE100AB8EEC00A60EE9F
:10149000800A3A4890ED000AB7EE001A31EE401A81
:1014A0003E48B0F9000000EE100AB8EEC00A41EE66
:1014B000000ABDEEE00A10EE100A00B234490881BD
:1014C00008460089C82110FB01F000EE100AB8EEB2
:1014D000C00ADFED2C0A80EE201ABDEEC10A10EE24
:1014E000100A00B22E490880294800892B4908803B
:1014F00027480088A0F5E16000B22A490880084624
:10150000B0F90000B0F5805F07DB08460088A0F561
:10151000F850FF3800B208800DE02248B0F9000012
:1015200010F5805F07DC1F48008841F6FF71084412
:1015300000B21C49088000BF00BF02210648FFF727
:1015400099FA38B104480068406940F00200024945
:101550000968486110BD000004010020440000201B
:101560009003002060000020680000207800002028
:10157000AC030020800000203C0000204000002040
:10158000380000203D0AB641340000203000002021
:10159000B6030020860000203E0000203A00002014
:1015A000360000203200002070477047704770B549
:1015B000044694F82000012822D1022084F820005B
:1015C0002068006820F001002168086000F07CFBC2
:1015D00005460DE000F078FB401B0A2808D9606A38
:1015E00040F400306062052084F82000012070BDC6
:1015F0002068406800F001000028EBD16062F6E747
:10160000606A40F4002060620120F0E77047704794
:101610007047704770477047704770B50446A56DB6
:1016200000F052FB064694F83500022808D08020CE
:10163000606500BF002084F8340000BF012070BD49
:101640002068006820F01600216808602068406962
:1016500020F0800021684861206C08B9A06C28B196
:101660002068006820F00800216808602068006891
:1016700020F001002168086010E000F025FB801BCD
:1016800005280BD920206065032084F8350000BFB1
:10169000002084F8340000BF0320D0E720680068F1
:1016A00000F001000028E8D194F85C103F20884049
:1016B000A860012084F8350000BF002084F83400C1
:1016C00000BF00BFBBE7014691F83500022803D0F8
:1016D0008020486501207047052081F835000868A2
:1016E000006820F001000A6810600020F3E70000A5
:1016F000F8B50446002000908C4800684FF416515D
:10170000B0FBF1F7A56D2E6894F85C1008208840B6
:10171000304098B12068006800F0040070B1206883
:10172000006820F004002168086094F85C1008202C
:101730008840A860606D40F00100606594F85C101E
:1017400001208840304068B12068406900F0800086
:1017500040B194F85C1001208840A860606D40F0B2
:101760000200606594F85C1004208840304068B145
:101770002068006800F0020040B194F85C1004207A
:101780008840A860606D40F00400606594F85C10CB
:1017900010208840304078B32068006800F00800CE
:1017A00050B394F85C1010208840A860206800684E
:1017B00000F4802080B12068006800F4002028B97F
:1017C000206CC8B12046216C884715E0A06C98B108
:1017D0002046A16C88470FE02068006800F4807004
:1017E00028B92068006820F0080021680860206C93
:1017F00010B12046216C884794F85C102020884066
:101800003040002865D02068006800F010000028F3
:101810005FD094F85C1020208840A86094F83500D0
:10182000052828D12068006820F01600216808608B
:101830002068406920F0800021684861206C08B968
:10184000A06C28B12068006820F0080021680860BA
:1018500094F85C103F208840A860012084F835008F
:1018600000BF002084F8340000BF206D10B1204676
:10187000216D8847F8BD2068006800F4802080B1A1
:101880002068006800F4002028B9606C10B1204680
:10189000616C88471DE0E06BD8B12046E16B88475A
:1018A00017E02068006800F4807068B9206800685C
:1018B00020F0100021680860012084F8350000BF86
:1018C000002084F8340000BFE06B10B12046E16BCB
:1018D0008847606D38B3606D00F00100F0B10520FD
:1018E00084F835002068006820F001002168086055
:1018F00000BF0098401C0090B84200D905E0206865
:10190000006800F001000028F3D100BF012084F836
:10191000350000BF002084F8340000BFE06C10B137
:101920002046E16C884700BFA4E7000010000020BB
:101930002DE9F0410446002500F0C6F9074614B928
:101940000120BDE8F081606A00B100BF022084F888
:10195000350000BF002084F8340000BF2068006814
:1019600020F00100216808600AE000F0ADF9C01B1A
:10197000052805D920206065032084F83500E0E7BC
:101980002068006800F001000028EED1206805689A
:1019900021480540D4E901010843E1680843216971
:1019A000084361690843A1690843E1690843216A62
:1019B00008430543606A042803D1D4E90B010843B6
:1019C0000543206805602068456925F00705606AC1
:1019D0000543606A04280DD1A06A0543E06A48B156
:1019E0002046FEF79FFF28B140206065012084F863
:1019F0003500A6E7206845612046FEF779FF0646D8
:101A000094F85C103F208840B060002060650120A1
:101A100084F83500002094E73F8010F02DE9F0476E
:101A200004460D4616461F464FF00008D4F858905D
:101A300000BF94F83400012802D10220BDE8F087ED
:101A4000012084F8340000BF94F83500012825D126
:101A5000022084F83500002060653B463246294666
:101A60002046FEF7B4FF94F85C103F208840C9F888
:101A700008002068006840F0160021680860206CAB
:101A800028B12068006840F00800216808602068DC
:101A9000006840F001002168086006E000BF0020F7
:101AA00084F8340000BF4FF002084046C6E700004B
:101AB00070B5044600F008F906462546681C10B1CA
:101AC00004480078054400BF00F0FEF8801BA842DF
:101AD000FAD370BD0C000020F8B502460B46002575
:101AE000002400200021D5E0012606FA01F51E6839
:101AF00006EA0504AC4274D11E7906F00306012EF5
:101B000004D01E7906F00306022E13D190684F0010
:101B10000326BE40B0434F00DE68BE4030439060B5
:101B2000506801268E40B0431E79C6F300168E40E1
:101B3000304350601E7906F00306032E09D0D068AA
:101B40004F000326BE40B0434F009E68BE40304366
:101B5000D0601E7906F00306022E13D1CF0802F1E1
:101B6000200656F827004E07F70E0F26BE40B0435A
:101B70004F07FF0E1E69BE403043CF0802F120061A
:101B800046F8270010684F000326BE40B0431E7978
:101B900006F003064F00BE40304310605E6806F456
:101BA0004036002E75D000BF002600963B4E3668AA
:101BB00046F48046394F3E603E46366806F480461D
:101BC000009600BF00BF364E8F0856F827008E07DC
:101BD000370F0F26BE40B043324EB24202D100262C
:101BE00024E056E0304EB24201D101261EE02F4ED5
:101BF000B24201D1022619E02D4EB24201D1032694
:101C000014E02C4EB24201D104260FE02A4EB2421B
:101C100001D105260AE0294EB24201D1062605E08F
:101C2000274EB24201D1072600E008268F073F0F5A
:101C3000BE4030431A4E8F0846F82700214E3068C8
:101C4000A0435E6806F4803606B120431D4E306026
:101C5000361D3068A0435E6806F4003606B12043A6
:101C6000184E361D3060361D3068A0435E6806F49D
:101C7000801606B12043134E08363060361D30689A
:101C8000A0435E6806F4001606B120430D4E0C36E4
:101C90003060491C1029FFF427AFF8BD44380240DA
:101CA00008380140000002400004024000080240E1
:101CB000000C0240001002400014024000180240D4
:101CC000001C0240003C01400148006870470000D1
:101CD00004000020034800680349097808440149CA
:101CE00008607047040000200C00002010B50D486B
:101CF000006840F400700B4908600846006840F432
:101D0000806008600846006840F480700860032026
:101D100000F0A2F80F2000F007F800F02BF80020E8
:101D200010BD0000003C024070B504460E4800782B
:101D30004FF47A71B1FBF0F00C490968B1FBF0F592
:101D4000284600F02BFC08B1012070BD102C07D2F2
:101D500000222146501E00F041F80548046001E0D1
:101D60000120F2E70020F0E70C0000201000002026
:101D70000800002008B500BF002000900E48006851
:101D800040F480400C4908600846006800F4804038
:101D9000009000BF00BF00BF00200090081F006837
:101DA00040F08050091F08600846006800F080502D
:101DB000009000BF00BF08BD4438024001460846FD
:101DC000002809DB00F01F0301229A4043099B0011
:101DD00003F1E023C3F8002100BF70472DE9F05F55
:101DE00080460D461646002702F0D2FE07463946C9
:101DF0002A46334601F00700C0F1070ABAF1040F82
:101E000002D94FF0040A01E0C0F1070AD14600F1FF
:101E1000040ABAF1070F02D24FF0000A01E0A0F164
:101E2000030AD4464FF0010A0AFA09FAAAF1010A94
:101E30000AEA020A0AFA0CFA4FF0010B0BFA0CFB41
:101E4000ABF1010B0BEA030B4AEA0B0421464046B7
:101E500002F0A6FEBDE8F09F00BF00F00702064BAF
:101E600019684FF6FF031940044B0B4343EA022164
:101E7000014B196000BF70470CED00E00000FA054F
:101E800070B504460D460CB9012070BD5848006875
:101E900000F00700A84209D255490D7008460068B5
:101EA00000F00700A84201D00120EEE7207800F002
:101EB000020002281DD1207800F00400042805D17A
:101EC0004C48006840F4E0504A490860207800F02F
:101ED0000800082805D14748006840F4604045499B
:101EE00008604448006820F0F000A16808434149B8
:101EF0000860207800F00100A8B36068012807D1CD
:101F00003C4808380068C0F34040B8B90120BCE73D
:101F10006068022802D06068032807D13548083875
:101F20000068C0F3406048B90120AEE73148083886
:101F30000068C0F3400008B90120A6E72D480068FA
:101F400020F00300616808432A490860FFF7BCFEDF
:101F5000064609E0FFF7B8FE801B41F2883188424F
:101F600002D9032091E707E02248006800F00C0046
:101F70006168B0EB810FEDD11D48006800F00700EB
:101F8000A84209D91A490D700846006800F00700F8
:101F9000A84201D0012078E7207800F0040004284E
:101FA00007D11448006820F4E050E1680843114963
:101FB0000860207800F00800082808D10D48006863
:101FC00020F46040216940EAC1000A49086000F03D
:101FD0003FF808490968C1F30311074A515CC8403A
:101FE0000649086006480068FFF79EFE00204CE79F
:101FF000003C0240083802406A55000810000020EA
:102000000800002001480068704700001000002010
:1020100000B5FFF7F7FF04490968C1F38221034ABD
:10202000515CC84000BD0000083802407A550008E5
:1020300000B5FFF7E7FF04490968C1F34231034ADD
:10204000515CC84000BD0000083802407A550008C5
:102050002DE9F047002400250026A1462548006808
:1020600000F00C0020B1042805D008283AD105E082
:10207000DFF8849039E0DFF8849036E01D48001FD7
:10208000006800F03F041B48001F006800F4800057
:1020900078B11A481749091F0968C1F38811A0FBD4
:1020A00001700146224600233846FEF7DDF805465A
:1020B0000EE011480F49091F0968C1F38811A0FB00
:1020C00001700146224600233846FEF7CDF805464A
:1020D0000848001F0068C0F30140401C4600B5FBE3
:1020E000F6F902E0DFF8109000BF00BF4846BDE8F7
:1020F000F0870000083802400024F400001BB700FD
:10210000F8B504460CB90120F8BD207800F00100B4
:10211000002874D0F948006800F00C0004280DD0A5
:10212000F648006800F00C00082813D1F348001F9F
:10213000006800F48000B0F5800F0BD1EF4808383C
:102140000068C0F34040002859D06068002856D18C
:102150000120D9E700BF6068B0F5803F08D1E748AB
:102160000838006840F48030E449083908601EE00F
:102170006068B0F5A02F0DD1E0480838006840F441
:102180008020DE49083908600846006840F4803045
:1021900008600CE0D9480838006820F48030D7493E
:1021A000083908600846006820F48020086000BFF5
:1021B000606890B1FFF788FD054606E0FFF784FDF3
:1021C000401B642801D903209EE7CC4808380068EA
:1021D000C0F340400028F1D011E0FFF775FD05463F
:1021E00006E0FFF771FD401B642801D903208BE74F
:1021F000C24808380068C0F340400028F1D1207878
:1022000000F0020002285FD1BC48006800F00C001A
:1022100058B1BA48006800F00C0008281CD1B74833
:10222000001F006800F48000B0B9B44808380068A6
:10223000C0F3400020B1E068012801D0012063E72D
:10224000AE480838006820F0F800216940EAC10073
:10225000AA490839086037E0E06800B30120A849BE
:102260000860FFF731FD054606E0FFF72DFD401B36
:10227000022801D9032047E7A04808380068C0F3C6
:1022800040000028F1D09D480838006820F0F80090
:10229000216940EAC10099490839086014E000202A
:1022A00097490860FFF710FD054606E0FFF70CFDB3
:1022B000401B022801D9032026E79048083800680F
:1022C000C0F340000028F1D1207800F00800082871
:1022D0002CD16069A8B101208A490860FFF7F4FC9D
:1022E000054606E0FFF7F0FC401B022801D9032059
:1022F0000AE782486C300068C0F340000028F1D043
:1023000014E000207F490860FFF7DEFC054606E088
:10231000FFF7DAFC401B022801D90320F4E67748D6
:102320006C300068C0F340000028F1D1207800F044
:102330000400042870D1002770483830006800F08D
:10234000805090B900BF002000906C483830006881
:1023500040F080506949383108600846006800F054
:102360008050009000BF00BF01276748006800F45C
:102370008070B0B96448006840F4807062490860B9
:10238000FFF7A2FC054606E0FFF79EFC401B022873
:1023900001D90320B8E65C48006800F4807000288A
:1023A000F2D000BFA068012808D154486830006806
:1023B00040F001005149683108601DE0A06805281F
:1023C0000DD14E486830006840F004004B49683138
:1023D00008600846006840F0010008600CE04748CB
:1023E0006830006820F00100444968310860084600
:1023F000006820F00400086000BFA068A8B1FFF7E3
:1024000063FC054609E0FFF75FFC401B41F28831A1
:10241000884202D9032077E626E038486830006811
:10242000C0F340000028EED013E0FFF74DFC054656
:1024300008E0FFF749FC401B41F28831884201D98E
:10244000032061E62D4868300068C0F34000002892
:10245000EFD1012F07D129483830006820F0805093
:1024600026493831086000BFA069002845D02348BC
:10247000006800F00C0008285DD0A069022845D152
:1024800000201F490866FFF71FFC054606E0FFF71E
:102490001BFC401B022801D9032035E617480838E9
:1024A0000068C0F340600028F1D1D4E90701084377
:1024B000616A40EA81110122A06AC2EB500041EA40
:1024C00000412C20005D41EA00600C49091F0860B2
:1024D00001200B490866FFF7F7FB054606E0FFF70A
:1024E000F3FB401B022801D903200DE603480838FE
:1024F0000068C0F340600028F1D049E0083802408D
:1025000000004742800E47420070004000202149F1
:102510000866FFF7D9FB054606E0FFF7D5FB401B31
:10252000022801D90320EFE51B480068C0F3406092
:102530000028F2D12CE0A069012800D1E4E516487A
:10254000001D0668A069012820D006F48001E0691A
:1025500081421BD106F03F01206A814216D147F625
:10256000C0703040616AB0EB811F0FD106F440317A
:102570000122A06AC2EB5000B1EB004F06D106F079
:1025800070612C20005DB1EB006F01D00120BBE534
:102590000020B9E5000047420038024070B504460B
:1025A0002546681EB0F1807F01D301200FE0681E30
:1025B0004FF0E02148610F214FF0FF3002F0F0FAB8
:1025C00000204FF0E021886107200861002070BDE5
:1025D0007047704710B50346002200BF93F83C00D7
:1025E000012801D1022010BD012083F83C0000BF6A
:1025F00022F0FF00CC6840EA040222F440708C68AC
:1026000040EA040222F480604C6840EA040222F4AA
:1026100000600C6840EA040222F480500C6940EA31
:10262000040222F400504C6940EA040222F4804083
:10263000CC6940EA04021868426400BF002083F8B5
:102640003C0000BF00BFCEE730B502460B4600BFDE
:1026500092F83C00012801D1022030BD012082F80F
:102660003C0000BF022082F83D00106844681068FA
:10267000816824F070041868044310684460184DA1
:102680001068A8421BD01068B0F1804F17D0154DCC
:102690001068A84213D0144D1068A8420FD0134DF3
:1026A0001068A8420BD0124D1068A84207D0114DF7
:1026B0001068A84203D0104D1068A84205D121F03F
:1026C00080015868014310688160012082F83D0054
:1026D00000BF002082F83C0000BF00BFBDE7000043
:1026E000000001400004004000080040000C0040D1
:1026F00000040140004001400018004010B50446AD
:102700000CB9012010BD94F83D0028B9002084F8D0
:102710003C00204600F026F8022084F83D00211DF0
:10272000206801F0EFFC012084F8460000BF84F827
:102730003E0001213F200155402001554120015517
:1027400000BF00BF012084F842004320015544200F
:1027500001554520015500BF012084F83D000020AF
:10276000D0E7000038B504463849206888420FD1C8
:1027700000BF002000903648006840F00100344956
:1027800008600846006800F00100009000BF5BE0B0
:102790002068B0F1804F1AD100BF002000902C4873
:1027A000001F006840F001002949091F0860084621
:1027B000006800F00100009000BF00BF002201216E
:1027C0001C20FFF70BFB1C20FFF7F8FA3CE0214927
:1027D000206888421AD100BF002000901C48001FCA
:1027E000006840F002001A49091F086008460068A6
:1027F00000F00200009000BF00BF002201211D2058
:10280000FFF7ECFA1D20FFF7D9FA1DE01249206806
:10281000884219D100BF002000900D48001F0068B9
:1028200040F004000A49091F08600846006800F0EB
:102830000400009000BF00BF002211461E20FFF7D9
:10284000CDFA1E20FFF7BAFA38BD000000000140A3
:10285000443802400004004000080040014691F85E
:102860003D00012801D001207047022081F83D0081
:102870000868C06840F001000B68D8601A4B08680F
:1028800098421BD00868B0F1804F17D0174B0868EA
:10289000984213D0164B086898420FD0154B086821
:1028A00098420BD0144B0868984207D0134B086825
:1028B000984203D0124B086898420CD1086880688F
:1028C00000F00702062A0CD00868006840F00100FA
:1028D0000B68186005E00868006840F001000B68AC
:1028E00018600020C0E70000000001400004004024
:1028F00000080040000C004000040140004001407E
:10290000001800402DE9F04104460D46002700BFA5
:1029100094F83C00012802D10220BDE8F08101209A
:1029200084F83C0000BF022084F83D0020688668DF
:1029300026F0770626F47F462068866028685028AF
:1029400033D00CDC202850D004DC00284BD01028D9
:1029500051D149E0302849D040284CD139E0602895
:102960002DD0702807D0B0F5805F03D0B0F5005FA0
:1029700041D10DE041E0D5E902136A68206801F019
:102980003EFC2068866846F077062068866034E062
:10299000D5E902136A68206801F031FC206880687C
:1029A00040F480402168886027E0EA686968206810
:1029B00001F016FD5021206801F02CFC1DE0EA68B2
:1029C0006968206801F01FFD6021206801F022FC89
:1029D00013E0EA686968206801F002FD4021206880
:1029E00001F018FC09E000BF00BF00BF29682068A3
:1029F00001F010FC01E0012700BF00BF012084F8B6
:102A00003D0000BF002084F83C0000BF384684E74A
:102A1000704710B5044620680069C0F34000D8B183
:102A20002068C068C0F34000B0B16FF002002168B8
:102A30000861012020772068806900F0030018B148
:102A40002046FFF7E5FF05E0204600F0DFF82046CE
:102A500000F093F90020207720680069C0F380001F
:102A6000D8B12068C068C0F38000B0B16FF0040036
:102A700021680861022020772068806900F4407096
:102A800018B12046FFF7C4FF05E0204600F0BEF86D
:102A9000204600F072F90020207720680069C0F31A
:102AA000C000D8B12068C068C0F3C000B0B16FF0FA
:102AB000080021680861042020772068C06900F0C0
:102AC000030018B12046FFF7A3FF05E0204600F001
:102AD0009DF8204600F051F9002020772068006919
:102AE000C0F30010D8B12068C068C0F30010B0B1C6
:102AF0006FF0100021680861082020772068C06905
:102B000000F4407018B12046FFF782FF05E0204630
:102B100000F07CF8204600F030F900202077206893
:102B2000006900F0010058B12068C06800F00100A1
:102B300030B16FF0010021680861204600F0A4F96F
:102B400020680069C0F3C01058B12068C068C0F3A5
:102B5000C01030B16FF08000216808612046FFF797
:102B600037FD20680069C0F3801058B12068C06844
:102B7000C0F3801030B16FF040002168086120463A
:102B800000F083F920680069C0F3401058B1206854
:102B9000C068C0F3401030B16FF0200021680861B8
:102BA0002046FFF716FD10BD10B586B0044614216F
:102BB00001A8FDF7D0FB1249206888421DD100BF53
:102BC000002000900F48006840F010000D49086098
:102BD0000846006800F01000009000BF00BF4FF4EE
:102BE00020600190022002900020039004900120B8
:102BF000059001A90448FEF76FFF06B010BD000064
:102C000000000140303802400010024070472DE9BA
:102C1000F04104460D461646002700BF94F83C00DC
:102C2000012802D10220BDE8F081012084F83C0097
:102C300000BF36B1042E1BD0082E31D00C2E5ED131
:102C400045E02946206801F0EFFA2068806940F0ED
:102C50000800216888612068806920F004002168EC
:102C6000886120688069296908432168886148E093
:102C70002946206801F010FB2068806940F400605C
:102C8000216888612068806920F4806021688861FB
:102C900020688069296940EA01202168886130E064
:102CA0002946206801F036FB2068C06940F0080022
:102CB0002168C8612068C06920F004002168C861EB
:102CC0002068C069296908432168C86119E029465C
:102CD000206801F05BFB2068C06940F40060216857
:102CE000C8612068C06920F480602168C8612068DC
:102CF000C069296940EA01202168C86101E0012713
:102D000000BF00BF00BF002084F83C0000BF384671
:102D100089E710B504460CB9012010BD94F83D00B8
:102D200028B9002084F83C00204600F025F8022055
:102D300084F83D00211D206801F0E4F9012084F8A9
:102D4000460000BF84F83E0001213F20015540208D
:102D500001554120015500BF00BF012084F8420009
:102D600043200155442001554520015500BF012055
:102D700084F83D000020D0E77047704770B50446E6
:102D80000D4615B994F83E000BE0042D02D13F200A
:102D9000005D06E0082D02D14020005D01E04120E9
:102DA000005D012801D0012070BD1DB9022084F80A
:102DB0003E000EE0042D03D102213F20015508E022
:102DC000082D03D102214020015502E002214120BB
:102DD000015501222946206801F000FA23492068A4
:102DE000884203D022492068884201D1012000E0B6
:102DF000002028B12068406C40F4004021684864FD
:102E00001A49206888421BD02068B0F1804F17D043
:102E100018492068884213D01749206888420FD08B
:102E20001649206888420BD011492068884207D093
:102E300013492068884203D01249206888420CD187
:102E40002068806800F00706062E0CD02068006815
:102E500040F001002168086005E02068006840F04B
:102E600001002168086000209EE70000000001408A
:102E7000000401400004004000080040000C004035
:102E8000004001400018004070477047704770B51F
:102E90000446002520684069C0F3C01594F83D0041
:102EA000212817D1B5B100BF00BF2168143151E806
:102EB000001F21F080002168143141E80002002A3F
:102EC000F3D100BF606B10B1606BFEF7A6FB20462C
:102ED00001F08DFB20684069C0F3801594F83E0036
:102EE000222817D1B5B100BF00BF2168143151E8C5
:102EF000001F21F040002168143141E80002002A3F
:102F0000F3D100BFA06B10B1A06BFEF786FB20468B
:102F100001F027FB002070BD704700002DE9F84F3D
:102F20000446206805682068C668206847694FF035
:102F30000009CA4605F00F09B9F1000F0AD105F0E2
:102F4000200038B106F0200020B1204601F062FBDD
:102F5000BDE8F88FB9F1000F7CD007F0010018B977
:102F600006F49070002875D005F0010030B106F429
:102F7000807018B1206C40F00100206405F004005E
:102F800030B107F0010018B1206C40F0020020645D
:102F900005F0020030B107F0010018B1206C40F0DC
:102FA0000400206405F0080048B106F0200010B9C4
:102FB00007F0010018B1206C40F008002064206C7C
:102FC000002846D005F0200028B106F0200010B1FE
:102FD000204601F01FFB20684069C0F3801A206C76
:102FE00000F0080010B9BAF1000F2DD0204601F012
:102FF000B8FA2068406900F04000402820D100BFA6
:1030000000BF2168143151E8001F21F04000216801
:10301000143141E80002002AF3D100BFA06B50B187
:103020007548A16B0865A06BFEF74DFB88B1A06BDE
:10303000016D88470DE02046FFF76EFF09E009E0CB
:103040002046FFF769FF04E02046FFF765FF0020F8
:1030500020647DE7206B012876D105F01000002860
:1030600072D006F010000028FAD000BF00200090B7
:1030700020680068009020684068009000BF00BF92
:103080002068406900F0400040285ED1A06B0068D5
:1030900040681FFA80F8B8F1000F54D0A08D404569
:1030A00051DDA4F82E80A06BC069B0F5807F43D0BD
:1030B00000BF00BF21680C3151E8001F21F480706F
:1030C00021680C3141E80002002AF3D100BF00BFA3
:1030D00000BF2168143151E8001F21F00100216870
:1030E000143141E80002002AF3D100BF00BF00BF45
:1030F0002168143151E8001F21F04000216814318B
:1031000041E80002002AF3D100BF202084F83E00ED
:103110000020206300BF00BF21680C3151E8001F70
:1031200021F0100021680C3141E80002002AF3D19F
:1031300000BFA06BFEF771FAA08DE28D801A81B2FC
:103140002046FFF7A3FE03E740E0A08DE18D401A83
:103150001FFA80F8E08DC0B3B8F1000F35D000BF82
:1031600000BF21680C3151E8001F21F490702168E4
:103170000C3141E80002002AF3D100BF00BF00BFBC
:103180002168143151E8001F21F001002168143139
:1031900041E80002002AF3D100BF202084F83E005D
:1031A0000020206300BF00BF21680C3151E8001FE0
:1031B00021F0100021680C3141E80002002AF3D10F
:1031C00000BF41462046FFF761FEC1E605F08000E2
:1031D00030B106F0800018B1204601F036FCB7E6A9
:1031E00005F0400030B106F0400018B1204601F073
:1031F000EEF9ADE600BFABE62F44000810B504467B
:103200000CB9012010BDA06900B100E000BF94F826
:103210003D0028B9002084F83C00204600F028F842
:10322000242084F83D002068C06820F40050216804
:10323000C860204601F06AFA2068006920F49040D6
:10324000216808612068406920F02A0021684861EF
:103250002068C06840F400502168C86000202064E5
:10326000202084F83D0084F83E000020CAE70000DA
:1032700010B586B00446142101A8FDF76CF87D490D
:103280002068884256D100BF002000907A4800682C
:1032900040F01000784908600846006800F010000F
:1032A000009000BF00BF00BF00200090724814389B
:1032B000006840F002007049143908600846006850
:1032C00000F00200009000BF00BF00BF002000908F
:1032D0000846006840F0010008600846006800F0F9
:1032E0000100009000BF00BF8020019002200290EA
:1032F00000200390032004900720059001A95F4857
:10330000FEF7EAFB4FF400700190022002900020CB
:103310000390032004900720059001A95848FEF768
:10332000DBFB002211462520FEF758FD2520FEF785
:1033300045FD9CE05349206888425BD100BF0020D6
:1033400000904D48001F006840F480204A49091F42
:1033500008600846006800F48020009000BF00BFAD
:1033600000BF0020009044481438006840F004007A
:103370004149143908600846006800F004000090D4
:1033800000BF00BF4FF44060019002200290002077
:103390000390032004900720059001A93A48FEF706
:1033A0009BFB3A483A4908604FF0006048600021B2
:1033B00037488160C1604FF4806101610021416143
:1033C00081614FF48071C161002101624162FEF7A9
:1033D000AFFA08B1FDF712FB00BF2D48A06384636C
:1033E00000BF002211462720FEF7F8FC2720FEF739
:1033F000E5FC3CE027492068884238D100BF002026
:1034000000901D48006840F020001B4908600846F5
:10341000006800F02000009000BF00BF00BF002047
:10342000009015481438006840F0400012491439E3
:1034300008600846006800F04000009000BF00BF30
:103440004FF484400190022002900020039003205A
:1034500004900820059001A90F48FEF73DFB0022CB
:1034600011464720FEF7BAFC4720FEF7A7FC06B03E
:1034700010BD00000010014044380240000402402A
:10348000000002400048004000080240286002405E
:1034900018030020001401400018024070B50446D3
:1034A0000D46164694F83E00202816D105B10EB9F7
:1034B000012070BD00BF94F83C00012801D102201A
:1034C000F7E7012084F83C0000BF0020206332466B
:1034D0002946204601F030FAEBE70220E9E770B513
:1034E00004460D46164694F83E00202816D105B134
:1034F0000EB9012070BD00BF94F83C00012801D135
:103500000220F7E7012084F83C0000BF0020206380
:1035100032462946204601F075FAEBE70220E9E73A
:1035200000B50246184882422CD11848007851282C
:1035300007D116480078164908700120154908700F
:1035400020E012480078522811D113480088401C0E
:1035500000B2114908800D4800780D490D4B1B78C9
:10356000C85400200B49087000F0AEFB0AE0074881
:1035700000780749074B1B78C85406480078401C60
:103580000449087000BD00004C0200201B00002010
:10359000160000201C0000201400002070472DE9B8
:1035A000F84F04460E46174699464FF0000A94F825
:1035B0003D0020285AD106B117B90120BDE8F88F87
:1035C00000BF94F83C00012801D10220F6E7012059
:1035D00084F83C0000BF00202064212084F83D00D6
:1035E000FEF772FB8246A784E784A068B0F5805F8F
:1035F00004D1206910B90025B04602E035464FF0ED
:10360000000800BF002084F83C0000BF1BE05346C8
:10361000002280212046CDF8009001F046FA08B142
:103620000320CBE745B9B8F80000C0F308002168D3
:10363000486008F1020803E02878216848606D1CA2
:10364000E08C401EE084E08C0028E0D1534600224C
:1036500040212046CDF8009001F027FA08B1032060
:10366000ACE7202084F83D000020A7E70220A5E772
:10367000704700BFFEE7000038B5144800680068D6
:10368000C0F3001000B300BF002000900F48006896
:10369000006800900D4800684068009000BF00BFBF
:1036A0000A48FFF7F4FB0A4800684568C5F124049E
:1036B000122C04D1012007490880FCF77DFF242249
:1036C00005490248FFF7EAFE38BD000090020020DD
:1036D000180300208C000020C003002030B50346F2
:1036E000501A00B21880B3F90000B3F90240001B71
:1036F00001EE900AF8EEE11A61EE801AB3F90000CB
:1037000002EE100AB8EEC22A40EE821A022505FB2C
:103710001400B3F90440204402EE100AB8EEC22AA5
:1037200041EE021AB3F9060002EE100AB8EEC22A00
:1037300071EE821AFDEEE11A11EE900A00B21881C4
:10374000B3F9080041F28834A04201DB2046188119
:10375000B3F90800074CA04202DC4EF6784018810D
:103760001889D8805888988018885880B3F908003C
:1037700030BD000078ECFFFF10B51148114908601A
:103780000320486000210F488160C1604FF4C021D0
:1037900001614FF4A00141610021017601214176D0
:1037A00000218176C1760121017700214177FDF763
:1037B00098FC08B1FDF722F9FCF774FE10BD00007B
:1037C000006400400401002008B500BF0020009004
:1037D0000A48006840F4001008490860084600687C
:1037E00000F40010009000BF00BF002211460C2022
:1037F000FEF7F4FA0C20FEF7E1FA08BD303802407B
:1038000008B500BF002000903348006840F0400039
:10381000314908600846006800F04000009000BF91
:1038200000BF00BF002000900846006840F0010083
:1038300008600846006800F00100009000BF00BF6B
:1038400000BF002000900846006840F002000860B9
:103850000846006800F00200009000BF00BF00BFF3
:10386000002000900846006840F008000860084604
:10387000006800F00800009000BF00BF00BF0020FB
:1038800000900846006840F00400086008460068A0
:1038900000F00400009000BF00BF00BF00200090B7
:1038A0000846006840F0800008600846006800F0A4
:1038B0008000009000BF00BF00BF002000900846BD
:1038C000006840F0100008600846006800F0100032
:1038D000009000BF00BF08BD3038024000B595B071
:1038E000002011901290139014900F9010901C21B2
:1038F00008A8FCF730FD20216846FCF72CFD36486F
:1039000036490860A720486000213448816040F6AD
:10391000C311C1600021016141618161FEF7EEFECA
:1039200008B1FDF76BF84FF48050119011A92B48A6
:10393000FEF7E8FF08B1FDF761F82848FFF7E9F95D
:1039400008B1FDF75BF800200F9010900FA92348F5
:10395000FEF77AFE08B1FDF751F86020089040F2BA
:10396000E730099000200A900B900C900D900E907B
:10397000002208A91948FFF74AF908B1FDF73EF8F7
:10398000042208A91548FFF742F908B1FDF736F8F7
:103990000020009001900290039004904FF400509A
:1039A00005900020079069460C48FEF713FE08B109
:1039B000FDF724F800210948FFF7E0F90421074842
:1039C000FFF7DCF94FF4FA70FEF772F80348FFF7DF
:1039D000EBF815B000BD0000000001402C010020F4
:1039E00000B587B0002003900490059006900190E8
:1039F00002904FF080401549086053204860002134
:103A00001248816040F2CF71C16000210161816183
:103A1000FEF774FE08B1FCF7F1FF4FF480500390FD
:103A200003A90A48FEF76EFF08B1FCF7E7FF002084
:103A30000190029001A90548FEF706FE08B1FCF7C7
:103A4000DDFF0248FEF70AFF07B000BD7401002049
:103A500000B587B000200390049005900690019077
:103A60000290164816490860532048600021144807
:103A7000816041F28731C160002101618161FEF7FF
:103A80003DFE08B1FCF7BAFF4FF48050039003A944
:103A90000B48FEF737FF08B1FCF7B0FF002001909C
:103AA000029001A90648FEF7CFFD08B1FCF7A6FF7A
:103AB0000348FEF7D3FE07B000BD0000000400403D
:103AC000BC01002000B587B0002003900490059051
:103AD00006900190029016481649086053204860ED
:103AE00000211448816040F2E731C160002101618A
:103AF0008161FEF703FE08B1FCF780FF4FF48050B0
:103B0000039003A90B48FEF7FDFE08B1FCF776FF12
:103B100000200190029001A90648FEF795FD08B12A
:103B2000FCF76CFF0348FEF799FE07B000BD0000EC
:103B3000000800400402002010B50D480D4908603F
:103B40004FF4E130486000210A488160C1600161A2
:103B50000C21416100218161C161FFF74FFB08B178
:103B6000FCF74CFF012204490248FFF7B8FC10BDE6
:103B7000001001404C0200201B00002010B50D4831
:103B80000D4908600D4848604FF480510A48816033
:103B90000021C1604FF4806101610C21416100216D
:103BA0008161C161FFF72AFB08B1FCF727FF00F034
:103BB000DBF910BD0048004090020020A086010003
:103BC00010B50B480B4908604FF4E1304860002104
:103BD00008488160C16001610C214161002181615F
:103BE000C161FFF70BFB08B1FCF708FF10BD000037
:103BF00000140140D402002000BFFEE700BFFEE732
:103C000030B58BB000200790089009900A9003907F
:103C100004900590069000900190029000250024E9
:103C200013E0274800EB840090ED000ABDEEC00AC7
:103C300010EE100A07A941F8240007A850F8240044
:103C400003A941F82400601CC4B2042CE9DB002461
:103C500010E003A810F824000DF8140003A830F8B1
:103C60002400C0F30720012101EB44010DF80100FD
:103C7000601CC4B2042CECDB08216846FCF7D6FBC0
:103C800005462846E91705EB11610912A5EB01214C
:103C9000C9B28DF80810E91705EB1161090A8DF812
:103CA0000910002408E00DEB0401FF230122054860
:103CB000FFF775FC601CC4B20A2CF4DB0BB030BDFE
:103CC00020040020D40200204048007851287BD1F5
:103CD0003E480079522877D13C48C0783C4908805A
:103CE0003A484078283800EE100AB8EEC00ADFEDF6
:103CF000390A20EE200ABDEEC00A10EE100A00B20A
:103D00003549088031488078283800EE100AB8EE2E
:103D1000C00ADFED300A20EE200ABDEEC00A10EE28
:103D2000100A00B22D4908802D48D0ED000A2A481B
:103D3000B0F9000000EE100AB8EEC00A20EE800ACA
:103D40002748D0ED000AB7EE001A31EE601A254878
:103D5000B0F9000000EE900AF8EEE00A01EE200A49
:103D6000BDEEC00A10EE100A00B21F4908801C48C0
:103D7000D0ED000A1948B0F9000000EE100AB8EEC4
:103D8000C00A20EE800A1648D0ED000AB7EE001AED
:103D900031EE601A1548B0F9000000EE900AF8EE16
:103DA000E00A01EE200ABDEEC00A10EE100A00B2D1
:103DB0000F4908800C48B0F900000A4908800C48F7
:103DC000B0F9000009490880704700001600002083
:103DD000260000203D0AB6411E00002020000020E1
:103DE000280000202C000020220000202E000020AF
:103DF000240000207047000070B504460D461646AA
:103E0000701B00B22080A0882188084400B2A080E6
:103E1000B4F900004FF4005241F2883101F04EFA3B
:103E20002080B4F9000001EE900AF8EEE11A61EE8C
:103E3000801AB4F9040002EE100AB8EEC22A40EE6D
:103E4000821AB4F90000B4F90210401A02EE100A06
:103E5000B8EEC22A41EE021AFDEEE11A11EE900A06
:103E600000B2E08020886080B4F9040047F230514D
:103E7000884202DD0846A08007E0B4F904000D493D
:103E8000884202DA48F6D020A080B4F9060041F258
:103E90008831884202DD0846E08007E0B4F9060078
:103EA0000549884202DA4EF67840E080B4F906000F
:103EB00070BD0000D08AFFFF78ECFFFF30B50346ED
:103EC000541A24B21C809C881D882C4424B29C80E7
:103ED000B3F9004001EE904AF8EEE11A61EE801A63
:103EE000B3F9044002EE104AB8EEC22A40EE821A3C
:103EF000B3F90040B3F90250641B02EE104AB8EE69
:103F0000C22A41EE021AFDEEE11A11EE904A24B2E5
:103F1000DC801C885C80B3F9044047F23055AC4229
:103F200002DD2C469C8007E0B3F904400D4DAC4205
:103F300002DA48F6D0249C80B3F9064047F23055A7
:103F4000AC4202DD2C46DC8007E0B3F90640054DAB
:103F5000AC4202DA48F6D024DC80DC88644220B22D
:103F600030BD0000D08AFFFF08B500BF00200090E0
:103F70000B4800680068009009480068406800909D
:103F800000BF00BF06480068C06840F01000044948
:103F90000968C860242203490148FFF77FFA08BD79
:103FA00090020020C0030020704710B5FDF792FE7C
:103FB00010BD000000B593B0302107A8FCF7CBF985
:103FC000142102A8FCF7C7F900BF00200190244883
:103FD000006840F08050224908600846006800F000
:103FE0008050019000BF00BF00BF002001901D481D
:103FF000006840F480401B4908600846006800F4EF
:104000008040019000BF00BF01200790000408908D
:1040100002200D9041050E9106210F91A8211091CB
:10402000022111910421129107A8FEF769F808B145
:10403000FCF7E4FC0F200290022003900020049083
:104040004FF4A05005904FF480500690052102A82F
:10405000FDF716FF08B1FCF7D1FC13B000BD00005E
:1040600040380240007000400348006840F470008F
:10407000014908607047000088ED00E010B50E4867
:104080000088322809D00C480088401C0A49088062
:1040900001F050F800F098FD09E040F20321002003
:1040A000FCF70EFA4FF401710020FCF709FA0348FF
:1040B000FEF7AFFC10BD00008C0000207401002052
:1040C00010B50A480088322802D000F003FE09E04B
:1040D00040F205210020FCF731FA40F206210020D1
:1040E000FCF72CFA0248FEF794FC10BD8C0000206F
:1040F000BC01002010B50248FEF78BFC10BD00008B
:104100000402002010B50268294B98420ED0B0F18D
:10411000804F0BD0274B984208D0274B984205D0B0
:10412000264B984202D0264B984203D122F07002CF
:104130004B681A431E4B984220D0B0F1804F1DD0DF
:104140001C4B98421AD01C4B984217D01B4B9842DC
:1041500014D01B4B984211D01A4B98420ED01A4BD8
:1041600098420BD0194B984208D0194B984205D071
:10417000184B984202D0184B984203D122F4407257
:10418000CB681A4322F080034C6943EA04020260C0
:104190008B68C3620B688362054B984202D0084B60
:1041A000984201D10B6903630123436110BD0000F4
:1041B000000001400004004000080040000C0040E6
:1041C000000401400040014000440140004801401B
:1041D00000180040001C00400020004030B501F0F5
:1041E0001F05012404FA05F3046A9C430462046A6F
:1041F00001F01F0502FA05F52C43046230BD30B50D
:104200000C46816821F47F4142EA03252543294376
:10421000816030BD0A46816821F0700142F00703D9
:10422000194381607047000030B5056A25F001052B
:104230000562026A4368846924F0700424F0030470
:104240000D682C4322F002028D682A43104DA842CB
:1042500000D103E00F4DA84206D100BF22F00802B2
:10426000CD682A4322F00402094DA84202D0094D2C
:10427000A84207D123F4807323F400734D692B43C4
:104280008D692B43436084614D684563026230BD94
:10429000000001400004014030B5056A25F010051A
:1042A0000562026A4368846924F4E04424F440749B
:1042B0000D6844EA052422F020028D6842EA0512C6
:1042C000124DA84200D103E0114DA84207D100BF12
:1042D00022F08002CD6842EA051222F040020B4D26
:1042E000A84202D00A4DA84209D123F4806323F4E6
:1042F00000634D6943EA85038D6943EA85034360A2
:1043000084614D688563026230BD00000000014099
:104310000004014030B5056A25F480750562026A23
:104320004368C46924F0700424F003040D682C432E
:1043300022F400728D6842EA0522124DA84200D193
:1043400003E0114DA84207D100BF22F40062CD68FE
:1043500042EA052222F480620A4DA84202D00A4DA8
:10436000A84209D123F4805323F400534D6943EA52
:1043700005138D6943EA05134360C4614D68C56345
:10438000026230BD000001400004014030B5056A02
:1043900025F480550562036A4468C26922F4E0424C
:1043A00022F440720D6842EA052223F400538D681E
:1043B00043EA0533084DA84202D0084DA84204D173
:1043C00024F480444D6944EA85144460C2614D6818
:1043D0000564036230BD000000000140000401409C
:1043E00030B50B461446026A056A25F001050562E0
:1043F000816921F0F00141EA041122F00A021A4316
:104400008161026230BD30B50B461446056A25F065
:10441000100505628169026A21F4704141EA0431A4
:1044200022F0A00242EA03128161026230BD70B53F
:104430000546AC6B0020E085E0842046FEF76CFD6D
:1044400070BD70B506460025B46B20684069C0F3A6
:10445000C01594F83D00212805D125B10020E08445
:10446000204600F0C4F820684069C0F3801594F835
:104470003E00222805D125B10020E085204600F02D
:1044800070F8206C40F0100020642046FEF744FDD8
:1044900070BD70B50546AC6B2868006800F480708C
:1044A000002842D1E08500BF00BF21680C3151E8EF
:1044B000001F21F4807021680C3141E80002002ABD
:1044C000F3D100BF00BF00BF2168143151E8001FC5
:1044D00021F001002168143141E80002002AF3D1E3
:1044E00000BF00BF00BF2168143151E8001F21F058
:1044F00040002168143141E80002002AF3D100BFD6
:10450000202084F83E00206B01280ED100BF00BFA0
:1045100021680C3151E8001F21F0100021680C3196
:1045200041E80002002AF3D100BF206B012804D12A
:10453000A18D2046FEF7AAFC02E02046FEF7F0FF20
:1045400070BD70B50546AC6B206B012805D1A08D00
:1045500041082046FEF79AFC02E02046FFF71EF8CD
:1045600070BD00BF00BF02680C3252E8002F22F479
:10457000907102680C3242E80013002BF3D100BFA7
:1045800000BF00BF0268143252E8002F22F0010180
:104590000268143242E80013002BF3D100BF016B14
:1045A00001290ED100BF00BF02680C3252E8002F73
:1045B00022F0100102680C3242E80013002BF3D104
:1045C00000BF202180F83E1000210163704710B524
:1045D00004462068C06820F040002168C8602020A0
:1045E00084F83D002046FFF743F8002010BD00BFCF
:1045F00000BF02680C3252E8002F22F0C0010268AE
:104600000C3242E80013002BF3D100BF202180F8C8
:104610003D107047F8B5044694F83E00222873D147
:10462000A068B0F5805F0CD1206950B90025A66A5A
:1046300020684068C0F308003080A06A801CA06237
:1046400015E0A56A0026A068B0F5805F03D0A068D9
:1046500028B9206918B920684068287004E02068EB
:10466000406800F07F002870A06A401CA062E08DC6
:10467000401E80B2E085002844D12068C06820F048
:1046800020002168C8602068C06820F4807021681C
:10469000C8602068406920F001002168486120203E
:1046A00084F83E00206B012826D10020206300BF43
:1046B00000BF21680C3151E8001F21F01000216873
:1046C0000C3141E80002002AF3D100BF20680068E5
:1046D00000F0100010280AD100BF002000902068D0
:1046E0000068009020684068009000BF00BFA18D66
:1046F0002046FEF7CBFB02E02046FEF711FF00202C
:10470000F8BD01E00020FBE70220F9E72DE9F84FB2
:1047100004462068006920F44050E168084321689D
:1047200008612169A068084361690843E169084399
:1047300000902068C06849F20C61884300990843E2
:104740002168C8602068406920F44070A16908436E
:104750002168486176492068884203D075492068FD
:10476000884203D1FDF764FC814602E0FDF750FC6E
:104770008146E069B0F5004F6CD102206168A0FB72
:10478000015003461920A9FB007001462A4638460D
:10479000FBF76AFD6421B0FBF1F04FEA001A02203A
:1047A0006168A0FB01510B461920A9FB00712A4644
:1047B0003846FBF759FD834602206168A0FB015093
:1047C00003461920A9FB00712A463846FBF74CFD29
:1047D0006421B0FBF1F000EBC00101EB0010ABEB8A
:1047E0008000322101EBC0006421B0FBF1F000F049
:1047F000F8000AEB400A02206168A0FB0150034662
:104800001920A9FB007001462A463846FBF72CFD0B
:10481000834602206168A0FB015003461920A9FBD2
:1048200000712A463846FBF71FFD6421B0FBF1F00A
:1048300000EBC00101EB0010ABEB8000322101EB7B
:10484000C0006421B0FBF1F000F007005044216883
:1048500088606AE004206168A0FB015003461920CB
:10486000A9FB007001462A463846FBF7FDFC82464C
:1048700004206168A0FB015003461920A9FB0070C9
:1048800001462A463846FBF7EFFC6421B0FBF1F005
:1048900000EBC00101EB0010AAEB8000322101EB1C
:1048A00000106421B0FBF1F000F0F00A0420616810
:1048B000A0FB017003461920A9FB00513A46284687
:1048C000FBF7D2FC6421B0FBF1F00AEB001A0420E4
:1048D0006168A0FB01510B461920A9FB00712A4613
:1048E0003846FBF7C1FC834604206168A0FB0150F9
:1048F00003461920A9FB007001462A463846FBF7FB
:10490000B3FC6421B0FBF1F000EBC00101EB00103F
:10491000ABEB8000322101EB00106421B0FBF1F021
:1049200000F00F00504421688860BDE8F88F000057
:10493000001001400014014077B581B004461546CF
:104940000298A062A58500202064222084F83E0001
:104950002948A16BC8632948A16B08642848A16B4A
:10496000C8640020A16B086502AE32682368191D77
:104970002B46A06BFDF752F800BF00200090206886
:104980000068009020684068009000BF00BF00BF32
:10499000002084F83C0000BF00BF00BF21680C313C
:1049A00051E8001F41F4807021680C3141E8000299
:1049B000002AF3D100BF00BF00BF2168143151E8C5
:1049C000001F41F001002168143141E80002002A73
:1049D000F3D100BF00BF00BF2168143151E8001FB0
:1049E00041F040002168143141E80002002AF3D16F
:1049F00000BF002004B070BD934400084345000888
:104A00004344000810B5034699629A85DA85002070
:104A10001864222083F83E0000BF002083F83C0089
:104A200000BF1868C06840F480701C68E0601868B7
:104A3000406940F001001C6860611868C06840F07F
:104A400020001C68E060002010BD014691F83D0088
:104A5000212828D18868B0F5805F0BD1086948B952
:104A60000A6A1088C0F308000B685860086A801C46
:104A7000086205E00B6A581C086218780B685860D9
:104A8000C88C401E80B2C88458B90868C06820F03D
:104A900080000B68D8600868C06840F040000B6870
:104AA000D860002070470220FCE72DE9F041044661
:104AB0000D4617469846069E34E0701C88B32EB10A
:104AC000FDF702F9A0EB0800B0422BD900BF00BFF0
:104AD00021680C3151E8001F21F4D07021680C319D
:104AE00041E80002002AF3D100BF00BF00BF2168E7
:104AF000143151E8001F21F001002168143141E810
:104B00000002002AF3D100BF202084F83D0084F881
:104B10003E0000BF002084F83C0000BF0320BDE839
:104B2000F081FFE7206800682840A84201D10120F9
:104B300000E00020B842C0D00020F0E710B50748E0
:104B40000088401C00B2054908800548FEF7E6F9D8
:104B5000012204490248FEF7C2FC10BD00000020FB
:104B60004C0200201B00002010B5FEF785FD024816
:104B7000FEF7D4F910BD00009002002010B50248E5
:104B8000FEF7CCF910BD0000D402002000BFFEE704
:104B900002480068C0F30220704700000CED00E0FE
:104BA00010B5002804DB0A07130E054A135406E06B
:104BB0000A07140E034A00F00F031B1FD45410BD44
:104BC00000E400E018ED00E070B52DED048B144911
:104BD000B1F9000000F0ABFB41EC190B9FED110B9C
:104BE00053EC102B00F0BAFB41EC180B00F070FBFB
:104BF00004B20E48B0F902109FED0D1ADFED0D0A58
:104C0000B2EE080A22460C48FEF768FD054640F25F
:104C100003212846FBF754FCBDEC048B70BD00005B
:104C2000E4030020000000000000F83F70000020B6
:104C3000000000009A99993F300400200246B1F923
:104C40000000B1F90230C01A64280FDAB1F900008F
:104C5000B1F90230C01A10F1640F07DD08884B88E3
:104C6000C01A1388184400B210801CE0B1F900008B
:104C7000B1F90230C01A10F1640F0ADA0888B1F9EC
:104C80000230C3F5005318441388184400B2108052
:104C900009E0B1F90000C0F500504B8818441388B2
:104CA000184400B210809088401C00B29080908818
:104CB00005280AD1002090801088508000201080A4
:104CC00008884880B2F90200704708884880B2F925
:104CD0000200F9E738B53248008810B1012812D136
:104CE00003E000202F4908700DE001202D490870D5
:104CF0002D48B0F900002D4908802D48B0F900007A
:104D00002C49088000BF00BF2648007800BB00F097
:104D100067F82948B0F9000000902548B0F9003044
:104D20002448B0F9002025492548FBF76BFE0546CD
:104D30002448B0F9000000901B48B0F900301B482F
:104D4000B0F9002020492148FBF75CFE04461CE036
:104D500014480078012816D11748B0F900301C48D3
:104D6000B0F9002015491B4800F02AFA05461548FD
:104D7000B0F900301848B0F900201349174800F086
:104D800003F9044601E00025002440F205212846ED
:104D9000FBF7D4FB40F206212046FBF7CFFB38BDE2
:104DA00026000020FE00002032000020FA00002033
:104DB00030000020F800002034000020CE00002049
:104DC000C600002036000020DE000020D6000020B3
:104DD00022000020E600002024000020EE00002039
:104DE00028480078012810D12748B0F90000B0F514
:104DF000967F03DB00202349087019E022480088D1
:104E0000801C00B22049088012E01E48007878B962
:104E10001D48B0F9000010F5967F03DC0120194908
:104E2000087005E018480088801E00B21649088006
:104E300016480078012810D11548B0F9000010F587
:104E4000C86F03DB00201149087019E01048008882
:104E5000801D00B20E49088012E00C48007878B935
:104E60000B48B0F9000010F52F6F03DC0120074953
:104E7000087005E006480088801F00B204490880D9
:104E800070470000FD000020FA000020FC00002018
:104E9000F8000020FCF72AFFFFF78CF8FEF7B0FCC3
:104EA000FEF76AFCFEF748FEFEF79AFDFEF716FDD8
:104EB000FEF78AFCFEF762FEFEF782FEFEF7C8FDF3
:104EC000FEF700FE2548B0F9000025490880254876
:104ED000B0F90000244908803EE02448008840B32F
:104EE0002348B0F9000000EE100AB8EEC00A2148CD
:104EF00080ED000A2048B0F9060000EE100AB8EE76
:104F0000C00A1C4880ED010A1C48B0F9000000EE00
:104F1000100AB8EEC00A174880ED020A1848B0F926
:104F2000060000EE100AB8EEC00A124880ED030A2F
:104F300010E09FED140A0F4880ED000A9FED110A62
:104F400080ED010A9FED0F0A80ED020A9FED0D0A28
:104F500080ED030AFEF754FEBFE70000300000209A
:104F6000F800002032000020FA0000202600002077
:104F70002400002020040020DE0000202200002069
:104F8000CE00002000000000F0B507460C46154694
:104F90001E463148B0F90000B0F5C87F05DC2E4848
:104FA000B0F9000010F5C87F28DA2C480088401CB2
:104FB00000B22A4908800846008803280ED19FEDD8
:104FC000281ADFED280A9FED280A2946384600F006
:104FD00059F8264988800020204908802348B0F9E4
:104FE00004209FED231ADFED230A9FED230A3146AB
:104FF0002046FEF763FF1D49C88027E01748008858
:10500000401C00B2154908800846008803280ED1CC
:105010009FED131ADFED130A9FED180A2946384653
:1050200000F030F81149888000200C4908800F48B2
:10503000B0F904209FED0C1ADFED0E0A9FED100A67
:1050400031462046FEF73AFF0849C8800748C08825
:1050500000F2DC5000B2F0BD24000020BA000020B5
:10506000CDCCCC3D000000009A99993EBE000020B6
:10507000CDCCCC3E0AD7233C9A99993F9A99193FB7
:10508000CDCCCC3F30B504460D46A088284400B2B4
:10509000A08025804FF4005241F28831284600F06C
:1050A0000DF9054601EE905AF8EEE11A60EE211A6C
:1050B000B4F9040002EE100AB8EEC22A40EE821AD9
:1050C000B4F90200281A02EE100AB8EEC22A41EE24
:1050D000021AFDEEE11A11EE900A00B2E08065803E
:1050E000B4F9040047F23051884202DD0846A0803E
:1050F00007E0B4F904000D49884202DA48F6D020EE
:10510000A080B4F9060041F28831884202DD0846E9
:10511000E08007E0B4F906000549884202DA4EF65D
:105120007840E080B4F9060030BD0000D08AFFFF6F
:1051300078ECFFFF10B51D48B0F90800B0F5FA6F24
:1051400018DD4FF4AA601A490968486318490968CC
:1051500088631648B0F908201648B0F902109FED90
:10516000161AF6EE000AB2EE000A1448FEF7B6FA76
:10517000044615E04FF4C8700D49096848630C49AE
:10518000096888630B48B0F902109FED0B1AF6EE20
:10519000000AB2EE000A00220848FEF79FFA044611
:1051A0004FF401712046FBF78BF910BDE40300209A
:1051B0002C01002078000020000000004E04002098
:1051C000F0B507460C4615461E463148B0F90000BA
:1051D00040F22621884205DC2D48B0F90000494202
:1051E000884228DA2B480088401C00B229490880F0
:1051F0000846008803280ED19FED271ADFED270A05
:105200009FED270A29463846FFF73CFF25490880CD
:105210000020204908802348B0F900209FED221A81
:10522000DFED220AB7EE080A31462046FEF746FEB9
:105230001C49488027E017480088401C00B21549E7
:1052400008800846008803280ED19FED131ADFED71
:10525000130A9FED170A29463846FFF713FF114935
:10526000088000200B4908800E48B0F900209FED0F
:105270000E1ADFED100A9FED100A31462046FEF7A8
:105280001DFE084948800748B0F90200F0BD000043
:1052900022000020B80000209A99193E000000006A
:1052A0009A99193FBE0000209A99993E0AD7A33BCC
:1052B0003333333F6F12033B6666E63F884201DDBE
:1052C000831A18B24B42984201DA831818B2704719
:1052D0004FEA41034FEA5353A3F58063D3F11E0312
:1052E000C8BFD3F1210C0CDD4FF0004242EAC122CD
:1052F00042EA505232FA03FC8CEAE17CACEBE170FA
:105300007047102BC4BF0020704703F5787CBCF1B8
:10531000FF3F04D06FF0004282EA2100704770B571
:1053200000F0C6F84992248000207047F2E710F0A0
:10533000004248BF4042B0FA80F310FA03F10AD0AD
:10534000C3F11D0303F580634FEA415002EB0352A2
:1053500002EBD12170474FF000007047DFF848C1E1
:1053600070B51CEA111E1EBF1CEA13159EEA0C0F35
:1053700095EA0C0F00F06F8081EA030423EA4C13D6
:105380004EEAD47E21EA4C1141F4801143F480139B
:10539000AE44A1FB024CA0FB0365AEF17F7E361943
:1053A00055EB0C05A1FB034C4CF10003A0FB021CC8
:1053B00016EB0C06654153F10003094218BF46F095
:1053C000010613F4007F0BD14FEA03314FEA053099
:1053D000340341EA155140EA16506FF003020AE027
:1053E0004FEAC3214FEAC520F40241EA555140EA91
:1053F00056506FF0020202EB2E4201EB025585EA95
:10540000CE710AD05FEA440C18BF24F0004450F17A
:10541000000041F1000120EAD47040F2FE7C6245B8
:1054200000D270BDA84214BF4FF080444FF04044FA
:10543000002E08BF0024BEF1806FA8BFA1F1C041BB
:10544000BDE8704080F282804FF0000001F1C04161
:1054500001F0004170479EEA0C0F0CEA131518BFCB
:1054600095EA0C0F06D04FF0000081EA030E0EF013
:10547000004170BD00F01CF88900013E00F007B843
:1054800000F009B84FEA430C5FEA5C5C08D081EA9F
:10549000030100F05BB84FEA410C5FEA5C5CF6D1B7
:1054A0004FF00000014970470000FF070000F87F3F
:1054B0000EF1020E2EF0030E5EF8046B364205D498
:1054C000012A43EB030515F5001F12D8012841EB13
:1054D000010C1CF5001F0CD80ED14FEAD17C15F53C
:1054E000001F0CEB4C0C0CF1020C08BF4CEBD37CF6
:1054F00004E04FF0080C01E04FEAD37C0CEB4C05C4
:1055000026FA05F606F00706B6F1040C06D20EEBF5
:10551000860CBDE870404CF0010C6047DFE80CF0F1
:10552000090B02024FF000414FF00000A1F50021ED
:1055300070BD19461046012851EB010418BFD4F57F
:10554000001484BF002001F0004170BD0808A0F5E0
:1055500000114FEA310170474FF04070E1EE100A40
:10556000704700061016000610160000000000002C
:105570000000010203040607080900000000010200
:1055800003040000A45500080000002004010000EE
:10559000C4010008A856000804010020C409000046
:1055A000E001000800000000000000001000000002
:1055B000010000000024F4000000000000000000D2
:1055C000000000000000000000000000CDCC4C3FB7
:1055D00000000000000000000000000000000000CB
:1055E000000000003333733F0000000000000000A3
:1055F00000000000000000000000000000000000AB
:10560000000000000000000000000000000000009A
:10561000000000000000000000000000000000008A
:10562000000000000000000000000000000000007A
:10563000000000000000000000000000000000006A
:10564000000000000000000000000000000000005A
:10565000000000000000000000000000000000004A
:10566000000000000000000000000000000000003A
:10567000000000000000000000000000000000002A
:10568000000000000000000000000000000000001A
:10569000000000000000000000000000000000000A
:0856A000000000000000000002
:040000050800018965
:00000001FF
