:020000040800F2
:10000000B05100204D030008FD450008E93F0008FD
:10001000F945000895090008255300080000000074
:100020000000000000000000000000008D02000839
:10003000A70F000800000000E90200084948000876
:1000400067030008670300086703000867030008E8
:1000500067030008670300086703000867030008D8
:1000600067030008670300086703000867030008C8
:1000700067030008670300086703000867030008B8
:10008000670300086D0E0008670300086703000897
:100090009909000867030008670300086703000860
:1000A0006703000867030008670300086703000888
:1000B0006703000867030008670300086703000878
:1000C0006703000867030008670300086703000868
:1000D00067030008E552000867030008670300088B
:1000E0006703000867030008670300086703000848
:1000F0006703000867030008670300086703000838
:100100006703000867030008670300086703000827
:100110006703000867030008670300084D490008EB
:10012000670300087D0E00088D0E000867030008B5
:1001300067030008670300086703000867030008F7
:10014000A90900086703000867030008670300089F
:1001500067030008670300086703000801530008ED
:1001600067030008670300086703000867030008C7
:100170006703000867030008670300080000000029
:10018000670300086703000867030008894C00083C
:100190006703000867030008670300086703000897
:1001A00000000000000000006703000800F002F8F3
:1001B00000F05CF80AA090E8000C82448344AAF1A5
:1001C0000107DA4501D100F051F8AFF2090EBAE8A3
:1001D0000F0013F0010F18BFFB1A43F0010318477B
:1001E000D4940000F49400000A444FF0000C10F87E
:1001F000013B13F0070408BF10F8014B1D1108BFA5
:1002000010F8015B641E05D010F8016B641E01F844
:10021000016BF9D113F0080F1EBF10F8014BAD1C94
:100220000C1B09D16D1E58BF01F801CBFAD505E0B2
:1002300014F8016B01F8016B6D1EF9D59142D6D30C
:10024000704700000023002400250026103A28BF34
:1002500078C1FBD8520728BF30C148BF0B60704738
:100260001FB509F02EF91FBD10B510BD00F0E4F95F
:100270001146FFF7F5FF05F0C9FF00F002FA03B4DD
:10028000FFF7F2FF03BC00F003FA00002C4B1968E3
:100290000868B0E8F04F80F30988BFF36F8F4FF024
:1002A000000080F3118870470000000008480068D3
:1002B000006880F308884FF0000080F3148862B66D
:1002C00061B6BFF34F8FBFF36F8F00DF00BF00BF7A
:1002D00008ED00E0DFF80C00016841F470010160F6
:1002E000704700BF88ED00E0EFF30980BFF36F8F28
:1002F000134B1A681EF0100F08BF20ED108A20E97A
:10030000F04F106009B44FF0500080F31188BFF334
:100310004F8FBFF36F8F07F047FA4FF0000080F365
:10032000118809BC19680868B0E8F04F1EF0100F7A
:1003300008BFB0EC108A80F30988BFF36F8F704755
:1003400034000020EFF30580704700000948804723
:1003500009480047FEE7FEE7FEE7FEE7FEE7FEE7A7
:10036000FEE7FEE7FEE7FEE704480549054A064BBF
:100370007047000039490008AD010008B04B00206B
:10038000B0510020B04D0020B04D002053EA020CC7
:1003900000F069802DE9F04B4FF00006002B1FBFE5
:1003A000B3FA83F503FA05F424FA05F65E4012BFAA
:1003B0001643B2FA82F502FA05F4C5F120051EBF14
:1003C00022FA05FC44EA0C04203556EA044C4FEAB4
:1003D000144418BF641C4FF000084FF0000990420D
:1003E00071EB030C39D3002919BFB1FA81F701FA77
:1003F00007F6B0FA80F700FA07F6C7F120071EBF2C
:1004000020FA07FC46EA0C062037B6FBF4FCA7EB03
:100410000507103F07F01F0BCBF120060CFA0BFB72
:100420002CFA06F644BFB3460026202FA4BF5E4632
:100430004FF0000B5BEA060C08BF4FF0010B19EB05
:100440000B09ABFB027C48EB0608C01B06FB02CC89
:100450000BFB03CC71EB0C01C1E70B460246414696
:100460004846BDE8F08B13B54FF000004FF0000197
:10047000AFF30080BDE81C407047032A40F2308093
:1004800010F0030C00F0158011F8013BBCF1020FD5
:10049000624498BF11F801CB00F8013B38BF11F856
:1004A000013BA2F1040298BF00F801CB38BF00F86D
:1004B000013B11F0030300F02580083AC0F00880EA
:1004C00051F8043B083A51F804CBA0E80810F5E7CE
:1004D000121D5CBF51F8043B40F8043BAFF30080B1
:1004E000D20724BF11F8013B11F801CB48BF11F826
:1004F000012B24BF00F8013B00F801CB48BF00F8F6
:10050000012B704710B5203AC0F00B80B1E81850AD
:10051000203AA0E81850B1E81850A0E81850BFF4ED
:10052000F5AF5FEA027C24BFB1E81850A0E818508C
:1005300044BF18C918C0BDE810405FEA827C24BFE0
:1005400051F8043B40F8043B08BF7047D20728BF6E
:1005500031F8023B48BF11F8012B28BF20F8023BBD
:1005600048BF00F8012B704702F0FF0343EA032263
:1005700042EA024200F037B84FF0000200B51346DD
:1005800094469646203922BFA0E80C50A0E80C50B3
:10059000B1F12001BFF4F7AF090728BFA0E80C5064
:1005A00048BF0CC05DF804EB890028BF40F8042B5D
:1005B00008BF704748BF20F8022B11F0804F18BFCA
:1005C00000F8012B704770477047704710B500F076
:1005D0002BF8006810BD10B5044600F025F8046043
:1005E00010BD4FF000020429C0F0128010F0030C7F
:1005F0003FF4C4AFCCF1040CBCF1020F18BF00F8FB
:10060000012BA8BF20F8022BA1EB0C01FFF7B6BF0E
:100610005FEAC17C24BF00F8012B00F8012B48BF22
:1006200000F8012B70470000004870474C4B002039
:10063000004870474C4B00207546FFF7F9FFAE4667
:1006400005006946534620F00700854618B020B5DE
:10065000FFF78AFEBDE820404FF000064FF000078C
:100660004FF000084FF0000B21F00701AC46ACE85A
:10067000C009ACE8C009ACE8C009ACE8C0098D46C7
:1006800070470446AFF300802046FFF7F8FD0000F6
:1006900001491820ABBEFEE72600020070470000AB
:1006A000F0B52DED108B83B005460C46B0EE408AB8
:1006B000F0EE608A05FB05F004FB040000EE100A72
:1006C000B8EEC00AF0EE409A19EE900A08F088FEE3
:1006D00041EC1B0BB0EE4B0AF0EE6B0A05F068FA2A
:1006E000B0EE40AAF0EE60AA51EC1A0B08F072FBD3
:1006F00000B209EE100A9FED340A39EE800ADFEDF0
:10070000330A30EE600AF8EEC90A9FED311A60EE46
:10071000810A80EE201A11EE106A284608F089FB43
:1007200041EC1D0B204608F084FB41EC1E0BB0EEA3
:100730004D1AF0EE6D1AB0EE4E0AF0EE6E0A05F0AC
:100740003FF9B0EE40CAF0EE60CA304608F048FE0D
:1007500041EC1D0BB0EE4D0AF0EE6D0A04F018FEF0
:10076000B0EE40FAF0EE60FA53EC1C2B51EC1F0B8C
:1007700008F030F99FED170B53EC102BCDE9000179
:100780009DED000B51EC100B08F06AFB41EC1B0BCC
:100790009FED120B53EC102B08F0C4F941EC1A0B2F
:1007A00008F0E6F802909DED020A30EE480A20EECD
:1007B000280ABDEEC00A10EE100A07B2384603B090
:1007C000BDEC108BF0BD000014CE8E4485F3884440
:1007D00033338742000000000080664000000020A4
:1007E000FF2109402DE9F0432DED108B83B0054624
:1007F0000C46F0EE408AB0EE60FA05FB05F004FB13
:10080000040000EE100AB8EEC00AB0EE408A18EEFE
:10081000100A08F0E5FD41EC1A0BB0EE4A0AF0EEC2
:100820006A0A05F0C5F9B0EE409AF0EE609A51EC14
:10083000190B08F0CFFA00B20FEE900A9FED4C0AA8
:1008400038EE000ADFED4B0A30EE600AF8EEEF0AF0
:100850009FED491A20EE811AC0EE010A10EE906A4F
:100860009FED460A30EE480ADFED450A80EE201A79
:1008700011EE107A284608F0DCFA41EC1B0B2046FA
:1008800008F0D7FA41EC1C0BB0EE4B1AF0EE6B1AE5
:10089000B0EE4C0AF0EE6C0A05F092F8B0EE409A19
:1008A000F0EE609A304608F09BFD41EC1B0BB0EE79
:1008B0004B0AF0EE6B0A04F06BFDB0EE40AAF0EECE
:1008C00060AA53EC192B51EC1A0B08F083F841EC99
:1008D0001D0B08F04DF88046384608F081FD41ECCC
:1008E0001E0BB0EE4E0AF0EE6E0A04F051FDB0EEB3
:1008F00040CAF0EE60CA404608F072FD41EC1D0BA4
:1009000053EC1C2B08F066F89FED1E0B53EC102BDC
:10091000CDE900019DED000B51EC100B08F0A0FAA1
:1009200041EC1B0B9FED190B53EC102B08F0FAF860
:1009300041EC1A0B9FED130B53EC102B08F066FCE7
:1009400041EC190B08F014F802909DED020A30EE0C
:10095000680A20EE0F0ABDEEC00A10EE100A0FFA68
:1009600080F9484603B0BDEC108BBDE8F083000071
:1009700014CE8E4485F3884433338742CCE00B4554
:10098000F5D80B4500000000008066400000002004
:10099000FF21094000BFFEE710B5024800F060FEED
:1009A00010BD00002008002010B5024800F058FEDD
:1009B00010BD00004808002000B58BB00020079053
:1009C0000120089080030190002002900390049081
:1009D0000590012009900E2006900A9001A9024876
:1009E00000F0EEFC0BB000BD4808002000B58BB055
:1009F00000200790012008908003019000200290C1
:100A00004FF4FC40039000200490059001200990D1
:100A1000002006900E200A9001A9024800F0D0FCA8
:100A20000BB000BD2008002010B5FFF7DFFFFFF777
:100A3000C3FF074801F03DFA064801F03AFA0221E7
:100A4000034800F0FDFB0221024800F0F9FB10BD55
:100A5000200800204808002070B504460D4640F2EA
:100A6000FF1018490860002048608860C8600820AE
:100A7000086100200875A5F2052030B1012809D0D1
:100A800002280CD0032814D10EE0200A0E49087069
:100A90004C700EE0200A0C498870CC7009E0200AE6
:100AA000094908714C7104E0200A07498871CC712A
:100AB00000BF00BF054B044A0249054800F0D5FBC2
:100AC00070BD0000044A0020C8000020E0000020A3
:100AD000480800202DE9F04107460C4615461E4601
:100AE0004FF400700F490860002048608860C860BB
:100AF0000820086100200875380A0B4908704F70FB
:100B0000200A8870CC70280A08714D71300A8871EB
:100B1000CE71064B0A460349054800F0A6FBBDE826
:100B2000F0810000D0490020B8000020E000002043
:100B3000200800200EB500224FF48061B7480068FD
:100B400006F0EEFEB6480078B549497840EA012043
:100B5000C0F30A00ADF80000B1484078C010B049B9
:100B6000897840EA4110C0F30A00ADF80200AC48B1
:100B700080788011AA49C97840EA8100A84909799A
:100B800040EA8120C0F30A00ADF80400A4480079CF
:100B90004010A349497940EAC110C0F30A00ADF8FA
:100BA00006009F48007C9E49497C40EA0120C0F332
:100BB0000A00ADF80800BDF80400A0F5806000B29E
:100BC00098490880BDF80600A0F5806000B2488012
:100BD000BDF80000A0F5806000B28880BDF802007A
:100BE000A0F5806000B2C880BDF80800A0F5806064
:100BF00000B208818A4840790011800888728848CC
:100C00004079C0F30110C8728548807B8449C97B54
:100C100040EA0120844908800846007800F001007D
:100C2000488008460078C0F3400088800846007875
:100C3000C0F38000C88008460078C0F3C000088177
:100C400008460078C0F30010488108460078C0F3D9
:100C50004010888108460078C0F38010C88108469B
:100C60000078C0F3C010088208460088C0F3002056
:100C7000488208460088C0F34020888208460088E1
:100C8000C0F38020C88208460088C0F3C0200883D3
:100C900008460088C0F30030488308460088C0F347
:100CA0004030888308460088C0F38030C8830846F7
:100CB0000088C00B08845A4880795949C97940EAAC
:100CC0000120400000B2594908805548007A544933
:100CD000497A40EA01204042400000B2534948802E
:100CE0004F48807A4E49C97A40EA012000B24F4904
:100CF00088804B48007B88714948407BC8714A48CE
:100D0000408900284BD14A48D0ED000A0846B0F986
:100D1000000000EE100AB8EEC00A30EE800A444827
:100D200080ED000A90ED000ADFED420AB4EEE00A21
:100D3000F1EE10FA04DD9FED400A80ED000A0DE0AF
:100D40003B4890ED000ADFED3C0AB4EEE00AF1EE1C
:100D500010FA03D29FED370A80ED000A344890ED77
:100D6000010ADFED360AB4EEE00AF1EE10FA17D20E
:100D700090ED010ADFED320AB4EEE00AF1EE10FA6E
:100D80000EDDD0ED010A2948B0F9020000EE100A8C
:100D9000B8EEC00A30EE800A254880ED010A3CE03A
:100DA000234890ED010ADFED250AB4EEE00AF1EEEA
:100DB00010FA14DB1D48B0F9020000282DDA1C4897
:100DC000D0ED010A1948B0F9020000EE100AB8EEA1
:100DD000C00A30EE800A164880ED010A1DE0144872
:100DE00090ED010ADFED160AB4EEE00AF1EE10FA1A
:100DF00013D80E48B0F9020000280EDD0C48D0EDE3
:100E0000010A0A48B0F9020000EE100AB8EEC00A62
:100E100030EE800A064880ED010A0EBD0400002075
:100E2000744A0020EC4A0020044B00205C010020A2
:100E3000F84A002000F07F4500F07FC5000016440E
:100E400000007AC310B50346581A074CA04202DAD4
:100E5000501C82B206E0581A40F6B834A04201DDB8
:100E6000501E82B210B210BD48F4FFFF10B5024808
:100E700001F0C0F810BD0000200A002010B50248A3
:100E800001F0B8F810BD0000E00A002010B50248DB
:100E900001F0B0F810BD0000800A0020014608787B
:100EA00010381823B0FBF3F20848805CC865032AA9
:100EB00005D908686FF30900001D886503E008681C
:100EC0006FF309008865886D70470000649500081D
:100ED000014600208A6A8B69CBB932B1012A0DD054
:100EE000022A03D0032A10D10EE000BFCB6A03F020
:100EF0008073B3F1807F00D1012007E0CB6AB3F1AA
:100F0000C07F00D1012001E000E000BF34E08B6928
:100F1000B3F5005F1AD132B1012A07D0022A03D0FB
:100F2000032A11D10AE000BF01200EE0CB6A03F0D2
:100F30008073B3F1807F00D1012006E0CB6AB3F16A
:100F4000C07F00D1012000E000BF15E032B1012ACE
:100F500005D0022A04D0032A0CD103E000BF00BF51
:100F6000012008E0CB6A03F08073B3F1807F00D1E9
:100F7000012000E000BF00BF704730B5046824685E
:100F800024F4802405682C60046863608468402C25
:100F900004D10468A2600468E16003E00468A16011
:100FA0000468E26030BD704700BF1D48007801282A
:100FB000FBD032201B49096848630021194802F020
:100FC00083FB962005F05DF90021164802F002FC33
:100FD000962005F056F90021124802F075FB962084
:100FE00005F04FF900210F4802F0F4FB4FF4FA70BE
:100FF00005F047F90F200B4909684863002408E011
:101000000948005D18B1611CC8B204F0C1FE601C43
:10101000C4B2012CF4DB4FF47A7005F032F9C4E766
:1010200051010020C80800204801002072B600BF0E
:10103000FEE738B504460D4600BF0020009020684A
:101040000068009020684068009000BF00BF2068E2
:10105000C06840F010002168C8601622294620466A
:1010600002F09EFF38BD000010B52DED068B044642
:10107000012C67D169480078552862D16749897881
:10108000664AD27841EA022108B207F0D2FE41EC6A
:101090001A0B9FED630B53EC102B07F043FD41EC53
:1010A000190B9FED610B53EC102B07F0D9FE41ECAF
:1010B000180B07F05DFC5E49086058490979574AEA
:1010C000527941EA022108B207F0B3FE41EC1A0B53
:1010D0009FED530B53EC102B07F024FD41EC190B43
:1010E0009FED510B53EC102B07F0BAFE41EC180B9F
:1010F00007F03EFC4E49486048498979474AD27911
:1011000041EA022108B207F094FE41EC1A0B9FED70
:10111000440B53EC102B07F005FD41EC190B9FED30
:10112000420B53EC102B07F09BFE41EC180B07F021
:101130001FFC3F498860002261023E48006806F0BB
:10114000EFFB68E0022C66D13B480078552862D15D
:1011500039498978384AD27841EA022108B207F041
:1011600068FE41EC1A0B9FED2E0B53EC102B07F091
:10117000D9FC41EC190B9FED2C0B53EC102B07F015
:101180006FFE41EC180B07F0F3FB2C4908602A496D
:101190000979294A527941EA022108B207F049FE49
:1011A00041EC1A0B9FED1E0B53EC102B07F0BAFC11
:1011B00041EC190B9FED1C0B53EC102B07F050FE6C
:1011C00041EC180B07F0D4FB1C4948601A49897997
:1011D000194AD27941EA022108B207F02AFE41EC0D
:1011E0001A0B9FED0F0B53EC102B07F09BFC41ECFF
:1011F000190B9FED0D0B53EC102B07F031FE41EC5A
:10120000180B07F0B5FB0D49886000226102094800
:10121000006806F085FBBDEC068B10BD984A0020E7
:10122000000000000000E040000000000080664078
:10123000344B002004000020AE4A0020404B002028
:1012400010B5024692F82030012B01D0022B06D1B6
:1012500010684069084314686061002010BD506A3E
:1012600040F4802050620120F8E7F0B504460D46B6
:101270001E4694F8207020688368A86800B900E0D2
:1012800000BF012F01D0022F7CD103F0806030B964
:1012900003F0006018B903F08050002873D0C3F346
:1012A0000161022905D9606A40F4000060620120F2
:1012B000F0BD012088403060A86860B9B5F800C072
:1012C000E86840EA4C5C206800F5C07000EB011053
:1012D000C0F800C00FE0D5E901C040EACC00D5F865
:1012E0000CC040EA0C00D4F800C00CF5C07C0CEB3C
:1012F000011CCCF80000D5F810C0206800F5C070C3
:1013000000EB0110C0F804C0287D01280ED1206830
:1013100000F5C07000EB0110406840F4807C20684C
:1013200000F5C07000EB0110C0F804C0D0790006D1
:1013300092F806C040EA0C4092F805C040EA0C2C36
:1013400010794CEA000C206800F5C07000EB011029
:10135000C0F80CC0D078000692F802C040EA0C40F9
:1013600092F801C040EA0C2092F800C040EA0C005C
:10137000D4F800C00CF5C07C0CEB011CCCF80800C4
:10138000206801E016E00FE000F5C07000EB0110EE
:10139000006840F0010C206800F5C07000EB0110FF
:1013A000C0F800C0002083E7606A40F4001060626B
:1013B00001207DE7606A40F480206062012077E7C9
:1013C000F0B504460A46216894F82050012D01D05A
:1013D000022D7ED1424901F50071086840F00100FC
:1013E0000860086820F47C5008600868566A40EA83
:1013F00006200860107D00F01F06012000FA06F3A9
:10140000C8699843C861A1F50071D069C8B9D1F81D
:101410000C029843C1F80C02908880B2968940EA89
:10142000064601F51070576940F83760108880B2A1
:10143000168940EA064601F51070576900EBC700AF
:101440004660D069012819D1D1F80C021843C1F8BF
:101450000C02908880B2168840EA064601F51070AA
:10146000576940F83760908980B2168940EA06468D
:1014700001F51070576900EBC7004660906928B904
:10148000D1F804029843C1F8040204E0D1F8040240
:101490001843C1F80402106928B9D1F8140298431E
:1014A000C1F8140204E0D1F814021843C1F8140280
:1014B000106A012804D1D1F81C021843C1F81C029B
:1014C000D1F8000220F00100C1F800020020F0BDB8
:1014D000FFE7606A40F4802060620120F7E70000C7
:1014E00000640040704770B5044694F82050012D08
:1014F00001D0022D7DD151B92068C06800F00300F1
:1015000080B9606A40F400106062012070BD2068FC
:10151000006900F0030028B9606A40F400106062BE
:101520000120F3E7206800F5D87000EB0110006897
:1015300000F004009060906840B9206800F5D87011
:1015400000EB01100068400D106007E0206800F516
:10155000D87000EB01100068C0085060206800F5EA
:10156000D87000EB0110006800F00200D060206825
:1015700000F5D87000EB0110406800F00F0010611A
:10158000206800F5D87000EB0110406800F47F403F
:10159000000A9061206800F5D87000EB01104068E7
:1015A000000C5061206800F5D87000EB01108068D5
:1015B0001870206800F5D87000EB0110806800F406
:1015C0007F40000A5870206800F5D87000EB0110C9
:1015D000806800F47F00000C9870206800F5D870D7
:1015E00000EB01108068000ED870206800F5D870FC
:1015F00000E02FE000EB0110C0681871206800F5D2
:10160000D87000EB0110C06800F47F40000A5871E8
:10161000206800F5D87000EB0110C06800F47F006E
:10162000000C9871206800F5D87000EB0110C068BC
:10163000000ED87131B92068C06840F020002668DB
:10164000F06005E02068006940F020002668306105
:1016500000205BE7606A40F480206062012055E76B
:101660002DE9F05F04460025206846692068D0F81F
:101670000490206887682068D0F80CA02068D0F813
:1016800010B02068D0F8188006F00100002855D06E
:1016900007F00100C0B101202168886007F0020056
:1016A00018B1204600F035FC0EE007F0040010B140
:1016B00045F4006508E007F0080010B145F48055D6
:1016C00002E0204600F024FC07F48070C8B14FF41B
:1016D00080702168886007F4007018B1204600F01F
:1016E0001AFC0EE007F4806010B145F4005508E0E4
:1016F00007F4006010B145F4804502E0204600F098
:1017000009FC07F48030C8B14FF48030216888604C
:1017100007F4003018B1204600F0FFFB0EE007F49C
:10172000802010B145F4004508E007F4002010B116
:1017300045F4803502E0204600F0EEFB06F008009C
:1017400038B10AF0100020B145F40075102021686E
:10175000C86006F0040040B10AF0080028B1082073
:101760002168C860204600F00FFA06F0020038B188
:101770002068C06800F0030010B1204600F006FAAF
:1017800006F0400038B10BF0100020B145F4806540
:1017900010202168086106F0200040B10BF008001D
:1017A00028B1082021680861204600F07FFB06F080
:1017B000100038B12068006900F0030010B1204625
:1017C00000F075FB06F4003040B109F0100028B1BC
:1017D000102021684860204600F06AFB06F4803043
:1017E00040B109F0080028B108202168486020466F
:1017F00000F094FB06F4004088B309F0040078B3CD
:1018000006F4807020B108F0010008B145F0010530
:1018100006F4007020B108F0020008B145F002059E
:1018200006F4806020B108F0040008B145F004051A
:1018300006F40060A0B108F0700088B108F07000F4
:10184000402817D006DC10280BD020280CD03028D8
:1018500019D10CE0502810D0602814D110E01DE000
:1018600019E045F008050FE045F010050CE045F0E3
:10187000200509E045F0400506E045F0800503E05D
:1018800045F4807500E000BF00BF2068806920F04B
:101890007000216888610420216848602DB1606A69
:1018A000284360622046FFF71DFEBDE8F09F70B53B
:1018B00004460CB9012070BD94F8200010B92046F0
:1018C00000F0B0F82068006840F00100216808606E
:1018D00000F07CFE05460DE000F078FE401B0A2873
:1018E00008D9606A40F400306062052084F8200066
:1018F0000120E0E72068406800F001000028EBD0FC
:101900002068006820F002002168086000F05EFE98
:1019100005460DE000F05AFE401B0A2808D9606A0F
:1019200040F400306062052084F820000120C2E706
:101930002068406800F002000028EBD1207E0128DA
:1019400006D12068006840F080002168086005E04A
:101950002068006820F0800021680860607E01280F
:1019600006D12068006840F040002168086005E06A
:101970002068006820F0400021680860A07E0128EF
:1019800006D12068006840F020002168086005E06A
:101990002068006820F0200021680860E07E0128AF
:1019A00006D12068006820F010002168086005E07A
:1019B0002068006840F0100021680860207F01283E
:1019C00006D12068006840F008002168086005E042
:1019D0002068006820F0080021680860607F012806
:1019E00006D12068006840F004002168086005E026
:1019F0002068006820F0040021680860D4E9020132
:101A0000084321690843616908436168491E084326
:101A10002168C86100206062012084F82000002055
:101A200049E7000010B586B00446142101A8FEF76E
:101A3000A3FD4F492068884241D14E480068401CB0
:101A40004C4908600846006801280FD100BF0020FB
:101A500000904948006840F0007047490860084617
:101A6000006800F00070009000BF00BF00BF0020C1
:101A7000009041481038006840F008003E49103995
:101A800008600846006800F00800009000BF00BF32
:101A90000320019002200290002003900320049074
:101AA0000920059001A9354800F084FC0022052199
:101AB000142000F03BFE142000F028FE55E03049D1
:101AC0002068884251D100BF002000902A48006859
:101AD00040F08060284908600846006800F0806097
:101AE000009000BF00BF23480068401C21490860E7
:101AF0000846006801280FD100BF002000901E4852
:101B0000006840F000701C4908600846006800F05A
:101B10000070009000BF00BF00BF0020009016487A
:101B20001038006840F00200134910390860084678
:101B3000006800F00200009000BF00BF4FF440506A
:101B400001900220029000200390032004900920BD
:101B5000059001A90B4800F02DFC00220521402032
:101B600000F0E4FD402000F0D1FD06B010BD000003
:101B7000006400402000002040380240000C024079
:101B800000680040000402407047000010B50446A1
:101B9000B548844260D1B54BB54A0021FFF7A3FC9C
:101BA000B3480068A0F2012030B1012816D0022805
:101BB00024D0032842D131E0AC48C078AB498978C1
:101BC00040EA012000B2AB49488000220121AA4826
:101BD000006805F0A5FEA94908602FE0A348C07879
:101BE000A249897840EA012000B2A5494880002234
:101BF0000221A148006805F093FE1FE09B48C078D1
:101C00009A49897840EA012000B29E494880002222
:101C100004219948006805F083FE0FE09348C078DE
:101C20009249897840EA012000B297494880002211
:101C300008219148006805F073FE00BF00BF022133
:101C40008948FFF7FDFA38B187480068406940F0DD
:101C500002008549096848618C48844271D18C4BE7
:101C60008C4A0021FFF73FFC8A480068A0F501700C
:101C7000052865D2DFE800F0BF033466970084488A
:101C800040788349097840EA012000B282490880FF
:101C90007F48C0787E49897840EA012000B27E49B9
:101CA00088807B4840797A49097940EA012000B26E
:101CB0007949C8800B465B899AB20B46B3F902108A
:101CC000B3F90000FFF7BEF8734948810846008861
:101CD0004880002210216848006805F021FE00BFFE
:101CE0006B4840786A49097840EA012000B26B49A4
:101CF00008806748C0786649897840EA012000B2C8
:101D000066498880624840796149097940EA012042
:101D100000B26249C8800B465B899AB20B46B3F9A0
:101D20000210B3F90000FFF78DF85C4948810846BE
:101D300000884880002220214F48006805F0F0FD0F
:101D400082E08FE0524840785149097840EA01200A
:101D500000B2534908804E48C0784D49897840EA1E
:101D6000012000B24E4988804948407948490979A4
:101D700040EA012000B24A49C8800B465B899AB20A
:101D80000B46B3F90210B3F90000FFF75BF84449C2
:101D90004881084600884880002240213648006873
:101DA00005F0BEFD50E03A4840783949097840EAEC
:101DB000012000B23B4908803548C0783449897811
:101DC00040EA012000B2374988800B465B899AB20D
:101DD0000B46B3F90210B3F90000FFF733F83149AD
:101DE00048810846008848800022802122480068F7
:101DF00005F096FD28E0264840782549097840EA14
:101E0000012000B2284908802148C07820498978FB
:101E100040EA012000B2244988800B465B899AB2CF
:101E20000B46B3F90210B3F90000FFF70BF81E4997
:101E3000488108460088488000224FF480710E488F
:101E4000006805F06DFD00BF00BF02210F48FFF7DD
:101E5000F7F938B10D480068406940F002000B49BD
:101E60000968486110BD000020080020C000002063
:101E7000E8490020E40000200400002004010020C4
:101E8000EC000020F4000020FC00002048080020A6
:101E9000D80000201C4A0020384A0020444A002074
:101EA000504A00205C4A0020684A00207047704772
:101EB000704770B5044694F82000012822D1022012
:101EC00084F820002068006820F001002168086084
:101ED00000F07CFB05460DE000F078FB401B0A2873
:101EE00008D9606A40F400306062052084F8200060
:101EF000012070BD2068406800F001000028EBD18F
:101F00006062F6E7606A40F4002060620120F0E75A
:101F1000704770477047704770477047704770B59B
:101F20000446A56D00F052FB064694F835000228E1
:101F300008D08020606500BF002084F8340000BF16
:101F4000012070BD2068006820F01600216808603C
:101F50002068406920F0800021684861206C08B941
:101F6000A06C28B12068006820F008002168086093
:101F70002068006820F001002168086010E000F08F
:101F800025FB801B05280BD920206065032084F8E1
:101F9000350000BF002084F8340000BF0320D0E7E4
:101FA0002068006800F001000028E8D194F85C1077
:101FB0003F208840A860012084F8350000BF002041
:101FC00084F8340000BF00BFBBE7014691F835003C
:101FD000022803D08020486501207047052081F841
:101FE00035000868006820F001000A6810600020D1
:101FF000F3E70000F8B50446002000908C48006824
:102000004FF41651B0FBF1F7A56D2E6894F85C10F3
:1020100008208840304098B12068006800F0040033
:1020200070B12068006820F004002168086094F80E
:102030005C1008208840A860606D40F00100606579
:1020400094F85C1001208840304068B120684069F5
:1020500000F0800040B194F85C1001208840A86036
:10206000606D40F00200606594F85C1004208840C8
:10207000304068B12068006800F0020040B194F878
:102080005C1004208840A860606D40F0040060652A
:1020900094F85C1010208840304078B320680068C5
:1020A00000F0080050B394F85C1010208840A8603D
:1020B0002068006800F4802080B12068006800F487
:1020C000002028B9206CC8B12046216C884715E053
:1020D000A06C98B12046A16C88470FE0206800688A
:1020E00000F4807028B92068006820F0080021689A
:1020F0000860206C10B12046216C884794F85C1071
:10210000202088403040002865D02068006800F01A
:10211000100000285FD094F85C1020208840A86050
:1021200094F83500052828D12068006820F01600B2
:10213000216808602068406920F0800021684861BB
:10214000206C08B9A06C28B12068006820F0080055
:102150002168086094F85C103F208840A860012046
:1021600084F8350000BF002084F8340000BF206DE3
:1021700010B12046216D8847F8BD2068006800F442
:10218000802080B12068006800F4002028B9606CCD
:1021900010B12046616C88471DE0E06BD8B1204645
:1021A000E16B884717E02068006800F4807068B928
:1021B0002068006820F0100021680860012084F881
:1021C000350000BF002084F8340000BFE06B10B180
:1021D0002046E16B8847606D38B3606D00F0010008
:1021E000F0B1052084F835002068006820F0010077
:1021F0002168086000BF0098401C0090B84200D9D8
:1022000005E02068006800F001000028F3D100BF5D
:10221000012084F8350000BF002084F8340000BF9E
:10222000E06C10B12046E16C884700BFA4E70000D5
:10223000300000202DE9F0410446002500F0C6F9E9
:10224000074614B90120BDE8F081606A00B100BF03
:10225000022084F8350000BF002084F8340000BF5D
:102260002068006820F00100216808600AE000F0A2
:10227000ADF9C01B052805D920206065032084F82E
:102280003500E0E72068006800F001000028EED18A
:102290002068056821480540D4E901010843E16848
:1022A00008432169084361690843A1690843E1695A
:1022B0000843216A08430543606A042803D1D4E92E
:1022C0000B0108430543206805602068456925F037
:1022D0000705606A0543606A04280DD1A06A0543BA
:1022E000E06A48B12046FEF7F3FD28B14020606562
:1022F000012084F83500A6E7206845612046FEF7F6
:10230000CDFD064694F85C103F208840B060002068
:102310006065012084F83500002094E73F8010F0CC
:102320002DE9F04704460D4616461F464FF00008BB
:10233000D4F8589000BF94F83400012802D102204C
:10234000BDE8F087012084F8340000BF94F8350020
:10235000012825D1022084F83500002060653B4625
:10236000324629462046FEF708FE94F85C103F20CE
:102370008840C9F808002068006840F0160021680D
:102380000860206C28B12068006840F008002168CF
:1023900008602068006840F001002168086006E0DD
:1023A00000BF002084F8340000BF4FF00208404610
:1023B000C6E70000F8B502460B46002500240020C1
:1023C0000021DFE0012606FA01F51E6806EA050491
:1023D000AC4274D11E7906F00306012E04D01E799A
:1023E00006F00306022E13D190684F000326BE406C
:1023F000B0434F00DE68BE40304390605068012615
:102400008E40B0431E79C6F300168E4030435060B4
:102410001E7906F00306032E09D0D0684F0003266C
:10242000BE40B0434F009E68BE403043D0601E792E
:1024300006F00306022E13D1CF0802F1200656F84B
:1024400027004E07F70E0F26BE40B0434F07FF0E82
:102450001E69BE403043CF0802F1200646F827002F
:1024600010684F000326BE40B0431E7906F00306F5
:102470004F00BE40304310605E6806F44036002EC8
:102480007FD000BF00260096404E366846F4804656
:102490003E4F3E603E46366806F48046009600BFDA
:1024A00000BF3B4E8F0856F827008E07370F0F26C8
:1024B000BE40B043374EB24202D100262EE060E06B
:1024C000354EB24201D1012628E0344EB24201D14C
:1024D000022623E0324EB24201D103261EE0314EE5
:1024E000B24201D1042619E02F4EB24201D1052695
:1024F00014E02E4EB24201D106260FE02C4EB2421D
:1025000001D107260AE02B4EB24201D1082605E090
:10251000294EB24201D1092600E00A268F073F0F5B
:10252000BE4030431A4E8F0846F82700234E3068CD
:10253000A0435E6806F4803606B120431F4E30602B
:10254000361D3068A0435E6806F4003606B12043AD
:102550001A4E361D3060361D3068A0435E6806F4A2
:10256000801606B12043154E08363060361D30689F
:10257000A0435E6806F4001606B120430F4E0C36E9
:102580003060491C1029FFF41DAFF8BD44380240EB
:1025900008380140000002400004024000080240E8
:1025A000000C0240001002400014024000180240DB
:1025B000001C02400020024000240240003C014078
:1025C0000AB1816101E00B04836170470148006832
:1025D0007047000024000020034800680349097880
:1025E0000844014908607047240000202C000020A6
:1025F00010B50D48006840F400700B4908600846AB
:10260000006840F4806008600846006840F480700C
:102610000860032000F0C8F80F2000F007F800F071
:102620004BF8002010BD0000003C024070B588B09F
:1026300004460025002600222146372000F076F8C7
:10264000372000F063F800BF0020019016480068B2
:1026500040F02000144908600846006800F020009F
:10266000019000BF00BF02A903A800F0B9F900F073
:10267000DFF945000D48B5FBF0F0461E0C480D494A
:10268000086040F2E7310B48C160466000210161FB
:10269000816000F03DFD20B9064800F087FD08B0DC
:1026A00070BD0120FBE700004038024040420F00AF
:1026B00000140040400B002008B500BF002000902F
:1026C0001148006840F480400F49086008460068DF
:1026D00000F48040009000BF00BF00BF00200090C9
:1026E000081F006840F08050091F08600846006815
:1026F00000F08050009000BF00BF00220F21901E0C
:1027000000F014F808BD00004438024001460846B5
:10271000002809DB00F01F0301229A4043099B00B7
:1027200003F1E023C3F8002100BF70472DE9F05FFB
:1027300080460D461646002702F00EFE0746394633
:102740002A46334601F00700C0F1070ABAF1040F28
:1027500002D94FF0040A01E0C0F1070AD14600F1A6
:10276000040ABAF1070F02D24FF0000A01E0A0F10B
:10277000030AD4464FF0010A0AFA09FAAAF1010A3B
:102780000AEA020A0AFA0CFA4FF0010B0BFA0CFBE8
:10279000ABF1010B0BEA030B4AEA0B04214640465E
:1027A00002F0E2FDBDE8F09F00BF00F00702064B1B
:1027B00019684FF6FF031940044B0B4343EA02210B
:1027C000014B196000BF70470CED00E00000FA05F6
:1027D00038B5002400BF002000901D48006840F07C
:1027E00080501B4908600846006800F08050009047
:1027F00000BF00BF012017490864FFF7E7FE044649
:1028000007E0FFF7E3FE001BB0F57A7F01D9032054
:1028100038BD1148406800F48030B0F5803FF0D1F9
:1028200001200C494864FFF7D1FE044607E0FFF79A
:10283000CDFE001BB0F57A7F01D90320E8E70648FA
:10284000406800F40030B0F5003FF0D10020DFE731
:102850004038024000000E420070004070B504464F
:102860000D460CB9012070BD5848006800F00F00FB
:10287000A84209D255490D700846006800F00F00C3
:10288000A84201D00120EEE7207800F002000228E3
:102890001DD1207800F00400042805D14C480068C0
:1028A00040F4E0504A490860207800F00800082809
:1028B00005D14748006840F46040454908604448F5
:1028C000006820F0F000A1680843414908602078C2
:1028D00000F00100A8B36068012807D13C4808381F
:1028E0000068C0F34040B8B90120BCE76068022826
:1028F00002D06068032807D1354808380068C0F363
:10290000406048B90120AEE7314808380068C0F39C
:10291000400008B90120A6E72D48006820F0030018
:10292000616808432A490860FFF750FE064609E03F
:10293000FFF74CFE801B41F28831884202D9032008
:1029400091E707E02248006800F00C006168B0EBF6
:10295000810FEDD11D48006800F00F00A84209D991
:102960001A490D700846006800F00F00A84201D017
:10297000012078E7207800F00400042807D11448EB
:10298000006820F4E050E1680843114908602078AD
:1029900000F00800082808D10D48006820F46040C5
:1029A000216940EAC1000A49086000F061F808495D
:1029B0000968C1F30311074A515CC8400649086021
:1029C00006480068FFF732FE00204CE7003C02405A
:1029D000083802406C9500083000002028000020D4
:1029E0000F2202600D4A126802F0030242600B4A95
:1029F000126802F0F0028260084A126802F4E052A3
:102A0000C260064A126802F46042D2080261044AB7
:102A1000126802F00F020A60704700000838024096
:102A2000003C024001480068704700003000002070
:102A300000B5FFF7F7FF04490968C1F38221034A93
:102A4000515CC84000BD0000083802407C95000879
:102A500000B5FFF7E7FF04490968C1F34231034AB3
:102A6000515CC84000BD0000083802407C95000859
:102A70002DE9F047002400250026A14625480068DE
:102A800000F00C0020B1042805D008283AD105E058
:102A9000DFF8849039E0DFF8849036E01D48001FAD
:102AA000006800F03F041B48001F006800F480002D
:102AB00078B11A481749091F0968C1F38811A0FBAA
:102AC00001700146224600233846FDF75FFC0546AB
:102AD0000EE011480F49091F0968C1F38811A0FBD6
:102AE00001700146224600233846FDF74FFC05469B
:102AF0000848001F0068C0F30140401C4600B5FBB9
:102B0000F6F902E0DFF8109000BF00BF4846BDE8CC
:102B1000F0870000083802400024F400001BB700D2
:102B2000F8B504460CB90120F8BD207800F001008A
:102B3000002874D0F948006800F00C0004280DD07B
:102B4000F648006800F00C00082813D1F348001F75
:102B5000006800F48000B0F5800F0BD1EF48083812
:102B60000068C0F34040002859D06068002856D162
:102B70000120D9E700BF6068B0F5803F08D1E74881
:102B80000838006840F48030E449083908601EE0E5
:102B90006068B0F5A02F0DD1E0480838006840F417
:102BA0008020DE49083908600846006840F480301B
:102BB00008600CE0D9480838006820F48030D74914
:102BC000083908600846006820F48020086000BFCB
:102BD000606890B1FFF7FAFC054606E0FFF7F6FCE7
:102BE000401B642801D903209EE7CC4808380068C0
:102BF000C0F340400028F1D011E0FFF7E7FC0546A4
:102C000006E0FFF7E3FC401B642801D903208BE7B3
:102C1000C24808380068C0F340400028F1D120784D
:102C200000F0020002285FD1BC48006800F00C00F0
:102C300058B1BA48006800F00C0008281CD1B74809
:102C4000001F006800F48000B0B9B448083800687C
:102C5000C0F3400020B1E068012801D0012063E703
:102C6000AE480838006820F0F800216940EAC10049
:102C7000AA490839086037E0E06800B30120A84994
:102C80000860FFF7A3FC054606E0FFF79FFC401B2A
:102C9000022801D9032047E7A04808380068C0F39C
:102CA00040000028F1D09D480838006820F0F80066
:102CB000216940EAC10099490839086014E0002000
:102CC00097490860FFF782FC054606E0FFF77EFCA7
:102CD000401B022801D9032026E7904808380068E5
:102CE000C0F340000028F1D1207800F00800082847
:102CF0002CD16069A8B101208A490860FFF766FC01
:102D0000054606E0FFF762FC401B022801D90320BC
:102D10000AE782486C300068C0F340000028F1D018
:102D200014E000207F490860FFF750FC054606E0EC
:102D3000FFF74CFC401B022801D90320F4E677483A
:102D40006C300068C0F340000028F1D1207800F01A
:102D50000400042870D1002770483830006800F063
:102D6000805090B900BF002000906C483830006857
:102D700040F080506949383108600846006800F02A
:102D80008050009000BF00BF01276748006800F432
:102D90008070B0B96448006840F48070624908608F
:102DA000FFF714FC054606E0FFF710FC401B022865
:102DB00001D90320B8E65C48006800F48070002860
:102DC000F2D000BFA068012808D1544868300068DC
:102DD00040F001005149683108601DE0A0680528F5
:102DE0000DD14E486830006840F004004B4968310E
:102DF00008600846006840F0010008600CE04748A1
:102E00006830006820F001004449683108600846D5
:102E1000006820F00400086000BFA068A8B1FFF7B8
:102E2000D5FB054609E0FFF7D1FB401B41F2883195
:102E3000884202D9032077E626E0384868300068E7
:102E4000C0F340000028EED013E0FFF7BFFB0546BB
:102E500008E0FFF7BBFB401B41F28831884201D9F3
:102E6000032061E62D4868300068C0F34000002868
:102E7000EFD1012F07D129483830006820F0805069
:102E800026493831086000BFA069002845D0234892
:102E9000006800F00C0008285DD0A069022845D128
:102EA00000201F490866FFF791FB054606E0FFF783
:102EB0008DFB401B022801D9032035E6174808384E
:102EC0000068C0F340600028F1D1D4E9070108434D
:102ED000616A40EA81110122A06AC2EB500041EA16
:102EE00000412C20005D41EA00600C49091F086088
:102EF00001200B490866FFF769FB054606E0FFF76E
:102F000065FB401B022801D903200DE60348083861
:102F10000068C0F340600028F1D049E00838024062
:102F200000004742800E47420070004000202149C7
:102F30000866FFF74BFB054606E0FFF747FB401B23
:102F4000022801D90320EFE51B480068C0F3406068
:102F50000028F2D12CE0A069012800D1E4E5164850
:102F6000001D0668A069012820D006F48001E069F0
:102F700081421BD106F03F01206A814216D147F6FB
:102F8000C0703040616AB0EB811F0FD106F4403150
:102F90000122A06AC2EB5000B1EB004F06D106F04F
:102FA00070612C20005DB1EB006F01D00120BBE50A
:102FB0000020B9E5000047420038024010B5044641
:102FC0000CB9012010BD606A38B96068B0F5827F25
:102FD00000D105E00021E16102E000212161616191
:102FE0000021A16294F8510028B9002084F8500013
:102FF000204600F047F8022084F85100206800685D
:1030000020F0400021680860A08800F482702189C7
:1030100001F404410843A18901F400610843217CC3
:1030200001F002010843217D01F001010843218BD9
:1030300001F400710843217F01F038010843202189
:10304000095D01F080010843218D01F4005108431E
:10305000216808600421A06901EA104094F8241056
:1030600001F010010843216848602068C06920F41D
:1030700000602168C86100206065012084F851006B
:1030800000209FE710B586B00446142101A8FDF783
:1030900073FA1B492068884230D100BF002000909D
:1030A0001848006840F40050164908600846006857
:1030B00000F40050009000BF00BF00BF002000904F
:1030C00010481438006840F010000E4914390860A8
:1030D0000846006800F01000009000BF00BF4FF4E9
:1030E000835001900220029000200390032004905E
:1030F0000520059001A90448FFF75CF906B010BD52
:1031000000340140443802400010024070477047CC
:1031100010B504460CB9012010BD94F83D0028B943
:10312000002084F83C00204600F026F8022084F8B5
:103130003D00211D206801F011FC012084F84600AB
:1031400000BF84F83E0001213F2001554020015579
:103150004120015500BF00BF012084F842004320F8
:103160000155442001554520015500BF012084F838
:103170003D000020D0E7000008B50A4A01689142EE
:103180000FD100BF002100910749096841F04001BB
:10319000054A11601146096801F04001009100BF25
:1031A00000BF08BD0018004040380240014691F8B9
:1031B0003D00012801D001207047022081F83D0028
:1031C0000868C06840F001000B68D8601A4B0868B6
:1031D00098421BD00868B0F1804F17D0174B086891
:1031E000984213D0164B086898420FD0154B0868C8
:1031F00098420BD0144B0868984207D0134B0868CC
:10320000984203D0124B086898420CD10868806835
:1032100000F00702062A0CD00868006840F00100A0
:103220000B68186005E00868006840F001000B6852
:1032300018600020C0E700000000014000040040CA
:1032400000080040000C0040000401400040014024
:10325000001800402DE9F04104460D46002700BF4C
:1032600094F83C00012802D10220BDE8F081012041
:1032700084F83C0000BF022084F83D002068866886
:1032800026F0770626F47F46206886602868502856
:1032900033D00CDC202850D004DC00284BD0102880
:1032A00051D149E0302849D040284CD139E060283C
:1032B0002DD0702807D0B0F5805F03D0B0F5005F47
:1032C00041D10DE041E0D5E902136A68206801F0C0
:1032D000C2FB2068866846F077062068866034E086
:1032E000D5E902136A68206801F0B5FB20688068A0
:1032F00040F480402168886027E0EA6869682068B7
:1033000001F09AFC5021206801F0B0FB1DE0EA6852
:103310006968206801F0A3FC6021206801F0A6FB29
:1033200013E0EA686968206801F086FC40212068A3
:1033300001F09CFB09E000BF00BF00BF29682068C6
:1033400001F094FB01E0012700BF00BF012084F8D9
:103350003D0000BF002084F83C0000BF384684E7F1
:10336000704710B5044620680069C0F34000D8B12A
:103370002068C068C0F34000B0B16FF0020021685F
:103380000861012020772068806900F0030018B1EF
:103390002046FFF7E5FF05E0204600F0DDF8204677
:1033A00000F091F90020207720680069C0F38000C8
:1033B000D8B12068C068C0F38000B0B16FF00400DD
:1033C00021680861022020772068806900F440703D
:1033D00018B12046FFF7C4FF05E0204600F0BCF816
:1033E000204600F070F90020207720680069C0F3C3
:1033F000C000D8B12068C068C0F3C000B0B16FF0A1
:10340000080021680861042020772068C06900F066
:10341000030018B12046FFF7A3FF05E0204600F0A7
:103420009BF8204600F04FF90020207720680069C3
:10343000C0F30010D8B12068C068C0F30010B0B16C
:103440006FF0100021680861082020772068C069AB
:1034500000F4407018B12046FFF782FF05E02046D7
:1034600000F07AF8204600F02EF90020207720683E
:10347000006900F0010058B12068C06800F0010048
:1034800030B16FF0010021680861204600F0F6F9C4
:1034900020680069C0F3C01058B12068C068C0F34C
:1034A000C01030B16FF08000216808612046FFF73E
:1034B0002DFE20680069C0F3801058B12068C068F4
:1034C000C0F3801030B16FF04000216808612046E1
:1034D00000F0E0F920680069C0F3401058B120689E
:1034E000C068C0F3401030B16FF02000216808615F
:1034F0002046FFF70CFE10BD10B586B0044614211F
:1035000001A8FDF739F81149206888421CD100BF95
:10351000002000900E48006840F080000C490860D0
:103520000846006800F08000009000BF00BF402007
:103530000190022002900020039004900920059041
:1035400001A90448FEF736FF06B010BD0018004080
:1035500030380240001C024070472DE9F04104461B
:103560000D461646002700BF94F83C00012802D102
:103570000220BDE8F081012084F83C0000BF36B194
:10358000042E1BD0082E31D00C2E5ED145E02946EA
:10359000206801F075FA2068806940F00800216811
:1035A00088612068806920F00400216888612068B3
:1035B0008069296908432168886148E029462068B4
:1035C00001F096FA2068806940F400602168886103
:1035D0002068806920F480602168886120688069A3
:1035E000296940EA01202168886130E02946206885
:1035F00001F0BCFA2068C06940F008002168C86189
:103600002068C06920F004002168C8612068C06992
:10361000296908432168C86119E02946206801F03A
:10362000E1FA2068C06940F400602168C861206840
:10363000C06920F480602168C8612068C069296978
:1036400040EA01202168C86101E0012700BF00BFF6
:1036500000BF002084F83C0000BF384689E710B561
:1036600004460CB9012010BD94F83D0028B9002093
:1036700084F83C00204600F025F8022084F83D0044
:10368000211D206801F06AF9012084F8460000BF7E
:1036900084F83E0001213F20015540200155412082
:1036A000015500BF00BF012084F8420043200155AE
:1036B000442001554520015500BF012084F83D00FC
:1036C0000020D0E77047704770B504460D4615B925
:1036D00094F83E000BE0042D02D13F20005D06E08F
:1036E000082D02D14020005D01E04120005D01284D
:1036F00001D0012070BD1DB9022084F83E000EE00B
:10370000042D03D102213F20015508E0082D03D1EB
:1037100002214020015502E00221412001550122F1
:103720002946206801F086F923492068884203D0A1
:1037300022492068884201D1012000E0002028B100
:103740002068406C40F40040216848641A492068B1
:1037500088421BD02068B0F1804F17D018492068EC
:10376000884213D01749206888420FD01649206834
:1037700088420BD011492068884207D0134920683D
:10378000884203D01249206888420CD120688068A2
:1037900000F00706062E0CD02068006840F00100FB
:1037A0002168086005E02068006840F00100216899
:1037B000086000209EE70000000001400004014076
:1037C0000004004000080040000C004000400140A0
:1037D0000018004030B504460D46002229462068F6
:1037E00001F028F923492068884203D02249206843
:1037F000884201D1012000E0002090B100BF206884
:10380000006A41F21111084050B92068006A89101D
:10381000084028B92068406C20F4004021684864C2
:1038200000BF00BF2068006A41F21111084050B982
:103830002068006A8910084028B92068006820F0D4
:1038400001002168086000BF1DB9012084F83E0016
:103850000EE0042D03D101213F20015508E0082D81
:1038600003D101214020015502E0012141200155F1
:10387000002030BD000001400004014010B50446A6
:1038800003492068884201D1FEF7A6FE10BD000062
:10389000001400407047704770B50446002520684A
:1038A0004069C0F3C01594F83D00212817D1B5B187
:1038B00000BF00BF2168143151E8001F21F08000D3
:1038C0002168143141E80002002AF3D100BF606B87
:1038D00010B1606BFEF723FB204601F0C7FA2068A9
:1038E0004069C0F3801594F83E00222817D1B5B185
:1038F00000BF00BF2168143151E8001F21F04000D3
:103900002168143141E80002002AF3D100BFA06B06
:1039100010B1A06BFEF703FB204601F061FA002016
:1039200070BD70472DE9F84F04462068056820688F
:10393000C668206847694FF00009CA4605F00F09BC
:10394000B9F1000F0AD105F0200038B106F02000CF
:1039500020B1204601F09DFABDE8F88FB9F1000FC3
:103960007CD007F0010018B906F49070002875D0DB
:1039700005F0010030B106F4807018B1206C40F001
:103980000100206405F0040030B107F0010018B117
:10399000206C40F00200206405F0020030B107F016
:1039A000010018B1206C40F00400206405F008000C
:1039B00048B106F0200010B907F0010018B1206CE2
:1039C00040F008002064206C002846D005F020005C
:1039D00028B106F0200010B1204601F05AFA206804
:1039E0004069C0F3801A206C00F0080010B9BAF1E9
:1039F000000F2DD0204601F0F3F92068406900F057
:103A00004000402820D100BF00BF2168143151E898
:103A1000001F21F040002168143141E80002002A13
:103A2000F3D100BFA06B50B17548A16B0865A06BC6
:103A3000FEF7CBFA88B1A06B016D88470DE02046F8
:103A4000FFF76FFF09E009E02046FFF76AFF04E097
:103A50002046FFF766FF002020647DE7206B0128E9
:103A600076D105F01000002872D006F01000002872
:103A7000FAD000BF00200090206800680090206805
:103A80004068009000BF00BF2068406900F040001F
:103A900040285ED1A06B006840681FFA80F8B8F13A
:103AA000000F54D0A08D404551DDA4F82E80A06BAE
:103AB000C069B0F5807F43D000BF00BF21680C31E2
:103AC00051E8001F21F4807021680C3141E80002A8
:103AD000002AF3D100BF00BF00BF2168143151E8B4
:103AE000001F21F001002168143141E80002002A82
:103AF000F3D100BF00BF00BF2168143151E8001F9F
:103B000021F040002168143141E80002002AF3D17D
:103B100000BF202084F83E000020206300BF00BFCB
:103B200021680C3151E8001F21F0100021680C3190
:103B300041E80002002AF3D100BFA06BFEF7EFF9C5
:103B4000A08DE28D801A81B22046FFF7A4FE03E724
:103B500040E0A08DE18D401A1FFA80F8E08DC0B3DF
:103B6000B8F1000F35D000BF00BF21680C3151E81B
:103B7000001F21F4907021680C3141E80002002AF6
:103B8000F3D100BF00BF00BF2168143151E8001F0E
:103B900021F001002168143141E80002002AF3D12C
:103BA00000BF202084F83E000020206300BF00BF3B
:103BB00021680C3151E8001F21F0100021680C3100
:103BC00041E80002002AF3D100BF41462046FFF73A
:103BD00062FEC1E605F0800030B106F0800018B149
:103BE000204601F04FFBB7E605F0400030B106F08B
:103BF000400018B1204601F029F9ADE600BFABE660
:103C0000AD4C000810B504460CB9012010BDA069E8
:103C100000B100E000BF94F83D0028B9002084F80E
:103C20003C00204600F028F8242084F83D0020685D
:103C3000C06820F400502168C860204601F0A6F951
:103C40002068006920F4904021680861206840697C
:103C500020F02A00216848612068C06840F40050C4
:103C60002168C86000202064202084F83D0084F88A
:103C70003E000020CAE7000010B586B004461421BB
:103C800001A8FCF779FCB7492068884257D100BFEA
:103C900000200090B448006840F00040B24908603D
:103CA0000846006800F00040009000BF00BF00BF61
:103CB00000200090AC481038006840F01000AA497D
:103CC000103908600846006800F01000009000BF3E
:103CD00000BF0320019002200290002003900320E7
:103CE00004900820059001A9A048FEF763FBA048B6
:103CF000A04908600005486000219E488160C160BD
:103D00004FF4806101610021416181614FF4807154
:103D1000C161002101624162FEF78CFA08B1FDF732
:103D200085F900BF9348A063846300BF002205218A
:103D30005320FEF7FBFC5320FEF7E8FC10E18E4910
:103D4000206888427AD100BF002000908648001D7C
:103D5000006840F010008449091D086008460068AA
:103D600000F01000009000BF00BF00BF00200090D6
:103D70007D481038006840F002007B491039086027
:103D80000846006800F00200009000BF00BF00BFBE
:103D9000002000900846006840F0010008600846D6
:103DA000006800F00100009000BF00BF802001907B
:103DB0000220029000200390032004900720059029
:103DC00001A96E48FEF7F6FA4FF400700190022048
:103DD000029000200390032004900720059001A981
:103DE0006748FEF7E7FA6748674908604FF00060E8
:103DF0004860002164488160C1604FF480610161C6
:103E00000021416181614FF48071C1610902016249
:103E100000214162FEF70EFA08B1FDF707F900BF75
:103E20005948A063846300BF002205212520FEF7C6
:103E30007DFC2520FEF76AFC92E0FFE753492068ED
:103E4000884231D100BF002000904748006840F40C
:103E50008020454908600846006800F480200090F2
:103E600000BF00BF00BF002000903F48103800682E
:103E700040F008003C49103908600846006800F02E
:103E80000800009000BF00BF4FF440700190022076
:103E9000029000200390032004900720059001A9C0
:103EA0003B48FEF787FA5BE03A492068884257D1E1
:103EB00000BF002000902C48001D006840F020004A
:103EC0002949091D08600846006800F0200000909C
:103ED00000BF00BF00BF00200090234810380068DA
:103EE00040F040002049103908600846006800F0A2
:103EF0004000009000BF00BF4FF4844001900220BA
:103F0000029000200390032004900820059001A94E
:103F10002148FEF74FFA1B481838204908608005F1
:103F2000486000211D488160C1604FF480610161DB
:103F3000002141618161C16101624162FEF77AF94C
:103F400008B1FDF773F800BF1448A063846300BF95
:103F5000002205214720FEF7E9FB4720FEF7D6FBAC
:103F600006B010BD007C0040403802400010024006
:103F7000A0600240200A002000100140000402401E
:103F80000000024040640240800A002000480040D7
:103F9000000C02400014014000180240E00A00201A
:103FA00070B504460D46164694F83E00202816D1FA
:103FB00005B10EB9012070BD00BF94F83C00012886
:103FC00001D10220F7E7012084F83C0000BF002067
:103FD000206332462946204601F0EEF8EBE7022046
:103FE000E9E770477047704700BFFEE72DE9F843E7
:103FF00004460D4616461F4620680068C0F30010B0
:10400000E8B100BF002000902068006800902068A0
:104010004068009000BF00BF2046FFF73DFC2868C5
:10402000D0F80490C9F11608B8F10B0F02D1384648
:10403000FDF71AF8162231462046FFF7B1FFBDE81A
:10404000F8830000F8B504460D4620680068C0F308
:104050000010E8B100BF00200090206800680090C8
:1040600020684068009000BF00BF2046FFF714FCA6
:1040700028684768C7F12406122E04D1012005499B
:104080000880FCF757FD242203492046FFF788FFEC
:10409000F8BD000008010020744A002030B5034636
:1040A000501A00B21880B3F90000B3F90240001BA7
:1040B00001EE900AF8EEE11A61EE801AB3F9000001
:1040C00002EE100AB8EEC22A40EE821A022505FB63
:1040D0001400B3F90440204402EE100AB8EEC22ADC
:1040E00041EE021AB3F9060002EE100AB8EEC22A37
:1040F00071EE821AFDEEE11A11EE900A00B21881FB
:10410000B3F90800B0F57A5F02DB4FF47A501881FA
:10411000B3F9080010F57A5F02DC4CF280101881C8
:104120001889D8805888988018885880B3F9080072
:1041300030BD000010B510481049086003204860E9
:1041400000210E488160C1604FF4E02101614FF40D
:10415000A001416100210176012141760021817693
:10416000C1760121017700214177FDF7A0FB08B15D
:10417000FCF75CFF10BD0000006400402008002038
:1041800010B51148114908600320486000210F480C
:104190008160C1604FF4E02101614FF4A0014161F1
:1041A000002101760121417600218176C17601212D
:1041B000017700214177FDF77AFB08B1FCF736FF64
:1041C000FCF732FC10BD00000068004048080020E9
:1041D00008B500BF002000901A48006840F4800035
:1041E000184908600846006800F48000009000BF8D
:1041F00000BF00BF002000900846006840F4001097
:1042000008600846006800F40010009000BF00BF7E
:10421000002205211120FEF789FA1120FEF776FA17
:10422000002205213920FEF781FA3920FEF76EFAC7
:10423000002205213A20FEF779FA3A20FEF766FAC5
:1042400008BD00003038024000B5A5B003F0F2FA16
:10425000264908600846006810B9142024490870EF
:10426000002023902490012123A802F01BF821496B
:1042700008601C2220491CA8FCF744F900211CA856
:1042800002F03CF81D4908601C221B491C3115A88E
:10429000FCF738F9002115A802F030F81849086039
:1042A0001C22154938310EA8FCF72CF900210EA864
:1042B00002F024F8134908601C220F49543107A862
:1042C000FCF720F9002107A802F018F80E49086051
:1042D0001C22094970316846FCF714F90021684630
:1042E00002F00CF80949086025B000BD0400002068
:1042F000000000201C000020D894000818000020B6
:10430000080000200C0000201000002014000020F5
:1043100000B587B0142102A8FCF72EF900BF0020D9
:1043200001903D48006840F010003B490860084695
:10433000006800F01000019000BF00BF00BF002027
:1043400001900846006840F0400008600846006898
:1043500000F04000019000BF00BF00BF00200190AE
:104360000846006840F0010008600846006800F058
:104370000100019000BF00BF00BF0020019008466F
:10438000006840F0020008600846006800F0020083
:10439000019000BF00BF00BF0020019008460068E8
:1043A00040F0080008600846006800F0080001902E
:1043B00000BF00BF00BF002001900846006840F029
:1043C000800008600846006800F08000019000BF8F
:1043D00000BF002210211148FEF7F2F800223C2114
:1043E0000F48FEF7EDF81020029001200390002006
:1043F0000490059002A90948FDF7DCFF3C200290DB
:104400000120039000200490059002A90448FDF7C4
:10441000D1FF07B000BD000030380240001002405C
:10442000001C024010B50E480E4908604FF482701F
:10443000486000210B488160C160016141614FF417
:10444000007181610021C1610162416281620A21C2
:10445000C162FEF7B3FD08B1FCF7E8FD10BD000036
:10446000003401407008002000B58BB00020079098
:10447000089009900A901C216846FCF77DF81A48BC
:104480001A49086059204860002118488160952128
:10449000C160002101618161FEF73AFE08B1FCF7BD
:1044A000C5FD4FF48050079007A91048FEF7D2FED3
:1044B00008B1FCF7BBFD0D48FFF7D1F808B1FCF7D8
:1044C000B5FD602000900020019002900490002231
:1044D00069460648FFF741F808B1FCF7A7FD034815
:1044E000FFF70AF80BB000BD00180040C808002014
:1044F00010B50D480D4908604FF461304860002147
:104500000A488160C16001610C2141610021816123
:10451000C161FFF777FB08B1FCF788FD0449034848
:10452000FCF787FD10BD0000007C00401009002052
:10453000AE4A002010B50E480E4908600E4848608B
:104540004FF480510B4881600021C1604FF48061BD
:1045500001610C21416100218161C161FFF752FBC2
:1045600008B1FCF763FD034800F0A0F810BD00009F
:104570000010014054090020A086010010B50B482E
:104580000B4908604FF4E130486000210848816021
:10459000C16001610C21416100218161C161FFF7AE
:1045A00031FB08B1FCF742FD10BD0000004800409F
:1045B0009809002010B50D480D4908604FF461308E
:1045C000486000210A488160C16001610C2141619D
:1045D00000218161C161FFF715FB08B1FCF726FDE1
:1045E00004490348FCF725FD10BD000000140140FC
:1045F000DC090020984A002000BFFEE700BFFEE76C
:1046000030B50346541A24B21C809C881D882C4463
:1046100024B29C80B3F9004001EE904AF8EEE11A12
:1046200061EE801AB3F9044002EE104AB8EEC22AD5
:1046300040EE821AB3F90040B3F90250641B02EE57
:10464000104AB8EEC22A41EE021AFDEEE11A11EE4E
:10465000904A24B2DC801C885C80B3F9044047F2A5
:104660003055AC4202DD2C469C8007E0B3F9044093
:104670000D4DAC4202DA48F6D0249C80B3F90640D6
:10468000B4F57A5F03DD4FF47A54DC8007E0B3F9C8
:10469000064014F57A5F02DA4CF28014DC80DC8884
:1046A000644220B230BD0000D08AFFFF38B5044616
:1046B00000BF0020009020680068009020684068DB
:1046C000009000BF00BF2068C06840F01000216863
:1046D000C860242202492046FFF762FC38BD000072
:1046E000744A002000BF012001F0CBFDFBE7000071
:1046F0001FB5012400BF142001F0C3FD4648006827
:1047000002F02CFF00200123024640F6FF710090CA
:104710004248006803F016F9C04341490860002090
:1047200027E03F490978214001AA11543C49096812
:1047300049083B4A1160042804DA01A9095C394A96
:10474000115414E0092805DA01A90A5C011F364B4F
:104750005A540CE00B2806DA01A90A5CA0F1090101
:10476000324B5A5403E001A9095C314A1170411CD3
:10477000C8B20C28D5DB2B4800782A494978084371
:104780002849897808432749C978084318B1002087
:104790002849087002E00120264908702248007864
:1047A0002149497808432049897808431E49C97836
:1047B00008431D490979084318B100201E490870B3
:1047C00002E001201C490870184800781749497810
:1047D000084318B100201949087002E00120174968
:1047E00008701348007818B100201549087002E0DD
:1047F0000120134908704FF0FF3000230122010D02
:1048000000900648006803F09DF80E4908600248D1
:10481000006802F047FF6EE70C0000200400002053
:104820005401002044010020480100204D010020D7
:104830004F010020500100205101002052010020B2
:10484000530100205801002010B500BF502080F314
:104850001188BFF34F8FBFF36F8F00BF03F00EFEC1
:1048600018B14FF080500449086000BF002080F369
:10487000118800BF10BD000004ED00E000B593B04A
:10488000302107A8FBF778FE142102A8FBF774FE7D
:1048900000BF002001902648006840F08050244965
:1048A00008600846006800F08050019000BF00BF1B
:1048B00000BF002001901F48006840F440401D499F
:1048C00008600846006800F44040019000BF00BF47
:1048D000012007900004089002200D9041050E91E0
:1048E00006210F91B42110910221119104211291FE
:1048F00007A8FEF715F908B1FCF798FBFDF768FF6C
:1049000008B1FCF793FB0F200290022003900020D7
:1049100004904FF4A05005904FF48050069005216C
:1049200002A8FDF79BFF08B1FCF780FB13B000BDA8
:1049300040380240007000400348006840F47000B6
:10494000014908607047000088ED00E010B502489A
:10495000FEF707FD10BD0000400B002010B50268F7
:10496000294B98420ED0B0F1804F0BD0274B984284
:1049700008D0274B984205D0264B984202D0264BB0
:10498000984203D122F070024B681A431E4B9842A2
:1049900020D0B0F1804F1DD01C4B98421AD01C4B38
:1049A000984217D01B4B984214D01B4B984211D001
:1049B0001A4B98420ED01A4B98420BD0194B984282
:1049C00008D0194B984205D0184B984202D0184B8A
:1049D000984203D122F44072CB681A4322F080033C
:1049E0004C6943EA040202608B68C3620B6883620D
:1049F000054B984202D0084B984201D10B690363E2
:104A00000123436110BD000000000140000400408C
:104A100000080040000C004000040140004001403C
:104A2000004401400048014000180040001C0040C4
:104A30000020004030B501F01F05012404FA05F301
:104A4000046A9C430462046A01F01F0502FA05F53A
:104A50002C43046230BD30B50C46816821F47F419F
:104A600042EA032525432943816030BD0A46816817
:104A700021F0700142F00703194381607047000084
:104A800030B5056A25F001050562026A436884694C
:104A900024F0700424F003040D682C4322F0020279
:104AA0008D682A43104DA84200D103E00F4DA84263
:104AB00006D100BF22F00802CD682A4322F004028A
:104AC000094DA84202D0094DA84207D123F48073B2
:104AD00023F400734D692B438D692B43436084613C
:104AE0004D684563026230BD000001400004014092
:104AF00030B5056A25F010050562026A43688469CD
:104B000024F4E04424F440740D6844EA052422F0BF
:104B100020028D6842EA0512124DA84200D103E03E
:104B2000114DA84207D100BF22F08002CD6842EAB1
:104B3000051222F040020B4DA84202D00A4DA842B5
:104B400009D123F4806323F400634D6943EA8503AC
:104B50008D6943EA8503436084614D688563026221
:104B600030BD0000000001400004014030B5056A7E
:104B700025F480750562026A4368C46924F07004F4
:104B800024F003040D682C4322F400728D6842EA7D
:104B90000522124DA84200D103E0114DA84207D1D1
:104BA00000BF22F40062CD6842EA052222F480624E
:104BB0000A4DA84202D00A4DA84209D123F48053DD
:104BC00023F400534D6943EA05138D6943EA051345
:104BD0004360C4614D68C563026230BD000001409E
:104BE0000004014030B5056A25F480550562036A6A
:104BF0004468C26922F4E04222F440720D6842EA3D
:104C0000052223F400538D6843EA0533084DA8427A
:104C100002D0084DA84204D124F480444D6944EAEE
:104C200085144460C2614D680564036230BD0000B4
:104C3000000001400004014030B50B461446026AF2
:104C4000056A25F001050562816921F0F00141EA5C
:104C5000041122F00A021A438161026230BD30B5AC
:104C60000B461446056A25F0100505628169026A43
:104C700021F4704141EA043122F0A00242EA031219
:104C80008161026230BD000010B50223044A05496B
:104C90000548FFF7ABF90448FEF744FE10BD0000DD
:104CA000AE4A0020200A00201009002070B50546F9
:104CB000AC6B0020E085E0842046FEF732FE70BD3C
:104CC00070B506460025B46B20684069C0F3C01576
:104CD00094F83D00212805D125B10020E08420462C
:104CE00000F0C4F820684069C0F3801594F83E00D5
:104CF000222805D125B10020E085204600F070F87B
:104D0000206C40F0100020642046FEF70AFE70BDC3
:104D100070B50546AC6B2868006800F48070002808
:104D200042D1E08500BF00BF21680C3151E8001F6F
:104D300021F4807021680C3141E80002002AF3D18F
:104D400000BF00BF00BF2168143151E8001F21F0EF
:104D500001002168143141E80002002AF3D100BFAC
:104D600000BF00BF2168143151E8001F21F040004E
:104D70002168143141E80002002AF3D100BF20204D
:104D800084F83E00206B01280ED100BF00BF2168CF
:104D90000C3151E8001F21F0100021680C3141E86E
:104DA0000002002AF3D100BF206B012804D1A18D9D
:104DB0002046FEF770FD02E02046FFF712F970BDB5
:104DC00070B50546AC6B206B012805D1A08D41085C
:104DD0002046FEF760FD02E02046FFF703F970BDB4
:104DE00000BF00BF02680C3252E8002F22F490711D
:104DF00002680C3242E80013002BF3D100BF00BF61
:104E000000BF0268143252E8002F22F0010102684C
:104E1000143242E80013002BF3D100BF016B0129CB
:104E20000ED100BF00BF02680C3252E8002F22F002
:104E3000100102680C3242E80013002BF3D100BFCE
:104E4000202180F83E1000210163704710B5044610
:104E50002068C06820F040002168C860202084F8E5
:104E60003D002046FFF7BFF8002010BD00BF00BF87
:104E700002680C3252E8002F22F0C00102680C32A6
:104E800042E80013002BF3D100BF202180F83D1031
:104E90007047F8B5044694F83E00222873D1A06804
:104EA000B0F5805F0CD1206950B90025A66A206852
:104EB0004068C0F308003080A06A801CA06215E042
:104EC000A56A0026A068B0F5805F03D0A06828B965
:104ED000206918B920684068287004E0206840689C
:104EE00000F07F002870A06A401CA062E08D401E88
:104EF00080B2E085002844D12068C06820F02000FE
:104F00002168C8602068C06820F480702168C8608B
:104F10002068406920F0010021684861202084F861
:104F20003E00206B012826D10020206300BF00BF77
:104F300021680C3151E8001F21F0100021680C316C
:104F400041E80002002AF3D100BF2068006800F0A9
:104F5000100010280AD100BF0020009020680068CF
:104F6000009020684068009000BF00BFA18D2046DF
:104F7000FEF791FC02E02046FFF733F80020F8BD71
:104F800001E00020FBE70220F9E700002DE9F84FDF
:104F900004462068006920F44050E1680843216815
:104FA00008612169A068084361690843E169084311
:104FB00000902068C06849F20C618843009908435A
:104FC0002168C8602068406920F44070A1690843E6
:104FD0002168486176492068884203D07549206875
:104FE000884203D1FDF734FD814602E0FDF720FD44
:104FF0008146E069B0F5004F6CD102206168A0FBEA
:10500000015003461920A9FB007001462A46384684
:10501000FBF7BCF96421B0FBF1F04FEA001A022063
:105020006168A0FB01510B461920A9FB00712A46BB
:105030003846FBF7ABF9834602206168A0FB0150BC
:1050400003461920A9FB00712A463846FBF79EF952
:105050006421B0FBF1F000EBC00101EB0010ABEB01
:105060008000322101EBC0006421B0FBF1F000F0C0
:10507000F8000AEB400A02206168A0FB01500346D9
:105080001920A9FB007001462A463846FBF77EF935
:10509000834602206168A0FB015003461920A9FB4A
:1050A00000712A463846FBF771F96421B0FBF1F034
:1050B00000EBC00101EB0010ABEB8000322101EBF3
:1050C000C0006421B0FBF1F000F0070050442168FB
:1050D00088606AE004206168A0FB01500346192043
:1050E000A9FB007001462A463846FBF74FF9824675
:1050F00004206168A0FB015003461920A9FB007041
:1051000001462A463846FBF741F96421B0FBF1F02D
:1051100000EBC00101EB0010AAEB8000322101EB93
:1051200000106421B0FBF1F000F0F00A0420616887
:10513000A0FB017003461920A9FB00513A462846FE
:10514000FBF724F96421B0FBF1F00AEB001A04200C
:105150006168A0FB01510B461920A9FB00712A468A
:105160003846FBF713F9834604206168A0FB015021
:1051700003461920A9FB007001462A463846FBF772
:1051800005F96421B0FBF1F000EBC00101EB001068
:10519000ABEB8000322101EB00106421B0FBF1F099
:1051A00000F00F00504421688860BDE8F88F0000CF
:1051B000001001400014014077B581B00446154647
:1051C0000298A062A58500202064222084F83E0079
:1051D0002948A16BC8632948A16B08642848A16BC2
:1051E000C8640020A16B086502AE32682368191DEF
:1051F0002B46A06BFDF794F800BF002000902068BC
:105200000068009020684068009000BF00BF00BFA9
:10521000002084F83C0000BF00BF00BF21680C31B3
:1052200051E8001F41F4807021680C3141E8000210
:10523000002AF3D100BF00BF00BF2168143151E83C
:10524000001F41F001002168143141E80002002AEA
:10525000F3D100BF00BF00BF2168143151E8001F27
:1052600041F040002168143141E80002002AF3D1E6
:1052700000BF002004B070BD114D0008C14D0008F2
:10528000C14C0008014691F83D00212828D18868CA
:10529000B0F5805F0BD1086948B90A6A1088C0F37D
:1052A00008000B685860086A801C086205E00B6AF9
:1052B000581C086218780B685860C88C401E80B271
:1052C000C88458B90868C06820F080000B68D860AE
:1052D0000868C06840F040000B68D8600020704744
:1052E0000220FCE710B504490448FEF7ABFE034872
:1052F000FEF718FB10BD0000800A002054090020B2
:1053000010B50123044A05490548FEF76FFE04481D
:10531000FEF708FB10BD0000984A0020E00A0020BC
:10532000DC09002000BFFEE703B4019841000098AB
:1053300050EAC12018BF04204A0D18BF40F00100F8
:1053400040F2FF72B2EB515F08BF40F0020001284B
:1053500008BF052002B0704702480068C0F3022071
:10536000704700000CED00E010B5002804DB0A07D0
:10537000130E054A135406E00A07140E034A00F000
:105380000F031B1FD45410BD00E400E018ED00E033
:1053900010B5B94A2DED020B2DED0C8B82B00F9993
:1053A00021F000409FEDB6CB90422CDBA0F14053A2
:1053B0000E9AA3F17F631A430FD0B349884202DCEF
:1053C00016D10E98A0B19DED0E0B02B0BDEC0C8B6A
:1053D00002B0BDE8104000F0A4BC0029C1BF9FEDA1
:1053E000AC0B02B0BDEC0C8B02B0C8BF10BD16E018
:1053F0000120FBF7F0F802B0BDEC0C8B02B0BDE869
:10540000104000F0A5BCA44A9FEDA59B9FEDA6AB64
:1054100090425EDAA6499FEDA8CB814208DBB0EE50
:105420004C0AF0EE6C0A02B0BDEC0C8B02B010BD61
:105430009DED0E0B53EC102B51EC100B03F010FDF7
:1054400041EC180B9E480621B0EE480AF0EE680ABF
:10545000784400F0EAFB53EC182B51EC100B03F0EE
:10546000FFFC41EC1B0B9748B0EE480AF0EE680ACF
:105470000421784400F0D9FB53EC182B51EC100BAD
:1054800003F0EEFC53EC192B03F0A4FA41EC100BE3
:1054900051EC1B0B53EC102B03F044FB41EC100BB5
:1054A00053EC102B9DED0E0B51EC100B03F0D8FCC0
:1054B00053EC1A2B03F0D2FD9DED0E1B53EC112B78
:1054C00003F0CCFD53EC1C2B03F0C8FD41EC100B9A
:1054D000A9E79FED7D8B9FED7EBB9DED0E0B002917
:1054E00053EC192B51EC100B52DA03F073FA53EC16
:1054F000182B03F0B5FC41EC180B77480621B0EEF1
:10550000480AF0EE680A784400F08FFB53EC182B41
:1055100051EC100B03F0A4FC41EC1D0B6F48B0EEF6
:10552000480AF0EE680A0421784400F07EFB53EC50
:10553000182B51EC100B03F093FC53EC192B03F0D8
:1055400049FA41EC190B51EC180B01F01FFD41EC2D
:10555000180B53EC192B51EC1D0B03F0E3FA53EC31
:10556000182B03F07DFC53EC1A2B03F04FFE41EC9B
:10557000100B51EC180B53EC102B03F02BFA53ECDF
:105580001B2B03F06DFC53EC1C2B03F067FD6DE04F
:1055900003F064FD53EC182B03F062FC41EC180B94
:1055A00001F0F4FC41EC1A0B00208DED00AB0090F3
:1055B0009DED000B51EC1A0B53EC102B03F00AFA83
:1055C0009DED000B41EC1C0B53EC102B51EC100B20
:1055D00003F046FC53EC182B03F040FD53EC1C2B5E
:1055E00003F0A0FA41EC1C0B3D48B0EE480AF0EE87
:1055F000680A0621784400F018FB53EC182B51EC94
:10560000100B03F02DFC41EC1D0B3648B0EE480AA0
:10561000F0EE680A0421784400F007FB53EC182BE5
:1056200051EC100B03F01CFC53EC192B03F0D2F9D6
:1056300041EC100B51EC1D0B53EC102B03F072FAE4
:1056400053EC1A2B03F00CFC53EC1C2B03F0C2F9A7
:1056500041EC100B53EC102B9DED000B51EC100B9B
:1056600003F0B8F953EC1B2B03F0FAFB41EC100BE1
:10567000D9E60000000000000000F03F000000003C
:10568000182D4454FB2109400000F07F0000000069
:1056900000000000000000000000E03F00000000EB
:1056A000000000000000F03F075C143326A6913C88
:1056B0000000603C00000000182D4454FB21F93F1D
:1056C0003441000042410000000000000000E03FC3
:1056D00000000000000000407E4000008C40000000
:1056E000903F00009E3F000070B59B482DED020BDF
:1056F0002DED068B079D25F00044A04218DC97484D
:10570000844202DC0AD1069840B19DED060BBDEC47
:10571000068B02B0BDE8704000F003BB002DCCBF8B
:105720009FED8F0B9FED900BBDEC068B02B070BD13
:105730008F48A04215DD8F48A042D8BF4FF0FF34FC
:1057400058DD9DED060B51EC100BFFF7EDFD042825
:1057500008BF00F00DFB9DED060BBDEC068B02B003
:1057600070BD9DED060B51EC100B00F0B9FCCDE9BE
:10577000060181489FED828BA0423CDD8248A04219
:105780001FDD00249FED82AB9DED060B53EC1A2B21
:1057900051EC100B03F01EF99DED060B41EC190BBB
:1057A00053EC1A2B51EC100B03F05AFB53EC182B53
:1057B00003F02CFD53EC192B03F0B4F9CDE90601ED
:1057C00049E09DED060B012453EC182B51EC100B16
:1057D00003F000F99DED060B41EC190B53EC182B6F
:1057E00051EC100B03F012FD53EC192B03F09AF956
:1057F000CDE906012FE06848A0421FDD02249FED9D
:10580000689B9DED060B53EC192B51EC100B03F02C
:1058100027FB53EC182B03F0DDF89DED060B41EC54
:10582000180B53EC192B51EC100B03F0EFFC53EC5D
:10583000182B03F077F9CDE906010CE09DED060B7E
:10584000032453EC102B9FED580B51EC100B03F07D
:1058500069F9CDE906019DED060B53EC102B51ECD7
:10586000100B03F0FDFA41EC180B53EC182B03F06E
:10587000F7FA41EC190B4E480621B0EE490AF0EE5A
:10588000690A784400F0D1F953EC182B51EC100B55
:1058900003F0E6FA41EC180B4648B0EE490AF0EE88
:1058A000690A0521784400F0C0F953EC192B51EC3A
:1058B000100B03F0D5FA41EC100B51EC180B53EC24
:1058C000102B002C0EDA03F085F89DED061B53EC2F
:1058D000112B03F0C5FA9DED061B53EC112B03F0C1
:1058E000BDFB35E003F076F89DED061B53EC112B64
:1058F00003F0B6FA41EC100B2F48784400EBC400DB
:1059000090ED001B51EC100B53EC112B03F07EFCBF
:105910009DED061B53EC112B03F078FC41EC100BB2
:105920002648784400EBC40090ED001B51EC100BAE
:1059300053EC112B03F092FB41EC100B002DA2BF96
:10594000BDEC068B02B070BD51EC100B03F004F8F7
:1059500041EC100B01E70000000010440000F07F54
:10596000182D4454FB21F93F182D4454FB21F9BF55
:105970000000DC3F0000203E0000F33F000000007C
:10598000000000000000F03F0000E63F00000000C3
:105990000000000000000040008003400000000004
:1059A000000000000000F83F000000000000F0BF11
:1059B000BA3D0000703D0000FA3C0000B23C00001F
:1059C00070B56B4E2DED040B2DED028B82B0DDF822
:1059D0001CC0DDE905235C422CF000411C4341EA78
:1059E000D474049D22F00040B44205D86C422C438C
:1059F00040EAD474B4420BD99DED061B9DED040B17
:105A000002B0BDEC028B04B0BDE8704000F093B969
:105A1000ACF14054A4F17F641C430BD0022404EA8F
:105A2000AC7444EAD27405439FED538B9FED542B25
:105A300007D015E09DED040B51EC100B00F0C6F9FA
:105A400042E0002C11BF012C9DED040B02B0BDEC17
:105A5000028B04BF04B070BD022C38D0032C3BD0A5
:105A60000B439FED491B9FED4A0B0AD0B14218D161
:105A7000B04209D121F0804120F08040079105908B
:105A80000FE0002A15DA10E0434B7B44002C08BFDE
:105A900093ED000B0DD0012C10D0022C17D0032C4D
:105AA0001AD0B0421DD1002A03DAB0EE410AF0EE5E
:105AB000610A02B0BDEC028B04B070BD93ED000B27
:105AC00051EC100B02F048FF41EC100BF1E7B0EE87
:105AD000480AF0EE680AECE7B0EE420AF0EE620A1D
