:020000040800F2
:10000000D85100202D030008CD4700089941000871
:10001000C9470008750900080155000800000000E4
:100020000000000000000000000000006D02000859
:100030009F0F000800000000C9020008254A0008C0
:100040004703000847030008470300084703000868
:100050004703000847030008470300084703000858
:100060004703000847030008470300084703000848
:100070004703000847030008470300084703000838
:1000800047030008650E00084703000847030008FF
:1000900079090008470300084703000847030008E0
:1000A0004703000847030008470300084703000808
:1000B00047030008470300084703000847030008F8
:1000C00047030008470300084703000847030008E8
:1000D00047030008C154000847030008470300080D
:1000E00047030008470300084703000847030008C8
:1000F00047030008470300084703000847030008B8
:1001000047030008470300084703000847030008A7
:10011000470300084703000847030008294B00086D
:1001200047030008750E0008850E00084703000805
:100130004703000847030008470300084703000877
:10014000890900084703000847030008470300081F
:10015000470300084703000847030008DD54000870
:100160004703000847030008470300084703000847
:100170004703000847030008470300080000000089
:10018000470300084703000847030008654E0008BE
:100190004703000847030008470300084703000817
:1001A00000000000000000004703000800F002F813
:1001B00000F04CF80AA090E8000C82448344AAF1B5
:1001C0000107DA4501D100F041F8AFF2090EBAE8B3
:1001D0000F0013F0010F18BFFB1A43F0010318477B
:1001E0005C9900007C9900000A4410F8014B14F05F
:1001F0000F0508BF10F8015B240908BF10F8014B78
:100200006D1E05D010F8013B6D1E01F8013BF9D1C0
:10021000641E03D0641E01F8015BFBD19142E4D35C
:10022000704700000023002400250026103A28BF54
:1002300078C1FBD8520728BF30C148BF0B60704758
:100240001FB509F082FB1FBD10B510BD00F0E4F929
:100250001146FFF7F5FF06F01DFA00F002FA03B4AD
:10026000FFF7F2FF03BC00F003FA00002C4B196803
:100270000868B0E8F04F80F30988BFF36F8F4FF044
:10028000000080F3118870470000000008480068F3
:10029000006880F308884FF0000080F3148862B68D
:1002A00061B6BFF34F8FBFF36F8F00DF00BF00BF9A
:1002B00008ED00E0DFF80C00016841F47001016016
:1002C000704700BF88ED00E0EFF30980BFF36F8F48
:1002D000134B1A681EF0100F08BF20ED108A20E99A
:1002E000F04F106009B44FF0500080F31188BFF355
:1002F0004F8FBFF36F8F07F09BFC4FF0000080F330
:10030000118809BC19680868B0E8F04F1EF0100F9A
:1003100008BFB0EC108A80F30988BFF36F8F704775
:1003200034000020EFF30580704700000948804743
:1003300009480047FEE7FEE7FEE7FEE7FEE7FEE7C7
:10034000FEE7FEE7FEE7FEE704480549054A064BDF
:1003500070470000154B0008AD010008D84B002085
:10036000D8510020D84D0020D84D002053EA020C6F
:1003700000F069802DE9F04B4FF00006002B1FBF05
:10038000B3FA83F503FA05F424FA05F65E4012BFCA
:100390001643B2FA82F502FA05F4C5F120051EBF34
:1003A00022FA05FC44EA0C04203556EA044C4FEAD4
:1003B000144418BF641C4FF000084FF0000990422D
:1003C00071EB030C39D3002919BFB1FA81F701FA97
:1003D00007F6B0FA80F700FA07F6C7F120071EBF4C
:1003E00020FA07FC46EA0C062037B6FBF4FCA7EB24
:1003F0000507103F07F01F0BCBF120060CFA0BFB93
:100400002CFA06F644BFB3460026202FA4BF5E4652
:100410004FF0000B5BEA060C08BF4FF0010B19EB25
:100420000B09ABFB027C48EB0608C01B06FB02CCA9
:100430000BFB03CC71EB0C01C1E70B4602464146B6
:100440004846BDE8F08B13B54FF000004FF00001B7
:10045000AFF30080BDE81C407047032A40F23080B3
:1004600010F0030C00F0158011F8013BBCF1020FF5
:10047000624498BF11F801CB00F8013B38BF11F876
:10048000013BA2F1040298BF00F801CB38BF00F88D
:10049000013B11F0030300F02580083AC0F008800A
:1004A00051F8043B083A51F804CBA0E80810F5E7EE
:1004B000121D5CBF51F8043B40F8043BAFF30080D1
:1004C000D20724BF11F8013B11F801CB48BF11F846
:1004D000012B24BF00F8013B00F801CB48BF00F816
:1004E000012B704710B5203AC0F00B80B1E81850CE
:1004F000203AA0E81850B1E81850A0E81850BFF40E
:10050000F5AF5FEA027C24BFB1E81850A0E81850AC
:1005100044BF18C918C0BDE810405FEA827C24BF00
:1005200051F8043B40F8043B08BF7047D20728BF8E
:1005300031F8023B48BF11F8012B28BF20F8023BDD
:1005400048BF00F8012B704702F0FF0343EA032283
:1005500042EA024200F037B84FF0000200B51346FD
:1005600094469646203922BFA0E80C50A0E80C50D3
:10057000B1F12001BFF4F7AF090728BFA0E80C5084
:1005800048BF0CC05DF804EB890028BF40F8042B7D
:1005900008BF704748BF20F8022B11F0804F18BFEA
:1005A00000F8012B704770477047704710B500F096
:1005B0002BF8006810BD10B5044600F025F8046063
:1005C00010BD4FF000020429C0F0128010F0030C9F
:1005D0003FF4C4AFCCF1040CBCF1020F18BF00F81B
:1005E000012BA8BF20F8022BA1EB0C01FFF7B6BF2F
:1005F0005FEAC17C24BF00F8012B00F8012B48BF43
:1006000000F8012B7047000000487047744B002031
:1006100000487047744B00207546FFF7F9FFAE465F
:1006200005006946534620F00700854618B020B5FE
:10063000FFF78AFEBDE820404FF000064FF00007AC
:100640004FF000084FF0000B21F00701AC46ACE87A
:10065000C009ACE8C009ACE8C009ACE8C0098D46E7
:1006600070470446AFF300802046FFF7F8FD000016
:1006700001491820ABBEFEE72600020070470000CB
:10068000F0B52DED108B83B005460C46B0EE408AD8
:10069000F0EE608A05FB05F004FB040000EE100A92
:1006A000B8EEC00AF0EE409A19EE900A09F0DCF8B4
:1006B00041EC1B0BB0EE4B0AF0EE6B0A05F068FB49
:1006C000B0EE40AAF0EE60AA51EC1A0B08F0C6FD9D
:1006D00000B209EE100A9FED340A39EE800ADFED10
:1006E000330A30EE600AF8EEC90A9FED311A60EE67
:1006F000810A80EE201A11EE106A284608F0DDFD0E
:1007000041EC1D0B204608F0D8FD41EC1E0BB0EE6D
:100710004D1AF0EE6D1AB0EE4E0AF0EE6E0A05F0CC
:100720003FFAB0EE40CAF0EE60CA304609F09CF8DD
:1007300041EC1D0BB0EE4D0AF0EE6D0A04F018FF0F
:10074000B0EE40FAF0EE60FA53EC1C2B51EC1F0BAC
:1007500008F084FB9FED170B53EC102BCDE9000143
:100760009DED000B51EC100B08F0BEFD41EC1B0B96
:100770009FED120B53EC102B08F018FC41EC1A0BF8
:1007800008F03AFB02909DED020A30EE480A20EE96
:10079000280ABDEEC00A10EE100A07B2384603B0B0
:1007A000BDEC108BF0BD000014CE8E4400208844B8
:1007B00033338742000000000080664000000020C4
:1007C000FF2109402DE9F0432DED108B83B0054644
:1007D0000C46F0EE408AB0EE60FA05FB05F004FB33
:1007E000040000EE100AB8EEC00AB0EE408A18EE1F
:1007F000100A09F039F841EC1A0BB0EE4A0AF0EE93
:100800006A0A05F0C5FAB0EE409AF0EE609A51EC33
:10081000190B08F023FD00B20FEE900A9FED4C0A71
:1008200038EE000ADFED4B0A30EE600AF8EEEF0A10
:100830009FED491A20EE811AC0EE010A10EE906A6F
:100840009FED460A30EE480ADFED450A80EE201A99
:1008500011EE107A284608F030FD41EC1B0B2046C3
:1008600008F02BFD41EC1C0BB0EE4B1AF0EE6B1AAE
:10087000B0EE4C0AF0EE6C0A05F092F9B0EE409A38
:10088000F0EE609A304608F0EFFF41EC1B0BB0EE43
:100890004B0AF0EE6B0A04F06BFEB0EE40AAF0EEED
:1008A00060AA53EC192B51EC1A0B08F0D7FA41EC63
:1008B0001D0B08F0A1FA8046384608F0D5FF41EC40
:1008C0001E0BB0EE4E0AF0EE6E0A04F051FEB0EED2
:1008D00040CAF0EE60CA404608F0C6FF41EC1D0B6E
:1008E00053EC1C2B08F0BAFA9FED1E0B53EC102BA7
:1008F000CDE900019DED000B51EC100B08F0F4FC6C
:1009000041EC1B0B9FED190B53EC102B08F04EFB29
:1009100041EC1A0B9FED130B53EC102B08F0BAFEB1
:1009200041EC190B08F068FA02909DED020A30EED6
:10093000680A20EE0F0ABDEEC00A10EE100A0FFA88
:1009400080F9484603B0BDEC108BBDE8F083000091
:1009500014CE8E4400208844333387420A770B45F7
:10096000CD6C0B45000000000080664000000020B8
:10097000FF21094000BFFEE710B5024800F0F2FE7B
:1009800010BD00004808002010B5024800F0EAFE43
:1009900010BD00007008002000B58BB0002007904B
:1009A00001200890800301900020029003900490A1
:1009B0000590012009900E2006900A9001A9024896
:1009C00000F080FD0BB000BD7008002000B58BB0BA
:1009D00000200790012008908003019000200290E1
:1009E0004FF4FC40039000200490059001200990F2
:1009F000002006900E200A9001A9024800F062FD36
:100A00000BB000BD4808002010B5FFF7DFFFFFF76F
:100A1000C3FF0A4801F01DFB094801F01AFB4FF023
:100A2000FF300849088048800221044800F08AFC11
:100A30000221034800F086FC10BD00004808002099
:100A400070080020B000002070B504460D4640F24A
:100A5000FF1018490860002048608860C8600820BE
:100A6000086100200875A5F2052030B1012809D0E1
:100A700002280CD0032814D10EE0200A0E49087079
:100A80004C700EE0200A0C498870CC7009E0200AF6
:100A9000094908714C7104E0200A07498871CC713A
:100AA00000BF00BF054B044A0249054800F05FFC47
:100AB00070BD00002C4A0020C4000020DC00002093
:100AC000700800202DE9F04107460C4615461E46E9
:100AD0004FF400700F490860002048608860C860CB
:100AE0000820086100200875380A0B4908704F700B
:100AF000200A8870CC70280A08714D71300A8871FC
:100B0000CE71064B0A460349054800F030FCBDE8AB
:100B1000F0810000F8490020B4000020DC00002033
:100B2000480800200EB500224FF40061B948006863
:100B300007F03AF9B8480078B749497840EA012007
:100B4000C0F30A00ADF80000B3484078C010B249C5
:100B5000897840EA4110C0F30A00ADF80200AE48BF
:100B600080788011AC49C97840EA8100AA490979A6
:100B700040EA8120C0F30A00ADF80400A6480079DD
:100B80004010A549497940EAC110C0F30A00ADF808
:100B90000600A148007CA049497C40EA0120C0F33E
:100BA0000A00ADF80800BDF80400A0F5806000EB75
:100BB000400000B299490880BDF80600A0F58060A9
:100BC00000B24880BDF80000A0F5806000EB400056
:100BD00000B28880BDF80200A0F5806000B2C88035
:100BE000BDF80800A0F5806000B208818A4840790D
:100BF00000118008887288484079C0F30110C872DB
:100C00008548807B8449C97B40EA0120844908806B
:100C10000846007800F00100488008460078C0F3DC
:100C20004000888008460078C0F38000C8800846ED
:100C30000078C0F3C000088108460078C0F30010B7
:100C4000488108460078C0F3401088810846007843
:100C5000C0F38010C88108460078C0F3C010088235
:100C600008460088C0F30020488208460088C0F388
:100C70004020888208460088C0F38020C882084649
:100C80000088C0F3C020088308460088C0F3003005
:100C9000488308460088C0F34030888308460088AF
:100CA000C0F38030C88308460088C00B08845A48C7
:100CB00080795949C97940EA0120400000B2594978
:100CC00008805548007A5449497A40EA0120404258
:100CD000400000B2534948804F48807A4E49C97A53
:100CE00040EA012000B24F4988804B48007B887160
:100CF0004948407BC8714A48408900284BD14A483E
:100D0000D0ED000A0846B0F9000000EE100AB8EE77
:100D1000C00A30EE800A444880ED000A90ED000AD7
:100D2000DFED420AB4EEE00AF1EE10FA04DD9FEDC9
:100D3000400A80ED000A0DE03B4890ED000ADFED2F
:100D40003C0AB4EEE00AF1EE10FA03D29FED370A46
:100D500080ED000A344890ED010ADFED360AB4EE6A
:100D6000E00AF1EE10FA17D290ED010ADFED320A37
:100D7000B4EEE00AF1EE10FA0EDDD0ED010A2948DA
:100D8000B0F9020000EE100AB8EEC00A30EE800A98
:100D9000254880ED010A3CE0234890ED010ADFED93
:100DA000250AB4EEE00AF1EE10FA14DB1D48B0F9A2
:100DB000020000282DDA1C48D0ED010A1948B0F9CC
:100DC000020000EE100AB8EEC00A30EE800A1648A3
:100DD00080ED010A1DE0144890ED010ADFED160ACE
:100DE000B4EEE00AF1EE10FA13D80E48B0F90200A2
:100DF00000280EDD0C48D0ED010A0A48B0F90200C7
:100E000000EE100AB8EEC00A30EE800A064880ED07
:100E1000010A0EBD040000209C4A0020144B002053
:100E20002C4B002084010020204B002000F07F4547
:100E300000F07FC50000164400007AC310B50346D9
:100E4000581A074CA04202DA501C82B206E0581A27
:100E500040F6B834A04201DD501E82B210B210BD7F
:100E600048F4FFFF10B5024801F094F910BD0000EE
:100E7000480A002010B5024801F08CF910BD0000AE
:100E8000080B002010B5024801F084F910BD0000E5
:100E9000A80A00200146087810381823B0FBF3F2A6
:100EA0000848805CC865032A05D908686FF3090003
:100EB000001D886503E008686FF309008865886D88
:100EC00070470000EC990008014600208A6A8B698F
:100ED000CBB932B1012A0DD0022A03D0032A10D196
:100EE0000EE000BFCB6A03F08073B3F1807F00D1C6
:100EF000012007E0CB6AB3F1C07F00D1012001E0FF
:100F000000E000BF34E08B69B3F5005F1AD132B165
:100F1000012A07D0022A03D0032A11D10AE000BF18
:100F200001200EE0CB6A03F08073B3F1807F00D123
:100F3000012006E0CB6AB3F1C07F00D1012000E0C0
:100F400000BF15E032B1012A05D0022A04D0032ADD
:100F50000CD103E000BF00BF012008E0CB6A03F022
:100F60008073B3F1807F00D1012000E000BF00BF9B
:100F7000704730B50468246824F4802405682C6028
:100F8000046863608468402C04D10468A26004682B
:100F9000E16003E00468A1600468E26030BD70476E
:100FA00000BF5B480078012827D0322059490968E2
:100FB00048630021574802F05FFC962005F0A5FB2E
:100FC0000021544802F0DEFC4FF4FA7005F09DFB5E
:100FD0000F20504909684863002408E04E48005D2E
:100FE00018B1611CC8B205F00DF8601CC4B2042C25
:100FF000F4DB4FF47A7005F088FB4848007801284C
:1010000035D032204349096848630021414802F045
:1010100033FC962005F079FB00213E4802F0B2FC3B
:10102000962005F072FB00213A4802F025FC96203C
:1010300005F06BFB0021374802F0A4FC4FF4FA7076
:1010400005F063FB0F20334909684863002408E07A
:101050003348005D18B1611CC8B204F089FF601C00
:10106000C4B2052CF4DB4FF47A7005F04EFB2D482A
:101070000078012843D032202649096848630021BE
:10108000244802F0F9FB962005F03FFB002121489F
:1010900002F078FC962005F038FB00211D4802F094
:1010A000EBFB962005F031FB00211A4802F06AFCA8
:1010B000962005F02AFB0021164802F0DDFB962061
:1010C00005F023FB0021134802F05CFC4FF4FA709A
:1010D00005F01BFB0F200F4909684863002408E056
:1010E0001148005D18B1611CC8B205F0B5FA601C6A
:1010F000C4B2022CF4DB4FF4FA7005F006FB0B4887
:10110000007801283FF44DAF05F02AF949E70000C7
:1011100078010020F00800206C01002079010020F7
:10112000700100207A010020750100207B01002061
:1011300072B600BFFEE738B504460D4600BF00207A
:10114000009020680068009020684068009000BF10
:1011500000BF2068C06840F010002168C8601622F7
:101160002946204602F0F4FF38BD000010B52DEDF1
:10117000068B0446012C67D169480078552862D156
:1011800067498978664AD27841EA022108B208F0B4
:1011900094F841EC1A0B9FED630B53EC102B07F006
:1011A00005FF41EC190B9FED610B53EC102B08F080
:1011B0009BF841EC180B07F01FFE5E490860584988
:1011C0000979574A527941EA022108B208F075F8C4
:1011D00041EC1A0B9FED530B53EC102B07F0E6FE7E
:1011E00041EC190B9FED510B53EC102B08F07CF8E0
:1011F00041EC180B07F000FE4E49486048498979D8
:10120000474AD27941EA022108B208F056F841EC87
:101210001A0B9FED440B53EC102B07F0C7FE41EC6B
:10122000190B9FED420B53EC102B08F05DF841ECCD
:10123000180B07F0E1FD3F498860002261023E483B
:10124000006806F0B1FD68E0022C66D13B480078EA
:10125000552862D139498978384AD27841EA022141
:1012600008B208F02AF841EC1A0B9FED2E0B53EC54
:10127000102B07F09BFE41EC190B9FED2C0B53EC50
:10128000102B08F031F841EC180B07F0B5FD2C4994
:1012900008602A490979294A527941EA022108B2AB
:1012A00008F00BF841EC1A0B9FED1E0B53EC102BC2
:1012B00007F07CFE41EC190B9FED1C0B53EC102B3F
:1012C00008F012F841EC180B07F096FD1C49486035
:1012D0001A498979194AD27941EA022108B207F0FC
:1012E000ECFF41EC1A0B9FED0F0B53EC102B07F0AA
:1012F0005DFE41EC190B9FED0D0B53EC102B07F02D
:10130000F3FF41EC180B07F077FD0D4988600022D0
:1013100061020948006806F047FDBDEC068B10BD70
:10132000C04A0020000000000000E0400000000073
:10133000008066405C4B002004000020D64A00205C
:10134000684B002010B5024692F82030012B01D0E6
:10135000022B06D1106840690843146860610020C0
:1013600010BD506A40F4802050620120F8E7F0B5CB
:1013700004460D461E4694F8207020688368A868CD
:1013800000B900E000BF012F01D0022F7CD103F093
:10139000806030B903F0006018B903F08050002875
:1013A00073D0C3F30161022905D9606A40F40000DB
:1013B00060620120F0BD012088403060A86860B9FB
:1013C000B5F800C0E86840EA4C5C206800F5C070E1
:1013D00000EB0110C0F800C00FE0D5E901C040EA01
:1013E000CC00D5F80CC040EA0C00D4F800C00CF5D5
:1013F000C07C0CEB011CCCF80000D5F810C02068B4
:1014000000F5C07000EB0110C0F804C0287D012871
:101410000ED1206800F5C07000EB0110406840F468
:10142000807C206800F5C07000EB0110C0F804C09B
:10143000D079000692F806C040EA0C4092F805C048
:1014400040EA0C2C10794CEA000C206800F5C070C2
:1014500000EB0110C0F80CC0D078000692F802C072
:1014600040EA0C4092F801C040EA0C2092F800C01B
:1014700040EA0C00D4F800C00CF5C07C0CEB011C59
:10148000CCF80800206801E016E00FE000F5C0701D
:1014900000EB0110006840F0010C206800F5C070FE
:1014A00000EB0110C0F800C0002083E7606A40F440
:1014B0000010606201207DE7606A40F48020606275
:1014C000012077E7F0B504460A46216894F82050D9
:1014D000012D01D0022D7ED1424901F5007108682D
:1014E00040F001000860086820F47C50086008683B
:1014F000566A40EA06200860107D00F01F060120B1
:1015000000FA06F3C8699843C861A1F50071D06973
:10151000C8B9D1F80C029843C1F80C02908880B287
:10152000968940EA064601F51070576940F8376021
:10153000108880B2168940EA064601F51070576996
:1015400000EBC7004660D069012819D1D1F80C0220
:101550001843C1F80C02908880B2168840EA06460B
:1015600001F51070576940F83760908980B216898C
:1015700040EA064601F51070576900EBC700466067
:10158000906928B9D1F804029843C1F8040204E034
:10159000D1F804021843C1F80402106928B9D1F83F
:1015A00014029843C1F8140204E0D1F8140218435D
:1015B000C1F81402106A012804D1D1F81C021843A2
:1015C000C1F81C02D1F8000220F00100C1F80002AD
:1015D0000020F0BDFFE7606A40F4802060620120D7
:1015E000F7E7000000640040704770B5044694F8C7
:1015F0002050012D01D0022D7DD151B92068C06845
:1016000000F0030080B9606A40F4001060620120BD
:1016100070BD2068006900F0030028B9606A40F4DA
:10162000001060620120F3E7206800F5D87000EB3D
:101630000110006800F004009060906840B92068D4
:1016400000F5D87000EB01100068400D106007E055
:10165000206800F5D87000EB01100068C0085060E9
:10166000206800F5D87000EB0110006800F002005F
:10167000D060206800F5D87000EB0110406800F0E1
:101680000F001061206800F5D87000EB0110406871
:1016900000F47F40000A9061206800F5D87000EBEC
:1016A00001104068000C5061206800F5D87000EB14
:1016B000011080681870206800F5D87000EB0110E8
:1016C000806800F47F40000A5870206800F5D870E8
:1016D00000EB0110806800F47F00000C9870206817
:1016E00000F5D87000EB01108068000ED8702068FB
:1016F00000F5D87000E02FE000EB0110C068187111
:10170000206800F5D87000EB0110C06800F47F403D
:10171000000A5871206800F5D87000EB0110C0680D
:1017200000F47F00000C9871206800F5D87000EB81
:101730000110C068000ED87131B92068C06840F04F
:1017400020002668F06005E02068006940F0200075
:101750002668306100205BE7606A40F480206062A8
:10176000012055E72DE9F05F044600252068466911
:101770002068D0F80490206887682068D0F80CA012
:101780002068D0F810B02068D0F8188006F001006A
:10179000002855D007F00100C0B101202168886001
:1017A00007F0020018B1204600F083FC0EE007F0BD
:1017B000040010B145F4006508E007F0080010B11E
:1017C00045F4805502E0204600F072FC07F480707A
:1017D000C8B14FF480702168886007F4007018B1B8
:1017E000204600F068FC0EE007F4806010B145F47C
:1017F000005508E007F4006010B145F4804502E0B0
:10180000204600F057FC07F48030C8B14FF4803018
:101810002168886007F4003018B1204600F04DFCC4
:101820000EE007F4802010B145F4004508E007F40D
:10183000002010B145F4803502E0204600F03CFC69
:1018400006F0080038B10AF0100020B145F4007528
:1018500010202168C86006F0040040B10AF00800BA
:1018600028B108202168C860204600F00FFA06F071
:10187000020038B12068C06800F0030010B12046B3
:1018800000F006FA06F0400038B10BF0100020B16D
:1018900045F4806510202168086106F0200040B101
:1018A0000BF0080028B1082021680861204600F0EC
:1018B000CDFB06F0100038B12068006900F003008D
:1018C00010B1204600F0C3FB06F4003040B109F02F
:1018D000100028B1102021684860204600F0B8FBB5
:1018E00006F4803040B109F0080028B108202168D2
:1018F0004860204600F0E2FB06F4004088B309F09F
:10190000040078B306F4807020B108F0010008B13B
:1019100045F0010506F4007020B108F0020008B19E
:1019200045F0020506F4806020B108F0040008B11B
:1019300045F0040506F40060A0B108F0700088B11D
:1019400008F07000402817D006DC10280BD02028A3
:101950000CD0302819D10CE0502810D0602814D1B8
:1019600010E01DE019E045F008050FE045F0100516
:101970000CE045F0200509E045F0400506E045F0A3
:10198000800503E045F4807500E000BF00BF2068DB
:10199000806920F070002168886104202168486017
:1019A0002DB1606A284360622046FFF71DFEBDE846
:1019B000F09F70B504460CB9012070BD94F820006A
:1019C00010B9204600F0B0F82068006840F001002F
:1019D0002168086000F0D2FE05460DE000F0CEFE62
:1019E000401B0A2808D9606A40F400306062052074
:1019F00084F820000120E0E72068406800F0010042
:101A00000028EBD02068006820F002002168086000
:101A100000F0B4FE05460DE000F0B0FE401B0A28C1
:101A200008D9606A40F400306062052084F8200024
:101A30000120C2E72068406800F002000028EBD1D6
:101A4000207E012806D12068006840F080002168CF
:101A5000086005E02068006820F0800021680860C8
:101A6000607E012806D12068006840F040002168AF
:101A7000086005E02068006820F0400021680860E8
:101A8000A07E012806D12068006840F0200021686F
:101A9000086005E02068006820F0200021680860E8
:101AA000E07E012806D12068006820F0100021683F
:101AB000086005E02068006840F0100021680860B8
:101AC000207F012806D12068006840F008002168C6
:101AD000086005E02068006820F0080021680860C0
:101AE000607F012806D12068006840F0040021686A
:101AF000086005E02068006820F0040021680860A4
:101B0000D4E9020108432169084361690843616817
:101B1000491E08432168C86100206062012084F8E2
:101B20002000002049E7000010B586B004461421CB
:101B300001A8FEF711FD4F492068884241D14E4867
:101B40000068401C4C4908600846006801280FD115
:101B500000BF002000904948006840F000704749ED
:101B600008600846006800F00070009000BF00BFE9
:101B700000BF0020009041481038006840F0080085
:101B80003E49103908600846006800F008000090DF
:101B900000BF00BF032001900220029000200390AC
:101BA000032004900920059001A9354800F0D2FCDB
:101BB00000220521142000F091FE142000F07EFE8A
:101BC00055E030492068884251D100BF0020009084
:101BD0002A48006840F0806028490860084600688C
:101BE00000F08060009000BF00BF23480068401CE8
:101BF000214908600846006801280FD100BF002075
:101C000000901E48006840F000701C4908600846BB
:101C1000006800F00070009000BF00BF00BF00200F
:101C2000009016481038006840F00200134910393F
:101C300008600846006800F00200009000BF00BF86
:101C40004FF44050019002200290002003900320A6
:101C500004900920059001A90B4800F07BFC0022AC
:101C60000521402000F03AFE402000F027FE06B09B
:101C700010BD0000006400402000002040380240F9
:101C8000000C024000680040000402407047000061
:101C900010B50446DA4884425ED1DA4BDA4A0021B4
:101CA000FFF7A3FCD8480068A0F2012030B101285A
:101CB00014D0022822D0032840D12FE0D148C07888
:101CC000D049897840EA012000B2D04948800022FA
:101CD0000121CF48006806F067F82FE0C948C078B6
:101CE000C849897840EA012000B2CA4948800022E8
:101CF0000221C748006806F057F81FE0C148C078C5
:101D0000C049897840EA012000B2C34948800022D6
:101D10000421BF48006806F047F80FE0B948C078D2
:101D2000B849897840EA012000B2BC4948800022C5
:101D30000821B748006806F037F800BF00BF02214D
:101D4000AF48FFF7FFFA38B1AD480068406940F08E
:101D50000200AB4909684861B14884427ED1B14B69
:101D6000B14A0021FFF741FCAF480068A0F50170BF
:101D7000052839D2DFE800F0FE03398EE100A948DA
:101D80004078A849097840EA012000B2A7490880B4
:101D9000A448C078A349897840EA012000B2A34949
:101DA0008880A04840799F49097940EA012000B223
:101DB0009E49C8809E48007801280BD10B465B895C
:101DC0009AB20B46B3F90210B3F90000FFF736F8E8
:101DD00096494881954800889449488000221021FE
:101DE0008B48006805F0E0FFFAE09248B0F9000087
:101DF000401C48B98B4840788A49097840EA01205C
:101E0000401E00B28B490880864840788549097891
:101E100040EA012087490988401A00B286490880B3
:101E20000846B0F90000002805DA0846008800F5E9
:101E3000005000B208807B48C0787A49897840EA2F
:101E4000012000B27C49888076484079754909793B
:101E500040EA012000B27849C88000E0CEE077482F
:101E6000007801280BD10B465B899AB20B46B3F977
:101E70000210B3F90000FEF7E1FF6F4948816E4898
:101E800000886D494880002220216148006805F0E3
:101E90008BFFA5E06748B0F90200401C48B96148D3
:101EA00040786049097840EA0120401E00B261494B
:101EB00048805C4840785B49097840EA01205D49E8
:101EC0004988401A00B25E4908800846B0F900000F
:101ED000002805DA0846008800F5005000B20880A6
:101EE0005048C0784F49897840EA012000B25449EF
:101EF00088804C4840794B49097940EA012000B27A
:101F00004F49C8804D48007801280BD10B465B89AA
:101F10009AB20B46B3F90210B3F90000FEF78EFF38
:101F20004749488146480088454948800022402169
:101F30003748006805F038FF52E03A4840783949A0
:101F4000097840EA012000B23E4908803548C0784F
:101F50003449897840EA012000B23A4988800B462A
:101F60005B899AB20B46B3F90210B3F90000FEF791
:101F700065FF00E00BE0334948810846008848804F
:101F8000002280212248006805F00EFF28E0254845
:101F900040782449097840EA012000B22A490880A3
:101FA0002048C0781F49897840EA012000B22649BC
:101FB00088800B465B899AB20B46B3F90210B3F9DD
:101FC0000000FEF73BFF2049488108460088488012
:101FD00000224FF480710E48006805F0E5FE00BF56
:101FE00000BF02210E48FFF7ADF938B10C48006878
:101FF000406940F002000A490968486110BD0000CC
:1020000048080020BC000020104A0020E00000200A
:1020100004000020E8000020F0000020F80000206C
:1020200070080020D4000020444A0020604A0020AC
:1020300078010020B00000206C4A002079010020C7
:10204000784A0020844A0020904A00207047704758
:10205000704770B5044694F82000012822D1022070
:1020600084F820002068006820F0010021680860E2
:1020700000F084FB05460DE000F080FB401B0A28C1
:1020800008D9606A40F400306062052084F82000BE
:10209000012070BD2068406800F001000028EBD1ED
:1020A0006062F6E7606A40F4002060620120F0E7B9
:1020B000704770477047704770477047704770B5FA
:1020C0000446A56D00F05AFB064694F83500022838
:1020D00008D08020606500BF002084F8340000BF75
:1020E000012070BD2068006820F01600216808609B
:1020F0002068406920F0800021684861206C08B9A0
:10210000A06C28B12068006820F0080021680860F1
:102110002068006820F001002168086010E000F0ED
:102120002DFB801B05280BD920206065032084F837
:10213000350000BF002084F8340000BF0320D0E742
:102140002068006800F001000028E8D194F85C10D5
:102150003F208840A860012084F8350000BF00209F
:1021600084F8340000BF00BFBBE7014691F835009A
:10217000022803D08020486501207047052081F89F
:1021800035000868006820F001000A68106000202F
:10219000F3E70000F8B50446002000908C48006882
:1021A0004FF41651B0FBF1F7A56D2E6894F85C1052
:1021B00008208840304098B12068006800F0040092
:1021C00070B12068006820F004002168086094F86D
:1021D0005C1008208840A860606D40F001006065D8
:1021E00094F85C1001208840304068B12068406954
:1021F00000F0800040B194F85C1001208840A86095
:10220000606D40F00200606594F85C100420884026
:10221000304068B12068006800F0020040B194F8D6
:102220005C1004208840A860606D40F00400606588
:1022300094F85C1010208840304078B32068006823
:1022400000F0080050B394F85C1010208840A8609B
:102250002068006800F4802080B12068006800F4E5
:10226000002028B9206CC8B12046216C884715E0B1
:10227000A06C98B12046A16C88470FE020680068E8
:1022800000F4807028B92068006820F008002168F8
:102290000860206C10B12046216C884794F85C10CF
:1022A000202088403040002865D02068006800F079
:1022B000100000285FD094F85C1020208840A860AF
:1022C00094F83500052828D12068006820F0160011
:1022D000216808602068406920F08000216848611A
:1022E000206C08B9A06C28B12068006820F00800B4
:1022F0002168086094F85C103F208840A8600120A5
:1023000084F8350000BF002084F8340000BF206D41
:1023100010B12046216D8847F8BD2068006800F4A0
:10232000802080B12068006800F4002028B9606C2B
:1023300010B12046616C88471DE0E06BD8B12046A3
:10234000E16B884717E02068006800F4807068B986
:102350002068006820F0100021680860012084F8DF
:10236000350000BF002084F8340000BFE06B10B1DE
:102370002046E16B8847606D38B3606D00F0010066
:10238000F0B1052084F835002068006820F00100D5
:102390002168086000BF0098401C0090B84200D936
:1023A00005E02068006800F001000028F3D100BFBC
:1023B000012084F8350000BF002084F8340000BFFD
:1023C000E06C10B12046E16C884700BFA4E7000034
:1023D000300000202DE9F0410446002500F0CEF940
:1023E000074614B90120BDE8F081606A00B100BF62
:1023F000022084F8350000BF002084F8340000BFBC
:102400002068006820F00100216808600AE000F000
:10241000B5F9C01B052805D920206065032084F884
:102420003500E0E72068006800F001000028EED1E8
:102430002068056821480540D4E901010843E168A6
:1024400008432169084361690843A1690843E169B8
:102450000843216A08430543606A042803D1D4E98C
:102460000B0108430543206805602068456925F095
:102470000705606A0543606A04280DD1A06A054318
:10248000E06A48B12046FEF71FFD28B14020606594
:10249000012084F83500A6E7206845612046FEF754
:1024A000F9FC064694F85C103F208840B06000209C
:1024B0006065012084F83500002094E73F8010F02B
:1024C0002DE9F04704460D4616461F464FF000081A
:1024D000D4F8589000BF94F83400012802D10220AB
:1024E000BDE8F087012084F8340000BF94F835007F
:1024F000012825D1022084F83500002060653B4684
:10250000324629462046FEF734FD94F85C103F2001
:102510008840C9F808002068006840F0160021686B
:102520000860206C28B12068006840F0080021682D
:1025300008602068006840F001002168086006E03B
:1025400000BF002084F8340000BF4FF0020840466E
:10255000C6E70000F8B502460B460025002400201F
:102560000021DFE0012606FA01F51E6806EA0504EF
:10257000AC4274D11E7906F00306012E04D01E79F8
:1025800006F00306022E13D190684F000326BE40CA
:10259000B0434F00DE68BE40304390605068012673
:1025A0008E40B0431E79C6F300168E403043506013
:1025B0001E7906F00306032E09D0D0684F000326CB
:1025C000BE40B0434F009E68BE403043D0601E798D
:1025D00006F00306022E13D1CF0802F1200656F8AA
:1025E00027004E07F70E0F26BE40B0434F07FF0EE1
:1025F0001E69BE403043CF0802F1200646F827008E
:1026000010684F000326BE40B0431E7906F0030653
:102610004F00BE40304310605E6806F44036002E26
:102620007FD000BF00260096404E366846F48046B4
:102630003E4F3E603E46366806F48046009600BF38
:1026400000BF3B4E8F0856F827008E07370F0F2626
:10265000BE40B043374EB24202D100262EE060E0C9
:10266000354EB24201D1012628E0344EB24201D1AA
:10267000022623E0324EB24201D103261EE0314E43
:10268000B24201D1042619E02F4EB24201D10526F3
:1026900014E02E4EB24201D106260FE02C4EB2427B
:1026A00001D107260AE02B4EB24201D1082605E0EF
:1026B000294EB24201D1092600E00A268F073F0FBA
:1026C000BE4030431A4E8F0846F82700234E30682C
:1026D000A0435E6806F4803606B120431F4E30608A
:1026E000361D3068A0435E6806F4003606B120430C
:1026F0001A4E361D3060361D3068A0435E6806F401
:10270000801606B12043154E08363060361D3068FD
:10271000A0435E6806F4001606B120430F4E0C3647
:102720003060491C1029FFF41DAFF8BD4438024049
:102730000838014000000240000402400008024046
:10274000000C024000100240001402400018024039
:10275000001C02400020024000240240003C0140D6
:10276000024613690B400BB1012000E000207047C6
:102770000AB1816101E00B04836170470148006880
:1027800070470000240000200348006803490978CE
:102790000844014908607047240000202C000020F4
:1027A00010B50D48006840F400700B4908600846F9
:1027B000006840F4806008600846006840F480705B
:1027C0000860032000F0C8F80F2000F007F800F0C0
:1027D0004BF8002010BD0000003C024070B588B0EE
:1027E00004460025002600222146372000F076F816
:1027F000372000F063F800BF002001901648006801
:1028000040F02000144908600846006800F02000ED
:10281000019000BF00BF02A903A800F0B9F900F0C1
:10282000DFF945000D48B5FBF0F0461E0C480D4998
:10283000086040F2E7310B48C16046600021016149
:10284000816000F03DFD20B9064800F087FD08B02A
:1028500070BD0120FBE700004038024040420F00FD
:1028600000140040680B002008B500BF0020009055
:102870001148006840F480400F490860084600682D
:1028800000F48040009000BF00BF00BF0020009017
:10289000081F006840F08050091F08600846006863
:1028A00000F08050009000BF00BF00220F21901E5A
:1028B00000F014F808BD0000443802400146084604
:1028C000002809DB00F01F0301229A4043099B0006
:1028D00003F1E023C3F8002100BF70472DE9F05F4A
:1028E00080460D461646002702F024FE074639466C
:1028F0002A46334601F00700C0F1070ABAF1040F77
:1029000002D94FF0040A01E0C0F1070AD14600F1F4
:10291000040ABAF1070F02D24FF0000A01E0A0F159
:10292000030AD4464FF0010A0AFA09FAAAF1010A89
:102930000AEA020A0AFA0CFA4FF0010B0BFA0CFB36
:10294000ABF1010B0BEA030B4AEA0B0421464046AC
:1029500002F0F8FDBDE8F09F00BF00F00702064B53
:1029600019684FF6FF031940044B0B4343EA022159
:10297000014B196000BF70470CED00E00000FA0544
:1029800038B5002400BF002000901D48006840F0CA
:1029900080501B4908600846006800F08050009095
:1029A00000BF00BF012017490864FFF7E7FE044697
:1029B00007E0FFF7E3FE001BB0F57A7F01D90320A3
:1029C00038BD1148406800F48030B0F5803FF0D148
:1029D00001200C494864FFF7D1FE044607E0FFF7E9
:1029E000CDFE001BB0F57A7F01D90320E8E7064849
:1029F000406800F40030B0F5003FF0D10020DFE780
:102A00004038024000000E420070004070B504469D
:102A10000D460CB9012070BD5848006800F00F0049
:102A2000A84209D255490D700846006800F00F0011
:102A3000A84201D00120EEE7207800F00200022831
:102A40001DD1207800F00400042805D14C4800680E
:102A500040F4E0504A490860207800F00800082857
:102A600005D14748006840F4604045490860444843
:102A7000006820F0F000A168084341490860207810
:102A800000F00100A8B36068012807D13C4808386D
:102A90000068C0F34040B8B90120BCE76068022874
:102AA00002D06068032807D1354808380068C0F3B1
:102AB000406048B90120AEE7314808380068C0F3EB
:102AC000400008B90120A6E72D48006820F0030067
:102AD000616808432A490860FFF750FE064609E08E
:102AE000FFF74CFE801B41F28831884202D9032057
:102AF00091E707E02248006800F00C006168B0EB45
:102B0000810FEDD11D48006800F00F00A84209D9DF
:102B10001A490D700846006800F00F00A84201D065
:102B2000012078E7207800F00400042807D1144839
:102B3000006820F4E050E1680843114908602078FB
:102B400000F00800082808D10D48006820F4604013
:102B5000216940EAC1000A49086000F061F80849AB
:102B60000968C1F30311074A515CC840064908606F
:102B700006480068FFF732FE00204CE7003C0240A8
:102B800008380240F4990008300000202800002096
:102B90000F2202600D4A126802F0030242600B4AE3
:102BA000126802F0F0028260084A126802F4E052F1
:102BB000C260064A126802F46042D2080261044A06
:102BC000126802F00F020A607047000008380240E5
:102BD000003C0240014800687047000030000020BF
:102BE00000B5FFF7F7FF04490968C1F38221034AE2
:102BF000515CC84000BD000008380240049A00083B
:102C000000B5FFF7E7FF04490968C1F34231034A01
:102C1000515CC84000BD000008380240049A00081A
:102C20002DE9F047002400250026A146254800682C
:102C300000F00C0020B1042805D008283AD105E0A6
:102C4000DFF8849039E0DFF8849036E01D48001FFB
:102C5000006800F03F041B48001F006800F480007B
:102C600078B11A481749091F0968C1F38811A0FBF8
:102C700001700146224600233846FDF777FB0546E2
:102C80000EE011480F49091F0968C1F38811A0FB24
:102C900001700146224600233846FDF767FB0546D2
:102CA0000848001F0068C0F30140401C4600B5FB07
:102CB000F6F902E0DFF8109000BF00BF4846BDE81B
:102CC000F0870000083802400024F400001BB70021
:102CD000F8B504460CB90120F8BD207800F00100D9
:102CE000002874D0F948006800F00C0004280DD0CA
:102CF000F648006800F00C00082813D1F348001FC4
:102D0000006800F48000B0F5800F0BD1EF48083860
:102D10000068C0F34040002859D06068002856D1B0
:102D20000120D9E700BF6068B0F5803F08D1E748CF
:102D30000838006840F48030E449083908601EE033
:102D40006068B0F5A02F0DD1E0480838006840F465
:102D50008020DE49083908600846006840F4803069
:102D600008600CE0D9480838006820F48030D74962
:102D7000083908600846006820F48020086000BF19
:102D8000606890B1FFF7FAFC054606E0FFF7F6FC35
:102D9000401B642801D903209EE7CC48083800680E
:102DA000C0F340400028F1D011E0FFF7E7FC0546F2
:102DB00006E0FFF7E3FC401B642801D903208BE702
:102DC000C24808380068C0F340400028F1D120789C
:102DD00000F0020002285FD1BC48006800F00C003F
:102DE00058B1BA48006800F00C0008281CD1B74858
:102DF000001F006800F48000B0B9B44808380068CB
:102E0000C0F3400020B1E068012801D0012063E751
:102E1000AE480838006820F0F800216940EAC10097
:102E2000AA490839086037E0E06800B30120A849E2
:102E30000860FFF7A3FC054606E0FFF79FFC401B78
:102E4000022801D9032047E7A04808380068C0F3EA
:102E500040000028F1D09D480838006820F0F800B4
:102E6000216940EAC10099490839086014E000204E
:102E700097490860FFF782FC054606E0FFF77EFCF5
:102E8000401B022801D9032026E790480838006833
:102E9000C0F340000028F1D1207800F00800082895
:102EA0002CD16069A8B101208A490860FFF766FC4F
:102EB000054606E0FFF762FC401B022801D903200B
:102EC0000AE782486C300068C0F340000028F1D067
:102ED00014E000207F490860FFF750FC054606E03B
:102EE000FFF74CFC401B022801D90320F4E6774889
:102EF0006C300068C0F340000028F1D1207800F069
:102F00000400042870D1002770483830006800F0B1
:102F1000805090B900BF002000906C4838300068A5
:102F200040F080506949383108600846006800F078
:102F30008050009000BF00BF01276748006800F480
:102F40008070B0B96448006840F4807062490860DD
:102F5000FFF714FC054606E0FFF710FC401B0228B3
:102F600001D90320B8E65C48006800F480700028AE
:102F7000F2D000BFA068012808D15448683000682A
:102F800040F001005149683108601DE0A068052843
:102F90000DD14E486830006840F004004B4968315C
:102FA00008600846006840F0010008600CE04748EF
:102FB0006830006820F00100444968310860084624
:102FC000006820F00400086000BFA068A8B1FFF707
:102FD000D5FB054609E0FFF7D1FB401B41F28831E4
:102FE000884202D9032077E626E038486830006836
:102FF000C0F340000028EED013E0FFF7BFFB05460A
:1030000008E0FFF7BBFB401B41F28831884201D941
:10301000032061E62D4868300068C0F340000028B6
:10302000EFD1012F07D129483830006820F08050B7
:1030300026493831086000BFA069002845D02348E0
:10304000006800F00C0008285DD0A069022845D176
:1030500000201F490866FFF791FB054606E0FFF7D1
:103060008DFB401B022801D9032035E6174808389C
:103070000068C0F340600028F1D1D4E9070108439B
:10308000616A40EA81110122A06AC2EB500041EA64
:1030900000412C20005D41EA00600C49091F0860D6
:1030A00001200B490866FFF769FB054606E0FFF7BC
:1030B00065FB401B022801D903200DE603480838B0
:1030C0000068C0F340600028F1D049E008380240B1
:1030D00000004742800E4742007000400020214916
:1030E0000866FFF74BFB054606E0FFF747FB401B72
:1030F000022801D90320EFE51B480068C0F34060B7
:103100000028F2D12CE0A069012800D1E4E516489E
:10311000001D0668A069012820D006F48001E0693E
:1031200081421BD106F03F01206A814216D147F649
:10313000C0703040616AB0EB811F0FD106F440319E
:103140000122A06AC2EB5000B1EB004F06D106F09D
:1031500070612C20005DB1EB006F01D00120BBE558
:103160000020B9E5000047420038024010B504468F
:103170000CB9012010BD606A38B96068B0F5827F73
:1031800000D105E00021E16102E0002121616161DF
:103190000021A16294F8510028B9002084F8500061
:1031A000204600F047F8022084F8510020680068AB
:1031B00020F0400021680860A08800F48270218916
:1031C00001F404410843A18901F400610843217C12
:1031D00001F002010843217D01F001010843218B28
:1031E00001F400710843217F01F0380108432021D8
:1031F000095D01F080010843218D01F4005108436D
:10320000216808600421A06901EA104094F82410A4
:1032100001F010010843216848602068C06920F46B
:1032200000602168C86100206065012084F85100B9
:1032300000209FE710B586B00446142101A8FDF7D1
:103240008BF91B492068884230D100BF00200090D4
:103250001848006840F400501649086008460068A5
:1032600000F40050009000BF00BF00BF002000909D
:1032700010481438006840F010000E4914390860F6
:103280000846006800F01000009000BF00BF4FF437
:1032900083500190022002900020039003200490AC
:1032A0000520059001A90448FFF754F906B010BDA8
:1032B000003401404438024000100240704770471B
:1032C00010B504460CB9012010BD94F83D0028B992
:1032D000002084F83C00204600F026F8022084F804
:1032E0003D00211D206801F027FC012084F84600E4
:1032F00000BF84F83E0001213F20015540200155C8
:103300004120015500BF00BF012084F84200432046
:103310000155442001554520015500BF012084F886
:103320003D000020D0E7000008B50A4A016891423C
:103330000FD100BF002100910749096841F0400109
:10334000054A11601146096801F04001009100BF73
:1033500000BF08BD0018004040380240014691F807
:103360003D00012801D001207047022081F83D0076
:103370000868C06840F001000B68D8601A4B086804
:1033800098421BD00868B0F1804F17D0174B0868DF
:10339000984213D0164B086898420FD0154B086816
:1033A00098420BD0144B0868984207D0134B08681A
:1033B000984203D0124B086898420CD10868806884
:1033C00000F00702062A0CD00868006840F00100EF
:1033D0000B68186005E00868006840F001000B68A1
:1033E00018600020C0E70000000001400004004019
:1033F00000080040000C0040000401400040014073
:10340000001800402DE9F04104460D46002700BF9A
:1034100094F83C00012802D10220BDE8F08101208F
:1034200084F83C0000BF022084F83D0020688668D4
:1034300026F0770626F47F462068866028685028A4
:1034400033D00CDC202850D004DC00284BD01028CE
:1034500051D149E0302849D040284CD139E060288A
:103460002DD0702807D0B0F5805F03D0B0F5005F95
:1034700041D10DE041E0D5E902136A68206801F00E
:10348000D8FB2068866846F077062068866034E0BE
:10349000D5E902136A68206801F0CBFB20688068D8
:1034A00040F480402168886027E0EA686968206805
:1034B00001F0B0FC5021206801F0C6FB1DE0EA6875
:1034C0006968206801F0B9FC6021206801F0BCFB4C
:1034D00013E0EA686968206801F09CFC40212068DC
:1034E00001F0B2FB09E000BF00BF00BF29682068FF
:1034F00001F0AAFB01E0012700BF00BF012084F812
:103500003D0000BF002084F83C0000BF384684E73F
:10351000704710B5044620680069C0F34000D8B178
:103520002068C068C0F34000B0B16FF002002168AD
:103530000861012020772068806900F0030018B13D
:103540002046FFF7E5FF05E0204600F0DDF82046C5
:1035500000F091F90020207720680069C0F3800016
:10356000D8B12068C068C0F38000B0B16FF004002B
:1035700021680861022020772068806900F440708B
:1035800018B12046FFF7C4FF05E0204600F0BCF864
:10359000204600F070F90020207720680069C0F311
:1035A000C000D8B12068C068C0F3C000B0B16FF0EF
:1035B000080021680861042020772068C06900F0B5
:1035C000030018B12046FFF7A3FF05E0204600F0F6
:1035D0009BF8204600F04FF9002020772068006912
:1035E000C0F30010D8B12068C068C0F30010B0B1BB
:1035F0006FF0100021680861082020772068C069FA
:1036000000F4407018B12046FFF782FF05E0204625
:1036100000F07AF8204600F02EF90020207720688C
:10362000006900F0010058B12068C06800F0010096
:1036300030B16FF0010021680861204600F0F6F912
:1036400020680069C0F3C01058B12068C068C0F39A
:10365000C01030B16FF08000216808612046FFF78C
:103660002DFE20680069C0F3801058B12068C06842
:10367000C0F3801030B16FF040002168086120462F
:1036800000F0E0F920680069C0F3401058B12068EC
:10369000C068C0F3401030B16FF0200021680861AD
:1036A0002046FFF70CFE10BD10B586B0044614216D
:1036B00001A8FCF751FF1149206888421CD100BFC6
:1036C000002000900E48006840F080000C4908601F
:1036D0000846006800F08000009000BF00BF402056
:1036E0000190022002900020039004900920059090
:1036F00001A90448FEF72EFF06B010BD00180040D7
:1037000030380240001C024070472DE9F041044669
:103710000D461646002700BF94F83C00012802D150
:103720000220BDE8F081012084F83C0000BF36B1E2
:10373000042E1BD0082E31D00C2E5ED145E0294638
:10374000206801F08BFA2068806940F00800216849
:1037500088612068806920F0040021688861206801
:103760008069296908432168886148E02946206802
:1037700001F0ACFA2068806940F40060216888613B
:103780002068806920F480602168886120688069F1
:10379000296940EA01202168886130E029462068D3
:1037A00001F0D2FA2068C06940F008002168C861C1
:1037B0002068C06920F004002168C8612068C069E1
:1037C000296908432168C86119E02946206801F089
:1037D000F7FA2068C06940F400602168C861206879
:1037E000C06920F480602168C8612068C0692969C7
:1037F00040EA01202168C86101E0012700BF00BF45
:1038000000BF002084F83C0000BF384689E710B5AF
:1038100004460CB9012010BD94F83D0028B90020E1
:1038200084F83C00204600F025F8022084F83D0092
:10383000211D206801F080F9012084F8460000BFB6
:1038400084F83E0001213F200155402001554120D0
:10385000015500BF00BF012084F8420043200155FC
:10386000442001554520015500BF012084F83D004A
:103870000020D0E77047704770B504460D4615B973
:1038800094F83E000BE0042D02D13F20005D06E0DD
:10389000082D02D14020005D01E04120005D01289B
:1038A00001D0012070BD1DB9022084F83E000EE059
:1038B000042D03D102213F20015508E0082D03D13A
:1038C00002214020015502E0022141200155012240
:1038D0002946206801F09CF923492068884203D0DA
:1038E00022492068884201D1012000E0002028B14F
:1038F0002068406C40F40040216848641A49206800
:1039000088421BD02068B0F1804F17D0184920683A
:10391000884213D01749206888420FD01649206882
:1039200088420BD011492068884207D0134920688B
:10393000884203D01249206888420CD120688068F0
:1039400000F00706062E0CD02068006840F0010049
:103950002168086005E02068006840F001002168E7
:10396000086000209EE700000000014000040140C4
:103970000004004000080040000C004000400140EE
:103980000018004030B504460D4600222946206844
:1039900001F03EF923492068884203D0224920687B
:1039A000884201D1012000E0002090B100BF2068D2
:1039B000006A41F21111084050B92068006A89106C
:1039C000084028B92068406C20F400402168486411
:1039D00000BF00BF2068006A41F21111084050B9D1
:1039E0002068006A8910084028B92068006820F023
:1039F00001002168086000BF1DB9012084F83E0065
:103A00000EE0042D03D101213F20015508E0082DCF
:103A100003D101214020015502E00121412001553F
:103A2000002030BD000001400004014010B50446F4
:103A300003492068884201D1FEF7A6FE10BD0000B0
:103A4000001400407047704770B504460025206898
:103A50004069C0F3C01594F83D00212817D1B5B1D5
:103A600000BF00BF2168143151E8001F21F0800021
:103A70002168143141E80002002AF3D100BF606BD5
:103A800010B1606BFEF71BFB204601F0DDFA2068E9
:103A90004069C0F3801594F83E00222817D1B5B1D3
:103AA00000BF00BF2168143151E8001F21F0400021
:103AB0002168143141E80002002AF3D100BFA06B55
:103AC00010B1A06BFEF7FBFA204601F077FA002058
:103AD00070BD70472DE9F84F0446206805682068DE
:103AE000C668206847694FF00009CA4605F00F090B
:103AF000B9F1000F0AD105F0200038B106F020001E
:103B000020B1204601F0B3FABDE8F88FB9F1000FFB
:103B10007CD007F0010018B906F49070002875D029
:103B200005F0010030B106F4807018B1206C40F04F
:103B30000100206405F0040030B107F0010018B165
:103B4000206C40F00200206405F0020030B107F064
:103B5000010018B1206C40F00400206405F008005A
:103B600048B106F0200010B907F0010018B1206C30
:103B700040F008002064206C002846D005F02000AA
:103B800028B106F0200010B1204601F070FA20683C
:103B90004069C0F3801A206C00F0080010B9BAF137
:103BA000000F2DD0204601F009FA2068406900F08E
:103BB0004000402820D100BF00BF2168143151E8E7
:103BC000001F21F040002168143141E80002002A62
:103BD000F3D100BFA06B50B17548A16B0865A06B15
:103BE000FEF7C3FA88B1A06B016D88470DE020464F
:103BF000FFF76FFF09E009E02046FFF76AFF04E0E6
:103C00002046FFF766FF002020647DE7206B012837
:103C100076D105F01000002872D006F010000028C0
:103C2000FAD000BF00200090206800680090206853
:103C30004068009000BF00BF2068406900F040006D
:103C400040285ED1A06B006840681FFA80F8B8F188
:103C5000000F54D0A08D404551DDA4F82E80A06BFC
:103C6000C069B0F5807F43D000BF00BF21680C3130
:103C700051E8001F21F4807021680C3141E80002F6
:103C8000002AF3D100BF00BF00BF2168143151E802
:103C9000001F21F001002168143141E80002002AD0
:103CA000F3D100BF00BF00BF2168143151E8001FED
:103CB00021F040002168143141E80002002AF3D1CC
:103CC00000BF202084F83E000020206300BF00BF1A
:103CD00021680C3151E8001F21F0100021680C31DF
:103CE00041E80002002AF3D100BFA06BFEF7E7F91C
:103CF000A08DE28D801A81B22046FFF7A4FE03E773
:103D000040E0A08DE18D401A1FFA80F8E08DC0B32D
:103D1000B8F1000F35D000BF00BF21680C3151E869
:103D2000001F21F4907021680C3141E80002002A44
:103D3000F3D100BF00BF00BF2168143151E8001F5C
:103D400021F001002168143141E80002002AF3D17A
:103D500000BF202084F83E000020206300BF00BF89
:103D600021680C3151E8001F21F0100021680C314E
:103D700041E80002002AF3D100BF41462046FFF788
:103D800062FEC1E605F0800030B106F0800018B197
:103D9000204601F065FBB7E605F0400030B106F0C3
:103DA000400018B1204601F03FF9ADE600BFABE698
:103DB000894E000810B504460CB9012010BDA06959
:103DC00000B100E000BF94F83D0028B9002084F85D
:103DD0003C00204600F028F8242084F83D002068AC
:103DE000C06820F400502168C860204601F0BCF98A
:103DF0002068006920F490402168086120684069CB
:103E000020F02A00216848612068C06840F4005012
:103E10002168C86000202064202084F83D0084F8D8
:103E20003E000020CAE7000010B586B00446142109
:103E300001A8FCF791FBB7492068884257D100BF21
:103E400000200090B448006840F00040B24908608B
:103E50000846006800F00040009000BF00BF00BFAF
:103E600000200090AC481038006840F01000AA49CB
:103E7000103908600846006800F01000009000BF8C
:103E800000BF032001900220029000200390032035
:103E900004900820059001A9A048FEF75BFBA0480C
:103EA000A04908600005486000219E488160C1600B
:103EB0004FF4806101610021416181614FF48071A3
:103EC000C161002101624162FEF784FA08B1FDF789
:103ED0002FF900BF9348A063846300BF002205212F
:103EE0005320FEF7FBFC5320FEF7E8FC10E18E495F
:103EF000206888427AD100BF002000908648001DCB
:103F0000006840F010008449091D086008460068F8
:103F100000F01000009000BF00BF00BF0020009024
:103F20007D481038006840F002007B491039086075
:103F30000846006800F00200009000BF00BF00BF0C
:103F4000002000900846006840F001000860084624
:103F5000006800F00100009000BF00BF80200190C9
:103F60000220029000200390032004900720059077
:103F700001A96E48FEF7EEFA4FF40070019002209E
:103F8000029000200390032004900720059001A9CF
:103F90006748FEF7DFFA6748674908604FF000603E
:103FA0004860002164488160C1604FF48061016114
:103FB0000021416181614FF48071C1610902016298
:103FC00000214162FEF706FA08B1FDF7B1F800BF23
:103FD0005948A063846300BF002205212520FEF715
:103FE0007DFC2520FEF76AFC92E0FFE7534920683C
:103FF000884231D100BF002000904748006840F45B
:104000008020454908600846006800F48020009040
:1040100000BF00BF00BF002000903F48103800687C
:1040200040F008003C49103908600846006800F07C
:104030000800009000BF00BF4FF4407001900220C4
:10404000029000200390032004900720059001A90E
:104050003B48FEF77FFA5BE03A492068884257D137
:1040600000BF002000902C48001D006840F0200098
:104070002949091D08600846006800F020000090EA
:1040800000BF00BF00BF0020009023481038006828
:1040900040F040002049103908600846006800F0F0
:1040A0004000009000BF00BF4FF484400190022008
:1040B000029000200390032004900820059001A99D
:1040C0002148FEF747FA1B48183820490860800548
:1040D000486000211D488160C1604FF4806101612A
:1040E000002141618161C16101624162FEF772F9A3
:1040F00008B1FDF71DF800BF1448A063846300BF3A
:10410000002205214720FEF7E9FB4720FEF7D6FBFA
:1041100006B010BD007C0040403802400010024054
:10412000A0600240480A0020001001400004024044
:104130000000024040640240A80A002000480040FD
:10414000000C02400014014000180240080B00203F
:1041500070B504460D46164694F83E00202816D148
:1041600005B10EB9012070BD00BF94F83C000128D4
:1041700001D10220F7E7012084F83C0000BF0020B5
:10418000206332462946204601F004F9EBE702207D
:10419000E9E770477047704700BFFEE72DE9F84335
:1041A00004460D4616461F4620680068C0F30010FE
:1041B000E8B100BF002000902068006800902068EF
:1041C0004068009000BF00BF2046FFF73DFC286814
:1041D000D0F80490C9F11608B8F10B0F02D1384697
:1041E000FCF7C4FF162231462046FFF7B1FFBDE8B9
:1041F000F8830000F8B504460D4620680068C0F357
:104200000010E8B100BF0020009020680068009016
:1042100020684068009000BF00BF2046FFF714FCF4
:1042200028684768C7F12406122E04D101200549E9
:104230000880FCF777FC242203492046FFF788FF1B
:10424000F8BD0000000100209C4A002030B5034664
:10425000501A00B21880B3F90000B3F90240001BF5
:1042600001EE900AF8EEE11A61EE801AB3F900004F
:1042700002EE100AB8EEC22A40EE821A022505FBB1
:104280001400B3F90440204402EE100AB8EEC22A2A
:1042900041EE021AB3F9060002EE100AB8EEC22A85
:1042A00071EE821AFDEEE11A11EE900A00B2188149
:1042B000B3F90800B0F57A5F02DB4FF47A50188149
:1042C000B3F9080010F57A5F02DC4CF28010188117
:1042D0001889D8805888988018885880B3F90800C1
:1042E00030BD000010B51048104908600320486038
:1042F00000210E488160C1604FF4E02101614FF45C
:10430000A0014161002101760121417600218176E1
:10431000C1760121017700214177FDF74AFB08B101
:10432000FCF706FF10BD00000064004048080020B4
:1043300010B51148114908600320486000210F485A
:104340008160C1604FF4E02101614FF4A00141613F
:10435000002101760121417600218176C17601217B
:10436000017700214177FDF724FB08B1FCF7E0FE5F
:10437000FCF74AFB10BD00000068004070080020F8
:1043800008B500BF002000901A48006840F4800083
:10439000184908600846006800F48000009000BFDB
:1043A00000BF00BF002000900846006840F40010E5
:1043B00008600846006800F40010009000BF00BFCD
:1043C000002205211120FEF789FA1120FEF776FA66
:1043D000002205213920FEF781FA3920FEF76EFA16
:1043E000002205213A20FEF779FA3A20FEF766FA14
:1043F00008BD00003038024000B5A5B003F05EFCF7
:10440000264908600846006810B91420244908703D
:10441000002023902490012123A802F087F921494C
:1044200008601C2220491CA8FCF75CF800211CA88D
:1044300002F0A8F91D4908601C221B491C3115A86F
:10444000FCF750F8002115A802F09CF91849086003
:104450001C22154938310EA8FCF744F800210EA89B
:1044600002F090F9134908601C220F49543107A843
:10447000FCF738F8002107A802F084F90E4908601B
:104480001C22094970316846FCF72CF80021684667
:1044900002F078F90949086025B000BD0400002049
:1044A000000000201C000020609900081800002077
:1044B000080000200C000020100000201400002044
:1044C00000B587B0142102A8FCF746F800BF002011
:1044D00001904548006840F01000434908600846D4
:1044E000006800F01000019000BF00BF00BF002076
:1044F00001900846006840F04000086008460068E7
:1045000000F04000019000BF00BF00BF00200190FC
:104510000846006840F0010008600846006800F0A6
:104520000100019000BF00BF00BF002001900846BD
:10453000006840F0020008600846006800F00200D1
:10454000019000BF00BF00BF002001900846006836
:1045500040F0080008600846006800F0080001907C
:1045600000BF00BF00BF002001900846006840F077
:10457000800008600846006800F08000019000BFDD
:1045800000BF002210211948FEF7F2F800223C215A
:104590001748FEF7EDF80122D1021548FEF7E8F8BA
:1045A000102002900120039000200490059002A9A1
:1045B0000E48FDF7CFFF40F63C000290012003902B
:1045C00000200490059002A90948FDF7C3FF4FF4AD
:1045D00080500290002003900220049002A9044819
:1045E000FDF7B8FF07B000BD3038024000100240B0
:1045F000001C024010B50E480E4908604FF482704E
:10460000486000210B488160C160016141614FF445
:10461000007181610021C1610162416281620A21F0
:10462000C162FEF7A3FD08B1FCF782FD10BD0000DA
:10463000003401409808002000B58BB0002007909E
:10464000089009900A901C216846FBF785FF1A48DC
:104650001A49086059204860002118488160952156
:10466000C160002101618161FEF72AFE08B1FCF7FB
:104670005FFD4FF48050079007A91048FEF7C2FE77
:1046800008B1FCF755FD0D48FFF7C1F808B1FCF77C
:104690004FFD6020009000200190029004900022C5
:1046A00069460648FFF731F808B1FCF741FD0348B9
:1046B000FEF7FAFF0BB000BD00180040F008002024
:1046C00010B50D480D4908604FF461304860002175
:1046D0000A488160C16001610C2141610021816152
:1046E000C161FFF767FB08B1FCF722FD04490348ED
:1046F000FCF721FD10BD0000007C004038090020BF
:10470000D64A002010B50E480E4908600E48486091
:104710004FF480510B4881600021C1604FF48061EB
:1047200001610C21416100218161C161FFF742FB00
:1047300008B1FCF7FDFC034800F09EF810BD000036
:10474000001001407C090020A086010010B50B4834
:104750000B4908604FF4E13048600021084881604F
:10476000C16001610C21416100218161C161FFF7DC
:1047700021FB08B1FCF7DCFC10BD00000048004044
:10478000C009002010B50D480D4908604FF4613094
:10479000486000210A488160C16001610C214161CB
:1047A00000218161C161FFF705FB08B1FCF7C0FC86
:1047B00004490348FCF7BFFC10BD00000014014091
:1047C000040A0020C04A002000BFFEE700BFFEE749
:1047D00010B50346501A00B2188098881C882044EF
:1047E00000B29880B3F9000001EE900AF8EEE11AE9
:1047F00061EE801AB3F9040002EE100AB8EEC22A84
:1048000040EE821AB3F90000B3F90240001B02EE39
:10481000100AB8EEC22A41EE021AFDEEE11A11EEBC
:10482000900A00B2D88018885880B3F9040047F283
:104830003054A04202DD2046988007E0B3F904001E
:104840000C4CA04202DA48F6D0209880B3F906005A
:10485000B0F57A5F03DD4FF47A50D88007E0B3F902
:10486000060010F57A5F02DA4CF28010D880B3F9B6
:10487000060010BDD08AFFFF38B5044600BF0020F7
:10488000009020680068009020684068009000BF99
:1048900000BF2068C06840F010002168C860242272
:1048A00002492046FFF754FC38BD00009C4A002016
:1048B00000BF012001F029FFFBE700001FB5012424
:1048C00000BF142001F021FF4948006803F08AF876
:1048D00000200123024640F6FF7100904548006821
:1048E00003F074FAC04344490860002027E04249BD
:1048F0000978214001AA11543F49096849083E4AF4
:104900001160042804DA01A9095C3C4A115414E03E
:10491000092805DA01A90A5C011F394B5A540CE039
:104920000B2806DA01A90A5CA0F10901354B5A549B
:1049300003E001A9095C344A1170411CC8B20C287B
:10494000D5DB2E4800782D49497808432B498978D2
:1049500008432A49C978084318B100202B49087038
:1049600002E0012029490870254800782449497847
:1049700008432349897808432149C97808432049D5
:104980000979084318B100202149087002E001208C
:104990001F4908701B4800781A494978084318B124
:1049A00000201C49087002E001201A4908701648CE
:1049B000007818B100201849087002E0012016495B
:1049C00008704FF47A7001231A4640F6FF71009088
:1049D0000848006803F0FAF91049086000211048FF
:1049E000FEF7D0FF0248006803F0A0F869E7000076
:1049F0000C000020040000207C0100206C0100203D
:104A0000700100207501002077010020780100204E
:104A1000790100207A0100207B0100208001002024
:104A2000F008002010B500BF502080F31188BFF3BC
:104A30004F8FBFF36F8F00BF03F064FF18B14FF0CB
:104A400080500449086000BF002080F3118800BF37
:104A500010BD000004ED00E000B593B0302107A8C0
:104A6000FBF77AFD142102A8FBF776FD00BF0020BA
:104A700001902648006840F08050244908600846AC
:104A8000006800F08050019000BF00BF00BF002010
:104A900001901F48006840F440401D4908600846E6
:104AA000006800F44040019000BF00BF0120079063
:104AB0000004089002200D9041050E9106210F91EF
:104AC000B4211091022111910421129107A8FEF73F
:104AD000FFF808B1FCF72CFBFDF752FF08B1FCF71B
:104AE00027FB0F20029002200390002004904FF437
:104AF000A05005904FF480500690052102A8FDF7C4
:104B000085FF08B1FCF714FB13B000BD403802402C
:104B1000007000400348006840F4700001490860DC
:104B20007047000088ED00E010B50248FEF7F1FC88
:104B300010BD0000680B002010B50268294B984298
:104B40000ED0B0F1804F0BD0274B984208D0274BA6
:104B5000984205D0264B984202D0264B984203D16A
:104B600022F070024B681A431E4B984220D0B0F1DD
:104B7000804F1DD01C4B98421AD01C4B984217D026
:104B80001B4B984214D01B4B984211D01A4B9842A1
:104B90000ED01A4B98420BD0194B984208D0194BA3
:104BA000984205D0184B984202D0184B984203D136
:104BB00022F44072CB681A4322F080034C6943EA26
:104BC000040202608B68C3620B688362054B9842E3
:104BD00002D0084B984201D10B6903630123436162
:104BE00010BD00000000014000040040000800402B
:104BF000000C00400004014000400140004401401E
:104C00000048014000180040001C00400020004007
:104C100030B501F01F05012404FA05F3046A9C4332
:104C20000462046A01F01F0502FA05F52C430462D0
:104C300030BD30B50C46816821F47F4142EA03253E
:104C400025432943816030BD0A46816821F0700107
:104C500042F00703194381607047000030B5056AD0
:104C600025F001050562026A4368846924F0700436
:104C700024F003040D682C4322F002028D682A43BD
:104C8000104DA84200D103E00F4DA84206D100BF4D
:104C900022F00802CD682A4322F00402094DA842FE
:104CA00002D0094DA84207D123F4807323F4007386
:104CB0004D692B438D692B43436084614D68456387
:104CC000026230BD000001400004014030B5056AB9
:104CD00025F010050562026A4368846924F4E04403
:104CE00024F440740D6844EA052422F020028D6803
:104CF00042EA0512124DA84200D103E0114DA8422C
:104D000007D100BF22F08002CD6842EA051222F0EE
:104D100040020B4DA84202D00A4DA84209D123F40B
:104D2000806323F400634D6943EA85038D6943EA98
:104D30008503436084614D688563026230BD000075
:104D4000000001400004014030B5056A25F480757B
:104D50000562026A4368C46924F0700424F0030405
:104D60000D682C4322F400728D6842EA0522124D30
:104D7000A84200D103E0114DA84207D100BF22F4A0
:104D80000062CD6842EA052222F480620A4DA84200
:104D900002D00A4DA84209D123F4805323F40053D2
:104DA0004D6943EA05138D6943EA05134360C46105
:104DB0004D68C563026230BD00000140000401403F
:104DC00030B5056A25F480550562036A4468C269F6
:104DD00022F4E04222F440720D6842EA052223F4F4
:104DE00000538D6843EA0533084DA84202D0084DB0
:104DF000A84204D124F480444D6944EA85144460F7
:104E0000C2614D680564036230BD000000000140CE
:104E10000004014030B50B461446026A056A25F0CD
:104E200001050562816921F0F00141EA041122F0D7
:104E30000A021A438161026230BD30B50B46144646
:104E4000056A25F0100505628169026A21F4704146
:104E500041EA043122F0A00242EA031281610262B7
:104E600030BD000010B50223044A05490548FFF78C
:104E700095F90448FEF72EFE10BD0000D64A00202A
:104E8000480A00203809002070B50546AC6B0020A8
:104E9000E085E0842046FEF71CFE70BD70B5064636
:104EA0000025B46B20684069C0F3C01594F83D003C
:104EB000212805D125B10020E084204600F0C4F867
:104EC00020684069C0F3801594F83E00222805D17F
:104ED00025B10020E085204600F070F8206C40F0FD
:104EE000100020642046FEF7F4FD70BD70B5054645
:104EF000AC6B2868006800F48070002842D1E0851F
:104F000000BF00BF21680C3151E8001F21F4807000
:104F100021680C3141E80002002AF3D100BF00BF34
:104F200000BF2168143151E8001F21F00100216801
:104F3000143141E80002002AF3D100BF00BF00BFD6
:104F40002168143151E8001F21F04000216814311C
:104F500041E80002002AF3D100BF202084F83E007F
:104F6000206B01280ED100BF00BF21680C3151E831
:104F7000001F21F0100021680C3141E80002002AD6
:104F8000F3D100BF206B012804D1A18D2046FEF78C
:104F90005AFD02E02046FFF7FCF870BD70B50546EB
:104FA000AC6B206B012805D1A08D41082046FEF78F
:104FB0004AFD02E02046FFF7EDF870BD00BF00BFDC
:104FC00002680C3252E8002F22F4907102680C3211
:104FD00042E80013002BF3D100BF00BF00BF0268FE
:104FE000143252E8002F22F001010268143242E824
:104FF0000013002BF3D100BF016B01290ED100BFBC
:1050000000BF02680C3252E8002F22F01001026843
:105010000C3242E80013002BF3D100BF202180F8AE
:105020003E1000210163704710B504462068C06837
:1050300020F040002168C860202084F83D00204610
:10504000FFF7A9F8002010BD00BF00BF02680C32B6
:1050500052E8002F22F0C00102680C3242E800132F
:10506000002BF3D100BF202180F83D107047F8B528
:10507000044694F83E00222873D1A068B0F5805F02
:105080000CD1206950B90025A66A20684068C0F399
:1050900008003080A06A801CA06215E0A56A002686
:1050A000A068B0F5805F03D0A06828B9206918B95E
:1050B00020684068287004E02068406800F07F00A5
:1050C0002870A06A401CA062E08D401E80B2E0857E
:1050D000002844D12068C06820F020002168C86002
:1050E0002068C06820F480702168C860206840692A
:1050F00020F0010021684861202084F83E00206BE8
:10510000012826D10020206300BF00BF21680C3198
:1051100051E8001F21F0100021680C3141E8000225
:10512000002AF3D100BF2068006800F010001028AA
:105130000AD100BF0020009020680068009020681D
:105140004068009000BF00BFA18D2046FEF77BFCA9
:1051500002E02046FFF71DF80020F8BD01E0002026
:10516000FBE70220F9E700002DE9F84F044620682C
:10517000006920F44050E168084321680861216912
:10518000A068084361690843E1690843009020680A
:10519000C06849F20C618843009908432168C860DF
:1051A0002068406920F44070A16908432168486183
:1051B00076492068884203D075492068884203D127
:1051C000FDF71EFD814602E0FDF70AFD8146E0691C
:1051D000B0F5004F6CD102206168A0FB015003467E
:1051E0001920A9FB007001462A463846FBF7BEF895
:1051F0006421B0FBF1F04FEA001A02206168A0FBC5
:1052000001510B461920A9FB00712A463846FBF7CD
:10521000ADF8834602206168A0FB015003461920C7
:10522000A9FB00712A463846FBF7A0F86421B0FBC1
:10523000F1F000EBC00101EB0010ABEB800032217C
:1052400001EBC0006421B0FBF1F000F0F8000AEBC4
:10525000400A02206168A0FB015003461920A9FB07
:10526000007001462A463846FBF780F88346022044
:105270006168A0FB015003461920A9FB00712A4672
:105280003846FBF773F86421B0FBF1F000EBC00186
:1052900001EB0010ABEB8000322101EBC000642178
:1052A000B0FBF1F000F007005044216888606AE02C
:1052B00004206168A0FB015003461920A9FB00707F
:1052C00001462A463846FBF751F8824604206168B9
:1052D000A0FB015003461920A9FB007001462A4695
:1052E0003846FBF743F86421B0FBF1F000EBC00156
:1052F00001EB0010AAEB8000322101EB00106421C9
:10530000B0FBF1F000F0F00A04206168A0FB01702E
:1053100003461920A9FB00513A462846FBF726F818
:105320006421B0FBF1F00AEB001A04206168A0FBD5
:1053300001510B461920A9FB00712A463846FBF79C
:1053400015F8834604206168A0FB0150034619202C
:10535000A9FB007001462A463846FBF707F864218E
:10536000B0FBF1F000EBC00101EB0010ABEB8000F3
:10537000322101EB00106421B0FBF1F000F00F00CE
:10538000504421688860BDE8F88F0000001001409B
:105390000014014077B581B0044615460298A0621A
:1053A000A58500202064222084F83E002948A16BB6
:1053B000C8632948A16B08642848A16BC864002011
:1053C000A16B086502AE32682368191D2B46A06BDD
:1053D000FDF776F800BF002000902068006800907C
:1053E00020684068009000BF00BF00BF002084F824
:1053F0003C0000BF00BF00BF21680C3151E8001F16
:1054000041F4807021680C3141E80002002AF3D198
:1054100000BF00BF00BF2168143151E8001F41F0F8
:1054200001002168143141E80002002AF3D100BFD5
:1054300000BF00BF2168143151E8001F41F0400057
:105440002168143141E80002002AF3D100BF002096
:1054500004B070BDED4E00089D4F00089D4E000841
:10546000014691F83D00212828D18868B0F5805F79
:105470000BD1086948B90A6A1088C0F308000B68A4
:105480005860086A801C086205E00B6A581C0862B4
:1054900018780B685860C88C401E80B2C88458B910
:1054A0000868C06820F080000B68D8600868C06891
:1054B00040F040000B68D860002070470220FCE7F5
:1054C00010B504490448FEF795FE0348FEF702FBB9
:1054D00010BD0000A80A00207C09002010B501239F
:1054E000044A05490548FEF759FE0448FEF7F2FA5A
:1054F00010BD0000C04A0020080B0020040A002054
:1055000000BFFEE703B401984100009850EAC120B3
:1055100018BF04204A0D18BF40F0010040F2FF728E
:10552000B2EB515F08BF40F00200012808BF052020
:1055300002B0704702480068C0F3022070470000C4
:105540000CED00E010B5002804DB0A07130E054A35
:10555000135406E00A07140E034A00F00F031B1F42
:10556000D45410BD00E400E018ED00E0000000009D
:1055700010B5B94A2DED020B2DED0C8B82B00F99B1
:1055800021F000409FEDB6CB90422CDBA0F14053C0
:105590000E9AA3F17F631A430FD0B349884202DC0D
:1055A00016D10E98A0B19DED0E0B02B0BDEC0C8B88
:1055B00002B0BDE8104000F0A4BC0029C1BF9FEDBF
:1055C000AC0B02B0BDEC0C8B02B0C8BF10BD16E036
:1055D0000120FAF7F0FF02B0BDEC0C8B02B0BDE881
:1055E000104000F0A5BCA44A9FEDA59B9FEDA6AB83
:1055F00090425EDAA6499FEDA8CB814208DBB0EE6F
:105600004C0AF0EE6C0A02B0BDEC0C8B02B010BD7F
:105610009DED0E0B53EC102B51EC100B03F064FEC0
:1056200041EC180B9E480621B0EE480AF0EE680ADD
:10563000784400F0EAFB53EC182B51EC100B03F00C
:1056400053FE41EC1B0B9748B0EE480AF0EE680A97
:105650000421784400F0D9FB53EC182B51EC100BCB
:1056600003F042FE53EC192B03F0F8FB41EC100B56
:1056700051EC1B0B53EC102B03F098FC41EC100B7E
:1056800053EC102B9DED0E0B51EC100B03F02CFE88
:1056900053EC1A2B03F026FF9DED0E1B53EC112B40
:1056A00003F020FF53EC1C2B03F01CFF41EC100B0C
:1056B000A9E79FED7D8B9FED7EBB9DED0E0B002935
:1056C00053EC192B51EC100B52DA03F0C7FB53ECDF
:1056D000182B03F009FE41EC180B77480621B0EEB9
:1056E000480AF0EE680A784400F08FFB53EC182B60
:1056F00051EC100B03F0F8FD41EC1D0B6F48B0EEC0
:10570000480AF0EE680A0421784400F07EFB53EC6E
:10571000182B51EC100B03F0E7FD53EC192B03F0A1
:105720009DFB41EC190B51EC180B01F073FE41ECA1
:10573000180B53EC192B51EC1D0B03F037FC53ECF9
:10574000182B03F0D1FD53EC1A2B03F0A3FF41EC0F
:10575000100B51EC180B53EC102B03F07FFB53ECA8
:105760001B2B03F0C1FD53EC1C2B03F0BBFE6DE0C3
:1057700003F0B8FE53EC182B03F0B6FD41EC180B08
:1057800001F048FE41EC1A0B00208DED00AB0090BB
:105790009DED000B51EC1A0B53EC102B03F05EFB4C
:1057A0009DED000B41EC1C0B53EC102B51EC100B3E
:1057B00003F09AFD53EC182B03F094FE53EC1C2BD2
:1057C00003F0F4FB41EC1C0B3D48B0EE480AF0EE50
:1057D000680A0621784400F018FB53EC182B51ECB2
:1057E000100B03F081FD41EC1D0B3648B0EE480A6A
:1057F000F0EE680A0421784400F007FB53EC182B04
:1058000051EC100B03F070FD53EC192B03F026FB49
:1058100041EC100B51EC1D0B53EC102B03F0C6FBAD
:1058200053EC1A2B03F060FD53EC1C2B03F016FB1A
:1058300041EC100B53EC102B9DED000B51EC100BB9
:1058400003F00CFB53EC1B2B03F04EFD41EC100B53
:10585000D9E60000000000000000F03F000000005A
:10586000182D4454FB2109400000F07F0000000087
:1058700000000000000000000000E03F0000000009
:10588000000000000000F03F075C143326A6913CA6
:105890000000603C00000000182D4454FB21F93F3B
:1058A000DC430000EA430000000000000000E03F8D
:1058B00000000000000000402643000034430000C8
:1058C000384200004642000070B59B482DED020BA7
:1058D0002DED068B079D25F00044A04218DC97486B
:1058E000844202DC0AD1069840B19DED060BBDEC66
:1058F000068B02B0BDE8704000F003BB002DCCBFAA
:105900009FED8F0B9FED900BBDEC068B02B070BD31
:105910008F48A04215DD8F48A042D8BF4FF0FF341A
:1059200058DD9DED060B51EC100BFFF7EBFD042845
:1059300008BF00F00DFB9DED060BBDEC068B02B021
:1059400070BD9DED060B51EC100B00F01FFDCDE975
:10595000060181489FED828BA0423CDD8248A04237
:105960001FDD00249FED82AB9DED060B53EC1A2B3F
:1059700051EC100B03F072FA9DED060B41EC190B84
:1059800053EC1A2B51EC100B03F0AEFC53EC182B1C
:1059900003F080FE53EC192B03F008FBCDE9060160
:1059A00049E09DED060B012453EC182B51EC100B34
:1059B00003F054FA9DED060B41EC190B53EC182B38
:1059C00051EC100B03F066FE53EC192B03F0EEFACA
:1059D000CDE906012FE06848A0421FDD02249FEDBB
:1059E000689B9DED060B53EC192B51EC100B03F04B
:1059F0007BFC53EC182B03F031FA9DED060B41ECC8
:105A0000180B53EC192B51EC100B03F043FE53EC25
:105A1000182B03F0CBFACDE906010CE09DED060B47
:105A2000032453EC102B9FED580B51EC100B03F09B
:105A3000BDFACDE906019DED060B53EC102B51ECA0
:105A4000100B03F051FC41EC180B53EC182B03F036
:105A50004BFC41EC190B4E480621B0EE490AF0EE22
:105A6000690A784400F0D1F953EC182B51EC100B73
:105A700003F03AFC41EC180B4648B0EE490AF0EE50
:105A8000690A0521784400F0C0F953EC192B51EC58
:105A9000100B03F029FC41EC100B51EC180B53ECEC
:105AA000102B002C0EDA03F0D9F99DED061B53ECF8
:105AB000112B03F019FC9DED061B53EC112B03F089
:105AC00011FD35E003F0CAF99DED061B53EC112BD7
:105AD00003F00AFC41EC100B2F48784400EBC400A3
