:020000040800F2
:10000000A80B002049020008C53E0008D3380008AC
:10001000C13E00083B040008E94C00080000000055
:100020000000000000000000000000006D4100081A
:100030003B0B000800000000913F00086F410008E2
:1000400063020008630200086302000863020008FC
:1000500063020008630200086302000863020008EC
:1000600063020008630200086302000863020008DC
:10007000110A000863020008630200086302000816
:1000800063020008630200086302000863020008BC
:1000900041040008630200086302000863020008CC
:1000A000630200086302000863020008630200089C
:1000B00041420008994200086302000863020008F8
:1000C000630200086302000863020008630200087C
:1000D00063020008C14C000863020008D54C000808
:1000E000630200086302000863020008630200085C
:1000F000630200086302000863020008630200084C
:10010000630200086302000863020008630200083B
:10011000630200086302000863020008630200082B
:100120006302000863020008210A00086302000855
:10013000630200086302000863020008630200080B
:10014000510400086302000863020008630200080B
:1001500063020008630200086302000863020008EB
:1001600063020008630200086302000863020008DB
:100170006302000863020008630200080000000038
:10018000630200086302000800F002F800F04CF877
:100190000AA090E8000C82448344AAF10107DA45E2
:1001A00001D100F041F8AFF2090EBAE80F0013F0E8
:1001B000010F18BFFB1A43F001031847845A0000CF
:1001C000A45A00000A4410F8014B14F00F0508BFB0
:1001D00010F8015B240908BF10F8014B6D1E05D013
:1001E00010F8013B6D1E01F8013BF9D1641E03D0EC
:1001F000641E01F8015BFBD19142E4D3704700001B
:100200000023002400250026103A28BF78C1FBD81F
:10021000520728BF30C148BF0B6070471FB505F0BB
:10022000F5FC1FBD10B510BD00F0D4F81146FFF766
:10023000F5FF05F083F800F0F2F803B4FFF7F2FFE2
:1002400003BC00F0F3F80000094880470948004764
:10025000FEE7FEE7FEE7FEE7FEE7FEE7FEE7FEE776
:10026000FEE7FEE704480549054A064B70470000D3
:100270002D42000889010008A8050020A80B0020D5
:10028000A8070020A807002053EA020C00F06980AC
:100290002DE9F04B4FF00006002B1FBFB3FA83F59A
:1002A00003FA05F424FA05F65E4012BF1643B2FACB
:1002B00082F502FA05F4C5F120051EBF22FA05FCFD
:1002C00044EA0C04203556EA044C4FEA144418BFA3
:1002D000641C4FF000084FF00009904271EB030CD2
:1002E00039D3002919BFB1FA81F701FA07F6B0FA3C
:1002F00080F700FA07F6C7F120071EBF20FA07FCB7
:1003000046EA0C062037B6FBF4FCA7EB0507103FC6
:1003100007F01F0BCBF120060CFA0BFB2CFA06F6AC
:1003200044BFB3460026202FA4BF5E464FF0000B0B
:100330005BEA060C08BF4FF0010B19EB0B09ABFB96
:10034000027C48EB0608C01B06FB02CC0BFB03CC6F
:1003500071EB0C01C1E70B46024641464846BDE839
:10036000F08B13B54FF000004FF00001AFF30080A9
:10037000BDE81C4070474FF0000200B5134694469C
:100380009646203922BFA0E80C50A0E80C50B1F1ED
:100390002001BFF4F7AF090728BFA0E80C5048BF01
:1003A0000CC05DF804EB890028BF40F8042B08BF9F
:1003B000704748BF20F8022B11F0804F18BF00F89B
:1003C000012B704770477047704700000048704726
:1003D000480500207546FFF7F9FFAE46050069465F
:1003E000534620F00700854618B020B5FFF73AFFC6
:1003F000BDE820404FF000064FF000074FF0000826
:100400004FF0000B21F00701AC46ACE8C009ACE8A6
:10041000C009ACE8C009ACE8C0098D467047044685
:10042000AFF300802046FFF708FF000001491820C5
:10043000ABBEFEE726000200704700BFFEE70000EB
:1004400010B5024800F024FE10BD0000300100206D
:1004500010B5024800F01CFE10BD0000580100203D
:1004600030B502460B464FF6FF70002112E0555C96
:10047000684000240AE000F0010525B14AF20105B8
:1004800085EA600000E04010651CECB2082CF2DB4D
:100490004D1CE9B29942EADB30BD000000B58BB0DB
:1004A0000020079001200890800301900020029016
:1004B000039004900590012009900E2006900A9068
:1004C00001A9024800F094FC0BB000BD58010020C7
:1004D00000B58BB0002007900120089080030190A8
:1004E000002002904FF4FC400390002004900590FF
:1004F00001200990002006900E200A9001A90248D0
:1005000000F076FC0BB000BD3001002010B5FFF705
:10051000DFFFFFF7C3FF074801F027FA064801F0A5
:1005200024FA0221034800F0A3FB0221024800F054
:100530009FFB10BD300100205801002070B504461B
:100540000D4640F2FF10184908600020486088609E
:10055000C8600820086100200875A5F2052030B1A8
:10056000012809D002280CD0032814D10EE0200A5B
:100570000E4908704C700EE0200A0C498870CC704F
:1005800009E0200A094908714C7104E0200A074972
:100590008871CC7100BF00BF054B044A0249054871
:1005A00000F07BFB70BD0000E40300203000002061
:1005B00058000020300100202DE9F04107460C468C
:1005C00015461E464FF400700F4908600020486031
:1005D0008860C8600820086100200875380A0B4947
:1005E00008704F70200A8870CC70280A08714D710D
:1005F000300A8871CE71064B0A460349054800F05F
:100600004CFBBDE8F0810000E4030020280000203E
:10061000580000203001002070B504460D4640F21D
:10062000FF2018490860002048608860C8600820E2
:10063000086100200875A5F2092030B1012809D011
:1006400002280CD0032814D10EE0200A0E490870AD
:100650004C700EE0200A0C498870CC7009E0200A2A
:10066000094908714C7104E0200A07498871CC716E
:1006700000BF00BF054B044A0249054800F00DFBCE
:1006800070BD000018040020480000205800002021
:100690005801002070B504460D4640F2FF1018497D
:1006A0000860002048608860C86008200861002059
:1006B0000875A5F2052030B1012809D002280CD018
:1006C000032814D10EE0200A0E4908704C700EE089
:1006D000200A0C498870CC7009E0200A0949087189
:1006E0004C7104E0200A07498871CC7100BF00BF3B
:1006F000054B044A0249054800F0CFFA70BD0000DE
:10070000180400204000002058000020580100205C
:100710000EB5B6480078B549497840EA0120C0F3E3
:100720000A00ADF80000B1484078C010AF498978A0
:1007300040EA4110C0F30A00ADF80200AB488078EF
:100740008011AA49C97840EA8100A849097940EA9C
:100750008120C0F30A00ADF80400A44800794010DD
:10076000A249497940EAC110C0F30A00ADF8060079
:100770009E48007C9D49497C40EA0120C0F30A0064
:10078000ADF80800BDF80400A0F5806000B29849FB
:100790000880BDF80600A0F5806000B24880BDF872
:1007A0000000A0F5806000B28880BDF80200A0F5CE
:1007B000806000B2C880BDF80800A0F5806000B27B
:1007C00008818A48407900118008887287484079FA
:1007D000C0F30110C8728548807B8449C97B40EA18
:1007E0000120844908800846007800F00100488014
:1007F00008460078C0F34000888008460078C0F3BF
:100800008000C88008460078C0F3C0000881084610
:100810000078C0F30010488108460078C0F340100B
:10082000888108460078C0F38010C88108460078A7
:10083000C0F3C010088208460088C0F30020488238
:1008400008460088C0F34020888208460088C0F32C
:100850008020C88208460088C0F3C020088308466C
:100860000088C0F30030488308460088C0F3403059
:10087000888308460088C0F38030C8830846008813
:10088000C00B0884594880795849C97940EA012049
:10089000400000B2584908805448007A5349497AC8
:1008A00040EA01204042400000B2534948804F488E
:1008B000807A4E49C97A40EA012000B24E498880C8
:1008C0004A48007B88714948407BC8714948408943
:1008D00000284BD14948D0ED000A0846B0F9000085
:1008E00000EE100AB8EEC00A30EE800A434880EDF0
:1008F000000A90ED000ADFED420AB4EEE00AF1EEE4
:1009000010FA04DD9FED3F0A80ED000A0DE03B4840
:1009100090ED000ADFED3B0AB4EEE00AF1EE10FACA
:1009200003D29FED370A80ED000A344890ED010AAA
:10093000DFED350AB4EEE00AF1EE10FA17D290EDD1
:10094000010ADFED320AB4EEE00AF1EE10FA0EDD34
:10095000D0ED010A2848B0F9020000EE100AB8EE06
:10096000C00A30EE800A254880ED010A3CE02348A9
:1009700090ED010ADFED240AB4EEE00AF1EE10FA80
:1009800014DB1D48B0F9020000282DDA1B48D0ED19
:10099000010A1948B0F9020000EE100AB8EEC00AC8
:1009A00030EE800A154880ED010A1DE0134890EDF5
:1009B000010ADFED160AB4EEE00AF1EE10FA13D8E0
:1009C0000D48B0F9020000280EDD0C48D0ED010AF8
:1009D0000948B0F9020000EE100AB8EEC00A30EE85
:1009E000800A064880ED010A0EBD00006004002068
:1009F0009C040020B4040020A2000020A8040020D1
:100A000000F07F4500F07FC50000164400007AC367
:100A100010B5024801F04AF810BD00008403002020
:100A200010B5024801F042F810BD00002403002078
:100A30000146087810381823B0FBF3F20848805CB0
:100A4000C865032A05D908686FF30900001D886589
:100A500003E008686FF309008865886D704700003F
:100A6000205C0008014600208A6A8B69CBB932B14C
:100A7000012A0DD0022A03D0032A10D10EE000BFB4
:100A8000CB6A03F08073B3F1807F00D1012007E0CF
:100A9000CB6AB3F1C07F00D1012001E000E000BFCC
:100AA00034E08B69B3F5005F1AD132B1012A07D067
:100AB000022A03D0032A11D10AE000BF01200EE070
:100AC000CB6A03F08073B3F1807F00D1012006E090
:100AD000CB6AB3F1C07F00D1012000E000BF15E078
:100AE00032B1012A05D0022A04D0032A0CD103E036
:100AF00000BF00BF012008E0CB6A03F08073B3F1B0
:100B0000807F00D1012000E000BF00BF704730B5FA
:100B10000468246824F4802405682C6004686360F9
:100B20008468402C04D10468A2600468E16003E09A
:100B30000468A1600468E26030BD704772B600BF0F
:100B4000FEE7000010B52DED068B404800785528D3
:100B500078D13E4989783D4AD27841EA022108B2EB
:100B600004F03EFF41EC1A0B9FED390B53EC102BB8
:100B700004F0DEFD41EC190B9FED370B53EC102B0D
:100B800004F046FF41EC180B04F0A0FD3449086066
:100B90002E4909792D4A527941EA022108B204F01E
:100BA0001FFF41EC1A0B9FED2A0B53EC102B04F0A6
:100BB000BFFD41EC190B9FED280B53EC102B04F0FB
:100BC00027FF41EC180B04F081FD254948601F49BF
:100BD00089791E4AD27941EA022108B204F000FF65
:100BE00041EC1A0B9FED1A0B53EC102B04F0A0FDF7
:100BF00041EC190B9FED180B53EC102B04F008FF80
:100C000041EC180B04F062FD15498860084690ED30
:100C1000010ADFED140A20EE200ABDEEC00A10EE34
:100C2000100A00B2104908800D4890ED020ADFED6D
:100C30000D0A20EE200ABDEEC00A10EE100A00B226
:100C40000A490880BDEC068B10BD0000840400201A
:100C5000000000000000E04000000000008066404E
:100C6000E40400203D0AB641B2000020B00000209C
:100C700010B5024692F82030012B01D0022B06D18C
:100C800010684069084314686061002010BD506A14
:100C900040F4802050620120F8E7F0B504460D468C
:100CA0001E4694F8207020688368A86800B900E0A8
:100CB00000BF012F01D0022F7CD103F0806030B93A
:100CC00003F0006018B903F08050002873D0C3F31C
:100CD0000161022905D9606A40F4000060620120C8
:100CE000F0BD012088403060A86860B9B5F800C048
:100CF000E86840EA4C5C206800F5C07000EB011029
:100D0000C0F800C00FE0D5E901C040EACC00D5F83A
:100D10000CC040EA0C00D4F800C00CF5C07C0CEB11
:100D2000011CCCF80000D5F810C0206800F5C07098
:100D300000EB0110C0F804C0287D01280ED1206806
:100D400000F5C07000EB0110406840F4807C206822
:100D500000F5C07000EB0110C0F804C0D0790006A7
:100D600092F806C040EA0C4092F805C040EA0C2C0C
:100D700010794CEA000C206800F5C07000EB0110FF
:100D8000C0F80CC0D078000692F802C040EA0C40CF
:100D900092F801C040EA0C2092F800C040EA0C0032
:100DA000D4F800C00CF5C07C0CEB011CCCF808009A
:100DB000206801E016E00FE000F5C07000EB0110C4
:100DC000006840F0010C206800F5C07000EB0110D5
:100DD000C0F800C0002083E7606A40F40010606241
:100DE00001207DE7606A40F480206062012077E79F
:100DF000F0B504460A46216894F82050012D01D030
:100E0000022D7ED1424901F50071086840F00100D1
:100E10000860086820F47C5008600868566A40EA58
:100E200006200860107D00F01F06012000FA06F37E
:100E3000C8699843C861A1F50071D069C8B9D1F8F3
:100E40000C029843C1F80C02908880B2968940EA5F
:100E5000064601F51070576940F83760108880B277
:100E6000168940EA064601F51070576900EBC70085
:100E70004660D069012819D1D1F80C021843C1F895
:100E80000C02908880B2168840EA064601F5107080
:100E9000576940F83760908980B2168940EA064663
:100EA00001F51070576900EBC7004660906928B9DA
:100EB000D1F804029843C1F8040204E0D1F8040216
:100EC0001843C1F80402106928B9D1F814029843F4
:100ED000C1F8140204E0D1F814021843C1F8140256
:100EE000106A012804D1D1F81C021843C1F81C0271
:100EF000D1F8000220F00100C1F800020020F0BD8E
:100F0000FFE7606A40F4802060620120F7E700009C
:100F100000640040704770B5044694F82050012DDD
:100F200001D0022D7DD151B92068C06800F00300C6
:100F300080B9606A40F400106062012070BD2068D2
:100F4000006900F0030028B9606A40F40010606294
:100F50000120F3E7206800F5D87000EB011000686D
:100F600000F004009060906840B9206800F5D870E7
:100F700000EB01100068400D106007E0206800F5EC
:100F8000D87000EB01100068C0085060206800F5C0
:100F9000D87000EB0110006800F00200D0602068FB
:100FA00000F5D87000EB0110406800F00F001061F0
:100FB000206800F5D87000EB0110406800F47F4015
:100FC000000A9061206800F5D87000EB01104068BD
:100FD000000C5061206800F5D87000EB01108068AB
:100FE0001870206800F5D87000EB0110806800F4DC
:100FF0007F40000A5870206800F5D87000EB01109F
:10100000806800F47F00000C9870206800F5D870AC
:1010100000EB01108068000ED870206800F5D870D1
:1010200000E02FE000EB0110C0681871206800F5A7
:10103000D87000EB0110C06800F47F40000A5871BE
:10104000206800F5D87000EB0110C06800F47F0044
:10105000000C9871206800F5D87000EB0110C06892
:10106000000ED87131B92068C06840F020002668B1
:10107000F06005E02068006940F0200026683061DB
:1010800000205BE7606A40F480206062012055E741
:101090002DE9F05F04460025206846692068D0F8F5
:1010A0000490206887682068D0F80CA02068D0F8E9
:1010B00010B02068D0F8188006F00100002855D044
:1010C00007F00100C0B101202168886007F002002C
:1010D00018B1204600F079FC0EE007F0040010B1D2
:1010E00045F4006508E007F0080010B145F48055AC
:1010F00002E0204600F068FC07F48070C8B14FF4AD
:1011000080702168886007F4007018B1204600F0F4
:101110005EFC0EE007F4806010B145F4005508E075
:1011200007F4006010B145F4804502E0204600F06D
:101130004DFC07F48030C8B14FF4803021688860DE
:1011400007F4003018B1204600F043FC0EE007F42D
:10115000802010B145F4004508E007F4002010B1EC
:1011600045F4803502E0204600F032FC06F008002D
:1011700038B10AF0100020B145F400751020216844
:10118000C86006F0040040B10AF0080028B1082049
:101190002168C860204600F00DFA06F0020038B160
:1011A0002068C06800F0030010B1204600F004FA87
:1011B00006F0400038B10BF0100020B145F4806516
:1011C00010202168086106F0200040B10BF00800F3
:1011D00028B1082021680861204600F0C3FB06F012
:1011E000100038B12068006900F0030010B12046FB
:1011F00000F0B9FB06F4003040B109F0100028B14E
:10120000102021684860204600F0AEFB06F48030D4
:1012100040B109F0080028B1082021684860204644
:1012200000F0D8FB06F4004088B309F0040078B35E
:1012300006F4807020B108F0010008B145F0010506
:1012400006F4007020B108F0020008B145F0020574
:1012500006F4806020B108F0040008B145F00405F0
:1012600006F40060A0B108F0700088B108F07000CA
:10127000402817D006DC10280BD020280CD03028AE
:1012800019D10CE0502810D0602814D110E01DE0D6
:1012900019E045F008050FE045F010050CE045F0B9
:1012A000200509E045F0400506E045F0800503E033
:1012B00045F4807500E000BF00BF2068806920F021
:1012C0007000216888610420216848602DB1606A3F
:1012D000284360622046FFF71DFEBDE8F09F70B511
:1012E00004460CB9012070BD94F8200010B92046C6
:1012F00000F0B0F82068006840F001002168086044
:1013000000F0B2FE05460DE000F0AEFE401B0A28DC
:1013100008D9606A40F400306062052084F820003B
:101320000120E0E72068406800F001000028EBD0D1
:101330002068006820F002002168086000F094FE38
:1013400005460DE000F090FE401B0A2808D9606AAF
:1013500040F400306062052084F820000120C2E7DC
:101360002068406800F002000028EBD1207E0128B0
:1013700006D12068006840F080002168086005E020
:101380002068006820F0800021680860607E0128E5
:1013900006D12068006840F040002168086005E040
:1013A0002068006820F0400021680860A07E0128C5
:1013B00006D12068006840F020002168086005E040
:1013C0002068006820F0200021680860E07E012885
:1013D00006D12068006820F010002168086005E050
:1013E0002068006840F0100021680860207F012814
:1013F00006D12068006840F008002168086005E018
:101400002068006820F0080021680860607F0128DB
:1014100006D12068006840F004002168086005E0FB
:101420002068006820F0040021680860D4E9020107
:10143000084321690843616908436168491E0843FC
:101440002168C86100206062012084F8200000202B
:1014500049E7000010B586B00446142101A8FEF744
:101460008AFF4E492068884241D14D480068401C9F
:101470004B4908600846006801280FD100BF0020D2
:1014800000904848006840F00070464908600846EF
:10149000006800F00070009000BF00BF00BF002097
:1014A000009040481038006840F008003D4910396D
:1014B00008600846006800F00800009000BF00BF08
:1014C000032001900220029000200390032004904A
:1014D0000920059001A9344800F0C8FC00221146FB
:1014E000142000F04BFE142000F038FE54E02F4989
:1014F0002068884250D100BF002000902948006831
:1015000040F08060274908600846006800F080606D
:10151000009000BF00BF22480068401C20490860BE
:101520000846006801280FD100BF002000901D4828
:10153000006840F000701B4908600846006800F031
:101540000070009000BF00BF00BF00200090154851
:101550001038006840F0020012491039086008464F
:10156000006800F00200009000BF00BF6020019002
:10157000022002900020039003200490092005908F
:1015800001A90B4800F072FC00221146402000F037
:10159000F5FD402000F0E2FD06B010BD0064004003
:1015A0000000002040380240000C0240006800406B
:1015B000000402407047000010B50446CE48844243
:1015C0007DD1CE4BCE4A0021FFF7A5FCCC48006868
:1015D000A0F2012008280ED2DFE800F0040E182245
:1015E0002CB7B73FC548C078C449897840EA012084
:1015F00000B2C4494880A8E0C048C078BF49897893
:1016000040EA012000B2C04948809EE0BB48C07853
:10161000BA49897840EA012000B2BC49488094E088
:10162000B648C078B549897840EA012000B2B84987
:1016300048808AE0B148C078B049897840EA012002
:1016400000B2B4494880AD484079AC49097940EAD4
:10165000012000B2AF49888077E0A8484078A749C8
:10166000097840EA012000B2AB490880A348C0785D
:10167000A249897840EA012000B2A749C880A7485A
:1016800003F088FDA6490880A648D0ED000A084668
:10169000B0F9000000EE100AB8EEC00A20EE800A91
:1016A000A048D0ED000AB7EE001A31EE601A9E484D
:1016B000B0F9000000EE900AF8EEE00A00E052E017
:1016C00001EE200ABDEEC00A10EE100A00B29249E7
:1016D000088108460089944908808F480089C821FC
:1016E00010FB01F000EE100AB8EEC00ADFED8F0A21
:1016F00080EE201ABDEEC10A10EE100A00B28C492D
:10170000088085480088A0F5D050D03800B28949BB
:1017100008800846B0F90000B0F5805F06DB084697
:101720000088A0F5F850FF3800B208808148B0F971
:10173000000010F5805F07DC7E48008841F6FF71ED
:10174000084400B27B49088000BF00BF02216A48FC
:10175000FFF78EFA38B168480068406940F002002F
:10176000654909684861744884427DD1734B744A65
:101770000021FFF7D0FB72480068A0F2062020B1DC
:1017800001281ED003281BD12EE06C4840786B49FD
:10179000097840EA012000B26A4908806748C078A9
:1017A0006649897840EA012000B26649488063486A
:1017B00040796249097940EA012000B26149888094
:1017C0008AE05E4840785D49097840EA012000B22D
:1017D0005D4908805948C0785849897840EA012015
:1017E00000B25949488077E0544840785349097815
:1017F00040EA012000B2554908805048C0784F495E
:10180000897840EA012000B25049C880504803F06E
:10181000C1FC504908804348D0ED000A0846B0F9A1
:10182000000000EE100AB8EEC00A20EE800A3D4823
:10183000D0ED000AB7EE001A31EE601A4648B0F952
:10184000000000EE900AF8EEE00A01EE200ABDEE7C
:10185000C00A10EE100A00B23C490881084600890F
:101860003D490880394800E044E00089C82110FB68
:1018700001F000EE100AB8EEC00ADFED2C0A80EE8F
:10188000201ABDEEC10A10EE100A00B233490880DA
:101890002E480088A0F5B850A23800B23049088020
:1018A0000846B0F90000B0F5805F06DB0846008806
:1018B000A0F5F850FF3800B208802948B0F90000C0
:1018C00010F5805F07DC2648008841F6FF71084468
:1018D00000B22349088000BF00BF02211648FFF76D
:1018E000C7F938B114480068406940F00200124955
:1018F0000968486110BD0000300100203800002058
:10190000FC0300205C000020640000206C0000202C
:10191000740000207C0000204C0400209400002073
:1019200020000020240000201C0000203D0AB641B9
:101930001800002014000020580100205000002052
:1019400030040020840000208C0000205604002079
:101950009A000020220000201E0000201A00002013
:101960001600002070477047704770B5044694F821
:101970002000012822D1022084F82000206800687D
:1019800020F001002168086000F06EFB05460DE0C4
:1019900000F06AFB401B0A2808D9606A40F4003056
:1019A0006062052084F82000012070BD2068406836
:1019B00000F001000028EBD16062F6E7606A40F4B5
:1019C000002060620120F0E7704770477047704761
:1019D00070477047704770B50446A56D00F044FB32
:1019E000064694F83500022808D08020606500BFC4
:1019F000002084F8340000BF012070BD206800681A
:101A000020F01600216808602068406920F08000FE
:101A100021684861206C08B9A06C28B12068006872
:101A200020F00800216808602068006820F00100AC
:101A30002168086010E000F017FB801B05280BD917
:101A400020206065032084F8350000BF002084F862
:101A5000340000BF0320D0E72068006800F00100D8
:101A60000028E8D194F85C103F208840A86001204D
:101A700084F8350000BF002084F8340000BF00BFA8
:101A8000BBE7014691F83500022803D08020486565
:101A900001207047052081F835000868006820F0B3
:101AA00001000A6810600020F3E70000F8B5044662
:101AB000002000908C4800684FF41651B0FBF1F7FD
:101AC000A56D2E6894F85C1008208840304098B1CD
:101AD0002068006800F0040070B12068006820F001
:101AE00004002168086094F85C1008208840A86011
:101AF000606D40F00100606594F85C100120884042
:101B0000304068B12068406900F0800040B194F82E
:101B10005C1001208840A860606D40F002006065A4
:101B200094F85C1004208840304068B12068006858
:101B300000F0020040B194F85C1004208840A860D6
:101B4000606D40F00400606594F85C1010208840DF
:101B5000304078B32068006800F0080050B394F873
:101B60005C1010208840A8602068006800F4802085
:101B700080B12068006800F4002028B9206CC8B14A
:101B80002046216C884715E0A06C98B12046A16CD6
:101B900088470FE02068006800F4807028B920684A
:101BA000006820F0080021680860206C10B1204611
:101BB000216C884794F85C10202088403040002831
:101BC00065D02068006800F0100000285FD094F80D
:101BD0005C1020208840A86094F83500052828D1A2
:101BE0002068006820F016002168086020684069BD
:101BF00020F0800021684861206C08B9A06C28B1F1
:101C00002068006820F008002168086094F85C10E3
:101C10003F208840A860012084F8350000BF0020E4
:101C200084F8340000BF206D10B12046216D884734
:101C3000F8BD2068006800F4802080B1206800684A
:101C400000F4002028B9606C10B12046616C884710
:101C50001DE0E06BD8B12046E16B884717E02068B3
:101C6000006800F4807068B92068006820F01000F7
:101C700021680860012084F8350000BF002084F846
:101C8000340000BFE06B10B12046E16B8847606D07
:101C900038B3606D00F00100F0B1052084F8350024
:101CA0002068006820F001002168086000BF0098EB
:101CB000401C0090B84200D905E02068006800F0A0
:101CC00001000028F3D100BF012084F8350000BFD7
:101CD000002084F8340000BFE06C10B12046E16CB5
:101CE000884700BFA4E70000100000202DE9F04164
:101CF0000446002500F0B8F9074614B90120BDE8F4
:101D0000F081606A00B100BF022084F8350000BF96
:101D1000002084F8340000BF2068006820F0010033
:101D2000216808600AE000F09FF9C01B052805D96A
:101D300020206065032084F83500E0E72068006813
:101D400000F001000028EED1206805682148054018
:101D5000D4E901010843E168084321690843616946
:101D60000843A1690843E1690843216A0843054320
:101D7000606A042803D1D4E90B01084305432068B5
:101D800005602068456925F00705606A0543606ABB
:101D900004280DD1A06A0543E06A48B12046FEF749
:101DA00061FE28B140206065012084F83500A6E777
:101DB000206845612046FEF73BFE064694F85C101D
:101DC0003F208840B06000206065012084F8350025
:101DD000002094E73F8010F02DE9F04704460D46BF
:101DE00016461F464FF00008D4F8589000BF94F8EC
:101DF0003400012802D10220BDE8F087012084F8D8
:101E0000340000BF94F83500012825D1022084F861
:101E10003500002060653B46324629462046FEF7E5
:101E200076FE94F85C103F208840C9F808002068CE
:101E3000006840F0160021680860206C28B1206816
:101E4000006840F00800216808602068006840F0E1
:101E500001002168086006E000BF002084F834001B
:101E600000BF4FF002084046C6E70000F8B5024642
:101E70000B460025002400200021D5E0012606FAAB
:101E800001F51E6806EA0504AC4274D11E7906F01D
:101E90000306012E04D01E7906F00306022E13D18C
:101EA00090684F000326BE40B0434F00DE68BE403E
:101EB00030439060506801268E40B0431E79C6F3CF
:101EC00000168E40304350601E7906F00306032E44
:101ED00009D0D0684F000326BE40B0434F009E6833
:101EE000BE403043D0601E7906F00306022E13D1A7
:101EF000CF0802F1200656F827004E07F70E0F26EE
:101F0000BE40B0434F07FF0E1E69BE403043CF08AE
:101F100002F1200646F8270010684F000326BE4055
:101F2000B0431E7906F003064F00BE4030431060F8
:101F30005E6806F44036002E75D000BF002600967D
:101F40003B4E366846F48046394F3E603E46366822
:101F500006F48046009600BF00BF364E8F0856F844
:101F600027008E07370F0F26BE40B043324EB242D5
:101F700002D1002624E056E0304EB24201D10126C3
:101F80001EE02F4EB24201D1022619E02D4EB24280
:101F900001D1032614E02C4EB24201D104260FE0F9
:101FA0002A4EB24201D105260AE0294EB24201D1A1
:101FB000062605E0274EB24201D1072600E008269A
:101FC0008F073F0FBE4030431A4E8F0846F8270058
:101FD000214E3068A0435E6806F4803606B1204387
:101FE0001D4E3060361D3068A0435E6806F4003632
:101FF00006B12043184E361D3060361D3068A043B0
:102000005E6806F4801606B12043134E0836306031
:10201000361D3068A0435E6806F4001606B1204302
:102020000D4E0C363060491C1029FFF427AFF8BD67
:1020300044380240083801400000024000040240D9
:1020400000080240000C0240001002400014024050
:1020500000180240001C0240003C01400AB18161AE
:1020600001E00B048361704701480068704700007D
:102070000400002003480068034909780844014926
:1020800008607047040000200C00002010B50D48C7
:10209000006840F400700B4908600846006840F48E
:1020A000806008600846006840F480700860032083
:1020B00000F0A2F80F2000F007F800F02BF8002045
:1020C00010BD0000003C024070B504460E48007888
:1020D0004FF47A71B1FBF0F00C490968B1FBF0F5EF
:1020E000284600F02BFC08B1012070BD102C07D24F
:1020F00000222146501E00F041F80548046001E02E
:102100000120F2E70020F0E70C0000201000002082
:102110000800002008B500BF002000900E480068AD
:1021200040F480400C4908600846006800F4804094
:10213000009000BF00BF00BF00200090081F006893
:1021400040F08050091F08600846006800F0805089
:10215000009000BF00BF08BD443802400146084659
:10216000002809DB00F01F0301229A4043099B006D
:1021700003F1E023C3F8002100BF70472DE9F05FB1
:1021800080460D461646002702F0B0FD0746394648
:102190002A46334601F00700C0F1070ABAF1040FDE
:1021A00002D94FF0040A01E0C0F1070AD14600F15C
:1021B000040ABAF1070F02D24FF0000A01E0A0F1C1
:1021C000030AD4464FF0010A0AFA09FAAAF1010AF1
:1021D0000AEA020A0AFA0CFA4FF0010B0BFA0CFB9E
:1021E000ABF1010B0BEA030B4AEA0B042146404614
:1021F00002F084FDBDE8F09F00BF00F00702064B2F
:1022000019684FF6FF031940044B0B4343EA0221C0
:10221000014B196000BF70470CED00E00000FA05AB
:1022200070B504460D460CB9012070BD58480068D1
:1022300000F00700A84209D255490D700846006811
:1022400000F00700A84201D00120EEE7207800F05E
:10225000020002281DD1207800F00400042805D1D6
:102260004C48006840F4E0504A490860207800F08B
:102270000800082805D14748006840F460404549F7
:1022800008604448006820F0F000A1680843414914
:102290000860207800F00100A8B36068012807D129
:1022A0003C4808380068C0F34040B8B90120BCE79A
:1022B0006068022802D06068032807D135480838D2
:1022C0000068C0F3406048B90120AEE731480838E3
:1022D0000068C0F3400008B90120A6E72D48006857
:1022E00020F00300616808432A490860FFF7BCFE3C
:1022F000064609E0FFF7B8FE801B41F288318842AC
:1023000002D9032091E707E02248006800F00C00A2
:102310006168B0EB810FEDD11D48006800F0070047
:10232000A84209D91A490D700846006800F0070054
:10233000A84201D0012078E7207800F004000428AA
:1023400007D11448006820F4E050E16808431149BF
:102350000860207800F00800082808D10D480068BF
:1023600020F46040216940EAC1000A49086000F099
:102370003FF808490968C1F30311074A515CC84096
:102380000649086006480068FFF79EFE00204CE7FB
:10239000003C024008380240285C00081000002081
:1023A000080000200148006870470000100000206D
:1023B00000B5FFF7F7FF04490968C1F38221034A1A
:1023C000515CC84000BD000008380240385C00087D
:1023D00000B5FFF7E7FF04490968C1F34231034A3A
:1023E000515CC84000BD000008380240385C00085D
:1023F0002DE9F047002400250026A1462548006865
:1024000000F00C0020B1042805D008283AD105E0DE
:10241000DFF8849039E0DFF8849036E01D48001F33
:10242000006800F03F041B48001F006800F48000B3
:1024300078B11A481749091F0968C1F38811A0FB30
:1024400001700146224600233846FDF71DFF054670
:102450000EE011480F49091F0968C1F38811A0FB5C
:1024600001700146224600233846FDF70DFF054660
:102470000848001F0068C0F30140401C4600B5FB3F
:10248000F6F902E0DFF8109000BF00BF4846BDE853
:10249000F0870000083802400024F400001BB70059
:1024A000F8B504460CB90120F8BD207800F0010011
:1024B000002874D0F948006800F00C0004280DD002
:1024C000F648006800F00C00082813D1F348001FFC
:1024D000006800F48000B0F5800F0BD1EF48083899
:1024E0000068C0F34040002859D06068002856D1E9
:1024F0000120D9E700BF6068B0F5803F08D1E74808
:102500000838006840F48030E449083908601EE06B
:102510006068B0F5A02F0DD1E0480838006840F49D
:102520008020DE49083908600846006840F48030A1
:1025300008600CE0D9480838006820F48030D7499A
:10254000083908600846006820F48020086000BF51
:10255000606890B1FFF788FD054606E0FFF784FD4F
:10256000401B642801D903209EE7CC480838006846
:10257000C0F340400028F1D011E0FFF775FD05469B
:1025800006E0FFF771FD401B642801D903208BE7AB
:10259000C24808380068C0F340400028F1D12078D4
:1025A00000F0020002285FD1BC48006800F00C0077
:1025B00058B1BA48006800F00C0008281CD1B74890
:1025C000001F006800F48000B0B9B4480838006803
:1025D000C0F3400020B1E068012801D0012063E78A
:1025E000AE480838006820F0F800216940EAC100D0
:1025F000AA490839086037E0E06800B30120A8491B
:102600000860FFF731FD054606E0FFF72DFD401B92
:10261000022801D9032047E7A04808380068C0F322
:1026200040000028F1D09D480838006820F0F800EC
:10263000216940EAC10099490839086014E0002086
:1026400097490860FFF710FD054606E0FFF70CFD0F
:10265000401B022801D9032026E79048083800686B
:10266000C0F340000028F1D1207800F008000828CD
:102670002CD16069A8B101208A490860FFF7F4FCF9
:10268000054606E0FFF7F0FC401B022801D90320B5
:102690000AE782486C300068C0F340000028F1D09F
:1026A00014E000207F490860FFF7DEFC054606E0E5
:1026B000FFF7DAFC401B022801D90320F4E6774833
:1026C0006C300068C0F340000028F1D1207800F0A1
:1026D0000400042870D1002770483830006800F0EA
:1026E000805090B900BF002000906C4838300068DE
:1026F00040F080506949383108600846006800F0B1
:102700008050009000BF00BF01276748006800F4B8
:102710008070B0B96448006840F480706249086015
:10272000FFF7A2FC054606E0FFF79EFC401B0228CF
:1027300001D90320B8E65C48006800F480700028E6
:10274000F2D000BFA068012808D154486830006862
:1027500040F001005149683108601DE0A06805287B
:102760000DD14E486830006840F004004B49683194
:1027700008600846006840F0010008600CE0474827
:102780006830006820F0010044496831086008465C
:10279000006820F00400086000BFA068A8B1FFF73F
:1027A00063FC054609E0FFF75FFC401B41F28831FE
:1027B000884202D9032077E626E03848683000686E
:1027C000C0F340000028EED013E0FFF74DFC0546B3
:1027D00008E0FFF749FC401B41F28831884201D9EB
:1027E000032061E62D4868300068C0F340000028EF
:1027F000EFD1012F07D129483830006820F08050F0
:1028000026493831086000BFA069002845D0234818
:10281000006800F00C0008285DD0A069022845D1AE
:1028200000201F490866FFF71FFC054606E0FFF77A
:102830001BFC401B022801D9032035E61748083845
:102840000068C0F340600028F1D1D4E907010843D3
:10285000616A40EA81110122A06AC2EB500041EA9C
:1028600000412C20005D41EA00600C49091F08600E
:1028700001200B490866FFF7F7FB054606E0FFF766
:10288000F3FB401B022801D903200DE6034808385A
:102890000068C0F340600028F1D049E008380240E9
:1028A00000004742800E474200700040002021494E
:1028B0000866FFF7D9FB054606E0FFF7D5FB401B8E
:1028C000022801D90320EFE51B480068C0F34060EF
:1028D0000028F2D12CE0A069012800D1E4E51648D7
:1028E000001D0668A069012820D006F48001E06977
:1028F00081421BD106F03F01206A814216D147F682
:10290000C0703040616AB0EB811F0FD106F44031D6
:102910000122A06AC2EB5000B1EB004F06D106F0D5
:1029200070612C20005DB1EB006F01D00120BBE590
:102930000020B9E5000047420038024070B5044667
:102940002546681EB0F1807F01D301200FE0681E8C
:102950004FF0E02148610F214FF0FF3002F0CEF937
:1029600000204FF0E021886107200861002070BD41
:102970007047704730B502460B4600BF92F83C00E6
:10298000012801D1022030BD012082F83C0000BFA7
:10299000022082F83D00106844681068816824F0C5
:1029A00070041868044310684460184D1068A84209
:1029B0001BD01068B0F1804F17D0154D1068A84299
:1029C00013D0144D1068A8420FD0134D1068A842C0
:1029D0000BD0124D1068A84207D0114D1068A842C4
:1029E00003D0104D1068A84205D121F0800158682D
:1029F000014310688160012082F83D0000BF002083
:102A000082F83C0000BF00BFBDE7000000000140AD
:102A10000004004000080040000C00400004014099
:102A2000004001400018004010B504460CB90120D8
:102A300010BD94F83D0028B9002084F83C002046E1
:102A400000F026F8022084F83D00211D206801F0E6
:102A50003DFC012084F8460000BF84F83E000121BF
:102A60003F200155402001554120015500BF00BFC6
:102A7000012084F84200432001554420015545209F
:102A8000015500BF012084F83D000020D0E7000080
:102A900038B504462068B0F1804F18D100BF00203F
:102AA00000902448006840F0010022490860084670
:102AB000006800F00100009000BF00BF0022114636
:102AC0001C20FFF75BFB1C20FFF748FB30E01A4996
:102AD0002068884218D100BF002000901548006887
:102AE00040F00200134908600846006800F0020048
:102AF000009000BF00BF002211461D20FFF73EFBE3
:102B00001D20FFF72BFB13E00C49206888420FD1F2
:102B100000BF002000900748006840F0040005490D
:102B200008600846006800F00400009000BF00BF85
:102B300038BD00004038024000040040000800405A
:102B4000014691F83D00012801D001207047022084
:102B500081F83D000868C06840F001000B68D8604B
:102B60001A4B086898421BD00868B0F1804F17D004
:102B7000174B0868984213D0164B086898420FD03C
:102B8000154B086898420BD0144B0868984207D040
:102B9000134B0868984203D0124B086898420CD136
:102BA0000868806800F00702062A0CD008680068F0
:102BB00040F001000B68186005E00868006840F00C
:102BC00001000B6818600020C0E700000000014011
:102BD0000004004000080040000C004000040140D8
:102BE00000400140001800402DE9F04104460D4628
:102BF000002700BF94F83C00012802D10220BDE864
:102C0000F081012084F83C0000BF022084F83D00E0
:102C10002068866826F0770626F47F46206886605E
:102C20002868502833D00CDC202850D004DC002841
:102C30004BD0102851D149E0302849D040284CD100
:102C400039E060282DD0702807D0B0F5805F03D020
:102C5000B0F5005F41D10DE041E0D5E902136A68AB
:102C6000206801F0B0FB2068866846F0770620688F
:102C7000866034E0D5E902136A68206801F0A3FB9E
:102C80002068806840F480402168886027E0EA6816
:102C90006968206801F088FC5021206801F09EFBE3
:102CA0001DE0EA686968206801F091FC60212068F5
:102CB00001F094FB13E0EA686968206801F074FC95
:102CC0004021206801F08AFB09E000BF00BF00BF7F
:102CD0002968206801F082FB01E0012700BF00BFE6
:102CE000012084F83D0000BF002084F83C0000BFB4
:102CF000384684E7704710B5044620680069C0F381
:102D00004000D8B12068C068C0F34000B0B16FF097
:102D1000020021680861012020772068806900F0A6
:102D2000030018B12046FFF7E5FF05E0204600F05C
:102D3000DFF8204600F093F9002020772068006932
:102D4000C0F38000D8B12068C068C0F38000B0B183
:102D50006FF00400216808610220207720688069F4
:102D600000F4407018B12046FFF7C4FF05E020468C
:102D700000F0BEF8204600F072F9002020772068AD
:102D80000069C0F3C000D8B12068C068C0F3C000BB
:102D9000B0B16FF008002168086104202077206836
:102DA000C06900F0030018B12046FFF7A3FF05E05B
:102DB000204600F09DF8204600F051F900202077D1
:102DC00020680069C0F30010D8B12068C068C0F363
:102DD0000010B0B16FF01000216808610820207762
:102DE0002068C06900F4407018B12046FFF782FFE8
:102DF00005E0204600F07CF8204600F030F9002085
:102E000020772068006900F0010058B12068C06890
:102E100000F0010030B16FF0010021680861204628
:102E200000F0A4F920680069C0F3C01058B1206810
:102E3000C068C0F3C01030B16FF080002168086135
:102E40002046FFF795FD20680069C0F3801058B157
:102E50002068C068C0F3801030B16FF04000216876
:102E60000861204600F083F920680069C0F3401033
:102E700058B12068C068C0F3401030B16FF0200036
:102E8000216808612046FFF774FD10BD10B586B0BB
:102E90000446142101A8FDF76EFA12492068884201
:102EA0001DD100BF002000900F48006840F00800CE
:102EB0000D4908600846006800F00800009000BF57
:102EC00000BF4FF480400190022002900020039048
:102ED00004900220059001A90448FEF7C7FF06B040
:102EE00010BD00000008004030380240000C0240D5
:102EF00070472DE9F04104460D461646002700BFF5
:102F000094F83C00012802D10220BDE8F0810120A4
:102F100084F83C0000BF36B1042E1BD0082E31D0FF
:102F20000C2E5ED145E02946206801F061FA206848
:102F3000806940F00800216888612068806920F07D
:102F40000400216888612068806929690843216834
:102F5000886148E02946206801F082FA206880698B
:102F600040F40060216888612068806920F48060F6
:102F70002168886120688069296940EA0120216808
:102F8000886130E02946206801F0A8FA2068C0690D
:102F900040F008002168C8612068C06920F0040082
:102FA0002168C8612068C069296908432168C8612F
:102FB00019E02946206801F0CDFA2068C06940F484
:102FC00000602168C8612068C06920F480602168C1
:102FD000C8612068C069296940EA01202168C86188
:102FE00001E0012700BF00BF00BF002084F83C00C3
:102FF00000BF384689E710B504460CB9012010BD62
:1030000094F83D0028B9002084F83C00204600F0E8
:1030100025F8022084F83D00211D206801F056F9B2
:10302000012084F8460000BF84F83E0001213F20C3
:103030000155402001554120015500BF00BF01202E
:1030400084F8420043200155442001554520015594
:1030500000BF012084F83D000020D0E77047704792
:1030600070B504460D4615B994F83E000BE0042DEA
:1030700002D13F20005D06E0082D02D14020005D16
:1030800001E04120005D012801D0012070BD1DB983
:10309000022084F83E000EE0042D03D102213F20DF
:1030A000015508E0082D03D102214020015502E01E
:1030B00002214120015501222946206801F072F9C0
:1030C00023492068884203D022492068884201D1E0
:1030D000012000E0002028B12068406C40F400404E
:1030E000216848641A49206888421BD02068B0F1E2
:1030F000804F17D018492068884213D0174920689C
:1031000088420FD01649206888420BD011492068A8
:10311000884207D013492068884203D012492068AA
:1031200088420CD12068806800F00706062E0CD07B
:103130002068006840F001002168086005E0206810
:10314000006840F001002168086000209EE7000050
:10315000000001400004014000040040000800405D
:10316000000C0040004001400018004070477047CC
:10317000704770B50446002520684069C0F3C0154B
:1031800094F83D00212817D1B5B100BF00BF2168D8
:10319000143151E8001F21F080002168143141E80A
:1031A0000002002AF3D100BF606B10B1606BFEF724
:1031B00012FC204601F0FFFA20684069C0F3801538
:1031C00094F83E00222817D1B5B100BF00BF216896
:1031D000143151E8001F21F040002168143141E80A
:1031E0000002002AF3D100BFA06B10B1A06BFEF764
:1031F000F2FB204601F099FA002070BD70470000F4
:103200002DE9F84F0446206805682068C6682068E4
:1032100047694FF00009CA4605F00F09B9F1000FE0
:103220000AD105F0200038B106F0200020B1204678
:1032300001F0D4FABDE8F88FB9F1000F7CD007F0A7
:10324000010018B906F49070002875D005F001004F
:1032500030B106F4807018B1206C40F00100206499
:1032600005F0040030B107F0010018B1206C40F007
:103270000200206405F0020030B107F0010018B12F
:10328000206C40F00400206405F0080048B106F00E
:10329000200010B907F0010018B1206C40F00800C0
:1032A0002064206C002846D005F0200028B106F0EC
:1032B000200010B1204601F091FA20684069C0F367
:1032C000801A206C00F0080010B9BAF1000F2DD060
:1032D000204601F02AFA2068406900F040004028AA
:1032E00020D100BF00BF2168143151E8001F21F038
:1032F00040002168143141E80002002AF3D100BFE8
:10330000A06B50B17548A16B0865A06BFEF7B9FBC7
:1033100088B1A06B016D88470DE02046FFF76EFF76
:1033200009E009E02046FFF769FF04E02046FFF7C7
:1033300065FF002020647DE7206B012876D105F031
:103340001000002872D006F010000028FAD000BF4C
:10335000002000902068006800902068406800907D
:1033600000BF00BF2068406900F0400040285ED1E7
:10337000A06B006840681FFA80F8B8F1000F54D0C5
:10338000A08D404551DDA4F82E80A06BC069B0F53A
:10339000807F43D000BF00BF21680C3151E8001F7F
:1033A00021F4807021680C3141E80002002AF3D139
:1033B00000BF00BF00BF2168143151E8001F21F099
:1033C00001002168143141E80002002AF3D100BF56
:1033D00000BF00BF2168143151E8001F21F04000F8
:1033E0002168143141E80002002AF3D100BF2020F7
:1033F00084F83E000020206300BF00BF21680C312C
:1034000051E8001F21F0100021680C3141E8000252
:10341000002AF3D100BFA06BFEF7DDFAA08DE28D8C
:10342000801A81B22046FFF7A3FE03E740E0A08D9B
:10343000E18D401A1FFA80F8E08DC0B3B8F1000F9B
:1034400035D000BF00BF21680C3151E8001F21F4C6
:10345000907021680C3141E80002002AF3D100BFCE
:1034600000BF00BF2168143151E8001F21F00100A6
:103470002168143141E80002002AF3D100BF202066
:1034800084F83E000020206300BF00BF21680C319B
:1034900051E8001F21F0100021680C3141E80002C2
:1034A000002AF3D100BF41462046FFF761FEC1E686
:1034B00005F0800030B106F0800018B1204601F020
:1034C00085FBB7E605F0400030B106F0400018B1CA
:1034D000204601F060F9ADE600BFABE6F745000815
:1034E00010B504460CB9012010BDA06900B100E080
:1034F00000BF94F83D0028B9002084F83C00204625
:1035000000F028F8242084F83D002068C06820F4EA
:1035100000502168C860204601F0DCF9206800698D
:1035200020F49040216808612068406920F02A005A
:10353000216848612068C06840F400502168C86074
:1035400000202064202084F83D0084F83E00002004
:10355000CAE7000010B586B00446142101A8FCF7A4
:103560000AFF89492068884277D100BF0020009077
:103570008648006840F010008449086008460068EA
:1035800000F01000009000BF00BF00BF00200090BE
:103590007E481438006840F002007C491439086005
:1035A0000846006800F00200009000BF00BF00BFA6
:1035B000002000900846006840F0010008600846BE
:1035C000006800F00100009000BF00BF8020019063
:1035D0000220029000200390032004900720059011
:1035E00001A96B48FEF742FC4FF4007001900220E5
:1035F000029000200390032004900720059001A969
:103600006448FEF733FC6448644908604FF000608A
:103610004860002161488160C1604FF480610161B0
:103620000021416181614FF48071C161002101621B
:103630004162FEF75BFB08B1FDF780FA00BF574817
:10364000A063846300BF002211462520FEF796FD8B
:103650002520FEF783FD95E0FFE751492068884269
:103660005BD100BF002000904848001F006840F474
:1036700080204649091F08600846006800F4802041
:10368000009000BF00BF00BF002000903F481438EA
:10369000006840F004003D4914390860084600689D
:1036A00000F00400009000BF00BF4FF440600190A4
:1036B0000220029000200390032004900720059030
:1036C00001A93848FEF7D2FB3748384908604FF067
:1036D00000604860002135488160C1604FF480611E
:1036E00001610021416181614FF48071C16100215C
:1036F00001624162FEF7FAFA08B1FDF71FFA00BF56
:103700002A48A063846300BF002211462720FEF7E9
:1037100035FD2720FEF722FD34E025492068884248
:1037200030D100BF002000901848006840F0200011
:10373000164908600846006800F02000009000BFAD
:1037400000BF00BF0020009010481438006840F00F
:1037500040000E49143908600846006800F0400037
:10376000009000BF00BF4FF48440019002200290FF
:1037700000200390032004900820059001A90D4823
:10378000FEF774FB06B010BD001001404438024043
:103790000004024000000240406402402403002074
:1037A00000480040000802402860024084030020D6
:1037B000001401400018024070B504460D4616463C
:1037C00094F83E00202816D105B10EB9012070BD35
:1037D00000BF94F83C00012801D10220F7E7012046
:1037E00084F83C0000BF0020206332462946204672
:1037F00001F086F9EBE70220E9E7704770472DE911
:10380000F84F04460E46174699464FF0000A94F8C2
:103810003D0020285AD106B117B90120BDE8F88F24
:1038200000BF94F83C00012801D10220F6E70120F6
:1038300084F83C0000BF00202064212084F83D0073
:10384000FEF712FC8246A784E784A068B0F5805F8B
:1038500004D1206910B90025B04602E035464FF08A
:10386000000800BF002084F83C0000BF1BE0534666
:10387000002280212046CDF8009001F0D7F908B150
:103880000320CBE745B9B8F80000C0F30800216871
:10389000486008F1020803E02878216848606D1C40
:1038A000E08C401EE084E08C0028E0D153460022EA
:1038B00040212046CDF8009001F0B8F908B103206E
:1038C000ACE7202084F83D000020A7E70220A5E710
:1038D000704700BFFEE7000038B512480068006876
:1038E000C0F30010E8B100BF002000900D48006850
:1038F000006800900B4800684068009000BF00BF5F
:103900000848FFF736FC084800684568C5F116040A
:103910000B2C01D1FDF716F9162204490148FFF7D7
:103920004BFF38BD580200202403002084040020EF
:1039300038B5144800680068C0F3001000B300BF39
:10394000002000900F480068006800900D48006853
:103950004068009000BF00BF0A48FFF70AFC0A4811
:1039600000684568C5F12404122C04D101200749E0
:103970000880FCF7CDFE242205490248FFF71CFF12
:1039800038BD00009C02002084030020A00000201D
:103990006004002030B50346501A00B21880B3F915
:1039A0000000B3F90240001B01EE900AF8EEE11AA4
:1039B00061EE801AB3F9000002EE100AB8EEC22AD6
:1039C00040EE821A022505FB1400B3F9044020449E
:1039D00002EE100AB8EEC22A41EE021AB3F906004E
:1039E00002EE100AB8EEC22A71EE821AFDEEE11A5A
:1039F00011EE900A00B21881B3F90800B0F57A5FB1
:103A000002DB4FF47A501881B3F9080010F57A5FA1
:103A100002DC4CF2801018811889D8805888988070
:103A200018885880B3F9080030BD000008B500BF01
:103A3000002000900B48006800680090094800686A
:103A40004068009000BF00BF06480068C06840F0B2
:103A5000100004490968C860162203490148FFF7AD
:103A6000ABFE08BD580200208404002010B51048A9
:103A7000104908600320486000210E488160C16041
:103A80004FF4802101614FF4E00141610021017692
:103A90000121417600218176C17601210177002143
:103AA0004177FDF71CFC08B1FDF748F810BD000098
:103AB000006400403001002010B511481149086031
:103AC0000320486000210F488160C1604FF48021CD
:103AD00001614FF4E001416100210176012141764D
:103AE00000218176C1760121017700214177FDF720
:103AF000F6FB08B1FDF722F8FCF708FD10BD000049
:103B0000006800405801002008B500BF0020009068
:103B10001648006840F40010144908600846006820
:103B200000F40010009000BF00BF00BF0020009014
:103B30000846006840F4800008600846006800F409
:103B40008000009000BF00BF002211460C20FEF74D
:103B500015FB0C20FEF702FB002211463A20FEF76F
:103B60000DFB3A20FEF7FAFA08BD0000303802409B
:103B700000B587B0142102A8FCF7FDFB00BF0020B0
:103B800001903C48006840F002003A49086008464D
:103B9000006800F00200019000BF00BF00BF0020DD
:103BA00001900846006840F0400008600846006840
:103BB00000F04000019000BF00BF00BF0020019056
:103BC0000846006840F0080008600846006800F0F9
:103BD0000800019000BF00BF00BF00200190084610
:103BE000006840F0040008600846006800F0040027
:103BF000019000BF00BF00BF002001900846006890
:103C000040F4807008600846006800F480700190FD
:103C100000BF00BF00BF002001900846006840F0D0
:103C2000010008600846006800F00100019000BF34
:103C300000BF00BF002001900846006840F08000EF
:103C400008600846006800F08000019000BF00BFD7
:103C5000002280210848FEF701FA8020029001200E
:103C6000039000200490059002A90348FEF7FEF897
:103C700007B000BD303802400020024000B587B0D8
:103C800000200390049005900690019002904FF060
:103C90008040154908605320486000211248816027
:103CA00040F2CF71C160002101618161FEF7BCFE6D
:103CB00008B1FCF743FF4FF48050039003A90A4872
:103CC000FEF792FF08B1FCF739FF00200190029047
:103CD00001A90548FEF74EFE08B1FCF72FFF024888
:103CE000FEF72EFF07B000BD8001002000B587B0B1
:103CF00000200390049005900690019002901648D1
:103D0000164908605320486000211448816041F240
:103D10008731C160002101618161FEF785FE08B134
:103D2000FCF70CFF4FF48050039003A90B48FEF7FB
:103D30005BFF08B1FCF702FF00200190029001A98F
:103D40000648FEF717FE08B1FCF7F8FE0348FEF739
:103D5000F7FE07B000BD000000040040C8010020CD
:103D600000B58DB0002009900A900B900C90079040
:103D700008901C216846FCF7FEFA2148214908609A
:103D80005320486000211F488160F921C160002153
:103D900001618161FEF748FE08B1FCF7CFFE4FF4E8
:103DA0008050099009A91748FEF71EFF08B1FCF7DB
:103DB000C5FE1448FFF71FF908B1FCF7BFFE00204D
:103DC0000790089007A90F48FEF7D4FD08B1FCF74B
:103DD000B5FE60200090002001900290049008221F
:103DE00069460848FFF785F808B1FCF7A7FE0821E7
:103DF0000448FFF735F90348FFF748F80DB000BD58
:103E0000000800401002002010B50C480C49086062
:103E10004FF4E1304860002109488160C1600161D0
:103E20000C21416100218161C161FFF759FB08B19B
:103E3000FCF784FEFFF7FAFD10BD00000010014002
:103E40005802002010B50D480D4908600D48486023
:103E50004FF480510A4881600021C1604FF48061B5
:103E600001610C21416100218161C161FFF738FBD3
:103E700008B1FCF763FE00F059F910BD004800409E
:103E80009C020020A086010010B50B480B49086079
:103E90004FF4E1304860002108488160C160016151
:103EA0000C21416100218161C161FFF719FB08B15B
:103EB000FCF744FE10BD000000140140E0020020A9
:103EC00000BFFEE700BFFEE730B58BB000200790D3
:103ED000089009900A900390049005900690009035
:103EE000019002900025002413E0274800EB840095
:103EF00090ED000ABDEEC00A10EE100A07A941F8C5
:103F0000240007A850F8240003A941F82400601CED
:103F1000C4B2042CE9DB002410E003A810F824004C
:103F20000DF8140003A830F82400C0F30720012185
:103F300001EB44010DF80100601CC4B2042CECDB61
:103F400008216846FCF78CFA05462846E91705EB78
:103F500011610912A5EB0121C9B28DF80810E9170A
:103F600005EB1161090A8DF80910002408E00DEB3A
:103F70000401FF2301220548FFF741FC601CC4B285
:103F80000A2CF4DB0BB030BDF0040020E00200206E
:103F90007047000070B504460D461646701B00B20F
:103FA0002080A0882188084400B2A080B4F90000D5
:103FB0004FF4005241F2883101F07EFB2080B4F9C9
:103FC000000001EE900AF8EEE11A61EE801AB4F9F1
:103FD000040002EE100AB8EEC22A40EE821AB4F9CA
:103FE0000000B4F90210401A02EE100AB8EEC22A1C
:103FF00041EE021AFDEEE11A11EE900A00B2E080E5
:10400000B4F90000B4F90210401A01EE900AF8EE7B
:10401000E11A61EE811AFDEEE11A11EE900A00B28A
:104020001449088020886080B4F9040047F23051B8
:10403000884202DD0846A08007E0B4F904000E497A
:10404000884202DA48F6D020A080B4F9060041F296
:104050008831884202DD0846E08007E0B4F90600B6
:104060000649884202DA4EF67840E080B4F906004C
:1040700070BD000026010020D08AFFFF78ECFFFF12
:1040800030B50346541A24B21C809C881D882C44E9
:1040900024B29C80B3F9004001EE904AF8EEE11A98
:1040A00061EE801AB3F9044002EE104AB8EEC22A5B
:1040B00040EE821AB3F90040B3F90250641B02EEDD
:1040C000104AB8EEC22A41EE021AFDEEE11A11EED4
:1040D000904A24B2DC801C885C80B3F9044047F22B
:1040E0003055AC4202DD2C469C8007E0B3F9044019
:1040F0000D4DAC4202DA48F6D0249C80B3F906405C
:1041000047F23055AC4202DD2C46DC8007E0B3F9C3
:104110000640054DAC4202DA48F6D024DC80DC884B
:10412000644220B230BD0000D08AFFFF08B500BF56
:10413000002000900B480068006800900948006863
:104140004068009000BF00BF06480068C06840F0AB
:10415000100004490968C860242203490148FFF798
:104160002BFB08BD9C02002060040020704710B5A6
:10417000FDF780FF10BD000000B593B0302107A807
:10418000FCF7F9F8142102A8FCF7F5F800BF0020AD
:1041900001902448006840F0805022490860084699
:1041A000006800F08050019000BF00BF00BF0020F9
:1041B00001901D48006840F480401B490860084693
:1041C000006800F48040019000BF00BF012007900C
:1041D0000004089002200D9041050E9106210F91D8
:1041E000A8211091022111910421129107A8FEF734
:1041F00057F908B1FCF7A2FC0F20029002200390AF
:10420000002004904FF4A05005904FF48050069089
:10421000052102A8FEF704F808B1FCF78FFC13B0E3
:1042200000BD0000403802400070004003480068B4
:1042300040F47000014908607047000088ED00E01C
:1042400010B513480088C82809D000F06BFD01F0B4
:1042500007F90F480088401C0D49088014E000232E
:104260001A4619461846FCF7A7F940F20621002025
:10427000FCF710FA40F207210020FCF70BFA40F29D
:1042800005210020FCF75AF90248FEF734FD10BD65
:10429000A00000208001002010B50A480088C8282E
:1042A00002D000F0C5FF09E04FF402710020FCF7D6
:1042B00045F940F209210020FCF7AEF90248FEF76B
:1042C0001AFD10BDA0000020C801002010B5026832
:1042D000294B98420ED0B0F1804F0BD0274B98421B
:1042E00008D0274B984205D0264B984202D0264B47
:1042F000984203D122F070024B681A431E4B984239
:1043000020D0B0F1804F1DD01C4B98421AD01C4BCE
:10431000984217D01B4B984214D01B4B984211D097
:104320001A4B98420ED01A4B98420BD0194B984218
:1043300008D0194B984205D0184B984202D0184B20
:10434000984203D122F44072CB681A4322F08003D2
:104350004C6943EA040202608B68C3620B688362A3
:10436000054B984202D0084B984201D10B69036378
:104370000123436110BD0000000001400004004023
:1043800000080040000C00400004014000400140D3
:10439000004401400048014000180040001C00405B
:1043A0000020004030B501F01F05012404FA05F398
:1043B000046A9C430462046A01F01F0502FA05F5D1
:1043C0002C43046230BD30B50C46816821F47F4136
:1043D00042EA032525432943816030BD0A468168AE
:1043E00021F0700142F0070319438160704700001B
:1043F00030B5056A25F001050562026A43688469E3
:1044000024F0700424F003040D682C4322F002020F
:104410008D682A43104DA84200D103E00F4DA842F9
:1044200006D100BF22F00802CD682A4322F0040220
:10443000094DA84202D0094DA84207D123F4807348
:1044400023F400734D692B438D692B4343608461D2
:104450004D684563026230BD000001400004014028
:1044600030B5056A25F010050562026A4368846963
:1044700024F4E04424F440740D6844EA052422F056
:1044800020028D6842EA0512124DA84200D103E0D5
:10449000114DA84207D100BF22F08002CD6842EA48
:1044A000051222F040020B4DA84202D00A4DA8424C
:1044B00009D123F4806323F400634D6943EA850343
:1044C0008D6943EA8503436084614D6885630262B8
:1044D00030BD0000000001400004014030B5056A15
:1044E00025F480750562026A4368C46924F070048B
:1044F00024F003040D682C4322F400728D6842EA14
:104500000522124DA84200D103E0114DA84207D167
:1045100000BF22F40062CD6842EA052222F48062E4
:104520000A4DA84202D00A4DA84209D123F4805373
:1045300023F400534D6943EA05138D6943EA0513DB
:104540004360C4614D68C563026230BD0000014034
:104550000004014030B5056A25F480550562036A00
:104560004468C26922F4E04222F440720D6842EAD3
:10457000052223F400538D6843EA0533084DA84211
:1045800002D0084DA84204D124F480444D6944EA85
:1045900085144460C2614D680564036230BD00004B
:1045A000000001400004014030B50B461446026A89
:1045B000056A25F001050562816921F0F00141EAF3
:1045C000041122F00A021A438161026230BD30B543
:1045D0000B461446056A25F0100505628169026ADA
:1045E00021F4704141EA043122F0A00242EA0312B0
:1045F0008161026230BD70B50546AC6B0020E0857C
:10460000E0842046FEF7FAFD70BD70B50646002531
:10461000B46B20684069C0F3C01594F83D002128B0
:1046200005D125B10020E084204600F0C4F82068C0
:104630004069C0F3801594F83E00222805D125B1C9
:104640000020E085204600F070F8206C40F010005B
:1046500020642046FEF7D2FD70BD70B50546AC6BF8
:104660002868006800F48070002842D1E08500BF0F
:1046700000BF21680C3151E8001F21F480702168CF
:104680000C3141E80002002AF3D100BF00BF00BF97
:104690002168143151E8001F21F001002168143114
:1046A00041E80002002AF3D100BF00BF00BF21682B
:1046B000143151E8001F21F040002168143141E815
:1046C0000002002AF3D100BF202084F83E00206BB6
:1046D00001280ED100BF00BF21680C3151E8001F36
:1046E00021F0100021680C3141E80002002AF3D1CA
:1046F00000BF206B012804D1A18D2046FEF738FDB4
:1047000002E02046FFF779F870BD70B50546AC6B46
:10471000206B012805D1A08D41082046FEF728FD19
:1047200002E02046FFF76AF870BD00BF00BF0268D4
:104730000C3252E8002F22F4907102680C3242E8E9
:104740000013002BF3D100BF00BF00BF026814327A
:1047500052E8002F22F001010268143242E80013EF
:10476000002BF3D100BF016B01290ED100BF00BFA8
:1047700002680C3252E8002F22F0100102680C325D
:1047800042E80013002BF3D100BF202180F83E1037
:1047900000210163704710B504462068C06820F00E
:1047A00040002168C860202084F83D002046FFF7C3
:1047B0008FF8002010BD00BF00BF02680C3252E825
:1047C000002F22F0C00102680C3242E80013002BD7
:1047D000F3D100BF202180F83D107047F8B50446A2
:1047E00094F83E00222873D1A068B0F5805F0CD108
:1047F000206950B90025A66A20684068C0F3080007
:104800003080A06A801CA06215E0A56A0026A0681E
:10481000B0F5805F03D0A06828B9206918B9206876
:104820004068287004E02068406800F07F0028702D
:10483000A06A401CA062E08D401E80B2E085002886
:1048400044D12068C06820F020002168C86020683A
:10485000C06820F480702168C8602068406920F03A
:10486000010021684861202084F83E00206B012867
:1048700026D10020206300BF00BF21680C3151E821
:10488000001F21F0100021680C3141E80002002ACD
:10489000F3D100BF2068006800F0100010280AD192
:1048A00000BF0020009020680068009020684068E9
:1048B000009000BF00BFA18D2046FEF759FC02E02A
:1048C0002046FEF79AFF0020F8BD01E00020FBE73C
:1048D0000220F9E72DE9F84F04462068006920F42A
:1048E0004050E1680843216808612169A0680843D5
:1048F00061690843E169084300902068C06849F293
:104900000C618843009908432168C86020684069A9
:1049100020F44070A1690843216848617649206805
:10492000884203D075492068884203D1FDF750FDC5
:10493000814602E0FDF73CFD8146E069B0F5004F9D
:104940006CD102206168A0FB015003461920A9FB2D
:10495000007001462A463846FBF796FC6421B0FBFE
:10496000F1F04FEA001A02206168A0FB01510B46EA
:104970001920A9FB00712A463846FBF785FC8346BF
:1049800002206168A0FB015003461920A9FB0071B9
:104990002A463846FBF778FC6421B0FBF1F000EBC7
:1049A000C00101EB0010ABEB8000322101EBC00035
:1049B0006421B0FBF1F000F0F8000AEB400A02209D
:1049C0006168A0FB015003461920A9FB0070014655
:1049D0002A463846FBF758FC834602206168A0FB54
:1049E000015003461920A9FB00712A463846FBF7FF
:1049F0004BFC6421B0FBF1F000EBC00101EB0010B7
:104A0000ABEB8000322101EBC0006421B0FBF1F080
:104A100000F007005044216888606AE00420616863
:104A2000A0FB015003461920A9FB007001462A464D
:104A30003846FBF729FC824604206168A0FB015040
:104A400003461920A9FB007001462A463846FBF7A9
:104A50001BFC6421B0FBF1F000EBC00101EB001086
:104A6000AAEB8000322101EB00106421B0FBF1F0D1
:104A700000F0F00A04206168A0FB017003461920D1
:104A8000A9FB00513A462846FBF7FEFB6421B0FB28
:104A9000F1F00AEB001A04206168A0FB01510B46FB
:104AA0001920A9FB00712A463846FBF7EDFB834627
:104AB00004206168A0FB015003461920A9FB007087
:104AC00001462A463846FBF7DFFB6421B0FBF1F0D4
:104AD00000EBC00101EB0010ABEB8000322101EBD9
:104AE00000106421B0FBF1F000F00F005044216889
:104AF0008860BDE8F88F00000010014000140140FC
:104B000077B581B0044615460298A062A5850020BD
:104B10002064222084F83E002948A16BC8632948FC
:104B2000A16B08642848A16BC8640020A16B0865CC
:104B300002AE32682368191D2B46A06BFDF74CF9B5
:104B400000BF002000902068006800902068406846
:104B5000009000BF00BF00BF002084F83C0000BFF1
:104B600000BF00BF21680C3151E8001F41F4807084
:104B700021680C3141E80002002AF3D100BF00BFD8
:104B800000BF2168143151E8001F41F00100216885
:104B9000143141E80002002AF3D100BF00BF00BF7A
:104BA0002168143151E8001F41F0400021681431A0
:104BB00041E80002002AF3D100BF002004B070BD1C
:104BC0005B4600080B4700080B460008014691F8B9
:104BD0003D00212828D18868B0F5805F0BD1086995
:104BE00048B90A6A1088C0F308000B685860086A60
:104BF000801C086205E00B6A581C086218780B6874
:104C00005860C88C401E80B2C88458B90868C06813
:104C100020F080000B68D8600868C06840F0400051
:104C20000B68D860002070470220FCE72DE9F041B6
:104C300004460D4617469846069E34E0701C88B31D
:104C40002EB1FDF711FAA0EB0800B0422BD900BF3E
:104C500000BF21680C3151E8001F21F4D070216899
:104C60000C3141E80002002AF3D100BF00BF00BFB1
:104C70002168143151E8001F21F00100216814312E
:104C800041E80002002AF3D100BF202084F83D0053
:104C900084F83E0000BF002084F83C0000BF0320E1
:104CA000BDE8F081FFE7206800682840A84201D1F4
:104CB000012000E00020B842C0D00020F0E7000052
:104CC00010B5FEF709FE0248FEF79AFA10BD000083
:104CD0005802002010B5FEF72BFE0248FEF790FAAE
:104CE00010BD00009C02002000BFFEE702480068E3
:104CF000C0F30220704700000CED00E010B5002862
:104D000004DB0A07130E054A135406E00A07140EC3
:104D1000034A00F00F031B1FD45410BD00E400E051
:104D200018ED00E01CB5FB48C07A022832D1F948E2
:104D300000884042F7494988401AF6498988401A54
:104D4000800000B2ADF80000F24800884042F1490E
:104D500049880844EF498988401A800000B2ADF8BC
:104D60000200EC480088EB4949880844E9498988F1
:104D7000401A800000B2ADF80400E6480088E5491A
:104D80004988401AE3498988401A800000B2ADF88A
:104D9000060070E1DF48C07A032876D1DE484088FB
:104DA00080B1C821DD48B0F9000000F02DFCDB49DE
:104DB00008800846008800EB8000400000B2D84917
:104DC000088078E0D448808888B1C821D348B0F9F9
:104DD000000000F019FCD1490880084600884042D4
:104DE00000EB8000400000B2CD49088063E0CA4873
:104DF000C08888B1C821C948B0F9000000F004FC9F
:104E0000C649088008460088404200EB4000400048
:104E100000B2C44908804EE0BF48008980B1C82173
:104E2000BE48B0F9000000F0EFFBBC49088008461E
:104E3000008800EB4000400000B2BA4908803AE028
:104E4000B548C08978B1C821B448B0F9000000F075
:104E5000DBFBB2490880084600884042C00000B22F
:104E6000B149088027E0AC48008A78B1C821AB4836
:104E7000B0F9000000F0C8FBA84908800846008887
:104E8000C00000B2A849088015E043E01421A448FE
:104E9000B0F9000000F0BDFBA14908800A21A1483B
:104EA000B0F9000000F0B5FB9E49088000209E4943
:104EB00008809A4908809B480088404298490988A0
:104EC000401A99490988401A00B2ADF80000954887
:104ED0000088404292490988084493490988401A49
:104EE00000B2ADF802008F4800888D490988084457
:104EF0008D490988401A00B2ADF80400894800883D
:104F000087490988401A88490988401A00B2ADF8D3
:104F10000600B0E07F48C07A0128FAD17E48408878
:104F200080B1C8217D48B0F9000000F06DFB7B49DD
:104F300008800846008800EB8000400000B27849F5
:104F4000088044E07448808888B1C8217348B0F96B
:104F5000000000F059FB7149088008460088404273
:104F600000EB8000400000B26D4908802FE06A48E5
:104F7000C08888B1C8216948B0F9000000F044FB3E
:104F80006649088008460088404200EB4000400027
:104F900000B2644908801AE05F48008980B1C821E6
:104FA0005E48B0F9000000F02FFB5C49088008461D
:104FB000008800EB4000400000B25A49088006E03B
:104FC00000205749088057490880544908805748AD
:104FD000B0F90000C82801DD012000E0002053499D
:104FE000B1F9001011F1C80F01DA012100E0002130
:104FF000084378B19FED4E1ADFED4D0AB7EE000A77
:1050000000224A48B0F900104A48FEF7C3FF46495B
:10501000088002E00020444908804248008840425D
:105020003F490988401A40490988401A00B2ADF842
:1050300000003C48008840423949098808443A4900
:105040000988401A00B2ADF8020036480088344999
:105050000988084434490988401A00B2ADF80400B0
:10506000304800882E490988401A2F490988401A7B
:1050700000B2ADF80600BDF900202F48B0F90210CB
:105080009FED2B1ADFED2D0AB2EE080A2C48FEF731
:1050900081FC2C490880BDF902202B48B0F9021090
:1050A0009FED231ADFED250AB2EE080A2748FEF726
:1050B00071FC24494880BDF904202548B0F902104C
:1050C0009FED1B1ADFED1D0AB2EE080A2148FEF71C
:1050D00061FC1C498880BDF906201F48B0F9021008
:1050E0009FED131ADFED150AB2EE080A1B48FEF712
:1050F00051FC1449C8801048408850B1124840887B
:1051000038B11348408820B11348408808B10120C5
:1051100027E025E09C040020B4040020BC0000200F
:10512000C0000020BE000020C200002014000020AB
:1051300000000000D00000205C0000209A99993FF8
:1051400000050020B4000020640000200A050020B3
:105150006C00002014050020740000201E050020B3
:105160000020B0F57A6F0BDC094CB4F90630B4F9C5
:105170000420B4F90210B4F90000FBF71DFA05E0B1
:1051800000231A4619461846FBF716FA1CBD000004
:10519000B40000200246B1F90000B1F90230C01A93
:1051A00064280FDAB1F90000B1F90230C01A10F129
:1051B000640F07DD08884B88C01A1388184400B2B2
:1051C00010801CE0B1F90000B1F90230C01A10F1F2
:1051D000640F0ADA0888B1F90230C3F500531844A5
:1051E0001388184400B2108009E0B1F90000C0F53E
:1051F00000504B8818441388184400B210809088DF
:10520000401C00B29080B2F9040005280ADB00209F
:105210009080108850800020108008884880B2F963
:105220000200704708884880B2F90200F9E70000E0
:1052300038B53548807A01282FD1012280213348A2
:10524000FCF70CFF3248B0F900000090314890EDB7
:10525000000AB1EE400ABDEEC00A10EE100A02B21A
:105260002D48B0F900302D492D4800F0DDF90446F5
:105270002C48B0F900000090264890ED010ABDEEE0
:10528000C00A10EE100A02B22748B0F900302749D0
:10529000274800F0A1F805462BE01B48807A032838
:1052A00020D1012280211948FCF7D8FE1848B0F916
:1052B000000000901F48B0F900301F4A17491848F5
:1052C00000F0B2F904461748B0F900000090164803
:1052D000B0F900304FF4AF721449154800F07CF873
:1052E000054606E0002280210848FCF7B7FE0024AE
:1052F00000254FF402712046FBF720F940F2092106
:105300002846FBF789F938BD9C04002000200240A4
:1053100018000020A8040020B0000020F0000020A9
:10532000E80000201A0000201600002000010020E4
:10533000F8000020140000200CFEFFFFFCF7A6FE82
:10534000FEF71AFFFEF714FCFEF7DEFBFEF78EFBFE
:10535000FEF7B2FBFEF758FDFEF774FDFEF78EFC7C
:10536000FEF7C4FCFEF790FDFEF7FAFC28E01548B6
:1053700090ED010A144880ED000A1448B0F90000CD
:1053800000EE100AB8EEC00A0F4880ED010A10487E
:10539000B0F9060000EE100AB8EEC00A0A4880ED27
:1053A000020A0C48B0F9000000EB4000400000EE9B
:1053B000100AB8EEC00A044880ED030AFEF784FD27
:1053C000D5E70000A8040020F0040020160000200B
:1053D000F80000201A0000202DE9F04106460C4696
:1053E00017461D46DDF8188017480078401C1649FE
:1053F00008700846007803280FD19FED141ADFEDDE
:10540000130AB0EE000A3A4629463046FEF7C2FDBE
:105410000F49088000200C4908709FED0E1ADFED3F
:105420000E0AB0EE000A0A48B0F9002041462046B4
:10543000FEF726FE0949088008460088A0F5487056
:1054400000B2BDE8F081000025010020000000004E
:105450002C0100209A99993E8FC2F53C2E01002024
:1054600070B55C48B0F90800B0F5967F46DD5A4843
:10547000B0F902109FED591ADFED590AB3EE060A92
:10548000584A5948FEF786FA06465848B0F90210BD
:105490009FED521ADFED520AB3EE060A42F2FC12F9
:1054A0005348FEF777FA04464B48B0F902005149D9
:1054B000884214DA4D48B0F90200494288420EDDB4
:1054C0004D48B0F902109FED451ADFED4C0AB2EEDF
:1054D000080A4B4A4B48FEF75DFA05466AE0464823
:1054E000B0F902109FED3D1ADFED440AB2EE080A52
:1054F00000224448FEF74EFA05465BE03548B0F915
:10550000080010F5967F2BDA3348B0F902109FEDB2
:10551000331ADFED3A0AB2EE080A00223248FEF7EB
:1055200039FA06463148B0F902109FED2C1ADFED2A
:10553000330AB2EE080A00222D48FEF72BFA044681
:105540002D48B0F902109FED251ADFED2C0AB2EEBE
:10555000080A4FF4FA722B48FEF71CFA054629E0B8
:105560001D48B0F902109FED1D1ADFED240AB2EEBE
:10557000080A00221C48FEF70DFA06461B48B0F93F
:1055800002109FED161ADFED1D0AB2EE080A002286
:105590001748FEF7FFF904461748B0F902109FEDCF
:1055A0000F1ADFED160AB2EE080A00221548FEF7C0
:1055B000F1F9054640F206213046FBF76BF840F260
:1055C00007212046FBF766F840F205212846FAF746
:1055D000B5FF70BD9C040020840000200000000086
:1055E0006666E63F04DEFFFF320500208C000020E7
:1055F0003C05002030DFFFFF7C0000209A99993F96
:1056000070FEFFFF28050020884201DA421C10B21C
:105610007047002802DD421A10B203E0002801DAC8
:10562000421810B2704700002DE9F04106460C46C2
:1056300017461D46DDF8188016480078401C1549AD
:10564000087008460078032810D19FED131A1348FC
:10565000D0ED000A9FED120A3A4629463046FEF781
:1056600099FC1049088000200A4908709FED0E1A25
:10567000DFED0E0A9FED0E0A0A48B0F90020414600
:105680002046FEF7FDFC0B4908800846B0F90000F3
:10569000BDE8F08124010020CDCC4C3E1C0100204F
:1056A0009A99993F280100209A99993E0AD7A33CDC
:1056B0006666E63F2A010020884201DD831A18B29F
:1056C0004B42984201DA831818B2704721F0004229
:1056D000A2F16052B2F5801F01F0004328BFD2F161
:1056E0007F6C0BD95FEA001C43EAC20242EB5070A8
:1056F00018BF704728BF20F001007047B2F5801F27
:10570000BCBF184670474FEA410C1CF5001F02D27F
:10571000084600F080BA70B500F024FA0000008955
:10572000FFF7F6BF4FF00040A0F580007047000083
:105730002DE9C04130B4DFF8A0C23CEA111418BF13
:105740003CEA131400F0EC8081EA03051CEA111412
:1057500044EAD57418BF1CEA131500F0C780A4EB07
:1057600005044FF0004545EAC12145EAC32341EA5B
:10577000505143EA525304F17F74994204F50034C6
:105780004FEAC0204FEAC22208BF904200F09C803E
:105790004FEA13650FF24016765D4FEA134506FB9C
:1057A00005F7C7F1807706FB07F74FEAD737A7FB66
:1057B00003687642C8F58038A7FB06CE38BFA8F14B
:1057C000010807FB08E64FF0000EA6FB028CE6FB83
:1057D00003CEDCF1000CCEF1004E38BFAEF1010E6D
:1057E000A6FB0C584FF000074FF00005E6FB0E87B4
:1057F000A1FB08C6A0FB07CE16EB0E0645F100057F
:10580000E1FB076515F1E04E7EBFA4F580345FEA49
:1058100046066D4116F1800745F100054FEA17274E
:105820004FEA066647EA0567A6F1DE46B6F1805FF5
:105830004FEA15251FD9384624F0010C05EBC47139
:10584000BCF1FE6F01EB0C1102D8F0BCBDE8008189
:1058500024425CBF01F5801E9EEAC47F02D4F0BCE6
:10586000BDE80081244238D4F0BCA1F1C041BDE8BC
:10587000004100F0C5B94FEAD22242EA43524FEA52
:10588000D323A7FB02864FEAD02040EA415007FB12
:1058900003661EEA0E0F4FEAD12105FB026658BFD0
:1058A000A6EB0056B6EB00564FEA520E4EEAC37E08
:1058B00018EB0E0E56EB530EBDD518EB02085E41E9
:1058C0007F1C55F10005B6E74FF480154FF0000737
:1058D0004FF000064FF00008ADE7F0BC4FF00000BD
:1058E00001F1C04101F00041BDE8008111EA0C1F47
:1058F0000CEA131500D00CE013EA0C1F00F0258011
:105900004FF00000F0BC81EA030101F00041BDE866
:105910000081F0BCBDE8004181EA030100F070B9EC
:10592000F0BCBDE8004170B500F01CF9097EFC3EFA
:1059300000F007B881EA03014FF0000001F00041D8
:10594000704781EA030100F05BB9F0BCBDE800419B
:105950004FF0000021497047FFFDFBF9F7F5F4F225
:10596000F0EEEDEBE9E8E6E4E3E1E0DEDDDBDAD8FA
:10597000D7D5D4D3D1D0CFCDCCCBCAC8C7C6C5C458
:10598000C2C1C0BFBEBDBCBBBAB9B8B7B6B5B4B36F
:10599000B2B1B0AFAEADACABAAA9A8A8A7A6A5A45A
:1059A000A3A3A2A1A09F9F9E9D9C9C9B9A9999981E
:1059B0009797969595949393929191908F8F8E8EC1
:1059C0008D8C8C8B8B8A898988888787868585844E
:1059D00084838382828181800000FF070000F87F3A
:1059E00010F0004248BF4042B0FA80F310FA03F1D1
:1059F0000AD0C3F11D0303F580634FEA415002EB67
:105A0000035202EBD12170474FF0000070470000B5
:105A1000DFF848C170B51CEA111E1EBF1CEA131541
:105A20009EEA0C0F95EA0C0F00F06F8081EA0304E8
:105A300023EA4C134EEAD47E21EA4C1141F4801142
:105A400043F48013AE44A1FB024CA0FB0365AEF10E
:105A50007F7E361955EB0C05A1FB034C4CF100037E
:105A6000A0FB021C16EB0C06654153F10003094232
:105A700018BF46F0010613F4007F0BD14FEA033143
:105A80004FEA0530340341EA155140EA16506FF0F1
:105A900003020AE04FEAC3214FEAC520F40241EABB
:105AA000555140EA56506FF0020202EB2E4201EBD4
:105AB000025585EACE710AD05FEA440C18BF24F083
:105AC000004450F1000041F1000120EAD47040F29E
:105AD000FE7C624500D270BDA84214BF4FF08044E6
